{"abi":[{"type":"constructor","inputs":[],"stateMutability":"nonpayable"},{"type":"function","name":"closeFees","inputs":[],"outputs":[{"name":"","type":"uint256","internalType":"uint256"}],"stateMutability":"view"},{"type":"function","name":"fundingFeeRate","inputs":[],"outputs":[{"name":"","type":"uint256","internalType":"uint256"}],"stateMutability":"view"},{"type":"function","name":"getFundingFee","inputs":[{"name":"totalSize","type":"uint256","internalType":"uint256"},{"name":"isLong","type":"bool","internalType":"bool"},{"name":"lastFeeAccrued","type":"uint64","internalType":"uint64"}],"outputs":[{"name":"","type":"uint256","internalType":"uint256"}],"stateMutability":"view"},{"type":"function","name":"onClosePositionPrice","inputs":[{"name":"totalSize","type":"uint256","internalType":"uint256"},{"name":"isLong","type":"bool","internalType":"bool"}],"outputs":[{"name":"","type":"uint256","internalType":"uint256"}],"stateMutability":"view"},{"type":"function","name":"onOpenPositionPrice","inputs":[{"name":"totalSize","type":"uint256","internalType":"uint256"},{"name":"isLong","type":"bool","internalType":"bool"}],"outputs":[{"name":"","type":"uint256","internalType":"uint256"}],"stateMutability":"view"},{"type":"function","name":"openFees","inputs":[],"outputs":[{"name":"","type":"uint256","internalType":"uint256"}],"stateMutability":"view"},{"type":"function","name":"owner","inputs":[],"outputs":[{"name":"","type":"address","internalType":"address"}],"stateMutability":"view"},{"type":"function","name":"renounceOwnership","inputs":[],"outputs":[],"stateMutability":"nonpayable"},{"type":"function","name":"setCloseFees","inputs":[{"name":"_closeFees","type":"uint256","internalType":"uint256"}],"outputs":[],"stateMutability":"nonpayable"},{"type":"function","name":"setFundingFeeRate","inputs":[{"name":"_fundingFeeRate","type":"uint256","internalType":"uint256"}],"outputs":[],"stateMutability":"nonpayable"},{"type":"function","name":"setOpenFees","inputs":[{"name":"_openFees","type":"uint256","internalType":"uint256"}],"outputs":[],"stateMutability":"nonpayable"},{"type":"function","name":"transferOwnership","inputs":[{"name":"newOwner","type":"address","internalType":"address"}],"outputs":[],"stateMutability":"nonpayable"},{"type":"event","name":"OwnershipTransferred","inputs":[{"name":"previousOwner","type":"address","indexed":true,"internalType":"address"},{"name":"newOwner","type":"address","indexed":true,"internalType":"address"}],"anonymous":false},{"type":"error","name":"OwnableInvalidOwner","inputs":[{"name":"owner","type":"address","internalType":"address"}]},{"type":"error","name":"OwnableUnauthorizedAccount","inputs":[{"name":"account","type":"address","internalType":"address"}]}],"bytecode":{"object":"0x6080604052600560015560006002556005600355348015601e57600080fd5b503380604457604051631e4fbdf760e01b81526000600482015260240160405180910390fd5b604b816050565b5060a0565b600080546001600160a01b038381166001600160a01b0319831681178455604051919092169283917f8be0079c531659141344cd1fd0a4f28419497f9722a3daafe3b4186f6b6457e09190a35050565b6104b0806100af6000396000f3fe608060405234801561001057600080fd5b50600436106100b45760003560e01c80638da5cb5b116100715780638da5cb5b1461012b57806394ec22d014610146578063d2b28b4814610159578063ecce888214610162578063f2fde38b1461016b578063fae59e1b1461017e57600080fd5b806306ee4261146100b957806308101d29146100df57806370dd99e7146100e8578063715018a6146100fb5780638aea9d92146101055780638d9c8cc914610118575b600080fd5b6100cc6100c736600461035d565b610191565b6040519081526020015b60405180910390f35b6100cc60015481565b6100cc6100f636600461035d565b6101c9565b6101036101ee565b005b610103610113366004610389565b610202565b610103610126366004610389565b61020f565b6000546040516001600160a01b0390911681526020016100d6565b610103610154366004610389565b61021c565b6100cc60025481565b6100cc60035481565b6101036101793660046103a2565b610229565b6100cc61018c3660046103cb565b61026c565b60006002546000036101a5575060006101c3565b612710600254846101b6919061042e565b6101c09190610445565b90505b92915050565b60006001546000036101dd575060006101c3565b612710600154846101b6919061042e565b6101f66102cb565b61020060006102f8565b565b61020a6102cb565b600355565b6102176102cb565b600255565b6102246102cb565b600155565b6102316102cb565b6001600160a01b03811661026057604051631e4fbdf760e01b8152600060048201526024015b60405180910390fd5b610269816102f8565b50565b6000600354600003610280575060006102c4565b600061029667ffffffffffffffff841642610467565b905063337f980081600354876102ac919061042e565b6102b6919061042e565b6102c09190610445565b9150505b9392505050565b6000546001600160a01b031633146102005760405163118cdaa760e01b8152336004820152602401610257565b600080546001600160a01b038381166001600160a01b0319831681178455604051919092169283917f8be0079c531659141344cd1fd0a4f28419497f9722a3daafe3b4186f6b6457e09190a35050565b8035801515811461035857600080fd5b919050565b6000806040838503121561037057600080fd5b8235915061038060208401610348565b90509250929050565b60006020828403121561039b57600080fd5b5035919050565b6000602082840312156103b457600080fd5b81356001600160a01b03811681146102c457600080fd5b6000806000606084860312156103e057600080fd5b833592506103f060208501610348565b9150604084013567ffffffffffffffff8116811461040d57600080fd5b809150509250925092565b634e487b7160e01b600052601160045260246000fd5b80820281158282048414176101c3576101c3610418565b60008261046257634e487b7160e01b600052601260045260246000fd5b500490565b818103818111156101c3576101c361041856fea2646970667358221220b8432ea20e5e94a73a753174496d9ff7d82c0259ab8cfe6e76f0565e9704277b64736f6c634300081a0033","linkReferences":{}},"methodIdentifiers":{"closeFees()":"d2b28b48","fundingFeeRate()":"ecce8882","getFundingFee(uint256,bool,uint64)":"fae59e1b","onClosePositionPrice(uint256,bool)":"06ee4261","onOpenPositionPrice(uint256,bool)":"70dd99e7","openFees()":"08101d29","owner()":"8da5cb5b","renounceOwnership()":"715018a6","setCloseFees(uint256)":"8d9c8cc9","setFundingFeeRate(uint256)":"8aea9d92","setOpenFees(uint256)":"94ec22d0","transferOwnership(address)":"f2fde38b"},"id":66}