{"abi":[{"type":"constructor","inputs":[{"name":"_pm","type":"address","internalType":"address"},{"name":"_optionPricing","type":"address","internalType":"address"},{"name":"_dpFee","type":"address","internalType":"address"},{"name":"_callAsset","type":"address","internalType":"address"},{"name":"_putAsset","type":"address","internalType":"address"},{"name":"_primePool","type":"address","internalType":"address"},{"name":"_verifiedSpotPrice","type":"address","internalType":"address"},{"name":"_START_TIME","type":"uint256","internalType":"uint256"}],"stateMutability":"nonpayable"},{"type":"function","name":"approve","inputs":[{"name":"account","type":"address","internalType":"address"},{"name":"id","type":"uint256","internalType":"uint256"}],"outputs":[],"stateMutability":"payable"},{"type":"function","name":"approvedPools","inputs":[{"name":"","type":"address","internalType":"address"}],"outputs":[{"name":"","type":"bool","internalType":"bool"}],"stateMutability":"view"},{"type":"function","name":"approvedTTLs","inputs":[{"name":"","type":"uint256","internalType":"uint256"}],"outputs":[{"name":"","type":"bool","internalType":"bool"}],"stateMutability":"view"},{"type":"function","name":"balanceOf","inputs":[{"name":"owner","type":"address","internalType":"address"}],"outputs":[{"name":"result","type":"uint256","internalType":"uint256"}],"stateMutability":"view"},{"type":"function","name":"callAsset","inputs":[],"outputs":[{"name":"","type":"address","internalType":"address"}],"stateMutability":"view"},{"type":"function","name":"callAssetDecimals","inputs":[],"outputs":[{"name":"","type":"uint8","internalType":"uint8"}],"stateMutability":"view"},{"type":"function","name":"dpFee","inputs":[],"outputs":[{"name":"","type":"address","internalType":"contract IClammFeeStrategyV2"}],"stateMutability":"view"},{"type":"function","name":"emergencyWithdraw","inputs":[{"name":"token","type":"address","internalType":"address"}],"outputs":[],"stateMutability":"nonpayable"},{"type":"function","name":"exerciseDelegator","inputs":[{"name":"","type":"address","internalType":"address"},{"name":"","type":"address","internalType":"address"}],"outputs":[{"name":"","type":"bool","internalType":"bool"}],"stateMutability":"view"},{"type":"function","name":"feeTo","inputs":[],"outputs":[{"name":"","type":"address","internalType":"address"}],"stateMutability":"view"},{"type":"function","name":"getApproved","inputs":[{"name":"id","type":"uint256","internalType":"uint256"}],"outputs":[{"name":"result","type":"address","internalType":"address"}],"stateMutability":"view"},{"type":"function","name":"getFee","inputs":[{"name":"amount","type":"uint256","internalType":"uint256"},{"name":"premium","type":"uint256","internalType":"uint256"}],"outputs":[{"name":"","type":"uint256","internalType":"uint256"}],"stateMutability":"view"},{"type":"function","name":"getPremiumAmount","inputs":[{"name":"hook","type":"address","internalType":"address"},{"name":"isPut","type":"bool","internalType":"bool"},{"name":"expiry","type":"uint256","internalType":"uint256"},{"name":"ttl","type":"uint256","internalType":"uint256"},{"name":"strike","type":"uint256","internalType":"uint256"},{"name":"lastPrice","type":"uint256","internalType":"uint256"},{"name":"amount","type":"uint256","internalType":"uint256"}],"outputs":[{"name":"","type":"uint256","internalType":"uint256"}],"stateMutability":"view"},{"type":"function","name":"getPricePerCallAssetViaTick","inputs":[{"name":"_pool","type":"address","internalType":"contract IUniswapV3Pool"},{"name":"_tick","type":"int24","internalType":"int24"}],"outputs":[{"name":"","type":"uint256","internalType":"uint256"}],"stateMutability":"view"},{"type":"function","name":"isApprovedForAll","inputs":[{"name":"owner","type":"address","internalType":"address"},{"name":"operator","type":"address","internalType":"address"}],"outputs":[{"name":"result","type":"bool","internalType":"bool"}],"stateMutability":"view"},{"type":"function","name":"mintOption","inputs":[{"name":"_params","type":"tuple","internalType":"struct OptionMarketOTMFE.OptionParams","components":[{"name":"optionTicks","type":"tuple[]","internalType":"struct OptionMarketOTMFE.OptionTicks[]","components":[{"name":"_handler","type":"address","internalType":"contract IHandler"},{"name":"pool","type":"address","internalType":"contract IUniswapV3Pool"},{"name":"hook","type":"address","internalType":"address"},{"name":"tickLower","type":"int24","internalType":"int24"},{"name":"tickUpper","type":"int24","internalType":"int24"},{"name":"liquidityToUse","type":"uint256","internalType":"uint256"}]},{"name":"ttl","type":"uint256","internalType":"uint256"},{"name":"maxCostAllowance","type":"uint256","internalType":"uint256"},{"name":"tickLower","type":"int24","internalType":"int24"},{"name":"tickUpper","type":"int24","internalType":"int24"},{"name":"isCall","type":"bool","internalType":"bool"}]}],"outputs":[],"stateMutability":"nonpayable"},{"type":"function","name":"multicall","inputs":[{"name":"data","type":"bytes[]","internalType":"bytes[]"}],"outputs":[{"name":"results","type":"bytes[]","internalType":"bytes[]"}],"stateMutability":"nonpayable"},{"type":"function","name":"name","inputs":[],"outputs":[{"name":"","type":"string","internalType":"string"}],"stateMutability":"view"},{"type":"function","name":"opData","inputs":[{"name":"","type":"uint256","internalType":"uint256"}],"outputs":[{"name":"opTickArrayLen","type":"uint256","internalType":"uint256"},{"name":"expiry","type":"uint256","internalType":"uint256"},{"name":"tickLower","type":"int24","internalType":"int24"},{"name":"tickUpper","type":"int24","internalType":"int24"},{"name":"isCall","type":"bool","internalType":"bool"}],"stateMutability":"view"},{"type":"function","name":"opTickMap","inputs":[{"name":"","type":"uint256","internalType":"uint256"},{"name":"","type":"uint256","internalType":"uint256"}],"outputs":[{"name":"_handler","type":"address","internalType":"contract IHandler"},{"name":"pool","type":"address","internalType":"contract IUniswapV3Pool"},{"name":"hook","type":"address","internalType":"address"},{"name":"tickLower","type":"int24","internalType":"int24"},{"name":"tickUpper","type":"int24","internalType":"int24"},{"name":"liquidityToUse","type":"uint256","internalType":"uint256"}],"stateMutability":"view"},{"type":"function","name":"optionIds","inputs":[],"outputs":[{"name":"","type":"uint256","internalType":"uint256"}],"stateMutability":"view"},{"type":"function","name":"optionPricing","inputs":[],"outputs":[{"name":"","type":"address","internalType":"contract IOptionPricingV2"}],"stateMutability":"view"},{"type":"function","name":"owner","inputs":[],"outputs":[{"name":"","type":"address","internalType":"address"}],"stateMutability":"view"},{"type":"function","name":"ownerOf","inputs":[{"name":"id","type":"uint256","internalType":"uint256"}],"outputs":[{"name":"result","type":"address","internalType":"address"}],"stateMutability":"view"},{"type":"function","name":"positionManager","inputs":[],"outputs":[{"name":"","type":"address","internalType":"contract IPositionManager"}],"stateMutability":"view"},{"type":"function","name":"positionSplitter","inputs":[{"name":"_params","type":"tuple","internalType":"struct OptionMarketOTMFE.PositionSplitterParams","components":[{"name":"optionId","type":"uint256","internalType":"uint256"},{"name":"to","type":"address","internalType":"address"},{"name":"liquidityToSplit","type":"uint256[]","internalType":"uint256[]"}]}],"outputs":[],"stateMutability":"nonpayable"},{"type":"function","name":"primePool","inputs":[],"outputs":[{"name":"","type":"address","internalType":"contract IUniswapV3Pool"}],"stateMutability":"view"},{"type":"function","name":"putAsset","inputs":[],"outputs":[{"name":"","type":"address","internalType":"address"}],"stateMutability":"view"},{"type":"function","name":"putAssetDecimals","inputs":[],"outputs":[{"name":"","type":"uint8","internalType":"uint8"}],"stateMutability":"view"},{"type":"function","name":"renounceOwnership","inputs":[],"outputs":[],"stateMutability":"nonpayable"},{"type":"function","name":"safeTransferFrom","inputs":[{"name":"from","type":"address","internalType":"address"},{"name":"to","type":"address","internalType":"address"},{"name":"id","type":"uint256","internalType":"uint256"}],"outputs":[],"stateMutability":"payable"},{"type":"function","name":"safeTransferFrom","inputs":[{"name":"from","type":"address","internalType":"address"},{"name":"to","type":"address","internalType":"address"},{"name":"id","type":"uint256","internalType":"uint256"},{"name":"data","type":"bytes","internalType":"bytes"}],"outputs":[],"stateMutability":"payable"},{"type":"function","name":"setApprovalForAll","inputs":[{"name":"operator","type":"address","internalType":"address"},{"name":"isApproved","type":"bool","internalType":"bool"}],"outputs":[],"stateMutability":"nonpayable"},{"type":"function","name":"settleOption","inputs":[{"name":"_params","type":"tuple","internalType":"struct OptionMarketOTMFE.SettleOptionParams","components":[{"name":"optionId","type":"uint256","internalType":"uint256"},{"name":"swapper","type":"address[]","internalType":"contract ISwapper[]"},{"name":"swapData","type":"bytes[]","internalType":"bytes[]"},{"name":"liquidityToSettle","type":"uint256[]","internalType":"uint256[]"}]}],"outputs":[{"name":"ac","type":"tuple","internalType":"struct OptionMarketOTMFE.AssetsCache","components":[{"name":"totalProfit","type":"uint256","internalType":"uint256"},{"name":"totalAssetRelocked","type":"uint256","internalType":"uint256"},{"name":"assetToUse","type":"address","internalType":"contract ERC20"},{"name":"assetToGet","type":"address","internalType":"contract ERC20"},{"name":"isSettle","type":"bool","internalType":"bool"}]}],"stateMutability":"nonpayable"},{"type":"function","name":"settlers","inputs":[{"name":"","type":"address","internalType":"address"}],"outputs":[{"name":"","type":"bool","internalType":"bool"}],"stateMutability":"view"},{"type":"function","name":"supportsInterface","inputs":[{"name":"interfaceId","type":"bytes4","internalType":"bytes4"}],"outputs":[{"name":"result","type":"bool","internalType":"bool"}],"stateMutability":"view"},{"type":"function","name":"symbol","inputs":[],"outputs":[{"name":"","type":"string","internalType":"string"}],"stateMutability":"view"},{"type":"function","name":"tokenURI","inputs":[{"name":"id","type":"uint256","internalType":"uint256"}],"outputs":[{"name":"","type":"string","internalType":"string"}],"stateMutability":"view"},{"type":"function","name":"tokenURIFetcher","inputs":[],"outputs":[{"name":"","type":"address","internalType":"address"}],"stateMutability":"view"},{"type":"function","name":"transferFrom","inputs":[{"name":"from","type":"address","internalType":"address"},{"name":"to","type":"address","internalType":"address"},{"name":"id","type":"uint256","internalType":"uint256"}],"outputs":[],"stateMutability":"payable"},{"type":"function","name":"transferOwnership","inputs":[{"name":"newOwner","type":"address","internalType":"address"}],"outputs":[],"stateMutability":"nonpayable"},{"type":"function","name":"updateExerciseDelegate","inputs":[{"name":"_delegateTo","type":"address","internalType":"address"},{"name":"_status","type":"bool","internalType":"bool"}],"outputs":[],"stateMutability":"nonpayable"},{"type":"function","name":"updatePoolApporvals","inputs":[{"name":"_settler","type":"address","internalType":"address"},{"name":"_statusSettler","type":"bool","internalType":"bool"},{"name":"_pool","type":"address","internalType":"address"},{"name":"_statusPools","type":"bool","internalType":"bool"},{"name":"ttl","type":"uint256","internalType":"uint256"},{"name":"ttlStatus","type":"bool","internalType":"bool"},{"name":"_BUFFER_TIME","type":"uint256","internalType":"uint256"}],"outputs":[],"stateMutability":"nonpayable"},{"type":"function","name":"updatePoolSettings","inputs":[{"name":"_feeTo","type":"address","internalType":"address"},{"name":"_tokenURIFetcher","type":"address","internalType":"address"},{"name":"_dpFee","type":"address","internalType":"address"},{"name":"_optionPricing","type":"address","internalType":"address"},{"name":"_verifiedSpotPrice","type":"address","internalType":"address"}],"outputs":[],"stateMutability":"nonpayable"},{"type":"function","name":"verifiedSpotPrice","inputs":[],"outputs":[{"name":"","type":"address","internalType":"contract IVerifiedSpotPrice"}],"stateMutability":"view"},{"type":"event","name":"Approval","inputs":[{"name":"owner","type":"address","indexed":true,"internalType":"address"},{"name":"account","type":"address","indexed":true,"internalType":"address"},{"name":"id","type":"uint256","indexed":true,"internalType":"uint256"}],"anonymous":false},{"type":"event","name":"ApprovalForAll","inputs":[{"name":"owner","type":"address","indexed":true,"internalType":"address"},{"name":"operator","type":"address","indexed":true,"internalType":"address"},{"name":"isApproved","type":"bool","indexed":false,"internalType":"bool"}],"anonymous":false},{"type":"event","name":"LogMintOption","inputs":[{"name":"_params","type":"tuple","indexed":false,"internalType":"struct OptionMarketOTMFE.OptionParams","components":[{"name":"optionTicks","type":"tuple[]","internalType":"struct OptionMarketOTMFE.OptionTicks[]","components":[{"name":"_handler","type":"address","internalType":"contract IHandler"},{"name":"pool","type":"address","internalType":"contract IUniswapV3Pool"},{"name":"hook","type":"address","internalType":"address"},{"name":"tickLower","type":"int24","internalType":"int24"},{"name":"tickUpper","type":"int24","internalType":"int24"},{"name":"liquidityToUse","type":"uint256","internalType":"uint256"}]},{"name":"ttl","type":"uint256","internalType":"uint256"},{"name":"maxCostAllowance","type":"uint256","internalType":"uint256"},{"name":"tickLower","type":"int24","internalType":"int24"},{"name":"tickUpper","type":"int24","internalType":"int24"},{"name":"isCall","type":"bool","internalType":"bool"}]},{"name":"optionId","type":"uint256","indexed":false,"internalType":"uint256"},{"name":"premiumAmount","type":"uint256","indexed":false,"internalType":"uint256"},{"name":"size","type":"uint256","indexed":false,"internalType":"uint256"},{"name":"protocolFees","type":"uint256","indexed":false,"internalType":"uint256"}],"anonymous":false},{"type":"event","name":"LogOptionsMarketInitialized","inputs":[{"name":"primePool","type":"address","indexed":false,"internalType":"address"},{"name":"optionPricing","type":"address","indexed":false,"internalType":"address"},{"name":"dpFee","type":"address","indexed":false,"internalType":"address"},{"name":"callAsset","type":"address","indexed":false,"internalType":"address"},{"name":"putAsset","type":"address","indexed":false,"internalType":"address"}],"anonymous":false},{"type":"event","name":"LogSettleOption","inputs":[{"name":"assetsCache","type":"tuple","indexed":false,"internalType":"struct OptionMarketOTMFE.AssetsCache","components":[{"name":"totalProfit","type":"uint256","internalType":"uint256"},{"name":"totalAssetRelocked","type":"uint256","internalType":"uint256"},{"name":"assetToUse","type":"address","internalType":"contract ERC20"},{"name":"assetToGet","type":"address","internalType":"contract ERC20"},{"name":"isSettle","type":"bool","internalType":"bool"}]},{"name":"liquiditySettled","type":"uint256[]","indexed":false,"internalType":"uint256[]"},{"name":"owner","type":"address","indexed":false,"internalType":"address"},{"name":"optionId","type":"uint256","indexed":false,"internalType":"uint256"}],"anonymous":false},{"type":"event","name":"LogSplitOption","inputs":[{"name":"params","type":"tuple","indexed":false,"internalType":"struct OptionMarketOTMFE.PositionSplitterParams","components":[{"name":"optionId","type":"uint256","internalType":"uint256"},{"name":"to","type":"address","internalType":"address"},{"name":"liquidityToSplit","type":"uint256[]","internalType":"uint256[]"}]},{"name":"newOptionId","type":"uint256","indexed":false,"internalType":"uint256"},{"name":"oldOwner","type":"address","indexed":false,"internalType":"address"}],"anonymous":false},{"type":"event","name":"LogUpdateExerciseDelegate","inputs":[{"name":"owner","type":"address","indexed":false,"internalType":"address"},{"name":"delegate","type":"address","indexed":false,"internalType":"address"},{"name":"status","type":"bool","indexed":false,"internalType":"bool"}],"anonymous":false},{"type":"event","name":"LogUpdatePoolApprovals","inputs":[{"name":"settler","type":"address","indexed":false,"internalType":"address"},{"name":"statusSettler","type":"bool","indexed":false,"internalType":"bool"},{"name":"pool","type":"address","indexed":false,"internalType":"address"},{"name":"statusPools","type":"bool","indexed":false,"internalType":"bool"},{"name":"ttl","type":"uint256","indexed":false,"internalType":"uint256"},{"name":"ttlStatus","type":"bool","indexed":false,"internalType":"bool"},{"name":"bufferTime","type":"uint256","indexed":false,"internalType":"uint256"}],"anonymous":false},{"type":"event","name":"LogUpdatePoolSettings","inputs":[{"name":"feeTo","type":"address","indexed":false,"internalType":"address"},{"name":"tokenURIFetcher","type":"address","indexed":false,"internalType":"address"},{"name":"dpFee","type":"address","indexed":false,"internalType":"address"},{"name":"optionPricing","type":"address","indexed":false,"internalType":"address"}],"anonymous":false},{"type":"event","name":"OwnershipTransferred","inputs":[{"name":"previousOwner","type":"address","indexed":true,"internalType":"address"},{"name":"newOwner","type":"address","indexed":true,"internalType":"address"}],"anonymous":false},{"type":"event","name":"Transfer","inputs":[{"name":"from","type":"address","indexed":true,"internalType":"address"},{"name":"to","type":"address","indexed":true,"internalType":"address"},{"name":"id","type":"uint256","indexed":true,"internalType":"uint256"}],"anonymous":false},{"type":"error","name":"AccountBalanceOverflow","inputs":[]},{"type":"error","name":"AddressEmptyCode","inputs":[{"name":"target","type":"address","internalType":"address"}]},{"type":"error","name":"ArrayLenMismatch","inputs":[]},{"type":"error","name":"BalanceQueryForZeroAddress","inputs":[]},{"type":"error","name":"Expired","inputs":[]},{"type":"error","name":"FailedInnerCall","inputs":[]},{"type":"error","name":"IVNotSet","inputs":[]},{"type":"error","name":"InBUFFER_TIME","inputs":[]},{"type":"error","name":"InvalidPool","inputs":[]},{"type":"error","name":"MaxCostAllowanceExceeded","inputs":[]},{"type":"error","name":"MaxOptionBuyReached","inputs":[]},{"type":"error","name":"NotApprovedSettler","inputs":[]},{"type":"error","name":"NotApprovedTTL","inputs":[]},{"type":"error","name":"NotEnoughAfterSwap","inputs":[]},{"type":"error","name":"NotIVSetter","inputs":[]},{"type":"error","name":"NotOwnerNorApproved","inputs":[]},{"type":"error","name":"NotOwnerOrDelegator","inputs":[]},{"type":"error","name":"NotValidStrikeTick","inputs":[]},{"type":"error","name":"OwnableInvalidOwner","inputs":[{"name":"owner","type":"address","internalType":"address"}]},{"type":"error","name":"OwnableUnauthorizedAccount","inputs":[{"name":"account","type":"address","internalType":"address"}]},{"type":"error","name":"PoolNotApproved","inputs":[]},{"type":"error","name":"ReentrancyGuardReentrantCall","inputs":[]},{"type":"error","name":"T","inputs":[]},{"type":"error","name":"TokenAlreadyExists","inputs":[]},{"type":"error","name":"TokenDoesNotExist","inputs":[]},{"type":"error","name":"TransferFromIncorrectOwner","inputs":[]},{"type":"error","name":"TransferToNonERC721ReceiverImplementer","inputs":[]},{"type":"error","name":"TransferToZeroAddress","inputs":[]}],"bytecode":{"object":"0x61014060405261025860045534801561001757600080fd5b50604051615d45380380615d4583398101604081905261003691610498565b6001600055338061006157604051631e4fbdf760e01b81526000600482015260240160405180910390fd5b61006a8161042a565b506001600160a01b0388811660805285811660c081905285821660e052600580546001600160a01b03199081168a8516179091556006805482168b851617905585831660a08190526007805490921693861693909317905560408051630dfe168160e01b81529051919291630dfe1681916004808201926020929091908290030181865afa158015610100573d6000803e3d6000fd5b505050506040513d601f19601f820116820180604052508101906101249190610528565b6001600160a01b0316141580156101b05750846001600160a01b031660a0516001600160a01b031663d21220a76040518163ffffffff1660e01b8152600401602060405180830381865afa158015610180573d6000803e3d6000fd5b505050506040513d601f19601f820116820180604052508101906101a49190610528565b6001600160a01b031614155b156101cd5760405162820f3560e61b815260040160405180910390fd5b836001600160a01b031660a0516001600160a01b0316630dfe16816040518163ffffffff1660e01b8152600401602060405180830381865afa158015610217573d6000803e3d6000fd5b505050506040513d601f19601f8201168201806040525081019061023b9190610528565b6001600160a01b0316141580156102c75750836001600160a01b031660a0516001600160a01b031663d21220a76040518163ffffffff1660e01b8152600401602060405180830381865afa158015610297573d6000803e3d6000fd5b505050506040513d601f19601f820116820180604052508101906102bb9190610528565b6001600160a01b031614155b156102e45760405162820f3560e61b815260040160405180910390fd5b846001600160a01b031663313ce5676040518163ffffffff1660e01b8152600401602060405180830381865afa158015610322573d6000803e3d6000fd5b505050506040513d601f19601f82011682018060405250810190610346919061054a565b60ff166101008160ff1681525050836001600160a01b031663313ce5676040518163ffffffff1660e01b8152600401602060405180830381865afa158015610392573d6000803e3d6000fd5b505050506040513d601f19601f820116820180604052508101906103b6919061054a565b60ff16610120526003819055604080516001600160a01b03858116825289811660208301528881168284015287811660608301528616608082015290517ff432a680e02fd7036a5fd19b4cc769273e33297dfb07a00278dd8f5bfa3fb67d9181900360a00190a1505050505050505061056d565b600180546001600160a01b038381166001600160a01b0319831681179093556040519116919082907f8be0079c531659141344cd1fd0a4f28419497f9722a3daafe3b4186f6b6457e090600090a35050565b80516001600160a01b038116811461049357600080fd5b919050565b600080600080600080600080610100898b0312156104b557600080fd5b6104be8961047c565b97506104cc60208a0161047c565b96506104da60408a0161047c565b95506104e860608a0161047c565b94506104f660808a0161047c565b935061050460a08a0161047c565b925061051260c08a0161047c565b915060e089015190509295985092959890939650565b60006020828403121561053a57600080fd5b6105438261047c565b9392505050565b60006020828403121561055c57600080fd5b815160ff8116811461054357600080fd5b60805160a05160c05160e05161010051610120516156786106cd600039600081816103b70152818161327f01526140440152600081816104f6015281816131d70152818161401401528181614125015281816142430152818161427d0152818161437d01526143b10152600081816108b101528181610c1401528181610cb2015281816117fb01528181611978015281816119fd0152612b630152600081816105d001528181610ade01528181610b5f015281816118b60152818161199e015281816119d701528181612b89015281816131b501528181614209015261434301526000818161047401528181611825015281816118e0015281816130e3015261319301526000818161067901528181611b7e01528181611c53015281816120b00152818161218d01528181612223015281816123f201528181612488015281816126c201528181612eb20152818161344801526135cc01526156786000f3fe6080604052600436106102725760003560e01c8063791b98bc1161014f578063c70a900f116100c1578063dd2e71d01161007a578063dd2e71d014610933578063e985e9c514610953578063eb22eccb14610989578063ed2b0b8a146109a9578063f0bbcec4146109c9578063f2fde38b146109f957600080fd5b8063c70a900f1461084f578063c87b56dd1461087f578063c8de6e831461089f578063cf5c1a2c146108d3578063d250185c146108f3578063d302f2b81461091357600080fd5b80639d98f412116101135780639d98f4121461073e578063a22cb4651461075e578063a2b15e4c1461077e578063aad2402a146107e2578063ac9650d81461080f578063b88d4fde1461083c57600080fd5b8063791b98bc146106675780638da5cb5b1461069b57806391457d78146106b957806395d89b41146106e9578063997bdef31461071e57600080fd5b8063271ab517116101e8578063600b584b116101ac578063600b584b1461059e57806361f812a4146105be5780636352211e146105f25780636ff1c9bc1461061257806370a0823114610632578063715018a61461065257600080fd5b8063271ab517146104625780633b2b46031461049657806342842e0e146104d157806350373276146104e45780635673a2211461051857600080fd5b8063095ea7b31161023a578063095ea7b3146103905780630d51249b146103a557806314f46499146103eb5780631508b8e21461040b5780631e3394fb1461042f57806323b872dd1461044f57600080fd5b8063017e7e581461027757806301ffc9a7146102b457806306fdde031461030157806307d88aad14610350578063081812fc14610370575b600080fd5b34801561028357600080fd5b50600854610297906001600160a01b031681565b6040516001600160a01b0390911681526020015b60405180910390f35b3480156102c057600080fd5b506102f16102cf3660046145e4565b6301ffc9a760e09190911c9081146380ac58cd821417635b5e139f9091141790565b60405190151581526020016102ab565b34801561030d57600080fd5b5060408051808201909152601f81527f4d617267696e5a65726f204f7074696f6e204d61726b6574204f544d2046450060208201525b6040516102ab919061465e565b34801561035c57600080fd5b50600954610297906001600160a01b031681565b34801561037c57600080fd5b5061029761038b366004614671565b610a19565b6103a361039e36600461469f565b610a58565b005b3480156103b157600080fd5b506103d97f000000000000000000000000000000000000000000000000000000000000000081565b60405160ff90911681526020016102ab565b3480156103f757600080fd5b506103a36104063660046146e4565b610a67565b34801561041757600080fd5b5061042160025481565b6040519081526020016102ab565b34801561043b57600080fd5b50600654610297906001600160a01b031681565b6103a361045d366004614769565b610dd8565b34801561046e57600080fd5b506102977f000000000000000000000000000000000000000000000000000000000000000081565b3480156104a257600080fd5b506102f16104b13660046147aa565b600c60209081526000928352604080842090915290825290205460ff1681565b6103a36104df366004614769565b610eef565b3480156104f057600080fd5b506103d97f000000000000000000000000000000000000000000000000000000000000000081565b34801561052457600080fd5b5061056d610533366004614671565b600a602052600090815260409020805460018201546002928301549192909180820b9163010000008204900b90600160301b900460ff1685565b604080519586526020860194909452600292830b93850193909352900b60608301521515608082015260a0016102ab565b3480156105aa57600080fd5b506103a36105b93660046147e3565b610f1c565b3480156105ca57600080fd5b506102977f000000000000000000000000000000000000000000000000000000000000000081565b3480156105fe57600080fd5b5061029761060d366004614671565b610f92565b34801561061e57600080fd5b506103a361062d366004614811565b610fd0565b34801561063e57600080fd5b5061042161064d366004614811565b6110aa565b34801561065e57600080fd5b506103a36110e5565b34801561067357600080fd5b506102977f000000000000000000000000000000000000000000000000000000000000000081565b3480156106a757600080fd5b506001546001600160a01b0316610297565b3480156106c557600080fd5b506102f16106d4366004614671565b600f6020526000908152604090205460ff1681565b3480156106f557600080fd5b5060408051808201909152600c81526b4d5a2d4f4d2d4f544d2d464560a01b6020820152610343565b34801561072a57600080fd5b506103a361073936600461482e565b6110f9565b34801561074a57600080fd5b506103a361075936600461489f565b6111ae565b34801561076a57600080fd5b506103a36107793660046147e3565b6115aa565b34801561078a57600080fd5b5061079e6107993660046148d9565b611600565b604080516001600160a01b03978816815295871660208701529390951692840192909252600290810b60608401520b608082015260a081019190915260c0016102ab565b3480156107ee57600080fd5b506108026107fd3660046148fb565b61166d565b6040516102ab9190614975565b34801561081b57600080fd5b5061082f61082a366004614983565b61284c565b6040516102ab91906149f8565b6103a361084a366004614a5d565b612934565b34801561085b57600080fd5b506102f161086a366004614811565b600e6020526000908152604090205460ff1681565b34801561088b57600080fd5b5061034361089a366004614671565b61298f565b3480156108ab57600080fd5b506102977f000000000000000000000000000000000000000000000000000000000000000081565b3480156108df57600080fd5b506103a36108ee366004614afc565b612a01565b3480156108ff57600080fd5b5061042161090e3660046148d9565b613794565b34801561091f57600080fd5b50600554610297906001600160a01b031681565b34801561093f57600080fd5b5061042161094e366004614b36565b613816565b34801561095f57600080fd5b506102f161096e3660046147aa565b601c52670a5a2e7a000000006008526000526030600c205490565b34801561099557600080fd5b506104216109a4366004614baa565b613835565b3480156109b557600080fd5b50600754610297906001600160a01b031681565b3480156109d557600080fd5b506102f16109e4366004614811565b600d6020526000908152604090205460ff1681565b348015610a0557600080fd5b506103a3610a14366004614811565b613855565b600081600052673ec412a9852d173d60c11b601c52602060002082018201805460601b610a4e5763ceea21b66000526004601cfd5b6001015492915050565b610a63338383613895565b5050565b610a6f613936565b6001600160a01b038781166000908152600e60209081526040808320805460ff199081168c151517909155898516808552600d8452828520805483168b1515179055888552600f845293829020805490911687151517905560048581558151630dfe168160e01b815291518a957f0000000000000000000000000000000000000000000000000000000000000000169493630dfe16819380840193919291908290030181865afa158015610b27573d6000803e3d6000fd5b505050506040513d601f19601f82011682018060405250810190610b4b9190614bdf565b6001600160a01b031614158015610bf557507f00000000000000000000000000000000000000000000000000000000000000006001600160a01b0316816001600160a01b031663d21220a76040518163ffffffff1660e01b8152600401602060405180830381865afa158015610bc5573d6000803e3d6000fd5b505050506040513d601f19601f82011682018060405250810190610be99190614bdf565b6001600160a01b031614155b15610c125760405162820f3560e61b815260040160405180910390fd5b7f00000000000000000000000000000000000000000000000000000000000000006001600160a01b0316816001600160a01b0316630dfe16816040518163ffffffff1660e01b8152600401602060405180830381865afa158015610c7a573d6000803e3d6000fd5b505050506040513d601f19601f82011682018060405250810190610c9e9190614bdf565b6001600160a01b031614158015610d4857507f00000000000000000000000000000000000000000000000000000000000000006001600160a01b0316816001600160a01b031663d21220a76040518163ffffffff1660e01b8152600401602060405180830381865afa158015610d18573d6000803e3d6000fd5b505050506040513d601f19601f82011682018060405250810190610d3c9190614bdf565b6001600160a01b031614155b15610d655760405162820f3560e61b815260040160405180910390fd5b604080516001600160a01b038a81168252891515602083015288168183015286151560608201526080810186905284151560a082015260c0810184905290517fcdc112930f00a39a65ef97c74cbf1bb21f8cd84fb9b769f12e4c5a48a942d2769181900360e00190a15050505050505050565b6000818152673ec412a9852d173d60c11b3317601c52602090208101810180546001600160a01b039485169493841693811691908286148302610e365782610e285763ceea21b66000526004601cfd5b63a11481006000526004601cfd5b84610e495763ea553b346000526004601cfd5b856000528160010154925082331486331417610e77576030600c2054610e7757634b6e7f186000526004601cfd5b8215610e8557600082600101555b85851818905550601c600c8181208054600019019055600084905220805460010163ffffffff8116610ebf576301336cea6000526004601cfd5b90558082847fddf252ad1be2c89b69c2b068fc378daa952ba7f163c4a11628f55a4df523b3ef600038a45b505050565b610efa838383610dd8565b813b15610eea57610eea83838360405180602001604052806000815250613963565b336000818152600c602090815260408083206001600160a01b03871680855290835292819020805460ff1916861515908117909155815194855291840192909252908201527f4ee86bb98ad0d189c6475dd48829e8525e468f3721ab971f0c0914e6693c8da69060600160405180910390a15050565b6000818152673ec412a9852d173d60c11b601c526020902081018101546001600160a01b031680610fcb5763ceea21b66000526004601cfd5b919050565b610fd8613936565b6040516370a0823160e01b81523060048201526001600160a01b0382169063a9059cbb90339083906370a0823190602401602060405180830381865afa158015611026573d6000803e3d6000fd5b505050506040513d601f19601f8201168201806040525081019061104a9190614bfc565b6040518363ffffffff1660e01b8152600401611067929190614c15565b6020604051808303816000875af1158015611086573d6000803e3d6000fd5b505050506040513d601f19601f82011682018060405250810190610a639190614c2e565b6000816110bf57638f4eb6046000526004601cfd5b673ec412a9852d173d60c11b601c528160005263ffffffff601c600c2054169050919050565b6110ed613936565b6110f760006139ef565b565b611101613936565b600880546001600160a01b038781166001600160a01b0319928316811790935560098054888316908416811790915560058054888416908516811790915560068054888516908616811790915560078054948816949095169390931790935560408051948552602085019190915283019190915260608201527f2a38eeb7b477d2d02f8c59437e9493ed71a5c5a1d426dfd40446830348acf8909060800160405180910390a15050505050565b6111b6613a41565b6001600260008282546111c99190614c61565b909155503390506111da8235610f92565b6001600160a01b03161461120457604051600162486bc960e11b0319815260040160405180910390fd5b80356000908152600a6020908152604091829020825160a0810184528154815260018201549281019290925260029081015480820b838501526301000000810490910b6060830152600160301b900460ff16151560808201529061126a90830183614c74565b825114905061128c57604051630dcb503560e11b815260040160405180910390fd5b42816020015110156112b157604051630407b05b60e31b815260040160405180910390fd5b60005b6112c16040840184614c74565b905081101561147f5782356000908152600b602052604081208054839081106112ec576112ec614cc4565b9060005260206000209060040201905083806040019061130c9190614c74565b8381811061131c5761131c614cc4565b905060200201358160030160008282546113369190614cda565b9091555050600280546000908152600b6020908152604091829020825160c08101845285546001600160a01b03908116825260018701548116938201939093528585015492831681850152600160a01b8304850b6060820152600160b81b90920490930b60808201529060a08201906113b190880188614c74565b868181106113c1576113c1614cc4565b60209081029290920135909252835460018082018655600095865294829020845160049092020180546001600160a01b03199081166001600160a01b0393841617825592850151818701805490941690831617909255604084015160028301805460608701516080880151939094166001600160b81b031990911617600160a01b62ffffff948516021762ffffff60b81b1916600160b81b939092169290920217905560a090920151600390920191909155509190910190506112b4565b506040518060a0016040528083806040019061149b9190614c74565b82525060208381015181830152604080850151600290810b82850152606080870151820b8186015260808088015115159581019590955281546000908152600a85528390208651815586850151600182015586840151920180549187015196909501511515600160301b0266ff0000000000001962ffffff97881663010000000265ffffffffffff1990931697909316969096171716939093179091556115539161154b91908501908501614811565b600254613a6b565b7f44b72a7e3474ccca11170d15b3e7a2f31bc170284829bdec3e017198cfff6d5f826002546115858560000135610f92565b60405161159493929190614d1f565b60405180910390a1506115a76001600055565b50565b801515905081601c52670a5a2e7a0000000060085233600052806030600c2055806000528160601b60601c337f17307eab39ab6107e8899845ad3d59bd9653f200f220920489ca2b5937696c3160206000a35050565b600b602052816000526040600020818154811061161c57600080fd5b60009182526020909120600490910201805460018201546002808401546003909401546001600160a01b039384169650918316945091831692600160a01b8104830b92600160b81b909104900b9086565b6040805160a0810182526000808252602082018190529181018290526060810182905260808101919091526116a0613a41565b81356000908152600a6020908152604091829020825160a0810184528154815260018201549281019290925260029081015480820b9383019390935263010000008304900b606080830191909152600160301b90920460ff16151560808201529061170d90840184614c74565b825114905061172f57604051630dcb503560e11b815260040160405180910390fd5b806020015142106117765760016080830152336000908152600e602052604090205460ff1661177157604051630184bf0960e01b815260040160405180910390fd5b6117ee565b336117818435610f92565b6001600160a01b0316141580156117cd5750600c60006117a18535610f92565b6001600160a01b031681526020808201929092526040908101600090812033825290925290205460ff16155b156117ee57604051600162486bc960e11b0319815260040160405180910390fd5b600081608001516118b4577f00000000000000000000000000000000000000000000000000000000000000006001600160a01b03167f00000000000000000000000000000000000000000000000000000000000000006001600160a01b0316630dfe16816040518163ffffffff1660e01b8152600401602060405180830381865afa158015611881573d6000803e3d6000fd5b505050506040513d601f19601f820116820180604052508101906118a59190614bdf565b6001600160a01b03161461196b565b7f00000000000000000000000000000000000000000000000000000000000000006001600160a01b03167f00000000000000000000000000000000000000000000000000000000000000006001600160a01b0316630dfe16816040518163ffffffff1660e01b8152600401602060405180830381865afa15801561193c573d6000803e3d6000fd5b505050506040513d601f19601f820116820180604052508101906119609190614bdf565b6001600160a01b0316145b9050816080015161199c577f00000000000000000000000000000000000000000000000000000000000000006119be565b7f00000000000000000000000000000000000000000000000000000000000000005b6001600160a01b0316604084015260808201516119fb577f0000000000000000000000000000000000000000000000000000000000000000611a1d565b7f00000000000000000000000000000000000000000000000000000000000000005b6001600160a01b0316606084015260005b82518110156127eb57611a446060860186614c74565b82818110611a5457611a54614cc4565b90506020020135600003156127e35784356000908152600b60205260408120805483908110611a8557611a85614cc4565b6000918252602082206004909102019150611aa36060880188614c74565b84818110611ab357611ab3614cc4565b905060200201359050600080611b1a611ae28560010160009054906101000a90046001600160a01b0316613a85565b600280870154611afb91600160a01b909104900b613b20565b600280880154611b1491600160b81b909104900b613b20565b86613e43565b91509150600082118015611b2c575080155b80611b405750600081118015611b40575081155b1561216057858015611b525750600082115b8015611b645750608088015115156001145b15611c195787604001516001600160a01b031663095ea7b37f0000000000000000000000000000000000000000000000000000000000000000846040518363ffffffff1660e01b8152600401611bbb929190614c15565b6020604051808303816000875af1158015611bda573d6000803e3d6000fd5b505050506040513d601f19601f82011682018060405250810190611bfe9190614c2e565b508188602001818151611c119190614c61565b905250612625565b85158015611c275750600081115b8015611c395750608088015115156001145b15611ce65787604001516001600160a01b031663095ea7b37f0000000000000000000000000000000000000000000000000000000000000000836040518363ffffffff1660e01b8152600401611c90929190614c15565b6020604051808303816000875af1158015611caf573d6000803e3d6000fd5b505050506040513d601f19601f82011682018060405250810190611cd39190614c2e565b508088602001818151611c119190614c61565b600086611d2d57600280860154611d2891611d0991600160a01b9004900b613b20565b600280880154611d2291600160b81b909104900b613b20565b86613edf565b611d68565b600280860154611d6891611d4991600160a01b9004900b613b20565b600280880154611d6291600160b81b909104900b613b20565b86613f22565b90508089602001818151611d7c9190614c61565b90525060608901516040516370a0823160e01b81523060048201526000916001600160a01b0316906370a0823190602401602060405180830381865afa158015611dca573d6000803e3d6000fd5b505050506040513d601f19601f82011682018060405250810190611dee9190614bfc565b60408b01519091506001600160a01b031663a9059cbb611e1160208e018e614c74565b8a818110611e2157611e21614cc4565b9050602002016020810190611e369190614811565b846040518363ffffffff1660e01b8152600401611e54929190614c15565b6020604051808303816000875af1158015611e73573d6000803e3d6000fd5b505050506040513d601f19601f82011682018060405250810190611e979190614c2e565b50611ea560208c018c614c74565b88818110611eb557611eb5614cc4565b9050602002016020810190611eca9190614811565b6001600160a01b031663f3be6fc28b604001518c60600151858f8060400190611ef39190614c74565b8d818110611f0357611f03614cc4565b9050602002810190611f159190614dc2565b6040518663ffffffff1660e01b8152600401611f35959493929190614e08565b6020604051808303816000875af1158015611f54573d6000803e3d6000fd5b505050506040513d601f19601f82011682018060405250810190611f789190614bfc565b50600088611fc057600280880154611fbb91611f9c91600160a01b9004900b613b20565b6002808a0154611fb591600160b81b909104900b613b20565b88613f22565b611ffb565b600280880154611ffb91611fdc91600160a01b9004900b613b20565b6002808a0154611ff591600160b81b909104900b613b20565b88613edf565b60608c01516040516370a0823160e01b81523060048201529192506000916001600160a01b03909116906370a0823190602401602060405180830381865afa15801561204b573d6000803e3d6000fd5b505050506040513d601f19601f8201168201806040525081019061206f9190614bfc565b905061207b8284614c61565b81101561209b576040516360e710f160e01b815260040160405180910390fd5b8b606001516001600160a01b031663095ea7b37f0000000000000000000000000000000000000000000000000000000000000000846040518363ffffffff1660e01b81526004016120ed929190614c15565b6020604051808303816000875af115801561210c573d6000803e3d6000fd5b505050506040513d601f19601f820116820180604052508101906121309190614c2e565b5061213b8284614c61565b6121459082614cda565b8c518d90612154908390614c61565b90525050505050612625565b8580156121735750608088015115156001145b156123c45787604001516001600160a01b031663095ea7b37f0000000000000000000000000000000000000000000000000000000000000000846040518363ffffffff1660e01b81526004016121ca929190614c15565b6020604051808303816000875af11580156121e9573d6000803e3d6000fd5b505050506040513d601f19601f8201168201806040525081019061220d9190614c2e565b5087606001516001600160a01b031663095ea7b37f0000000000000000000000000000000000000000000000000000000000000000836040518363ffffffff1660e01b8152600401612260929190614c15565b6020604051808303816000875af115801561227f573d6000803e3d6000fd5b505050506040513d601f19601f820116820180604052508101906122a39190614c2e565b506002808501546000916122c491611d4991600160a01b909104900b613b20565b60608a01516040516323b872dd60e01b81529192506001600160a01b0316906323b872dd906122fb90339030908790600401614e59565b6020604051808303816000875af115801561231a573d6000803e3d6000fd5b505050506040513d601f19601f8201168201806040525081019061233e9190614c2e565b5060408901516001600160a01b031663a9059cbb3361235d8685614cda565b6040518363ffffffff1660e01b815260040161237a929190614c15565b6020604051808303816000875af1158015612399573d6000803e3d6000fd5b505050506040513d601f19601f820116820180604052508101906123bd9190614c2e565b5050612625565b851580156123d85750608088015115156001145b156126255787604001516001600160a01b031663095ea7b37f0000000000000000000000000000000000000000000000000000000000000000836040518363ffffffff1660e01b815260040161242f929190614c15565b6020604051808303816000875af115801561244e573d6000803e3d6000fd5b505050506040513d601f19601f820116820180604052508101906124729190614c2e565b5087606001516001600160a01b031663095ea7b37f0000000000000000000000000000000000000000000000000000000000000000846040518363ffffffff1660e01b81526004016124c5929190614c15565b6020604051808303816000875af11580156124e4573d6000803e3d6000fd5b505050506040513d601f19601f820116820180604052508101906125089190614c2e565b5060028085015460009161252991611d0991600160a01b909104900b613b20565b60608a01516040516323b872dd60e01b81529192506001600160a01b0316906323b872dd9061256090339030908890600401614e59565b6020604051808303816000875af115801561257f573d6000803e3d6000fd5b505050506040513d601f19601f820116820180604052508101906125a39190614c2e565b5060408901516001600160a01b031663a9059cbb336125c28585614cda565b6040518363ffffffff1660e01b81526004016125df929190614c15565b6020604051808303816000875af11580156125fe573d6000803e3d6000fd5b505050506040513d601f19601f820116820180604052508101906126229190614c2e565b50505b60018401546002808601546040516000936001600160a01b039081169390831692600160a01b8104820b92600160b81b90910490910b90889061267690602001602080825260009082015260400190565b60408051601f1981840301815290829052612698969594939291602001614e7d565b60408051601f1981840301815290829052865463d5256ca360e01b83529092506001600160a01b037f000000000000000000000000000000000000000000000000000000000000000081169263d5256ca3926126fa9216908590600401614ec2565b6000604051808303816000875af1158015612719573d6000803e3d6000fd5b505050506040513d6000823e601f3d908101601f191682016040526127419190810190614fbc565b50508851156127c4576060890151895160405163a9059cbb60e01b81526001600160a01b039092169163a9059cbb9161277f91339190600401614c15565b6020604051808303816000875af115801561279e573d6000803e3d6000fd5b505050506040513d601f19601f820116820180604052508101906127c29190614c2e565b505b838560030160008282546127d89190614cda565b909155505050505050505b600101611a2e565b507f15171d5e55f89523d32cad253e2cc81847991a01581eb370494379e025b170ec8361281b6060870187614c74565b6128258835610f92565b60405161283894939291908a3590615002565b60405180910390a15050610fcb6001600055565b604080516000815260208101909152606090826001600160401b0381111561287657612876614ee6565b6040519080825280602002602001820160405280156128a957816020015b60608152602001906001900390816128945790505b50915060005b8381101561292b57612906308686848181106128cd576128cd614cc4565b90506020028101906128df9190614dc2565b856040516020016128f293929190615042565b604051602081830303815290604052613f91565b83828151811061291857612918614cc4565b60209081029190910101526001016128af565b50505b92915050565b61293f858585610dd8565b833b156129885761298885858585858080601f01602080910402602001604051908101604052809392919081815260200183838082843760009201919091525061396392505050565b5050505050565b6009546040516373ea766160e01b8152600481018390526060916001600160a01b0316906373ea766190602401600060405180830381865afa1580156129d9573d6000803e3d6000fd5b505050506040513d6000823e601f3d908101601f1916820160405261292e9190810190615069565b612a09613a41565b600160026000828254612a1c9190614c61565b9091555060149050612a2e82806150f4565b90501115612a4f57604051636c9735f760e11b815260040160405180910390fd5b6020808201356000908152600f909152604090205460ff16612a84576040516398ac918960e01b815260040160405180910390fd5b6000816020013560035442612a999190614cda565b612aa39190615152565b612ab1906020840135614cda565b612abb9042614c61565b90506004548260200135612acf9190614cda565b612ad94283614cda565b1115612af857604051634046db7560e01b815260040160405180910390fd5b6000612b0483806150f4565b90506001600160401b03811115612b1d57612b1d614ee6565b604051908082528060200260200182016040528015612b46578160200160208202803683370190505b50905060008080612b5d60c0870160a08801615166565b612b87577f0000000000000000000000000000000000000000000000000000000000000000612ba9565b7f00000000000000000000000000000000000000000000000000000000000000005b6040805160c081018252600080825260208201819052918101829052606081018290526080810182905260a081018290529192505b612be888806150f4565b90508110156130db57612bfb88806150f4565b82818110612c0b57612c0b614cc4565b905060c00201803603810190612c219190615183565b9150612c3360c0890160a08a01615166565b612c5c57816060015160020b886060016020810190612c529190615224565b60020b1415612c7d565b816080015160020b886080016020810190612c779190615224565b60020b14155b15612c9b57604051631759c67760e01b815260040160405180910390fd5b600280546000908152600b60209081526040808320815160c08101835287516001600160a01b039081168252888501805182168387019081528a86015183168487019081526060808d01518b0b9086019081526080808e01518c0b90870190815260a0808f0151908801908152885460018181018b55998d528b8d209851600490910290980180549888166001600160a01b0319998a16178155945198850180549988169990981698909817909655905199820180549151955162ffffff908116600160b81b0262ffffff60b81b1991909716600160a01b026001600160b81b03199093169b86169b909b17919091179990991693909317909755915160039091015593519093168252600d9052205460ff16612dcb576040516336cc3cab60e21b815260040160405180910390fd5b600082602001518360400151846060015185608001518660a00151308d8f60a0016020810190612dfb9190615166565b6020808c015160608d015160808e015160a08f0151604051612e6198979695016001600160a01b03978816815260208101969096529315156040860152919094166060840152600293840b608084015290920b60a082015260c081019190915260e00190565b60408051601f1981840301815290829052612e83969594939291602001614e7d565b60408051601f198184030181529082905284516339ef369360e21b835290925060009182916001600160a01b037f0000000000000000000000000000000000000000000000000000000000000000169163e7bcda4c91612ee7918790600401614ec2565b6000604051808303816000875af1158015612f06573d6000803e3d6000fd5b505050506040513d6000823e601f3d908101601f19168201604052612f2e919081019061523f565b5091509150856001600160a01b031682600081518110612f5057612f50614cc4565b60200260200101516001600160a01b03160361301d57600081600081518110612f7b57612f7b614cc4565b6020026020010151118015612faa575080600181518110612f9e57612f9e614cc4565b60200260200101516000145b612fb357600080fd5b80600081518110612fc657612fc6614cc4565b6020026020010151898581518110612fe057612fe0614cc4565b60200260200101818152505080600081518110612fff57612fff614cc4565b6020026020010151886130129190614c61565b9750600196506130d0565b60008160018151811061303257613032614cc4565b602002602001015111801561306157508060008151811061305557613055614cc4565b60200260200101516000145b61306a57600080fd5b8060018151811061307d5761307d614cc4565b602002602001015189858151811061309757613097614cc4565b602002602001018181525050806001815181106130b6576130b6614cc4565b6020026020010151886130c99190614c61565b9750600096505b505050600101612bde565b5060006131367f000000000000000000000000000000000000000000000000000000000000000061311260c08b0160a08c01615166565b613126576109a460808b0160608c01615224565b6109a460a08b0160808c01615224565b905060006132c483604001518a60a00160208101906131559190615166565b613160576001613163565b60005b60075460405163322092f560e21b81528c9160208f01359188916001600160a01b03169063c8824bd490613221907f0000000000000000000000000000000000000000000000000000000000000000907f0000000000000000000000000000000000000000000000000000000000000000907f0000000000000000000000000000000000000000000000000000000000000000906004016001600160a01b03938416815291909216602082015260ff91909116604082015260600190565b602060405180830381865afa15801561323e573d6000803e3d6000fd5b505050506040513d601f19601f820116820180604052508101906132629190614bfc565b8f60a00160208101906132759190615166565b6132be57886132a57f0000000000000000000000000000000000000000000000000000000000000000600a6153fd565b6132af908f61540c565b6132b99190615423565b614007565b8c614007565b9050806000036132e757604051638c18744360e01b815260040160405180910390fd5b6008546000906001600160a01b031615613382576133058783613794565b6008546040516323b872dd60e01b81529192506001600160a01b03808816926323b872dd9261333d9233929116908690600401614e59565b6020604051808303816000875af115801561335c573d6000803e3d6000fd5b505050506040513d601f19601f820116820180604052508101906133809190614c2e565b505b60408a01356133918284614c61565b11156133b057604051630bea79f960e11b815260040160405180910390fd5b6040516323b872dd60e01b81526001600160a01b038616906323b872dd906133e090339030908790600401614e59565b6020604051808303816000875af11580156133ff573d6000803e3d6000fd5b505050506040513d601f19601f820116820180604052508101906134239190614c2e565b5060405163095ea7b360e01b81526001600160a01b0386169063095ea7b390613472907f0000000000000000000000000000000000000000000000000000000000000000908690600401614c15565b6020604051808303816000875af1158015613491573d6000803e3d6000fd5b505050506040513d601f19601f820116820180604052508101906134b59190614c2e565b5060005b6134c38b806150f4565b9050811015613658576134d68b806150f4565b828181106134e6576134e6614cc4565b905060c002018036038101906134fc9190615183565b9450600088848b848151811061351457613514614cc4565b6020026020010151613526919061540c565b6135309190615423565b9050600086602001518760400151886060015189608001518c613554576000613556565b855b8d6135615786613564565b60005b60405160200161357f90602080825260009082015260400190565b60408051601f19818403018152908290526135a297969594939291602001615437565b60408051601f198184030181529082905288516304e94bdb60e51b83529092506001600160a01b037f00000000000000000000000000000000000000000000000000000000000000001691639d297b6091613601918590600401614ec2565b6000604051808303816000875af1158015613620573d6000803e3d6000fd5b505050506040513d6000823e601f3d908101601f191682016040526136489190810190614fbc565b5050600190920191506134b99050565b506040805160a081019091528061366f8c806150f4565b825250602081018b905260400161368c60808d0160608e01615224565b60020b81526020016136a460a08d0160808e01615224565b60020b81526020016136bc60c08d0160a08e01615166565b15159052600280546000908152600a60209081526040918290208451815590840151600182015590830151908201805460608501516080909501511515600160301b0266ff0000000000001962ffffff96871663010000000265ffffffffffff19909316969094169590951717919091169290921790915554613740903390613a6b565b7f17d317786006ee80c691dec9221cbf7d2b913ee2cb0d426e29d6e03fadac16778a600254848a8560405161377995949392919061553e565b60405180910390a15050505050505050506115a76001600055565b600554604051637669909560e01b815230600482015260248101849052604481018390526000916001600160a01b031690637669909590606401602060405180830381865afa1580156137eb573d6000803e3d6000fd5b505050506040513d601f19601f8201168201806040525081019061380f9190614bfc565b9392505050565b600061382788888888888888614007565b90505b979650505050505050565b60008061384183613b20565b905061384d848261416c565b949350505050565b61385d613936565b6001600160a01b03811661388c57604051631e4fbdf760e01b8152600060048201526024015b60405180910390fd5b6115a7816139ef565b60001960601c828116925083811693508160005283673ec412a9852d173d60c11b17601c52602060002082018201805482169150816138dc5763ceea21b66000526004601cfd5b81851485151761390257816000526030600c205461390257634b6e7f186000526004601cfd5b6001018390558183827f8c5be1e5ebec7d5bd14f71427d1e84f3dd0314c0f7b2291e5b200ac8c7c3b925600038a450505050565b6001546001600160a01b031633146110f75760405163118cdaa760e01b8152336004820152602401613883565b60405163150b7a028082523360208301528560601b60601c604083015283606083015260808083015282518060a084015280156139aa578060c08401826020870160045afa505b60208360a48301601c860160008a5af16139cd573d156139cd573d6000843e3d83fd5b508060e01b8251146139e75763d1a57ed66000526004601cfd5b505050505050565b600180546001600160a01b038381166001600160a01b0319831681179093556040519116919082907f8be0079c531659141344cd1fd0a4f28419497f9722a3daafe3b4186f6b6457e090600090a35050565b600260005403613a6457604051633ee5aeb560e01b815260040160405180910390fd5b6002600055565b610a638282604051806020016040528060008152506143e1565b60408051600481526024810182526020810180516001600160e01b0316633850c7bd60e01b179052905160009182916001600160a01b03851691613ac891615626565b600060405180830381855afa9150503d8060008114613b03576040519150601f19603f3d011682016040523d82523d6000602084013e613b08565b606091505b509150508080602001905181019061380f9190614bdf565b60008060008360020b12613b37578260020b613b3f565b8260020b6000035b9050620d89e8811115613b65576040516315e4079d60e11b815260040160405180910390fd5b600081600116600003613b7c57600160801b613b8e565b6ffffcb933bd6fad37aa2d162d1a5940015b70ffffffffffffffffffffffffffffffffff1690506002821615613bc2576ffff97272373d413259a46990580e213a0260801c5b6004821615613be1576ffff2e50f5f656932ef12357cf3c7fdcc0260801c5b6008821615613c00576fffe5caca7e10e4e61c3624eaa0941cd00260801c5b6010821615613c1f576fffcb9843d60f6159c9db58835c9266440260801c5b6020821615613c3e576fff973b41fa98c081472e6896dfb254c00260801c5b6040821615613c5d576fff2ea16466c96a3843ec78b326b528610260801c5b6080821615613c7c576ffe5dee046a99a2a811c461f1969c30530260801c5b610100821615613c9c576ffcbe86c7900a88aedcffc83b479aa3a40260801c5b610200821615613cbc576ff987a7253ac413176f2b074cf7815e540260801c5b610400821615613cdc576ff3392b0822b70005940c7a398e4b70f30260801c5b610800821615613cfc576fe7159475a2c29b7443b29c7fa6e889d90260801c5b611000821615613d1c576fd097f3bdfd2022b8845ad8f792aa58250260801c5b612000821615613d3c576fa9f746462d870fdf8a65dc1f90e061e50260801c5b614000821615613d5c576f70d869a156d2a1b890bb3df62baf32f70260801c5b618000821615613d7c576f31be135f97d08fd981231505542fcfa60260801c5b62010000821615613d9d576f09aa508b5b7a84e1c677de54f3e99bc90260801c5b62020000821615613dbd576e5d6af8dedb81196699c329225ee6040260801c5b62040000821615613ddc576d2216e584f5fa1ea926041bedfe980260801c5b62080000821615613df9576b048a170391f7dc42444e8fa20260801c5b60008460020b1315613e1a578060001981613e1657613e1661513c565b0490505b640100000000810615613e2e576001613e31565b60005b60ff16602082901c0192505050919050565b600080836001600160a01b0316856001600160a01b03161115613e64579293925b846001600160a01b0316866001600160a01b031611613e8f57613e88858585613f22565b9150613ed6565b836001600160a01b0316866001600160a01b03161015613ec857613eb4868585613f22565b9150613ec1858785613edf565b9050613ed6565b613ed3858585613edf565b90505b94509492505050565b6000826001600160a01b0316846001600160a01b03161115613eff579192915b61384d826001600160801b03168585036001600160a01b0316600160601b6143ff565b6000826001600160a01b0316846001600160a01b03161115613f42579192915b836001600160a01b0316613f7b606060ff16846001600160801b0316901b8686036001600160a01b0316866001600160a01b03166143ff565b81613f8857613f8861513c565b04949350505050565b6060600080846001600160a01b031684604051613fae9190615626565b600060405180830381855af49150503d8060008114613fe9576040519150601f19603f3d011682016040523d82523d6000602084013e613fee565b606091505b5091509150613ffe8583836144b1565b95945050505050565b6000808761403f5761403a7f0000000000000000000000000000000000000000000000000000000000000000600a6153fd565b61406a565b61406a7f0000000000000000000000000000000000000000000000000000000000000000600a6153fd565b60065460405163641ffd6960e11b81526001600160a01b038c811660048301528b15156024830152604482018b9052606482018a90526084820189905260a482018890529091169063c83ffad29060c401602060405180830381865afa1580156140d8573d6000803e3d6000fd5b505050506040513d601f19601f820116820180604052508101906140fc9190614bfc565b614106908561540c565b6141109190615423565b9050871561411f57905061382a565b8361414b7f0000000000000000000000000000000000000000000000000000000000000000600a6153fd565b614155908361540c565b61415f9190615423565b9998505050505050505050565b60006001600160801b036001600160a01b038316116142b557600061419a6001600160a01b0384168061540c565b9050836001600160a01b0316630dfe16816040518163ffffffff1660e01b8152600401602060405180830381865afa1580156141da573d6000803e3d6000fd5b505050506040513d601f19601f820116820180604052508101906141fe9190614bdf565b6001600160a01b03167f00000000000000000000000000000000000000000000000000000000000000006001600160a01b0316146142745761426f600160c01b6142697f0000000000000000000000000000000000000000000000000000000000000000600a6153fd565b836143ff565b6142ad565b6142ad816142a37f0000000000000000000000000000000000000000000000000000000000000000600a6153fd565b600160c01b6143ff565b91505061292e565b60006142d46001600160a01b03841680680100000000000000006143ff565b9050836001600160a01b0316630dfe16816040518163ffffffff1660e01b8152600401602060405180830381865afa158015614314573d6000803e3d6000fd5b505050506040513d601f19601f820116820180604052508101906143389190614bdf565b6001600160a01b03167f00000000000000000000000000000000000000000000000000000000000000006001600160a01b0316146143a8576143a3600160801b6142697f0000000000000000000000000000000000000000000000000000000000000000600a6153fd565b61384d565b61384d816143d77f0000000000000000000000000000000000000000000000000000000000000000600a6153fd565b600160801b6143ff565b6143eb838361450d565b823b15610eea57610eea6000848484613963565b6000808060001985870985870292508281108382030391505080600003614438576000841161442d57600080fd5b50829004905061380f565b80841161444457600080fd5b6000848688096000868103871696879004966002600389028118808a02820302808a02820302808a02820302808a02820302808a02820302808a02909103029181900381900460010186841190950394909402919094039290920491909117919091029150509392505050565b6060826144c6576144c1826145bb565b61380f565b81511580156144dd57506001600160a01b0384163b155b1561450657604051639996b31560e01b81526001600160a01b0385166004820152602401613883565b508061380f565b6001600160a01b03909116908161452c5763ea553b346000526004601cfd5b80600052673ec412a9852d173d60c11b601c5260206000208101810180548060601b156145615763c991cbb16000526004601cfd5b831790556000829052601c600c20805460010163ffffffff811661458d576301336cea6000526004601cfd5b9055808260007fddf252ad1be2c89b69c2b068fc378daa952ba7f163c4a11628f55a4df523b3ef8138a45050565b8051156145cb5780518082602001fd5b604051630a12f52160e11b815260040160405180910390fd5b6000602082840312156145f657600080fd5b81356001600160e01b03198116811461380f57600080fd5b60005b83811015614629578181015183820152602001614611565b50506000910152565b6000815180845261464a81602086016020860161460e565b601f01601f19169290920160200192915050565b60208152600061380f6020830184614632565b60006020828403121561468357600080fd5b5035919050565b6001600160a01b03811681146115a757600080fd5b600080604083850312156146b257600080fd5b82356146bd8161468a565b946020939093013593505050565b80151581146115a757600080fd5b8035610fcb816146cb565b600080600080600080600060e0888a0312156146ff57600080fd5b873561470a8161468a565b9650602088013561471a816146cb565b9550604088013561472a8161468a565b9450606088013561473a816146cb565b93506080880135925060a0880135614751816146cb565b96999598509396929591949193505060c09091013590565b60008060006060848603121561477e57600080fd5b83356147898161468a565b925060208401356147998161468a565b929592945050506040919091013590565b600080604083850312156147bd57600080fd5b82356147c88161468a565b915060208301356147d88161468a565b809150509250929050565b600080604083850312156147f657600080fd5b82356148018161468a565b915060208301356147d8816146cb565b60006020828403121561482357600080fd5b813561380f8161468a565b600080600080600060a0868803121561484657600080fd5b85356148518161468a565b945060208601356148618161468a565b935060408601356148718161468a565b925060608601356148818161468a565b915060808601356148918161468a565b809150509295509295909350565b6000602082840312156148b157600080fd5b81356001600160401b038111156148c757600080fd5b82016060818503121561380f57600080fd5b600080604083850312156148ec57600080fd5b50508035926020909101359150565b60006020828403121561490d57600080fd5b81356001600160401b0381111561492357600080fd5b82016080818503121561380f57600080fd5b80518252602080820151908301526040808201516001600160a01b0390811691840191909152606080830151909116908301526080908101511515910152565b60a0810161292e8284614935565b6000806020838503121561499657600080fd5b82356001600160401b038111156149ac57600080fd5b8301601f810185136149bd57600080fd5b80356001600160401b038111156149d357600080fd5b8560208260051b84010111156149e857600080fd5b6020919091019590945092505050565b6000602082016020835280845180835260408501915060408160051b86010192506020860160005b82811015614a5157603f19878603018452614a3c858351614632565b94506020938401939190910190600101614a20565b50929695505050505050565b600080600080600060808688031215614a7557600080fd5b8535614a808161468a565b94506020860135614a908161468a565b93506040860135925060608601356001600160401b03811115614ab257600080fd5b8601601f81018813614ac357600080fd5b80356001600160401b03811115614ad957600080fd5b886020828401011115614aeb57600080fd5b959894975092955050506020019190565b600060208284031215614b0e57600080fd5b81356001600160401b03811115614b2457600080fd5b820160c0818503121561380f57600080fd5b600080600080600080600060e0888a031215614b5157600080fd5b8735614b5c8161468a565b96506020880135614b6c816146cb565b96999698505050506040850135946060810135946080820135945060a0820135935060c0909101359150565b8035600281900b8114610fcb57600080fd5b60008060408385031215614bbd57600080fd5b8235614bc88161468a565b9150614bd660208401614b98565b90509250929050565b600060208284031215614bf157600080fd5b815161380f8161468a565b600060208284031215614c0e57600080fd5b5051919050565b6001600160a01b03929092168252602082015260400190565b600060208284031215614c4057600080fd5b815161380f816146cb565b634e487b7160e01b600052601160045260246000fd5b8082018082111561292e5761292e614c4b565b6000808335601e19843603018112614c8b57600080fd5b8301803591506001600160401b03821115614ca557600080fd5b6020019150600581901b3603821315614cbd57600080fd5b9250929050565b634e487b7160e01b600052603260045260246000fd5b8181038181111561292e5761292e614c4b565b81835260006001600160fb1b03831115614d0657600080fd5b8260051b80836020870137939093016020019392505050565b606080825284359082015260006020850135614d3a8161468a565b6001600160a01b03166080830152604085013536869003601e19018112614d6057600080fd5b85016020810190356001600160401b03811115614d7c57600080fd5b8060051b3603821315614d8e57600080fd5b606060a0850152614da360c085018284614ced565b9250505083602083015261384d60408301846001600160a01b03169052565b6000808335601e19843603018112614dd957600080fd5b8301803591506001600160401b03821115614df357600080fd5b602001915036819003821315614cbd57600080fd5b6001600160a01b03868116825285166020820152604081018490526080606082018190528101829052818360a0830137600081830160a090810191909152601f909201601f19160101949350505050565b6001600160a01b039384168152919092166020820152604081019190915260600190565b6001600160a01b03878116825286166020820152600285810b604083015284900b60608201526080810183905260c060a0820181905260009061382790830184614632565b6001600160a01b038316815260406020820181905260009061384d90830184614632565b634e487b7160e01b600052604160045260246000fd5b604051601f8201601f191681016001600160401b0381118282101715614f2457614f24614ee6565b604052919050565b60006001600160401b03821115614f4557614f45614ee6565b5060051b60200190565b600082601f830112614f6057600080fd5b8151614f73614f6e82614f2c565b614efc565b8082825260208201915060208360051b860101925085831115614f9557600080fd5b602085015b83811015614fb2578051835260209283019201614f9a565b5095945050505050565b60008060408385031215614fcf57600080fd5b82516001600160401b03811115614fe557600080fd5b614ff185828601614f4f565b602094909401519395939450505050565b61500c8187614935565b61010060a0820152600061502561010083018688614ced565b6001600160a01b039490941660c08301525060e001529392505050565b82848237600083820160008152835161505f81836020880161460e565b0195945050505050565b60006020828403121561507b57600080fd5b81516001600160401b0381111561509157600080fd5b8201601f810184136150a257600080fd5b80516001600160401b038111156150bb576150bb614ee6565b6150ce601f8201601f1916602001614efc565b8181528560208385010111156150e357600080fd5b613ffe82602083016020860161460e565b6000808335601e1984360301811261510b57600080fd5b8301803591506001600160401b0382111561512557600080fd5b602001915060c081023603821315614cbd57600080fd5b634e487b7160e01b600052601260045260246000fd5b6000826151615761516161513c565b500690565b60006020828403121561517857600080fd5b813561380f816146cb565b600060c082840312801561519657600080fd5b5060405160c081016001600160401b03811182821017156151b9576151b9614ee6565b60405282356151c78161468a565b815260208301356151d78161468a565b602082015260408301356151ea8161468a565b60408201526151fb60608401614b98565b606082015261520c60808401614b98565b608082015260a0928301359281019290925250919050565b60006020828403121561523657600080fd5b61380f82614b98565b60008060006060848603121561525457600080fd5b83516001600160401b0381111561526a57600080fd5b8401601f8101861361527b57600080fd5b8051615289614f6e82614f2c565b8082825260208201915060208360051b8501019250888311156152ab57600080fd5b6020840193505b828410156152d65783516152c58161468a565b8252602093840193909101906152b2565b8096505050505060208401516001600160401b038111156152f657600080fd5b61530286828701614f4f565b604095909501519396949550929392505050565b6001815b60018411156153515780850481111561533557615335614c4b565b600184161561534357908102905b60019390931c92800261531a565b935093915050565b6000826153685750600161292e565b816153755750600061292e565b816001811461538b5760028114615395576153b1565b600191505061292e565b60ff8411156153a6576153a6614c4b565b50506001821b61292e565b5060208310610133831016604e8410600b84101617156153d4575081810a61292e565b6153e16000198484615316565b80600019048211156153f5576153f5614c4b565b029392505050565b600061380f60ff841683615359565b808202811582820484141761292e5761292e614c4b565b6000826154325761543261513c565b500490565b6001600160a01b03888116825287166020820152600286810b604083015285900b60608201526080810184905260a0810183905260e060c0820181905260009061415f90830184614632565b81835260208301925060008160005b848110156155345781356154a58161468a565b6001600160a01b0316865260208201356154be8161468a565b6001600160a01b0316602087015260408201356154da8161468a565b6001600160a01b031660408701526154f460608301614b98565b60020b606087015261550860808301614b98565b615517608088018260020b9052565b5060a0828101359087015260c09586019590910190600101615492565b5093949350505050565b60a0815260008635601e1988360301811261555857600080fd5b87016020810190356001600160401b0381111561557457600080fd5b60c08102360382131561558657600080fd5b60c060a085015261559c61016085018284615483565b60208a013560c086015260408a013560e086015291506155c0905060608901614b98565b6155d061010085018260020b9052565b506155dd60808901614b98565b6155ed61012085018260020b9052565b506155fa60a089016146d9565b151561014084015260208301969096525060408101939093526060830191909152608090910152919050565b6000825161563881846020870161460e565b919091019291505056fea2646970667358221220281683df2175fc0571919b6252d0f7d93dc8e9d1175d34156fa334bf9c22500864736f6c634300081a0033","linkReferences":{}},"methodIdentifiers":{"approve(address,uint256)":"095ea7b3","approvedPools(address)":"f0bbcec4","approvedTTLs(uint256)":"91457d78","balanceOf(address)":"70a08231","callAsset()":"61f812a4","callAssetDecimals()":"50373276","dpFee()":"d302f2b8","emergencyWithdraw(address)":"6ff1c9bc","exerciseDelegator(address,address)":"3b2b4603","feeTo()":"017e7e58","getApproved(uint256)":"081812fc","getFee(uint256,uint256)":"d250185c","getPremiumAmount(address,bool,uint256,uint256,uint256,uint256,uint256)":"dd2e71d0","getPricePerCallAssetViaTick(address,int24)":"eb22eccb","isApprovedForAll(address,address)":"e985e9c5","mintOption(((address,address,address,int24,int24,uint256)[],uint256,uint256,int24,int24,bool))":"cf5c1a2c","multicall(bytes[])":"ac9650d8","name()":"06fdde03","opData(uint256)":"5673a221","opTickMap(uint256,uint256)":"a2b15e4c","optionIds()":"1508b8e2","optionPricing()":"1e3394fb","owner()":"8da5cb5b","ownerOf(uint256)":"6352211e","positionManager()":"791b98bc","positionSplitter((uint256,address,uint256[]))":"9d98f412","primePool()":"271ab517","putAsset()":"c8de6e83","putAssetDecimals()":"0d51249b","renounceOwnership()":"715018a6","safeTransferFrom(address,address,uint256)":"42842e0e","safeTransferFrom(address,address,uint256,bytes)":"b88d4fde","setApprovalForAll(address,bool)":"a22cb465","settleOption((uint256,address[],bytes[],uint256[]))":"aad2402a","settlers(address)":"c70a900f","supportsInterface(bytes4)":"01ffc9a7","symbol()":"95d89b41","tokenURI(uint256)":"c87b56dd","tokenURIFetcher()":"07d88aad","transferFrom(address,address,uint256)":"23b872dd","transferOwnership(address)":"f2fde38b","updateExerciseDelegate(address,bool)":"600b584b","updatePoolApporvals(address,bool,address,bool,uint256,bool,uint256)":"14f46499","updatePoolSettings(address,address,address,address,address)":"997bdef3","verifiedSpotPrice()":"ed2b0b8a"},"id":55}