{"abi":[{"type":"constructor","inputs":[{"name":"_token0","type":"address","internalType":"address"},{"name":"_token1","type":"address","internalType":"address"},{"name":"_positionManager","type":"address","internalType":"address"},{"name":"_feeReceiver","type":"address","internalType":"address"}],"stateMutability":"nonpayable"},{"type":"function","name":"balances","inputs":[{"name":"","type":"address","internalType":"address"}],"outputs":[{"name":"","type":"uint256","internalType":"uint256"}],"stateMutability":"view"},{"type":"function","name":"burnPositionHandler","inputs":[{"name":"user","type":"address","internalType":"address"},{"name":"data","type":"bytes","internalType":"bytes"}],"outputs":[{"name":"","type":"uint256","internalType":"uint256"}],"stateMutability":"nonpayable"},{"type":"function","name":"donateToPosition","inputs":[{"name":"data","type":"bytes","internalType":"bytes"}],"outputs":[{"name":"amounts","type":"uint256[]","internalType":"uint256[]"},{"name":"liquidity","type":"uint256","internalType":"uint256"}],"stateMutability":"nonpayable"},{"type":"function","name":"feeReceiver","inputs":[],"outputs":[{"name":"","type":"address","internalType":"address"}],"stateMutability":"view"},{"type":"function","name":"getHandlerIdentifier","inputs":[{"name":"data","type":"bytes","internalType":"bytes"}],"outputs":[{"name":"","type":"uint256","internalType":"uint256"}],"stateMutability":"pure"},{"type":"function","name":"mintPositionHandler","inputs":[{"name":"user","type":"address","internalType":"address"},{"name":"data","type":"bytes","internalType":"bytes"}],"outputs":[{"name":"","type":"uint256","internalType":"uint256"}],"stateMutability":"nonpayable"},{"type":"function","name":"positionManager","inputs":[],"outputs":[{"name":"","type":"address","internalType":"address"}],"stateMutability":"view"},{"type":"function","name":"registerHook","inputs":[{"name":"_hook","type":"address","internalType":"address"},{"name":"_info","type":"tuple","internalType":"struct IHandler.HookPermInfo","components":[{"name":"onMint","type":"bool","internalType":"bool"},{"name":"onBurn","type":"bool","internalType":"bool"},{"name":"onUse","type":"bool","internalType":"bool"},{"name":"onUnuse","type":"bool","internalType":"bool"},{"name":"onDonate","type":"bool","internalType":"bool"},{"name":"allowSplit","type":"bool","internalType":"bool"}]}],"outputs":[],"stateMutability":"nonpayable"},{"type":"function","name":"token0","inputs":[],"outputs":[{"name":"","type":"address","internalType":"address"}],"stateMutability":"view"},{"type":"function","name":"token1","inputs":[],"outputs":[{"name":"","type":"address","internalType":"address"}],"stateMutability":"view"},{"type":"function","name":"tokensToPullForDonate","inputs":[{"name":"data","type":"bytes","internalType":"bytes"}],"outputs":[{"name":"tokens","type":"address[]","internalType":"address[]"},{"name":"amounts","type":"uint256[]","internalType":"uint256[]"}],"stateMutability":"view"},{"type":"function","name":"tokensToPullForMint","inputs":[{"name":"data","type":"bytes","internalType":"bytes"}],"outputs":[{"name":"tokens","type":"address[]","internalType":"address[]"},{"name":"amounts","type":"uint256[]","internalType":"uint256[]"}],"stateMutability":"view"},{"type":"function","name":"tokensToPullForUnUse","inputs":[{"name":"data","type":"bytes","internalType":"bytes"}],"outputs":[{"name":"tokens","type":"address[]","internalType":"address[]"},{"name":"amounts","type":"uint256[]","internalType":"uint256[]"}],"stateMutability":"view"},{"type":"function","name":"tokensToPullForWildcard","inputs":[{"name":"","type":"bytes","internalType":"bytes"}],"outputs":[{"name":"tokens","type":"address[]","internalType":"address[]"},{"name":"amounts","type":"uint256[]","internalType":"uint256[]"}],"stateMutability":"view"},{"type":"function","name":"unusePositionHandler","inputs":[{"name":"data","type":"bytes","internalType":"bytes"}],"outputs":[{"name":"amounts","type":"uint256[]","internalType":"uint256[]"},{"name":"liquidity","type":"uint256","internalType":"uint256"}],"stateMutability":"nonpayable"},{"type":"function","name":"usePositionHandler","inputs":[{"name":"data","type":"bytes","internalType":"bytes"}],"outputs":[{"name":"tokens","type":"address[]","internalType":"address[]"},{"name":"amounts","type":"uint256[]","internalType":"uint256[]"},{"name":"liquidityUsed","type":"uint256","internalType":"uint256"}],"stateMutability":"nonpayable"},{"type":"function","name":"wildcardHandler","inputs":[{"name":"","type":"address","internalType":"address"},{"name":"data","type":"bytes","internalType":"bytes"}],"outputs":[{"name":"","type":"bytes","internalType":"bytes"}],"stateMutability":"pure"}],"bytecode":{"object":"0x608060405234801561001057600080fd5b5060405161178238038061178283398101604081905261002f9161009e565b600080546001600160a01b039586166001600160a01b03199182161790915560018054948616948216949094179093556002805492851692841692909217909155600380549190931691161790556100f2565b80516001600160a01b038116811461009957600080fd5b919050565b600080600080608085870312156100b457600080fd5b6100bd85610082565b93506100cb60208601610082565b92506100d960408601610082565b91506100e760608601610082565b905092959194509250565b611681806101016000396000f3fe608060405234801561001057600080fd5b506004361061010b5760003560e01c80637b3fd965116100a2578063bdab027b11610071578063bdab027b14610244578063d21220a714610258578063e0f19adf1461026b578063e88c9ffd1461027e578063eb148be4146102a757600080fd5b80637b3fd965146101fc578063b220e4701461020f578063b3f0067414610231578063b8ea4a84146101c857600080fd5b80634d0b1de3116100de5780634d0b1de3146101a257806363f558c8146101b5578063742b5fdd146101c8578063791b98bc146101e957600080fd5b80630dfe1681146101105780631575e9481461014057806327e235e3146101615780632b4d93ea14610181575b600080fd5b600054610123906001600160a01b031681565b6040516001600160a01b0390911681526020015b60405180910390f35b61015361014e3660046111ca565b6102c7565b604051908152602001610137565b61015361016f36600461121d565b60046020526000908152604090205481565b61019461018f36600461123f565b61056c565b6040516101379291906112bd565b6101946101b036600461123f565b61077d565b6101536101c336600461123f565b6109c2565b6101db6101d636600461123f565b6109e6565b60405161013792919061131a565b600254610123906001600160a01b031681565b61015361020a3660046111ca565b610af7565b61022261021d36600461123f565b610cab565b60405161013793929190611348565b600354610123906001600160a01b031681565b61025661025236600461139a565b5050565b005b600154610123906001600160a01b031681565b6101db61027936600461123f565b61101a565b6101db61028c36600461123f565b50506040805160008082526020820190815281830190925291565b6102ba6102b53660046111ca565b611124565b604051610137919061146e565b600080806102d7848601866114bc565b600080546001600160a01b031681526004602052604090205491935091508211156103495760405162461bcd60e51b815260206004820152601b60248201527f496e73756666696369656e7420746f6b656e302062616c616e6365000000000060448201526064015b60405180910390fd5b6001546001600160a01b03166000908152600460205260409020548111156103b35760405162461bcd60e51b815260206004820152601b60248201527f496e73756666696369656e7420746f6b656e312062616c616e636500000000006044820152606401610340565b600080546001600160a01b0316815260046020526040812080548492906103db9084906114f4565b90915550506001546001600160a01b03166000908152600460205260408120805483929061040a9084906114f4565b909155505060005460405163a9059cbb60e01b81526001600160a01b038881166004830152602482018590529091169063a9059cbb906044016020604051808303816000875af1158015610462573d6000803e3d6000fd5b505050506040513d601f19601f820116820180604052508101906104869190611507565b6104a25760405162461bcd60e51b815260040161034090611524565b60015460405163a9059cbb60e01b81526001600160a01b038881166004830152602482018490529091169063a9059cbb906044016020604051808303816000875af11580156104f5573d6000803e3d6000fd5b505050506040513d601f19601f820116820180604052508101906105199190611507565b6105355760405162461bcd60e51b81526004016103409061155b565b85858560405160200161054a93929190611592565b60408051601f1981840301815291905280516020909101209695505050505050565b606060008061057d848601866115be565b6000546002546040516323b872dd60e01b81529293506001600160a01b03918216926323b872dd926105b7921690309086906004016115d7565b6020604051808303816000875af11580156105d6573d6000803e3d6000fd5b505050506040513d601f19601f820116820180604052508101906105fa9190611507565b6106165760405162461bcd60e51b815260040161034090611524565b6001546002546040516323b872dd60e01b81526001600160a01b03928316926323b872dd9261064e92911690309086906004016115d7565b6020604051808303816000875af115801561066d573d6000803e3d6000fd5b505050506040513d601f19601f820116820180604052508101906106919190611507565b6106ad5760405162461bcd60e51b81526004016103409061155b565b600080546001600160a01b0316815260046020526040812080548392906106d59084906115fb565b90915550506001546001600160a01b0316600090815260046020526040812080548392906107049084906115fb565b90915550506040805160028082526060820183529091602083019080368337019050509250808360008151811061073d5761073d61160e565b602002602001018181525050808360018151811061075d5761075d61160e565b6020908102919091010152610773816002611624565b9150509250929050565b60606000808061078f858701876114bc565b6000546002546003546040516323b872dd60e01b81529496509294506001600160a01b03918216936323b872dd936107d19392831692169087906004016115d7565b6020604051808303816000875af11580156107f0573d6000803e3d6000fd5b505050506040513d601f19601f820116820180604052508101906108149190611507565b6108715760405162461bcd60e51b815260206004820152602860248201527f5472616e73666572206f6620746f6b656e3020746f20666565526563656976656044820152671c8819985a5b195960c21b6064820152608401610340565b6001546002546003546040516323b872dd60e01b81526001600160a01b03938416936323b872dd936108ae939082169291169086906004016115d7565b6020604051808303816000875af11580156108cd573d6000803e3d6000fd5b505050506040513d601f19601f820116820180604052508101906108f19190611507565b61094e5760405162461bcd60e51b815260206004820152602860248201527f5472616e73666572206f6620746f6b656e3120746f20666565526563656976656044820152671c8819985a5b195960c21b6064820152608401610340565b604080516002808252606082018352909160208301908036833701905050935081846000815181106109825761098261160e565b60200260200101818152505080846001815181106109a2576109a261160e565b60209081029190910101526109b781836115fb565b925050509250929050565b600082826040516109d492919061163b565b60405190819003902090505b92915050565b6060806000806109f8858701876114bc565b60408051600280825260608201909252929450909250816020016020820280368337505060408051600280825260608201835293975092915060208301908036833750506000805487519396506001600160a01b031692879250610a5e57610a5e61160e565b6001600160a01b0392831660209182029290920101526001805486519216918691908110610a8e57610a8e61160e565b60200260200101906001600160a01b031690816001600160a01b0316815250508183600081518110610ac257610ac261160e565b6020026020010181815250508083600181518110610ae257610ae261160e565b60200260200101818152505050509250929050565b60008080610b07848601866114bc565b6000546002546040516323b872dd60e01b81529395509193506001600160a01b03908116926323b872dd92610b44921690309087906004016115d7565b6020604051808303816000875af1158015610b63573d6000803e3d6000fd5b505050506040513d601f19601f82011682018060405250810190610b879190611507565b610ba35760405162461bcd60e51b815260040161034090611524565b6001546002546040516323b872dd60e01b81526001600160a01b03928316926323b872dd92610bdb92911690309086906004016115d7565b6020604051808303816000875af1158015610bfa573d6000803e3d6000fd5b505050506040513d601f19601f82011682018060405250810190610c1e9190611507565b610c3a5760405162461bcd60e51b81526004016103409061155b565b600080546001600160a01b031681526004602052604081208054849290610c629084906115fb565b90915550506001546001600160a01b031660009081526004602052604081208054839290610c919084906115fb565b909155505060405161054a90879087908790602001611592565b606080600080610cbd858701876115be565b600080546001600160a01b0316815260046020526040902054909150811115610d285760405162461bcd60e51b815260206004820152601b60248201527f496e73756666696369656e7420746f6b656e302062616c616e636500000000006044820152606401610340565b6001546001600160a01b0316600090815260046020526040902054811115610d925760405162461bcd60e51b815260206004820152601b60248201527f496e73756666696369656e7420746f6b656e312062616c616e636500000000006044820152606401610340565b600080546001600160a01b031681526004602052604081208054839290610dba9084906114f4565b90915550506001546001600160a01b031660009081526004602052604081208054839290610de99084906114f4565b909155505060005460025460405163a9059cbb60e01b81526001600160a01b0391821660048201526024810184905291169063a9059cbb906044016020604051808303816000875af1158015610e43573d6000803e3d6000fd5b505050506040513d601f19601f82011682018060405250810190610e679190611507565b610e835760405162461bcd60e51b815260040161034090611524565b60015460025460405163a9059cbb60e01b81526001600160a01b0391821660048201526024810184905291169063a9059cbb906044016020604051808303816000875af1158015610ed8573d6000803e3d6000fd5b505050506040513d601f19601f82011682018060405250810190610efc9190611507565b610f185760405162461bcd60e51b81526004016103409061155b565b6040805160028082526060820183529091602083019080368337505060408051600280825260608201835293975092915060208301908036833750506000805487519396506001600160a01b031692879250610f7657610f7661160e565b6001600160a01b0392831660209182029290920101526001805486519216918691908110610fa657610fa661160e565b60200260200101906001600160a01b031690816001600160a01b0316815250508083600081518110610fda57610fda61160e565b6020026020010181815250508083600181518110610ffa57610ffa61160e565b6020908102919091010152611010816002611624565b9150509250925092565b606080600061102b848601866115be565b6040805160028082526060820183529293509190602083019080368337505060408051600280825260608201835293965092915060208301908036833750506000805486519395506001600160a01b03169286925061108c5761108c61160e565b6001600160a01b03928316602091820292909201015260018054855192169185919081106110bc576110bc61160e565b60200260200101906001600160a01b031690816001600160a01b03168152505080826000815181106110f0576110f061160e565b60200260200101818152505080826001815181106111105761111061160e565b602002602001018181525050509250929050565b606082828080601f01602080910402602001604051908101604052809392919081815260200183838082843760009201919091525092979650505050505050565b80356001600160a01b038116811461117c57600080fd5b919050565b60008083601f84011261119357600080fd5b50813567ffffffffffffffff8111156111ab57600080fd5b6020830191508360208285010111156111c357600080fd5b9250929050565b6000806000604084860312156111df57600080fd5b6111e884611165565b9250602084013567ffffffffffffffff81111561120457600080fd5b61121086828701611181565b9497909650939450505050565b60006020828403121561122f57600080fd5b61123882611165565b9392505050565b6000806020838503121561125257600080fd5b823567ffffffffffffffff81111561126957600080fd5b61127585828601611181565b90969095509350505050565b600081518084526020840193506020830160005b828110156112b3578151865260209586019590910190600101611295565b5093949350505050565b6040815260006112d06040830185611281565b90508260208301529392505050565b600081518084526020840193506020830160005b828110156112b35781516001600160a01b03168652602095860195909101906001016112f3565b60408152600061132d60408301856112df565b828103602084015261133f8185611281565b95945050505050565b60608152600061135b60608301866112df565b828103602084015261136d8186611281565b915050826040830152949350505050565b801515811461138c57600080fd5b50565b803561117c8161137e565b60008082840360e08112156113ae57600080fd5b6113b784611165565b925060c0601f19820112156113cb57600080fd5b5060405160c0810181811067ffffffffffffffff821117156113fd57634e487b7160e01b600052604160045260246000fd5b60405261140c6020850161138f565b815261141a6040850161138f565b602082015261142b6060850161138f565b604082015261143c6080850161138f565b606082015261144d60a0850161138f565b608082015261145e60c0850161138f565b60a0820152809150509250929050565b602081526000825180602084015260005b8181101561149c576020818601810151604086840101520161147f565b506000604082850101526040601f19601f83011684010191505092915050565b600080604083850312156114cf57600080fd5b50508035926020909101359150565b634e487b7160e01b600052601160045260246000fd5b818103818111156109e0576109e06114de565b60006020828403121561151957600080fd5b81516112388161137e565b60208082526019908201527f5472616e73666572206f6620746f6b656e30206661696c656400000000000000604082015260600190565b60208082526019908201527f5472616e73666572206f6620746f6b656e31206661696c656400000000000000604082015260600190565b6bffffffffffffffffffffffff198460601b168152818360148301376000910160140190815292915050565b6000602082840312156115d057600080fd5b5035919050565b6001600160a01b039384168152919092166020820152604081019190915260600190565b808201808211156109e0576109e06114de565b634e487b7160e01b600052603260045260246000fd5b80820281158282048414176109e0576109e06114de565b818382376000910190815291905056fea2646970667358221220ca76da284cfbb75753be2f2de9d0e3db60b209f86f69cbd7fb8c556993f8b84864736f6c634300081a0033","linkReferences":{}},"methodIdentifiers":{"balances(address)":"27e235e3","burnPositionHandler(address,bytes)":"1575e948","donateToPosition(bytes)":"4d0b1de3","feeReceiver()":"b3f00674","getHandlerIdentifier(bytes)":"63f558c8","mintPositionHandler(address,bytes)":"7b3fd965","positionManager()":"791b98bc","registerHook(address,(bool,bool,bool,bool,bool,bool))":"bdab027b","token0()":"0dfe1681","token1()":"d21220a7","tokensToPullForDonate(bytes)":"b8ea4a84","tokensToPullForMint(bytes)":"742b5fdd","tokensToPullForUnUse(bytes)":"e0f19adf","tokensToPullForWildcard(bytes)":"e88c9ffd","unusePositionHandler(bytes)":"2b4d93ea","usePositionHandler(bytes)":"b220e470","wildcardHandler(address,bytes)":"eb148be4"},"id":95}