{"abi":[{"type":"constructor","inputs":[{"name":"_pm","type":"address","internalType":"address"},{"name":"_optionPricing","type":"address","internalType":"address"},{"name":"_dpFee","type":"address","internalType":"address"},{"name":"_callAsset","type":"address","internalType":"address"},{"name":"_putAsset","type":"address","internalType":"address"},{"name":"_primePool","type":"address","internalType":"address"}],"stateMutability":"nonpayable"},{"type":"function","name":"approve","inputs":[{"name":"account","type":"address","internalType":"address"},{"name":"id","type":"uint256","internalType":"uint256"}],"outputs":[],"stateMutability":"payable"},{"type":"function","name":"approvedPools","inputs":[{"name":"","type":"address","internalType":"address"}],"outputs":[{"name":"","type":"bool","internalType":"bool"}],"stateMutability":"view"},{"type":"function","name":"balanceOf","inputs":[{"name":"owner","type":"address","internalType":"address"}],"outputs":[{"name":"result","type":"uint256","internalType":"uint256"}],"stateMutability":"view"},{"type":"function","name":"callAsset","inputs":[],"outputs":[{"name":"","type":"address","internalType":"address"}],"stateMutability":"view"},{"type":"function","name":"callAssetDecimals","inputs":[],"outputs":[{"name":"","type":"uint8","internalType":"uint8"}],"stateMutability":"view"},{"type":"function","name":"dpFee","inputs":[],"outputs":[{"name":"","type":"address","internalType":"contract IDopexV2ClammFeeStrategyV2"}],"stateMutability":"view"},{"type":"function","name":"emergencyWithdraw","inputs":[{"name":"token","type":"address","internalType":"address"}],"outputs":[],"stateMutability":"nonpayable"},{"type":"function","name":"exerciseDelegator","inputs":[{"name":"","type":"address","internalType":"address"},{"name":"","type":"address","internalType":"address"}],"outputs":[{"name":"","type":"bool","internalType":"bool"}],"stateMutability":"view"},{"type":"function","name":"exerciseOption","inputs":[{"name":"_params","type":"tuple","internalType":"struct OptionsOTM.ExerciseOptionParams","components":[{"name":"optionId","type":"uint256","internalType":"uint256"},{"name":"swapper","type":"address[]","internalType":"contract ISwapper[]"},{"name":"swapData","type":"bytes[]","internalType":"bytes[]"},{"name":"liquidityToExercise","type":"uint256[]","internalType":"uint256[]"}]}],"outputs":[{"name":"ac","type":"tuple","internalType":"struct OptionsOTM.AssetsCache","components":[{"name":"assetToUse","type":"address","internalType":"contract ERC20"},{"name":"assetToGet","type":"address","internalType":"contract ERC20"},{"name":"totalProfit","type":"uint256","internalType":"uint256"},{"name":"totalAssetRelocked","type":"uint256","internalType":"uint256"}]}],"stateMutability":"nonpayable"},{"type":"function","name":"feeTo","inputs":[],"outputs":[{"name":"","type":"address","internalType":"address"}],"stateMutability":"view"},{"type":"function","name":"getApproved","inputs":[{"name":"id","type":"uint256","internalType":"uint256"}],"outputs":[{"name":"result","type":"address","internalType":"address"}],"stateMutability":"view"},{"type":"function","name":"getCurrentPricePerCallAsset","inputs":[{"name":"_pool","type":"address","internalType":"contract IUniswapV3Pool"}],"outputs":[{"name":"","type":"uint256","internalType":"uint256"}],"stateMutability":"view"},{"type":"function","name":"getFee","inputs":[{"name":"amount","type":"uint256","internalType":"uint256"},{"name":"premium","type":"uint256","internalType":"uint256"}],"outputs":[{"name":"","type":"uint256","internalType":"uint256"}],"stateMutability":"view"},{"type":"function","name":"getPremiumAmount","inputs":[{"name":"isPut","type":"bool","internalType":"bool"},{"name":"expiry","type":"uint256","internalType":"uint256"},{"name":"strike","type":"uint256","internalType":"uint256"},{"name":"lastPrice","type":"uint256","internalType":"uint256"},{"name":"amount","type":"uint256","internalType":"uint256"}],"outputs":[{"name":"","type":"uint256","internalType":"uint256"}],"stateMutability":"view"},{"type":"function","name":"getPricePerCallAssetViaTick","inputs":[{"name":"_pool","type":"address","internalType":"contract IUniswapV3Pool"},{"name":"_tick","type":"int24","internalType":"int24"}],"outputs":[{"name":"","type":"uint256","internalType":"uint256"}],"stateMutability":"view"},{"type":"function","name":"isApprovedForAll","inputs":[{"name":"owner","type":"address","internalType":"address"},{"name":"operator","type":"address","internalType":"address"}],"outputs":[{"name":"result","type":"bool","internalType":"bool"}],"stateMutability":"view"},{"type":"function","name":"mintOption","inputs":[{"name":"_params","type":"tuple","internalType":"struct OptionsOTM.OptionParams","components":[{"name":"optionTicks","type":"tuple[]","internalType":"struct OptionsOTM.OptionTicks[]","components":[{"name":"_handler","type":"address","internalType":"contract IHandler"},{"name":"pool","type":"address","internalType":"contract IUniswapV3Pool"},{"name":"hook","type":"address","internalType":"address"},{"name":"tickLower","type":"int24","internalType":"int24"},{"name":"tickUpper","type":"int24","internalType":"int24"},{"name":"liquidityToUse","type":"uint256","internalType":"uint256"}]},{"name":"tickLower","type":"int24","internalType":"int24"},{"name":"tickUpper","type":"int24","internalType":"int24"},{"name":"ttl","type":"uint256","internalType":"uint256"},{"name":"isCall","type":"bool","internalType":"bool"},{"name":"maxCostAllowance","type":"uint256","internalType":"uint256"}]}],"outputs":[],"stateMutability":"nonpayable"},{"type":"function","name":"multicall","inputs":[{"name":"data","type":"bytes[]","internalType":"bytes[]"}],"outputs":[{"name":"results","type":"bytes[]","internalType":"bytes[]"}],"stateMutability":"nonpayable"},{"type":"function","name":"name","inputs":[],"outputs":[{"name":"","type":"string","internalType":"string"}],"stateMutability":"view"},{"type":"function","name":"opData","inputs":[{"name":"","type":"uint256","internalType":"uint256"}],"outputs":[{"name":"opTickArrayLen","type":"uint256","internalType":"uint256"},{"name":"tickLower","type":"int24","internalType":"int24"},{"name":"tickUpper","type":"int24","internalType":"int24"},{"name":"expiry","type":"uint256","internalType":"uint256"},{"name":"isCall","type":"bool","internalType":"bool"}],"stateMutability":"view"},{"type":"function","name":"opTickMap","inputs":[{"name":"","type":"uint256","internalType":"uint256"},{"name":"","type":"uint256","internalType":"uint256"}],"outputs":[{"name":"_handler","type":"address","internalType":"contract IHandler"},{"name":"pool","type":"address","internalType":"contract IUniswapV3Pool"},{"name":"hook","type":"address","internalType":"address"},{"name":"tickLower","type":"int24","internalType":"int24"},{"name":"tickUpper","type":"int24","internalType":"int24"},{"name":"liquidityToUse","type":"uint256","internalType":"uint256"}],"stateMutability":"view"},{"type":"function","name":"optionIds","inputs":[],"outputs":[{"name":"","type":"uint256","internalType":"uint256"}],"stateMutability":"view"},{"type":"function","name":"optionPricing","inputs":[],"outputs":[{"name":"","type":"address","internalType":"contract IOptionPricingV2"}],"stateMutability":"view"},{"type":"function","name":"owner","inputs":[],"outputs":[{"name":"","type":"address","internalType":"address"}],"stateMutability":"view"},{"type":"function","name":"ownerOf","inputs":[{"name":"id","type":"uint256","internalType":"uint256"}],"outputs":[{"name":"result","type":"address","internalType":"address"}],"stateMutability":"view"},{"type":"function","name":"positionManager","inputs":[],"outputs":[{"name":"","type":"address","internalType":"contract IPositionManager"}],"stateMutability":"view"},{"type":"function","name":"positionSplitter","inputs":[{"name":"_params","type":"tuple","internalType":"struct OptionsOTM.PositionSplitterParams","components":[{"name":"optionId","type":"uint256","internalType":"uint256"},{"name":"to","type":"address","internalType":"address"},{"name":"liquidityToSplit","type":"uint256[]","internalType":"uint256[]"}]}],"outputs":[],"stateMutability":"nonpayable"},{"type":"function","name":"primePool","inputs":[],"outputs":[{"name":"","type":"address","internalType":"contract IUniswapV3Pool"}],"stateMutability":"view"},{"type":"function","name":"putAsset","inputs":[],"outputs":[{"name":"","type":"address","internalType":"address"}],"stateMutability":"view"},{"type":"function","name":"putAssetDecimals","inputs":[],"outputs":[{"name":"","type":"uint8","internalType":"uint8"}],"stateMutability":"view"},{"type":"function","name":"renounceOwnership","inputs":[],"outputs":[],"stateMutability":"nonpayable"},{"type":"function","name":"safeTransferFrom","inputs":[{"name":"from","type":"address","internalType":"address"},{"name":"to","type":"address","internalType":"address"},{"name":"id","type":"uint256","internalType":"uint256"}],"outputs":[],"stateMutability":"payable"},{"type":"function","name":"safeTransferFrom","inputs":[{"name":"from","type":"address","internalType":"address"},{"name":"to","type":"address","internalType":"address"},{"name":"id","type":"uint256","internalType":"uint256"},{"name":"data","type":"bytes","internalType":"bytes"}],"outputs":[],"stateMutability":"payable"},{"type":"function","name":"setApprovalForAll","inputs":[{"name":"operator","type":"address","internalType":"address"},{"name":"isApproved","type":"bool","internalType":"bool"}],"outputs":[],"stateMutability":"nonpayable"},{"type":"function","name":"settleOption","inputs":[{"name":"_params","type":"tuple","internalType":"struct OptionsOTM.SettleOptionParams","components":[{"name":"optionId","type":"uint256","internalType":"uint256"},{"name":"swapper","type":"address[]","internalType":"contract ISwapper[]"},{"name":"swapData","type":"bytes[]","internalType":"bytes[]"},{"name":"liquidityToSettle","type":"uint256[]","internalType":"uint256[]"}]}],"outputs":[],"stateMutability":"nonpayable"},{"type":"function","name":"settlers","inputs":[{"name":"","type":"address","internalType":"address"}],"outputs":[{"name":"","type":"bool","internalType":"bool"}],"stateMutability":"view"},{"type":"function","name":"supportsInterface","inputs":[{"name":"interfaceId","type":"bytes4","internalType":"bytes4"}],"outputs":[{"name":"result","type":"bool","internalType":"bool"}],"stateMutability":"view"},{"type":"function","name":"symbol","inputs":[],"outputs":[{"name":"","type":"string","internalType":"string"}],"stateMutability":"view"},{"type":"function","name":"tokenURI","inputs":[{"name":"id","type":"uint256","internalType":"uint256"}],"outputs":[{"name":"","type":"string","internalType":"string"}],"stateMutability":"view"},{"type":"function","name":"tokenURIFetcher","inputs":[],"outputs":[{"name":"","type":"address","internalType":"address"}],"stateMutability":"view"},{"type":"function","name":"transferFrom","inputs":[{"name":"from","type":"address","internalType":"address"},{"name":"to","type":"address","internalType":"address"},{"name":"id","type":"uint256","internalType":"uint256"}],"outputs":[],"stateMutability":"payable"},{"type":"function","name":"transferOwnership","inputs":[{"name":"newOwner","type":"address","internalType":"address"}],"outputs":[],"stateMutability":"nonpayable"},{"type":"function","name":"updateAddress","inputs":[{"name":"_feeTo","type":"address","internalType":"address"},{"name":"_tokeURIFetcher","type":"address","internalType":"address"},{"name":"_dpFee","type":"address","internalType":"address"},{"name":"_optionPricing","type":"address","internalType":"address"},{"name":"_settler","type":"address","internalType":"address"},{"name":"_statusSettler","type":"bool","internalType":"bool"},{"name":"_pool","type":"address","internalType":"address"},{"name":"_statusPools","type":"bool","internalType":"bool"}],"outputs":[],"stateMutability":"nonpayable"},{"type":"function","name":"updateExerciseDelegate","inputs":[{"name":"_delegateTo","type":"address","internalType":"address"},{"name":"_status","type":"bool","internalType":"bool"}],"outputs":[],"stateMutability":"nonpayable"},{"type":"event","name":"Approval","inputs":[{"name":"owner","type":"address","indexed":true,"internalType":"address"},{"name":"account","type":"address","indexed":true,"internalType":"address"},{"name":"id","type":"uint256","indexed":true,"internalType":"uint256"}],"anonymous":false},{"type":"event","name":"ApprovalForAll","inputs":[{"name":"owner","type":"address","indexed":true,"internalType":"address"},{"name":"operator","type":"address","indexed":true,"internalType":"address"},{"name":"isApproved","type":"bool","indexed":false,"internalType":"bool"}],"anonymous":false},{"type":"event","name":"LogExerciseOption","inputs":[{"name":"user","type":"address","indexed":false,"internalType":"address"},{"name":"tokenId","type":"uint256","indexed":false,"internalType":"uint256"},{"name":"totalProfit","type":"uint256","indexed":false,"internalType":"uint256"},{"name":"totalAssetRelocked","type":"uint256","indexed":false,"internalType":"uint256"}],"anonymous":false},{"type":"event","name":"LogMintOption","inputs":[{"name":"user","type":"address","indexed":false,"internalType":"address"},{"name":"tokenId","type":"uint256","indexed":false,"internalType":"uint256"},{"name":"isCall","type":"bool","indexed":false,"internalType":"bool"},{"name":"premiumAmount","type":"uint256","indexed":false,"internalType":"uint256"},{"name":"totalAssetWithdrawn","type":"uint256","indexed":false,"internalType":"uint256"},{"name":"protocolFees","type":"uint256","indexed":false,"internalType":"uint256"}],"anonymous":false},{"type":"event","name":"LogOptionsMarketInitialized","inputs":[{"name":"primePool","type":"address","indexed":false,"internalType":"address"},{"name":"optionPricing","type":"address","indexed":false,"internalType":"address"},{"name":"dpFee","type":"address","indexed":false,"internalType":"address"},{"name":"callAsset","type":"address","indexed":false,"internalType":"address"},{"name":"putAsset","type":"address","indexed":false,"internalType":"address"}],"anonymous":false},{"type":"event","name":"LogSettleOption","inputs":[{"name":"user","type":"address","indexed":false,"internalType":"address"},{"name":"tokenId","type":"uint256","indexed":false,"internalType":"uint256"}],"anonymous":false},{"type":"event","name":"LogSplitOption","inputs":[{"name":"user","type":"address","indexed":false,"internalType":"address"},{"name":"tokenId","type":"uint256","indexed":false,"internalType":"uint256"},{"name":"newTokenId","type":"uint256","indexed":false,"internalType":"uint256"},{"name":"to","type":"address","indexed":false,"internalType":"address"}],"anonymous":false},{"type":"event","name":"LogUpdateAddress","inputs":[{"name":"tokeURIFetcher","type":"address","indexed":false,"internalType":"address"},{"name":"dpFee","type":"address","indexed":false,"internalType":"address"},{"name":"optionPricing","type":"address","indexed":false,"internalType":"address"}],"anonymous":false},{"type":"event","name":"LogUpdateExerciseDelegate","inputs":[{"name":"owner","type":"address","indexed":false,"internalType":"address"},{"name":"delegate","type":"address","indexed":false,"internalType":"address"},{"name":"status","type":"bool","indexed":false,"internalType":"bool"}],"anonymous":false},{"type":"event","name":"OwnershipTransferred","inputs":[{"name":"previousOwner","type":"address","indexed":true,"internalType":"address"},{"name":"newOwner","type":"address","indexed":true,"internalType":"address"}],"anonymous":false},{"type":"event","name":"Transfer","inputs":[{"name":"from","type":"address","indexed":true,"internalType":"address"},{"name":"to","type":"address","indexed":true,"internalType":"address"},{"name":"id","type":"uint256","indexed":true,"internalType":"uint256"}],"anonymous":false},{"type":"error","name":"AccountBalanceOverflow","inputs":[]},{"type":"error","name":"AddressEmptyCode","inputs":[{"name":"target","type":"address","internalType":"address"}]},{"type":"error","name":"ArrayLenMismatch","inputs":[]},{"type":"error","name":"BalanceQueryForZeroAddress","inputs":[]},{"type":"error","name":"EmptyOption","inputs":[]},{"type":"error","name":"FailedInnerCall","inputs":[]},{"type":"error","name":"IVNotSet","inputs":[]},{"type":"error","name":"InvalidPool","inputs":[]},{"type":"error","name":"MaxCostAllowanceExceeded","inputs":[]},{"type":"error","name":"MaxOptionBuyReached","inputs":[]},{"type":"error","name":"NotApprovedSettler","inputs":[]},{"type":"error","name":"NotEnoughAfterSwap","inputs":[]},{"type":"error","name":"NotIVSetter","inputs":[]},{"type":"error","name":"NotOwnerNorApproved","inputs":[]},{"type":"error","name":"NotOwnerOrDelegator","inputs":[]},{"type":"error","name":"NotValidStrikeTick","inputs":[]},{"type":"error","name":"OptionExpired","inputs":[]},{"type":"error","name":"OptionNotExpired","inputs":[]},{"type":"error","name":"OwnableInvalidOwner","inputs":[{"name":"owner","type":"address","internalType":"address"}]},{"type":"error","name":"OwnableUnauthorizedAccount","inputs":[{"name":"account","type":"address","internalType":"address"}]},{"type":"error","name":"PoolNotApproved","inputs":[]},{"type":"error","name":"ReentrancyGuardReentrantCall","inputs":[]},{"type":"error","name":"T","inputs":[]},{"type":"error","name":"TokenAlreadyExists","inputs":[]},{"type":"error","name":"TokenDoesNotExist","inputs":[]},{"type":"error","name":"TransferFromIncorrectOwner","inputs":[]},{"type":"error","name":"TransferToNonERC721ReceiverImplementer","inputs":[]},{"type":"error","name":"TransferToZeroAddress","inputs":[]}],"bytecode":{"object":"0x61014060405234801561001157600080fd5b5060405161641238038061641283398101604081905261003091610479565b6001600055338061005b57604051631e4fbdf760e01b81526000600482015260240160405180910390fd5b6100648161040b565b506001600160a01b0386811660805283811660c081905283821660e052600280546001600160a01b0319908116888516179091556003805490911688841617905590821660a081905260408051630dfe168160e01b81529051630dfe1681916004808201926020929091908290030181865afa1580156100e8573d6000803e3d6000fd5b505050506040513d601f19601f8201168201806040525081019061010c91906104ed565b6001600160a01b0316141580156101985750826001600160a01b031660a0516001600160a01b031663d21220a76040518163ffffffff1660e01b8152600401602060405180830381865afa158015610168573d6000803e3d6000fd5b505050506040513d601f19601f8201168201806040525081019061018c91906104ed565b6001600160a01b031614155b156101b55760405162820f3560e61b815260040160405180910390fd5b816001600160a01b031660a0516001600160a01b0316630dfe16816040518163ffffffff1660e01b8152600401602060405180830381865afa1580156101ff573d6000803e3d6000fd5b505050506040513d601f19601f8201168201806040525081019061022391906104ed565b6001600160a01b0316141580156102af5750816001600160a01b031660a0516001600160a01b031663d21220a76040518163ffffffff1660e01b8152600401602060405180830381865afa15801561027f573d6000803e3d6000fd5b505050506040513d601f19601f820116820180604052508101906102a391906104ed565b6001600160a01b031614155b156102cc5760405162820f3560e61b815260040160405180910390fd5b826001600160a01b031663313ce5676040518163ffffffff1660e01b8152600401602060405180830381865afa15801561030a573d6000803e3d6000fd5b505050506040513d601f19601f8201168201806040525081019061032e919061050f565b60ff166101008160ff1681525050816001600160a01b031663313ce5676040518163ffffffff1660e01b8152600401602060405180830381865afa15801561037a573d6000803e3d6000fd5b505050506040513d601f19601f8201168201806040525081019061039e919061050f565b60ff1661012052604080516001600160a01b03838116825287811660208301528681168284015285811660608301528416608082015290517ff432a680e02fd7036a5fd19b4cc769273e33297dfb07a00278dd8f5bfa3fb67d9181900360a00190a1505050505050610532565b600180546001600160a01b038381166001600160a01b0319831681179093556040519116919082907f8be0079c531659141344cd1fd0a4f28419497f9722a3daafe3b4186f6b6457e090600090a35050565b80516001600160a01b038116811461047457600080fd5b919050565b60008060008060008060c0878903121561049257600080fd5b61049b8761045d565b95506104a96020880161045d565b94506104b76040880161045d565b93506104c56060880161045d565b92506104d36080880161045d565b91506104e160a0880161045d565b90509295509295509295565b6000602082840312156104ff57600080fd5b6105088261045d565b9392505050565b60006020828403121561052157600080fd5b815160ff8116811461050857600080fd5b60805160a05160c05160e0516101005161012051615d486106ca600039600081816103ac0152818161372c01526146f001526000818161052c015281816146c0015281816147c201528181614aae01528181614ae801528181614be80152614c1c01526000818161090801528181610cbb01528181610e3801528181610eba01528181611ef60152818161207b015281816120fd015281816130f201528181613ea00152613f3e01526000818161060401528181610d7601528181610e5e01528181610e9401528181611fb1015281816120a1015281816120d70152818161311801528181613d6901528181613deb01528181614a740152614bae01526000818161044901528181610ce501528181610da001528181611f2001528181611fdb0152818161366201526136ee0152600081816106cd0152818161138d015281816114f20152818161227e0152818161232b0152818161270a0152818161284a015281816128cd01528181612a9201528181612b1501528181612d4c01528181613431015281816138f30152613abf0152615d486000f3fe6080604052600436106102675760003560e01c8063715018a611610144578063bde0a7df116100b6578063d250185c1161007a578063d250185c1461092a578063d302f2b81461094a578063e985e9c51461096a578063eb22eccb146109a0578063f0bbcec4146109c0578063f2fde38b146109f057600080fd5b8063bde0a7df14610866578063c35ca61214610886578063c70a900f146108a6578063c87b56dd146108d6578063c8de6e83146108f657600080fd5b8063a22cb46511610108578063a22cb46514610762578063a2b15e4c14610782578063aad2402a146107e6578063ab89fbaf14610806578063ac9650d814610826578063b88d4fde1461085357600080fd5b8063715018a6146106a6578063791b98bc146106bb5780638da5cb5b146106ef57806395d89b411461070d5780639d98f4121461074257600080fd5b806332f530a7116101dd578063600b584b116101a1578063600b584b146105d257806361f812a4146105f25780636352211e146106265780636c808df2146106465780636ff1c9bc1461066657806370a082311461068657600080fd5b806332f530a71461046b5780633b2b4603146104cc57806342842e0e14610507578063503732761461051a5780635673a2211461054e57600080fd5b8063095ea7b31161022f578063095ea7b3146103855780630d51249b1461039a5780631508b8e2146103e05780631e3394fb1461040457806323b872dd14610424578063271ab5171461043757600080fd5b8063017e7e581461026c57806301ffc9a7146102a957806306fdde03146102f657806307d88aad14610345578063081812fc14610365575b600080fd5b34801561027857600080fd5b5060045461028c906001600160a01b031681565b6040516001600160a01b0390911681526020015b60405180910390f35b3480156102b557600080fd5b506102e66102c4366004615064565b6301ffc9a760e09190911c9081146380ac58cd821417635b5e139f9091141790565b60405190151581526020016102a0565b34801561030257600080fd5b5060408051808201909152601981527f446f706578205632204f7074696f6e204d61726b65742056320000000000000060208201525b6040516102a091906150de565b34801561035157600080fd5b5060055461028c906001600160a01b031681565b34801561037157600080fd5b5061028c6103803660046150f1565b610a10565b61039861039336600461511f565b610a4f565b005b3480156103a657600080fd5b506103ce7f000000000000000000000000000000000000000000000000000000000000000081565b60405160ff90911681526020016102a0565b3480156103ec57600080fd5b506103f6600b5481565b6040519081526020016102a0565b34801561041057600080fd5b5060035461028c906001600160a01b031681565b61039861043236600461514b565b610a5e565b34801561044357600080fd5b5061028c7f000000000000000000000000000000000000000000000000000000000000000081565b34801561047757600080fd5b5061048b6104863660046151a4565b610b75565b6040516102a0919081516001600160a01b03908116825260208084015190911690820152604080830151908201526060918201519181019190915260800190565b3480156104d857600080fd5b506102e66104e73660046151d8565b600860209081526000928352604080842090915290825290205460ff1681565b61039861051536600461514b565b6116d6565b34801561052657600080fd5b506103ce7f000000000000000000000000000000000000000000000000000000000000000081565b34801561055a57600080fd5b506105a26105693660046150f1565b600660205260009081526040902080546001820154600280840154600390940154929382820b93630100000090930490910b9160ff1685565b60408051958652600294850b60208701529290930b9184019190915260608301521515608082015260a0016102a0565b3480156105de57600080fd5b506103986105ed36600461521f565b611703565b3480156105fe57600080fd5b5061028c7f000000000000000000000000000000000000000000000000000000000000000081565b34801561063257600080fd5b5061028c6106413660046150f1565b611779565b34801561065257600080fd5b506103f661066136600461524d565b6117b2565b34801561067257600080fd5b50610398610681366004615291565b6117cd565b34801561069257600080fd5b506103f66106a1366004615291565b6118a7565b3480156106b257600080fd5b506103986118e2565b3480156106c757600080fd5b5061028c7f000000000000000000000000000000000000000000000000000000000000000081565b3480156106fb57600080fd5b506001546001600160a01b031661028c565b34801561071957600080fd5b5060408051808201909152600c81526b22282c16ab1916a7a696ab1960a11b6020820152610338565b34801561074e57600080fd5b5061039861075d3660046152ae565b6118f6565b34801561076e57600080fd5b5061039861077d36600461521f565b611d3e565b34801561078e57600080fd5b506107a261079d3660046152e8565b611d94565b604080516001600160a01b03978816815295871660208701529390951692840192909252600290810b60608401520b608082015260a081019190915260c0016102a0565b3480156107f257600080fd5b506103986108013660046151a4565b611e01565b34801561081257600080fd5b506103f6610821366004615291565b612e45565b34801561083257600080fd5b5061084661084136600461530a565b612ef6565b6040516102a0919061537f565b6103986108613660046153e4565b612fde565b34801561087257600080fd5b50610398610881366004615483565b613039565b34801561089257600080fd5b506103986108a13660046154bd565b613ccc565b3480156108b257600080fd5b506102e66108c1366004615291565b600a6020526000908152604090205460ff1681565b3480156108e257600080fd5b506103386108f13660046150f1565b614047565b34801561090257600080fd5b5061028c7f000000000000000000000000000000000000000000000000000000000000000081565b34801561093657600080fd5b506103f66109453660046152e8565b6140b9565b34801561095657600080fd5b5060025461028c906001600160a01b031681565b34801561097657600080fd5b506102e66109853660046151d8565b601c52670a5a2e7a000000006008526000526030600c205490565b3480156109ac57600080fd5b506103f66109bb366004615578565b61413b565b3480156109cc57600080fd5b506102e66109db366004615291565b60096020526000908152604090205460ff1681565b3480156109fc57600080fd5b50610398610a0b366004615291565b614147565b600081600052673ec412a9852d173d60c11b601c52602060002082018201805460601b610a455763ceea21b66000526004601cfd5b6001015492915050565b610a5a338383614187565b5050565b6000818152673ec412a9852d173d60c11b3317601c52602090208101810180546001600160a01b039485169493841693811691908286148302610abc5782610aae5763ceea21b66000526004601cfd5b63a11481006000526004601cfd5b84610acf5763ea553b346000526004601cfd5b856000528160010154925082331486331417610afd576030600c2054610afd57634b6e7f186000526004601cfd5b8215610b0b57600082600101555b85851818905550601c600c8181208054600019019055600084905220805460010163ffffffff8116610b45576301336cea6000526004601cfd5b90558082847fddf252ad1be2c89b69c2b068fc378daa952ba7f163c4a11628f55a4df523b3ef600038a45b505050565b610b7d61502a565b610b85614228565b33610b908335611779565b6001600160a01b031614158015610bdc575060086000610bb08435611779565b6001600160a01b031681526020808201929092526040908101600090812033825290925290205460ff16155b15610bfd57604051600162486bc960e11b0319815260040160405180910390fd5b8135600090815260066020908152604091829020825160a081018452815481526001820154600281810b9483019490945263010000009004830b938101939093529081015460608084019190915260039091015460ff1615156080830152610c67908401846155ad565b8251149050610c8957604051630dcb503560e11b815260040160405180910390fd5b4281606001511015610cae57604051637676819d60e01b815260040160405180910390fd5b60008160800151610d74577f00000000000000000000000000000000000000000000000000000000000000006001600160a01b03167f00000000000000000000000000000000000000000000000000000000000000006001600160a01b0316630dfe16816040518163ffffffff1660e01b8152600401602060405180830381865afa158015610d41573d6000803e3d6000fd5b505050506040513d601f19601f82011682018060405250810190610d6591906155fd565b6001600160a01b031614610e2b565b7f00000000000000000000000000000000000000000000000000000000000000006001600160a01b03167f00000000000000000000000000000000000000000000000000000000000000006001600160a01b0316630dfe16816040518163ffffffff1660e01b8152600401602060405180830381865afa158015610dfc573d6000803e3d6000fd5b505050506040513d601f19601f82011682018060405250810190610e2091906155fd565b6001600160a01b0316145b90508160800151610e5c577f0000000000000000000000000000000000000000000000000000000000000000610e7e565b7f00000000000000000000000000000000000000000000000000000000000000005b6001600160a01b031683526080820151610eb8577f0000000000000000000000000000000000000000000000000000000000000000610eda565b7f00000000000000000000000000000000000000000000000000000000000000005b6001600160a01b0316602084015260005b82518110156115e857610f0160608601866155ad565b82818110610f1157610f1161561a565b90506020020135600003156115e05784356000908152600760205260408120805483908110610f4257610f4261561a565b90600052602060002090600402019050600083610fbc57600280830154610fb791610f7591600160a01b9004900b614252565b600280850154610f8e91600160b81b909104900b614252565b610f9b60608b018b6155ad565b87818110610fab57610fab61561a565b90506020020135614575565b61101a565b60028083015461101a91610fd891600160a01b9004900b614252565b600280850154610ff191600160b81b909104900b614252565b610ffe60608b018b6155ad565b8781811061100e5761100e61561a565b905060200201356145b8565b9050808660600181815161102e9190615646565b90525060208601516040516370a0823160e01b81523060048201526000916001600160a01b0316906370a0823190602401602060405180830381865afa15801561107c573d6000803e3d6000fd5b505050506040513d601f19601f820116820180604052508101906110a09190615659565b87519091506001600160a01b031663a9059cbb6110c060208b018b6155ad565b878181106110d0576110d061561a565b90506020020160208101906110e59190615291565b846040518363ffffffff1660e01b8152600401611103929190615672565b6020604051808303816000875af1158015611122573d6000803e3d6000fd5b505050506040513d601f19601f82011682018060405250810190611146919061568b565b5061115460208901896155ad565b858181106111645761116461561a565b90506020020160208101906111799190615291565b6001600160a01b031663f3be6fc288600001518960200151858c80604001906111a291906155ad565b8a8181106111b2576111b261561a565b90506020028101906111c491906156a8565b6040518663ffffffff1660e01b81526004016111e49594939291906156ee565b6020604051808303816000875af1158015611203573d6000803e3d6000fd5b505050506040513d601f19601f820116820180604052508101906112279190615659565b50600085611286576002808501546112819161124b91600160a01b9004900b614252565b60028087015461126491600160b81b909104900b614252565b61127160608d018d6155ad565b8981811061100e5761100e61561a565b6112d8565b6002808501546112d8916112a291600160a01b9004900b614252565b6002808701546112bb91600160b81b909104900b614252565b6112c860608d018d6155ad565b89818110610fab57610fab61561a565b60208901516040516370a0823160e01b81523060048201529192506000916001600160a01b03909116906370a0823190602401602060405180830381865afa158015611328573d6000803e3d6000fd5b505050506040513d601f19601f8201168201806040525081019061134c9190615659565b90506113588284615646565b811015611378576040516360e710f160e01b815260040160405180910390fd5b88602001516001600160a01b031663095ea7b37f0000000000000000000000000000000000000000000000000000000000000000846040518363ffffffff1660e01b81526004016113ca929190615672565b6020604051808303816000875af11580156113e9573d6000803e3d6000fd5b505050506040513d601f19601f8201168201806040525081019061140d919061568b565b5060008560010160009054906101000a90046001600160a01b03168660020160009054906101000a90046001600160a01b03168760020160149054906101000a900460020b8860020160179054906101000a900460020b8e806060019061147491906155ad565b8c8181106114845761148461561a565b905060200201356040516020016114a690602080825260009082015260400190565b60408051601f19818403018152908290526114c896959493929160200161573f565b60408051601f1981840301815290829052875463d5256ca360e01b83529092506001600160a01b037f000000000000000000000000000000000000000000000000000000000000000081169263d5256ca39261152a9216908590600401615790565b6000604051808303816000875af1158015611549573d6000803e3d6000fd5b505050506040513d6000823e601f3d908101601f19168201604052611571919081019061588a565b50611581905060608c018c6155ad565b888181106115915761159161561a565b905060200201358660030160008282546115ab91906158d0565b909155506115bb90508385615646565b6115c590836158d0565b8a6040018181516115d69190615646565b9052505050505050505b600101610eeb565b5082602001516001600160a01b031663a9059cbb3385604001516040518363ffffffff1660e01b815260040161161f929190615672565b6020604051808303816000875af115801561163e573d6000803e3d6000fd5b505050506040513d601f19601f82011682018060405250810190611662919061568b565b507f47283bcc199cd4d1c53508922f5a4d8a832a4fdf09854c82acf3ae49da4d446f61168e8535611779565b60408581015160608088015183516001600160a01b039095168552893560208601529284019190915282015260800160405180910390a150506116d16001600055565b919050565b6116e1838383610a5e565b813b15610b7057610b7083838360405180602001604052806000815250614627565b3360008181526008602090815260408083206001600160a01b03871680855290835292819020805460ff1916861515908117909155815194855291840192909252908201527f4ee86bb98ad0d189c6475dd48829e8525e468f3721ab971f0c0914e6693c8da69060600160405180910390a15050565b6000818152673ec412a9852d173d60c11b601c526020902081018101546001600160a01b0316806116d15763ceea21b66000526004601cfd5b60006117c186868686866146b3565b90505b95945050505050565b6117d5614807565b6040516370a0823160e01b81523060048201526001600160a01b0382169063a9059cbb90339083906370a0823190602401602060405180830381865afa158015611823573d6000803e3d6000fd5b505050506040513d601f19601f820116820180604052508101906118479190615659565b6040518363ffffffff1660e01b8152600401611864929190615672565b6020604051808303816000875af1158015611883573d6000803e3d6000fd5b505050506040513d601f19601f82011682018060405250810190610a5a919061568b565b6000816118bc57638f4eb6046000526004601cfd5b673ec412a9852d173d60c11b601c528160005263ffffffff601c600c2054169050919050565b6118ea614807565b6118f46000614834565b565b6118fe614228565b6001600b60008282546119119190615646565b909155503390506119228235611779565b6001600160a01b03161461194c57604051600162486bc960e11b0319815260040160405180910390fd5b8035600090815260066020908152604091829020825160a081018452815481526001820154600281810b9483019490945263010000009004830b818501529181015460608301526003015460ff1615156080820152906119ae908301836155ad565b82511490506119d057604051630dcb503560e11b815260040160405180910390fd5b60005b6119e060408401846155ad565b9050811015611be3576119f660408401846155ad565b82818110611a0657611a0661561a565b90506020020135600003611a2d57604051630f5e795760e01b815260040160405180910390fd5b82356000908152600760205260408120805483908110611a4f57611a4f61561a565b90600052602060002090600402019050838060400190611a6f91906155ad565b83818110611a7f57611a7f61561a565b90506020020135816003016000828254611a9991906158d0565b9091555050600b54600090815260076020908152604091829020825160c08101845284546001600160a01b039081168252600186015481169382019390935260028086015493841682860152600160a01b8404810b6060830152600160b81b90930490920b60808301529160a0820190611b15908801886155ad565b86818110611b2557611b2561561a565b60209081029290920135909252835460018082018655600095865294829020845160049092020180546001600160a01b03199081166001600160a01b0393841617825592850151818701805490941690831617909255604084015160028301805460608701516080880151939094166001600160b81b031990911617600160a01b62ffffff948516021762ffffff60b81b1916600160b81b939092169290920217905560a090920151600390920191909155509190910190506119d3565b506040518060a00160405280838060400190611bff91906155ad565b825250602083810151600290810b82840152604080860151820b8185015260608087015181860152608080880151151595810195909552600b5460009081526006855282902086518155868501516001820180548986015162ffffff90811663010000000265ffffffffffff19909216931692909217919091179055908601519281019290925593909201516003909201805492151560ff1990931692909217909155611cbd91611cb591908501908501615291565b600b54614886565b7f3779f4b7536f6b691eedf9d61bc0de6479c985968b9589d147af2169b9d5789c611ce88335611779565b600b54843590611cfe6040870160208801615291565b604080516001600160a01b0395861681526020810194909452830191909152909116606082015260800160405180910390a150611d3b6001600055565b50565b801515905081601c52670a5a2e7a0000000060085233600052806030600c2055806000528160601b60601c337f17307eab39ab6107e8899845ad3d59bd9653f200f220920489ca2b5937696c3160206000a35050565b60076020528160005260406000208181548110611db057600080fd5b60009182526020909120600490910201805460018201546002808401546003909401546001600160a01b039384169650918316945091831692600160a01b8104830b92600160b81b909104900b9086565b611e09614228565b336000908152600a602052604090205460ff16611e3957604051630184bf0960e01b815260040160405180910390fd5b8035600090815260066020908152604091829020825160a081018452815481526001820154600281810b9483019490945263010000009004830b938101939093529081015460608084019190915260039091015460ff1615156080830152611ea3908301836155ad565b8251149050611ec557604051630dcb503560e11b815260040160405180910390fd5b80606001514211611ee957604051630537ce7360e31b815260040160405180910390fd5b60008160800151611faf577f00000000000000000000000000000000000000000000000000000000000000006001600160a01b03167f00000000000000000000000000000000000000000000000000000000000000006001600160a01b0316630dfe16816040518163ffffffff1660e01b8152600401602060405180830381865afa158015611f7c573d6000803e3d6000fd5b505050506040513d601f19601f82011682018060405250810190611fa091906155fd565b6001600160a01b031614612066565b7f00000000000000000000000000000000000000000000000000000000000000006001600160a01b03167f00000000000000000000000000000000000000000000000000000000000000006001600160a01b0316630dfe16816040518163ffffffff1660e01b8152600401602060405180830381865afa158015612037573d6000803e3d6000fd5b505050506040513d601f19601f8201168201806040525081019061205b91906155fd565b6001600160a01b0316145b905061207061502a565b826080015161209f577f00000000000000000000000000000000000000000000000000000000000000006120c1565b7f00000000000000000000000000000000000000000000000000000000000000005b6001600160a01b0316815260808301516120fb577f000000000000000000000000000000000000000000000000000000000000000061211d565b7f00000000000000000000000000000000000000000000000000000000000000005b6001600160a01b0316602082015260005b8351811015612df45761214460608601866155ad565b828181106121545761215461561a565b9050602002013560000315612dec57843560009081526007602052604081208054839081106121855761218561561a565b60009182526020822060049091020191506121a360608801886155ad565b848181106121b3576121b361561a565b90506020020135905060008061221a6121e28560010160009054906101000a90046001600160a01b03166148a0565b6002808701546121fb91600160a01b909104900b614252565b60028088015461221491600160b81b909104900b614252565b8661493b565b9150915060008211801561222c575080155b806122405750600081118015612240575081155b1561281d578680156122525750600082115b156122f157855160405163095ea7b360e01b81526001600160a01b039091169063095ea7b3906122a8907f0000000000000000000000000000000000000000000000000000000000000000908690600401615672565b6020604051808303816000875af11580156122c7573d6000803e3d6000fd5b505050506040513d601f19601f820116820180604052508101906122eb919061568b565b50612caf565b861580156122ff5750600081115b1561235557855160405163095ea7b360e01b81526001600160a01b039091169063095ea7b3906122a8907f0000000000000000000000000000000000000000000000000000000000000000908590600401615672565b60008761239c576002808601546123979161237891600160a01b9004900b614252565b60028088015461239191600160b81b909104900b614252565b86614575565b6123d7565b6002808601546123d7916123b891600160a01b9004900b614252565b6002808801546123d191600160b81b909104900b614252565b866145b8565b60208801516040516370a0823160e01b81523060048201529192506000916001600160a01b03909116906370a0823190602401602060405180830381865afa158015612427573d6000803e3d6000fd5b505050506040513d601f19601f8201168201806040525081019061244b9190615659565b88519091506001600160a01b031663a9059cbb61246b60208e018e6155ad565b8a81811061247b5761247b61561a565b90506020020160208101906124909190615291565b846040518363ffffffff1660e01b81526004016124ae929190615672565b6020604051808303816000875af11580156124cd573d6000803e3d6000fd5b505050506040513d601f19601f820116820180604052508101906124f1919061568b565b506124ff60208c018c6155ad565b8881811061250f5761250f61561a565b90506020020160208101906125249190615291565b6001600160a01b031663f3be6fc289600001518a60200151858f806040019061254d91906155ad565b8d81811061255d5761255d61561a565b905060200281019061256f91906156a8565b6040518663ffffffff1660e01b815260040161258f9594939291906156ee565b6020604051808303816000875af11580156125ae573d6000803e3d6000fd5b505050506040513d601f19601f820116820180604052508101906125d29190615659565b5060008961261a57600280880154612615916125f691600160a01b9004900b614252565b6002808a015461260f91600160b81b909104900b614252565b886145b8565b612655565b6002808801546126559161263691600160a01b9004900b614252565b6002808a015461264f91600160b81b909104900b614252565b88614575565b60208a01516040516370a0823160e01b81523060048201529192506000916001600160a01b03909116906370a0823190602401602060405180830381865afa1580156126a5573d6000803e3d6000fd5b505050506040513d601f19601f820116820180604052508101906126c99190615659565b90506126d58284615646565b8110156126f5576040516360e710f160e01b815260040160405180910390fd5b89602001516001600160a01b031663095ea7b37f0000000000000000000000000000000000000000000000000000000000000000846040518363ffffffff1660e01b8152600401612747929190615672565b6020604051808303816000875af1158015612766573d6000803e3d6000fd5b505050506040513d601f19601f8201168201806040525081019061278a919061568b565b5060208a01516001600160a01b031663a9059cbb336127a98587615646565b6127b390856158d0565b6040518363ffffffff1660e01b81526004016127d0929190615672565b6020604051808303816000875af11580156127ef573d6000803e3d6000fd5b505050506040513d601f19601f82011682018060405250810190612813919061568b565b5050505050612caf565b8615612a6b57855160405163095ea7b360e01b81526001600160a01b039091169063095ea7b390612874907f0000000000000000000000000000000000000000000000000000000000000000908690600401615672565b6020604051808303816000875af1158015612893573d6000803e3d6000fd5b505050506040513d601f19601f820116820180604052508101906128b7919061568b565b5085602001516001600160a01b031663095ea7b37f0000000000000000000000000000000000000000000000000000000000000000836040518363ffffffff1660e01b815260040161290a929190615672565b6020604051808303816000875af1158015612929573d6000803e3d6000fd5b505050506040513d601f19601f8201168201806040525081019061294d919061568b565b5060028085015460009161296e916123b891600160a01b909104900b614252565b60208801516040516323b872dd60e01b81529192506001600160a01b0316906323b872dd906129a5903390309087906004016158e3565b6020604051808303816000875af11580156129c4573d6000803e3d6000fd5b505050506040513d601f19601f820116820180604052508101906129e8919061568b565b5086516001600160a01b031663a9059cbb33612a0486856158d0565b6040518363ffffffff1660e01b8152600401612a21929190615672565b6020604051808303816000875af1158015612a40573d6000803e3d6000fd5b505050506040513d601f19601f82011682018060405250810190612a64919061568b565b5050612caf565b855160405163095ea7b360e01b81526001600160a01b039091169063095ea7b390612abc907f0000000000000000000000000000000000000000000000000000000000000000908590600401615672565b6020604051808303816000875af1158015612adb573d6000803e3d6000fd5b505050506040513d601f19601f82011682018060405250810190612aff919061568b565b5085602001516001600160a01b031663095ea7b37f0000000000000000000000000000000000000000000000000000000000000000846040518363ffffffff1660e01b8152600401612b52929190615672565b6020604051808303816000875af1158015612b71573d6000803e3d6000fd5b505050506040513d601f19601f82011682018060405250810190612b95919061568b565b50600280850154600091612bb69161237891600160a01b909104900b614252565b60208801516040516323b872dd60e01b81529192506001600160a01b0316906323b872dd90612bed903390309088906004016158e3565b6020604051808303816000875af1158015612c0c573d6000803e3d6000fd5b505050506040513d601f19601f82011682018060405250810190612c30919061568b565b5086516001600160a01b031663a9059cbb33612c4c85856158d0565b6040518363ffffffff1660e01b8152600401612c69929190615672565b6020604051808303816000875af1158015612c88573d6000803e3d6000fd5b505050506040513d601f19601f82011682018060405250810190612cac919061568b565b50505b60018401546002808601546040516000936001600160a01b039081169390831692600160a01b8104820b92600160b81b90910490910b908890612d0090602001602080825260009082015260400190565b60408051601f1981840301815290829052612d2296959493929160200161573f565b60408051601f1981840301815290829052865463d5256ca360e01b83529092506001600160a01b037f000000000000000000000000000000000000000000000000000000000000000081169263d5256ca392612d849216908590600401615790565b6000604051808303816000875af1158015612da3573d6000803e3d6000fd5b505050506040513d6000823e601f3d908101601f19168201604052612dcb919081019061588a565b505083856003016000828254612de191906158d0565b909155505050505050505b60010161212e565b507f7568c76a44dadb68dbdbad5bcddec77a5d51c6b64188a85a58d5d54182d89d88612e208535611779565b604051612e309190873590615672565b60405180910390a1505050611d3b6001600055565b60408051600481526024810182526020810180516001600160e01b0316633850c7bd60e01b179052905160009182916001600160a01b03851691612e8891615907565b600060405180830381855afa9150503d8060008114612ec3576040519150601f19603f3d011682016040523d82523d6000602084013e612ec8565b606091505b50915050600081806020019051810190612ee291906155fd565b9050612eee84826149d7565b949350505050565b604080516000815260208101909152606090826001600160401b03811115612f2057612f206157b4565b604051908082528060200260200182016040528015612f5357816020015b6060815260200190600190039081612f3e5790505b50915060005b83811015612fd557612fb030868684818110612f7757612f7761561a565b9050602002810190612f8991906156a8565b85604051602001612f9c93929190615923565b604051602081830303815290604052614c4c565b838281518110612fc257612fc261561a565b6020908102919091010152600101612f59565b50505b92915050565b612fe9858585610a5e565b833b156130325761303285858585858080601f01602080910402602001604051908101604052809392919081815260200183838082843760009201919091525061462792505050565b5050505050565b613041614228565b6001600b60008282546130549190615646565b9091555060149050613066828061594a565b9050111561308757604051636c9735f760e11b815260040160405180910390fd5b6000613093828061594a565b90506001600160401b038111156130ac576130ac6157b4565b6040519080825280602002602001820160405280156130d5578160200160208202803683370190505b509050600080806130ec60a0860160808701615992565b613116577f0000000000000000000000000000000000000000000000000000000000000000613138565b7f00000000000000000000000000000000000000000000000000000000000000005b6040805160c081018252600080825260208201819052918101829052606081018290526080810182905260a081018290529192505b613177878061594a565b905081101561365a5761318a878061594a565b8281811061319a5761319a61561a565b905060c002018036038101906131b091906159af565b91506131c260a0880160808901615992565b6131e857606082015160020b6131de6040890160208a01615a50565b60020b1415613206565b608082015160020b6132006060890160408a01615a50565b60020b14155b1561322457604051631759c67760e01b815260040160405180910390fd5b600b546000908152600760209081526040808320815160c08101835286516001600160a01b039081168252878501805182168387019081528986015183168487019081526060808c0151600290810b9187019182526080808e0151820b90880190815260a0808f0151908901908152895460018082018c559a8e528c8e209951600490910290990180546001600160a01b03199081169a8a169a909a178155955199860180549099169988169990991790975591519183018054915196519286166001600160b81b031990921691909117600160a01b62ffffff978816021762ffffff60b81b1916600160b81b96909216959095021790935592516003909201919091559051168352600990915290205460ff16613355576040516336cc3cab60e21b815260040160405180910390fd5b600082602001518360400151846060015185608001518660a00151308d606001358e60800160208101906133899190615992565b6020808c015160608d015160808e01516040516133e097969594016001600160a01b0396871681526020810195909552921515604085015293166060830152600292830b608083015290910b60a082015260c00190565b60408051601f198184030181529082905261340296959493929160200161573f565b60408051601f198184030181529082905284516339ef369360e21b835290925060009182916001600160a01b037f0000000000000000000000000000000000000000000000000000000000000000169163e7bcda4c91613466918790600401615790565b6000604051808303816000875af1158015613485573d6000803e3d6000fd5b505050506040513d6000823e601f3d908101601f191682016040526134ad9190810190615a6b565b5091509150856001600160a01b0316826000815181106134cf576134cf61561a565b60200260200101516001600160a01b03160361359c576000816000815181106134fa576134fa61561a565b602002602001015111801561352957508060018151811061351d5761351d61561a565b60200260200101516000145b61353257600080fd5b806000815181106135455761354561561a565b602002602001015189858151811061355f5761355f61561a565b6020026020010181815250508060008151811061357e5761357e61561a565b6020026020010151886135919190615646565b97506001965061364f565b6000816001815181106135b1576135b161561a565b60200260200101511180156135e05750806000815181106135d4576135d461561a565b60200260200101516000145b6135e957600080fd5b806001815181106135fc576135fc61561a565b60200260200101518985815181106136165761361661561a565b602002602001018181525050806001815181106136355761363561561a565b6020026020010151886136489190615646565b9750600096505b50505060010161316d565b5060006136b57f000000000000000000000000000000000000000000000000000000000000000061369160a08a0160808b01615992565b6136a5576109bb60408a0160208b01615a50565b6109bb60608a0160408b01615a50565b905060006137716136cc60a08a0160808b01615992565b6136d75760016136da565b60005b6136e860608b013542615646565b846137127f0000000000000000000000000000000000000000000000000000000000000000612e45565b61372260a08e0160808f01615992565b61376b57866137527f0000000000000000000000000000000000000000000000000000000000000000600a615c29565b61375c908d615c38565b6137669190615c65565b6146b3565b8a6146b3565b90508060000361379457604051638c18744360e01b815260040160405180910390fd5b6004546000906001600160a01b03161561382d576137b287836140b9565b600480546040516323b872dd60e01b81529293506001600160a01b03808916936323b872dd936137e893339316918791016158e3565b6020604051808303816000875af1158015613807573d6000803e3d6000fd5b505050506040513d601f19601f8201168201806040525081019061382b919061568b565b505b60a089013561383c8284615646565b111561385b57604051630bea79f960e11b815260040160405180910390fd5b6040516323b872dd60e01b81526001600160a01b038616906323b872dd9061388b903390309087906004016158e3565b6020604051808303816000875af11580156138aa573d6000803e3d6000fd5b505050506040513d601f19601f820116820180604052508101906138ce919061568b565b5060405163095ea7b360e01b81526001600160a01b0386169063095ea7b39061391d907f0000000000000000000000000000000000000000000000000000000000000000908690600401615672565b6020604051808303816000875af115801561393c573d6000803e3d6000fd5b505050506040513d601f19601f82011682018060405250810190613960919061568b565b5060005b61396e8a8061594a565b9050811015613b4c576139818a8061594a565b828181106139915761399161561a565b905060c002018036038101906139a791906159af565b9450600088848b84815181106139bf576139bf61561a565b60200260200101516139d19190615c38565b6139db9190615c65565b90506000613a2f6139ef88602001516148a0565b6139ff896060015160020b614252565b613a0f8a6080015160020b614252565b8c613a1b576000613a1d565b855b8d613a285786614cb9565b6000614cb9565b905060008760200151886040015189606001518a6080015185604051602001613a959594939291906001600160a01b039586168152939094166020840152600291820b6040840152900b60608201526001600160801b0391909116608082015260a00190565b60408051601f198184030181529082905289516304e94bdb60e51b83529092506001600160a01b037f00000000000000000000000000000000000000000000000000000000000000001691639d297b6091613af4918590600401615790565b6000604051808303816000875af1158015613b13573d6000803e3d6000fd5b505050506040513d6000823e601f3d908101601f19168201604052613b3b919081019061588a565b505060019093019250613964915050565b506040805160a0810190915280613b638b8061594a565b905081526020018a6020016020810190613b7d9190615a50565b60020b8152602001613b9560608c0160408d01615a50565b60020b8152602001613bab60608c013542615646565b8152602001613bc060a08c0160808d01615992565b15159052600b805460009081526006602090815260409182902084518155908401516001820180549386015162ffffff90811663010000000265ffffffffffff1990951692169190911792909217909155606083015160028201556080909201516003909201805492151560ff199093169290921790915554613c44903390614886565b600b547f733a06dcc0387bf816c34d99f254ceb937558fe9d4df66bbe70efa1b2aa1021f903390613c7b60a08d0160808e01615992565b604080516001600160a01b0390941684526020840192909252151590820152606081018490526080810189905260a0810183905260c00160405180910390a15050505050505050611d3b6001600055565b613cd4614807565b600480546001600160a01b03199081166001600160a01b038b81169190911783556005805483168b83161790556002805483168a831617905560038054909216888216179091558581166000908152600a60209081526040808320805460ff199081168a151517909155878516808552600984529382902080549091168715151790558051630dfe168160e01b8152905187957f000000000000000000000000000000000000000000000000000000000000000090951694630dfe16819383820193909291908290030181865afa158015613db3573d6000803e3d6000fd5b505050506040513d601f19601f82011682018060405250810190613dd791906155fd565b6001600160a01b031614158015613e8157507f00000000000000000000000000000000000000000000000000000000000000006001600160a01b0316816001600160a01b031663d21220a76040518163ffffffff1660e01b8152600401602060405180830381865afa158015613e51573d6000803e3d6000fd5b505050506040513d601f19601f82011682018060405250810190613e7591906155fd565b6001600160a01b031614155b15613e9e5760405162820f3560e61b815260040160405180910390fd5b7f00000000000000000000000000000000000000000000000000000000000000006001600160a01b0316816001600160a01b0316630dfe16816040518163ffffffff1660e01b8152600401602060405180830381865afa158015613f06573d6000803e3d6000fd5b505050506040513d601f19601f82011682018060405250810190613f2a91906155fd565b6001600160a01b031614158015613fd457507f00000000000000000000000000000000000000000000000000000000000000006001600160a01b0316816001600160a01b031663d21220a76040518163ffffffff1660e01b8152600401602060405180830381865afa158015613fa4573d6000803e3d6000fd5b505050506040513d601f19601f82011682018060405250810190613fc891906155fd565b6001600160a01b031614155b15613ff15760405162820f3560e61b815260040160405180910390fd5b604080516001600160a01b038a81168252898116602083015288168183015290517f318be759e0d069183ded0831e6c2119c16ced81a05e6da31c19c8c53d01bb9e29181900360600190a1505050505050505050565b6005546040516373ea766160e01b8152600481018390526060916001600160a01b0316906373ea766190602401600060405180830381865afa158015614091573d6000803e3d6000fd5b505050506040513d6000823e601f3d908101601f19168201604052612fd89190810190615c87565b600254604051637669909560e01b815230600482015260248101849052604481018390526000916001600160a01b031690637669909590606401602060405180830381865afa158015614110573d6000803e3d6000fd5b505050506040513d601f19601f820116820180604052508101906141349190615659565b9392505050565b600080612ee283614252565b61414f614807565b6001600160a01b03811661417e57604051631e4fbdf760e01b8152600060048201526024015b60405180910390fd5b611d3b81614834565b60001960601c828116925083811693508160005283673ec412a9852d173d60c11b17601c52602060002082018201805482169150816141ce5763ceea21b66000526004601cfd5b8185148515176141f457816000526030600c20546141f457634b6e7f186000526004601cfd5b6001018390558183827f8c5be1e5ebec7d5bd14f71427d1e84f3dd0314c0f7b2291e5b200ac8c7c3b925600038a450505050565b60026000540361424b57604051633ee5aeb560e01b815260040160405180910390fd5b6002600055565b60008060008360020b12614269578260020b614271565b8260020b6000035b9050620d89e8811115614297576040516315e4079d60e11b815260040160405180910390fd5b6000816001166000036142ae57600160801b6142c0565b6ffffcb933bd6fad37aa2d162d1a5940015b70ffffffffffffffffffffffffffffffffff16905060028216156142f4576ffff97272373d413259a46990580e213a0260801c5b6004821615614313576ffff2e50f5f656932ef12357cf3c7fdcc0260801c5b6008821615614332576fffe5caca7e10e4e61c3624eaa0941cd00260801c5b6010821615614351576fffcb9843d60f6159c9db58835c9266440260801c5b6020821615614370576fff973b41fa98c081472e6896dfb254c00260801c5b604082161561438f576fff2ea16466c96a3843ec78b326b528610260801c5b60808216156143ae576ffe5dee046a99a2a811c461f1969c30530260801c5b6101008216156143ce576ffcbe86c7900a88aedcffc83b479aa3a40260801c5b6102008216156143ee576ff987a7253ac413176f2b074cf7815e540260801c5b61040082161561440e576ff3392b0822b70005940c7a398e4b70f30260801c5b61080082161561442e576fe7159475a2c29b7443b29c7fa6e889d90260801c5b61100082161561444e576fd097f3bdfd2022b8845ad8f792aa58250260801c5b61200082161561446e576fa9f746462d870fdf8a65dc1f90e061e50260801c5b61400082161561448e576f70d869a156d2a1b890bb3df62baf32f70260801c5b6180008216156144ae576f31be135f97d08fd981231505542fcfa60260801c5b620100008216156144cf576f09aa508b5b7a84e1c677de54f3e99bc90260801c5b620200008216156144ef576e5d6af8dedb81196699c329225ee6040260801c5b6204000082161561450e576d2216e584f5fa1ea926041bedfe980260801c5b6208000082161561452b576b048a170391f7dc42444e8fa20260801c5b60008460020b131561454c57806000198161454857614548615c4f565b0490505b640100000000810615614560576001614563565b60005b60ff16602082901c0192505050919050565b6000826001600160a01b0316846001600160a01b03161115614595579192915b612eee826001600160801b03168585036001600160a01b0316600160601b614d71565b6000826001600160a01b0316846001600160a01b031611156145d8579192915b836001600160a01b0316614611606060ff16846001600160801b0316901b8686036001600160a01b0316866001600160a01b0316614d71565b8161461e5761461e615c4f565b04949350505050565b60405163150b7a028082523360208301528560601b60601c604083015283606083015260808083015282518060a0840152801561466e578060c08401826020870160045afa505b60208360a48301601c860160008a5af1614691573d15614691573d6000843e3d83fd5b508060e01b8251146146ab5763d1a57ed66000526004601cfd5b505050505050565b600080866146eb576146e67f0000000000000000000000000000000000000000000000000000000000000000600a615c29565b614716565b6147167f0000000000000000000000000000000000000000000000000000000000000000600a615c29565b600354604051635b7f6d7760e01b815289151560048201526024810189905260448101889052606481018790526001600160a01b0390911690635b7f6d7790608401602060405180830381865afa158015614775573d6000803e3d6000fd5b505050506040513d601f19601f820116820180604052508101906147999190615659565b6147a39085615c38565b6147ad9190615c65565b905086156147bc5790506117c4565b836147e87f0000000000000000000000000000000000000000000000000000000000000000600a615c29565b6147f29083615c38565b6147fc9190615c65565b979650505050505050565b6001546001600160a01b031633146118f45760405163118cdaa760e01b8152336004820152602401614175565b600180546001600160a01b038381166001600160a01b0319831681179093556040519116919082907f8be0079c531659141344cd1fd0a4f28419497f9722a3daafe3b4186f6b6457e090600090a35050565b610a5a828260405180602001604052806000815250614e23565b60408051600481526024810182526020810180516001600160e01b0316633850c7bd60e01b179052905160009182916001600160a01b038516916148e391615907565b600060405180830381855afa9150503d806000811461491e576040519150601f19603f3d011682016040523d82523d6000602084013e614923565b606091505b509150508080602001905181019061413491906155fd565b600080836001600160a01b0316856001600160a01b0316111561495c579293925b846001600160a01b0316866001600160a01b031611614987576149808585856145b8565b91506149ce565b836001600160a01b0316866001600160a01b031610156149c0576149ac8685856145b8565b91506149b9858785614575565b90506149ce565b6149cb858585614575565b90505b94509492505050565b60006001600160801b036001600160a01b03831611614b20576000614a056001600160a01b03841680615c38565b9050836001600160a01b0316630dfe16816040518163ffffffff1660e01b8152600401602060405180830381865afa158015614a45573d6000803e3d6000fd5b505050506040513d601f19601f82011682018060405250810190614a6991906155fd565b6001600160a01b03167f00000000000000000000000000000000000000000000000000000000000000006001600160a01b031614614adf57614ada600160c01b614ad47f0000000000000000000000000000000000000000000000000000000000000000600a615c29565b83614d71565b614b18565b614b1881614b0e7f0000000000000000000000000000000000000000000000000000000000000000600a615c29565b600160c01b614d71565b915050612fd8565b6000614b3f6001600160a01b0384168068010000000000000000614d71565b9050836001600160a01b0316630dfe16816040518163ffffffff1660e01b8152600401602060405180830381865afa158015614b7f573d6000803e3d6000fd5b505050506040513d601f19601f82011682018060405250810190614ba391906155fd565b6001600160a01b03167f00000000000000000000000000000000000000000000000000000000000000006001600160a01b031614614c1357614c0e600160801b614ad47f0000000000000000000000000000000000000000000000000000000000000000600a615c29565b612eee565b612eee81614c427f0000000000000000000000000000000000000000000000000000000000000000600a615c29565b600160801b614d71565b6060600080846001600160a01b031684604051614c699190615907565b600060405180830381855af49150503d8060008114614ca4576040519150601f19603f3d011682016040523d82523d6000602084013e614ca9565b606091505b50915091506117c4858383614e41565b6000836001600160a01b0316856001600160a01b03161115614cd9579293925b846001600160a01b0316866001600160a01b031611614d0457614cfd858585614e9d565b90506117c4565b836001600160a01b0316866001600160a01b03161015614d66576000614d2b878686614e9d565b90506000614d3a878986614f00565b9050806001600160801b0316826001600160801b031610614d5b5780614d5d565b815b925050506117c4565b6117c1858584614f00565b6000808060001985870985870292508281108382030391505080600003614daa5760008411614d9f57600080fd5b508290049050614134565b808411614db657600080fd5b6000848688096000868103871696879004966002600389028118808a02820302808a02820302808a02820302808a02820302808a02820302808a02909103029181900381900460010186841190950394909402919094039290920491909117919091029150509392505050565b614e2d8383614f3d565b823b15610b7057610b706000848484614627565b606082614e5657614e5182614feb565b614134565b8151158015614e6d57506001600160a01b0384163b155b15614e9657604051639996b31560e01b81526001600160a01b0385166004820152602401614175565b5080614134565b6000826001600160a01b0316846001600160a01b03161115614ebd579192915b6000614ee0856001600160a01b0316856001600160a01b0316600160601b614d71565b90506117c4614efb84838888036001600160a01b0316614d71565b615014565b6000826001600160a01b0316846001600160a01b03161115614f20579192915b612eee614efb83600160601b8787036001600160a01b0316614d71565b6001600160a01b039091169081614f5c5763ea553b346000526004601cfd5b80600052673ec412a9852d173d60c11b601c5260206000208101810180548060601b15614f915763c991cbb16000526004601cfd5b831790556000829052601c600c20805460010163ffffffff8116614fbd576301336cea6000526004601cfd5b9055808260007fddf252ad1be2c89b69c2b068fc378daa952ba7f163c4a11628f55a4df523b3ef8138a45050565b805115614ffb5780518082602001fd5b604051630a12f52160e11b815260040160405180910390fd5b806001600160801b03811681146116d157600080fd5b604051806080016040528060006001600160a01b0316815260200160006001600160a01b0316815260200160008152602001600081525090565b60006020828403121561507657600080fd5b81356001600160e01b03198116811461413457600080fd5b60005b838110156150a9578181015183820152602001615091565b50506000910152565b600081518084526150ca81602086016020860161508e565b601f01601f19169290920160200192915050565b60208152600061413460208301846150b2565b60006020828403121561510357600080fd5b5035919050565b6001600160a01b0381168114611d3b57600080fd5b6000806040838503121561513257600080fd5b823561513d8161510a565b946020939093013593505050565b60008060006060848603121561516057600080fd5b833561516b8161510a565b9250602084013561517b8161510a565b929592945050506040919091013590565b60006080828403121561519e57600080fd5b50919050565b6000602082840312156151b657600080fd5b81356001600160401b038111156151cc57600080fd5b612eee8482850161518c565b600080604083850312156151eb57600080fd5b82356151f68161510a565b915060208301356152068161510a565b809150509250929050565b8015158114611d3b57600080fd5b6000806040838503121561523257600080fd5b823561523d8161510a565b9150602083013561520681615211565b600080600080600060a0868803121561526557600080fd5b853561527081615211565b97602087013597506040870135966060810135965060800135945092505050565b6000602082840312156152a357600080fd5b81356141348161510a565b6000602082840312156152c057600080fd5b81356001600160401b038111156152d657600080fd5b82016060818503121561413457600080fd5b600080604083850312156152fb57600080fd5b50508035926020909101359150565b6000806020838503121561531d57600080fd5b82356001600160401b0381111561533357600080fd5b8301601f8101851361534457600080fd5b80356001600160401b0381111561535a57600080fd5b8560208260051b840101111561536f57600080fd5b6020919091019590945092505050565b6000602082016020835280845180835260408501915060408160051b86010192506020860160005b828110156153d857603f198786030184526153c38583516150b2565b945060209384019391909101906001016153a7565b50929695505050505050565b6000806000806000608086880312156153fc57600080fd5b85356154078161510a565b945060208601356154178161510a565b93506040860135925060608601356001600160401b0381111561543957600080fd5b8601601f8101881361544a57600080fd5b80356001600160401b0381111561546057600080fd5b88602082840101111561547257600080fd5b959894975092955050506020019190565b60006020828403121561549557600080fd5b81356001600160401b038111156154ab57600080fd5b820160c0818503121561413457600080fd5b600080600080600080600080610100898b0312156154da57600080fd5b88356154e58161510a565b975060208901356154f58161510a565b965060408901356155058161510a565b955060608901356155158161510a565b945060808901356155258161510a565b935060a089013561553581615211565b925060c08901356155458161510a565b915060e089013561555581615211565b809150509295985092959890939650565b8035600281900b81146116d157600080fd5b6000806040838503121561558b57600080fd5b82356155968161510a565b91506155a460208401615566565b90509250929050565b6000808335601e198436030181126155c457600080fd5b8301803591506001600160401b038211156155de57600080fd5b6020019150600581901b36038213156155f657600080fd5b9250929050565b60006020828403121561560f57600080fd5b81516141348161510a565b634e487b7160e01b600052603260045260246000fd5b634e487b7160e01b600052601160045260246000fd5b80820180821115612fd857612fd8615630565b60006020828403121561566b57600080fd5b5051919050565b6001600160a01b03929092168252602082015260400190565b60006020828403121561569d57600080fd5b815161413481615211565b6000808335601e198436030181126156bf57600080fd5b8301803591506001600160401b038211156156d957600080fd5b6020019150368190038213156155f657600080fd5b6001600160a01b03868116825285166020820152604081018490526080606082018190528101829052818360a0830137600081830160a090810191909152601f909201601f19160101949350505050565b6001600160a01b03878116825286166020820152600285810b604083015284900b60608201526080810183905260c060a08201819052600090615784908301846150b2565b98975050505050505050565b6001600160a01b0383168152604060208201819052600090612eee908301846150b2565b634e487b7160e01b600052604160045260246000fd5b604051601f8201601f191681016001600160401b03811182821017156157f2576157f26157b4565b604052919050565b60006001600160401b03821115615813576158136157b4565b5060051b60200190565b600082601f83011261582e57600080fd5b815161584161583c826157fa565b6157ca565b8082825260208201915060208360051b86010192508583111561586357600080fd5b602085015b83811015615880578051835260209283019201615868565b5095945050505050565b6000806040838503121561589d57600080fd5b82516001600160401b038111156158b357600080fd5b6158bf8582860161581d565b602094909401519395939450505050565b81810381811115612fd857612fd8615630565b6001600160a01b039384168152919092166020820152604081019190915260600190565b6000825161591981846020870161508e565b9190910192915050565b82848237600083820160008152835161594081836020880161508e565b0195945050505050565b6000808335601e1984360301811261596157600080fd5b8301803591506001600160401b0382111561597b57600080fd5b602001915060c0810236038213156155f657600080fd5b6000602082840312156159a457600080fd5b813561413481615211565b600060c08284031280156159c257600080fd5b5060405160c081016001600160401b03811182821017156159e5576159e56157b4565b60405282356159f38161510a565b81526020830135615a038161510a565b60208201526040830135615a168161510a565b6040820152615a2760608401615566565b6060820152615a3860808401615566565b608082015260a0928301359281019290925250919050565b600060208284031215615a6257600080fd5b61413482615566565b600080600060608486031215615a8057600080fd5b83516001600160401b03811115615a9657600080fd5b8401601f81018613615aa757600080fd5b8051615ab561583c826157fa565b8082825260208201915060208360051b850101925088831115615ad757600080fd5b6020840193505b82841015615b02578351615af18161510a565b825260209384019390910190615ade565b8096505050505060208401516001600160401b03811115615b2257600080fd5b615b2e8682870161581d565b604095909501519396949550929392505050565b6001815b6001841115615b7d57808504811115615b6157615b61615630565b6001841615615b6f57908102905b60019390931c928002615b46565b935093915050565b600082615b9457506001612fd8565b81615ba157506000612fd8565b8160018114615bb75760028114615bc157615bdd565b6001915050612fd8565b60ff841115615bd257615bd2615630565b50506001821b612fd8565b5060208310610133831016604e8410600b8410161715615c00575081810a612fd8565b615c0d6000198484615b42565b8060001904821115615c2157615c21615630565b029392505050565b600061413460ff841683615b85565b8082028115828204841417612fd857612fd8615630565b634e487b7160e01b600052601260045260246000fd5b600082615c8257634e487b7160e01b600052601260045260246000fd5b500490565b600060208284031215615c9957600080fd5b81516001600160401b03811115615caf57600080fd5b8201601f81018413615cc057600080fd5b80516001600160401b03811115615cd957615cd96157b4565b615cec601f8201601f19166020016157ca565b818152856020838501011115615d0157600080fd5b6117c482602083016020860161508e56fea26469706673582212209d02af8c6323fb92508894592e42cab19079b74f45e93b9ce1d9a9138d8269ca64736f6c634300081a0033","linkReferences":{}},"methodIdentifiers":{"approve(address,uint256)":"095ea7b3","approvedPools(address)":"f0bbcec4","balanceOf(address)":"70a08231","callAsset()":"61f812a4","callAssetDecimals()":"50373276","dpFee()":"d302f2b8","emergencyWithdraw(address)":"6ff1c9bc","exerciseDelegator(address,address)":"3b2b4603","exerciseOption((uint256,address[],bytes[],uint256[]))":"32f530a7","feeTo()":"017e7e58","getApproved(uint256)":"081812fc","getCurrentPricePerCallAsset(address)":"ab89fbaf","getFee(uint256,uint256)":"d250185c","getPremiumAmount(bool,uint256,uint256,uint256,uint256)":"6c808df2","getPricePerCallAssetViaTick(address,int24)":"eb22eccb","isApprovedForAll(address,address)":"e985e9c5","mintOption(((address,address,address,int24,int24,uint256)[],int24,int24,uint256,bool,uint256))":"bde0a7df","multicall(bytes[])":"ac9650d8","name()":"06fdde03","opData(uint256)":"5673a221","opTickMap(uint256,uint256)":"a2b15e4c","optionIds()":"1508b8e2","optionPricing()":"1e3394fb","owner()":"8da5cb5b","ownerOf(uint256)":"6352211e","positionManager()":"791b98bc","positionSplitter((uint256,address,uint256[]))":"9d98f412","primePool()":"271ab517","putAsset()":"c8de6e83","putAssetDecimals()":"0d51249b","renounceOwnership()":"715018a6","safeTransferFrom(address,address,uint256)":"42842e0e","safeTransferFrom(address,address,uint256,bytes)":"b88d4fde","setApprovalForAll(address,bool)":"a22cb465","settleOption((uint256,address[],bytes[],uint256[]))":"aad2402a","settlers(address)":"c70a900f","supportsInterface(bytes4)":"01ffc9a7","symbol()":"95d89b41","tokenURI(uint256)":"c87b56dd","tokenURIFetcher()":"07d88aad","transferFrom(address,address,uint256)":"23b872dd","transferOwnership(address)":"f2fde38b","updateAddress(address,address,address,address,address,bool,address,bool)":"c35ca612","updateExerciseDelegate(address,bool)":"600b584b"},"id":65}