{"abi":[{"type":"constructor","inputs":[{"name":"_pm","type":"address","internalType":"address"},{"name":"_optionPricing","type":"address","internalType":"address"},{"name":"_dpFee","type":"address","internalType":"address"},{"name":"_callAsset","type":"address","internalType":"address"},{"name":"_putAsset","type":"address","internalType":"address"},{"name":"_primePool","type":"address","internalType":"address"},{"name":"_startTime","type":"uint256","internalType":"uint256"}],"stateMutability":"nonpayable"},{"type":"function","name":"approve","inputs":[{"name":"account","type":"address","internalType":"address"},{"name":"id","type":"uint256","internalType":"uint256"}],"outputs":[],"stateMutability":"payable"},{"type":"function","name":"approvedPools","inputs":[{"name":"","type":"address","internalType":"address"}],"outputs":[{"name":"","type":"bool","internalType":"bool"}],"stateMutability":"view"},{"type":"function","name":"approvedTTLs","inputs":[{"name":"","type":"uint256","internalType":"uint256"}],"outputs":[{"name":"","type":"bool","internalType":"bool"}],"stateMutability":"view"},{"type":"function","name":"balanceOf","inputs":[{"name":"owner","type":"address","internalType":"address"}],"outputs":[{"name":"result","type":"uint256","internalType":"uint256"}],"stateMutability":"view"},{"type":"function","name":"callAsset","inputs":[],"outputs":[{"name":"","type":"address","internalType":"address"}],"stateMutability":"view"},{"type":"function","name":"callAssetDecimals","inputs":[],"outputs":[{"name":"","type":"uint8","internalType":"uint8"}],"stateMutability":"view"},{"type":"function","name":"dpFee","inputs":[],"outputs":[{"name":"","type":"address","internalType":"contract IClammFeeStrategyV2"}],"stateMutability":"view"},{"type":"function","name":"emergencyWithdraw","inputs":[{"name":"token","type":"address","internalType":"address"}],"outputs":[],"stateMutability":"nonpayable"},{"type":"function","name":"exerciseDelegator","inputs":[{"name":"","type":"address","internalType":"address"},{"name":"","type":"address","internalType":"address"}],"outputs":[{"name":"","type":"bool","internalType":"bool"}],"stateMutability":"view"},{"type":"function","name":"feeTo","inputs":[],"outputs":[{"name":"","type":"address","internalType":"address"}],"stateMutability":"view"},{"type":"function","name":"getApproved","inputs":[{"name":"id","type":"uint256","internalType":"uint256"}],"outputs":[{"name":"result","type":"address","internalType":"address"}],"stateMutability":"view"},{"type":"function","name":"getCurrentPricePerCallAsset","inputs":[{"name":"_pool","type":"address","internalType":"contract IUniswapV3Pool"}],"outputs":[{"name":"","type":"uint256","internalType":"uint256"}],"stateMutability":"view"},{"type":"function","name":"getFee","inputs":[{"name":"amount","type":"uint256","internalType":"uint256"},{"name":"premium","type":"uint256","internalType":"uint256"}],"outputs":[{"name":"","type":"uint256","internalType":"uint256"}],"stateMutability":"view"},{"type":"function","name":"getPremiumAmount","inputs":[{"name":"hook","type":"address","internalType":"address"},{"name":"isPut","type":"bool","internalType":"bool"},{"name":"expiry","type":"uint256","internalType":"uint256"},{"name":"strike","type":"uint256","internalType":"uint256"},{"name":"lastPrice","type":"uint256","internalType":"uint256"},{"name":"amount","type":"uint256","internalType":"uint256"}],"outputs":[{"name":"","type":"uint256","internalType":"uint256"}],"stateMutability":"view"},{"type":"function","name":"getPricePerCallAssetViaTick","inputs":[{"name":"_pool","type":"address","internalType":"contract IUniswapV3Pool"},{"name":"_tick","type":"int24","internalType":"int24"}],"outputs":[{"name":"","type":"uint256","internalType":"uint256"}],"stateMutability":"view"},{"type":"function","name":"isApprovedForAll","inputs":[{"name":"owner","type":"address","internalType":"address"},{"name":"operator","type":"address","internalType":"address"}],"outputs":[{"name":"result","type":"bool","internalType":"bool"}],"stateMutability":"view"},{"type":"function","name":"mintOption","inputs":[{"name":"_params","type":"tuple","internalType":"struct OptionMarketOTM.OptionParams","components":[{"name":"optionTicks","type":"tuple[]","internalType":"struct OptionMarketOTM.OptionTicks[]","components":[{"name":"_handler","type":"address","internalType":"contract IHandler"},{"name":"pool","type":"address","internalType":"contract IUniswapV3Pool"},{"name":"hook","type":"address","internalType":"address"},{"name":"tickLower","type":"int24","internalType":"int24"},{"name":"tickUpper","type":"int24","internalType":"int24"},{"name":"liquidityToUse","type":"uint256","internalType":"uint256"}]},{"name":"tickLower","type":"int24","internalType":"int24"},{"name":"tickUpper","type":"int24","internalType":"int24"},{"name":"ttl","type":"uint256","internalType":"uint256"},{"name":"isCall","type":"bool","internalType":"bool"},{"name":"maxCostAllowance","type":"uint256","internalType":"uint256"}]}],"outputs":[],"stateMutability":"nonpayable"},{"type":"function","name":"multicall","inputs":[{"name":"data","type":"bytes[]","internalType":"bytes[]"}],"outputs":[{"name":"results","type":"bytes[]","internalType":"bytes[]"}],"stateMutability":"nonpayable"},{"type":"function","name":"name","inputs":[],"outputs":[{"name":"","type":"string","internalType":"string"}],"stateMutability":"view"},{"type":"function","name":"opData","inputs":[{"name":"","type":"uint256","internalType":"uint256"}],"outputs":[{"name":"opTickArrayLen","type":"uint256","internalType":"uint256"},{"name":"tickLower","type":"int24","internalType":"int24"},{"name":"tickUpper","type":"int24","internalType":"int24"},{"name":"expiry","type":"uint256","internalType":"uint256"},{"name":"isCall","type":"bool","internalType":"bool"}],"stateMutability":"view"},{"type":"function","name":"opTickMap","inputs":[{"name":"","type":"uint256","internalType":"uint256"},{"name":"","type":"uint256","internalType":"uint256"}],"outputs":[{"name":"_handler","type":"address","internalType":"contract IHandler"},{"name":"pool","type":"address","internalType":"contract IUniswapV3Pool"},{"name":"hook","type":"address","internalType":"address"},{"name":"tickLower","type":"int24","internalType":"int24"},{"name":"tickUpper","type":"int24","internalType":"int24"},{"name":"liquidityToUse","type":"uint256","internalType":"uint256"}],"stateMutability":"view"},{"type":"function","name":"optionIds","inputs":[],"outputs":[{"name":"","type":"uint256","internalType":"uint256"}],"stateMutability":"view"},{"type":"function","name":"optionPricing","inputs":[],"outputs":[{"name":"","type":"address","internalType":"contract IOptionPricingV2"}],"stateMutability":"view"},{"type":"function","name":"owner","inputs":[],"outputs":[{"name":"","type":"address","internalType":"address"}],"stateMutability":"view"},{"type":"function","name":"ownerOf","inputs":[{"name":"id","type":"uint256","internalType":"uint256"}],"outputs":[{"name":"result","type":"address","internalType":"address"}],"stateMutability":"view"},{"type":"function","name":"positionManager","inputs":[],"outputs":[{"name":"","type":"address","internalType":"contract IPositionManager"}],"stateMutability":"view"},{"type":"function","name":"positionSplitter","inputs":[{"name":"_params","type":"tuple","internalType":"struct OptionMarketOTM.PositionSplitterParams","components":[{"name":"optionId","type":"uint256","internalType":"uint256"},{"name":"to","type":"address","internalType":"address"},{"name":"liquidityToSplit","type":"uint256[]","internalType":"uint256[]"}]}],"outputs":[],"stateMutability":"nonpayable"},{"type":"function","name":"primePool","inputs":[],"outputs":[{"name":"","type":"address","internalType":"contract IUniswapV3Pool"}],"stateMutability":"view"},{"type":"function","name":"putAsset","inputs":[],"outputs":[{"name":"","type":"address","internalType":"address"}],"stateMutability":"view"},{"type":"function","name":"putAssetDecimals","inputs":[],"outputs":[{"name":"","type":"uint8","internalType":"uint8"}],"stateMutability":"view"},{"type":"function","name":"renounceOwnership","inputs":[],"outputs":[],"stateMutability":"nonpayable"},{"type":"function","name":"safeTransferFrom","inputs":[{"name":"from","type":"address","internalType":"address"},{"name":"to","type":"address","internalType":"address"},{"name":"id","type":"uint256","internalType":"uint256"}],"outputs":[],"stateMutability":"payable"},{"type":"function","name":"safeTransferFrom","inputs":[{"name":"from","type":"address","internalType":"address"},{"name":"to","type":"address","internalType":"address"},{"name":"id","type":"uint256","internalType":"uint256"},{"name":"data","type":"bytes","internalType":"bytes"}],"outputs":[],"stateMutability":"payable"},{"type":"function","name":"setApprovalForAll","inputs":[{"name":"operator","type":"address","internalType":"address"},{"name":"isApproved","type":"bool","internalType":"bool"}],"outputs":[],"stateMutability":"nonpayable"},{"type":"function","name":"settleOption","inputs":[{"name":"_params","type":"tuple","internalType":"struct OptionMarketOTM.SettleOptionParams","components":[{"name":"optionId","type":"uint256","internalType":"uint256"},{"name":"swapper","type":"address[]","internalType":"contract ISwapper[]"},{"name":"swapData","type":"bytes[]","internalType":"bytes[]"},{"name":"liquidityToSettle","type":"uint256[]","internalType":"uint256[]"}]}],"outputs":[{"name":"ac","type":"tuple","internalType":"struct OptionMarketOTM.AssetsCache","components":[{"name":"assetToUse","type":"address","internalType":"contract ERC20"},{"name":"assetToGet","type":"address","internalType":"contract ERC20"},{"name":"totalProfit","type":"uint256","internalType":"uint256"},{"name":"totalAssetRelocked","type":"uint256","internalType":"uint256"},{"name":"isSettle","type":"bool","internalType":"bool"}]}],"stateMutability":"nonpayable"},{"type":"function","name":"settlers","inputs":[{"name":"","type":"address","internalType":"address"}],"outputs":[{"name":"","type":"bool","internalType":"bool"}],"stateMutability":"view"},{"type":"function","name":"supportsInterface","inputs":[{"name":"interfaceId","type":"bytes4","internalType":"bytes4"}],"outputs":[{"name":"result","type":"bool","internalType":"bool"}],"stateMutability":"view"},{"type":"function","name":"symbol","inputs":[],"outputs":[{"name":"","type":"string","internalType":"string"}],"stateMutability":"view"},{"type":"function","name":"tokenURI","inputs":[{"name":"id","type":"uint256","internalType":"uint256"}],"outputs":[{"name":"","type":"string","internalType":"string"}],"stateMutability":"view"},{"type":"function","name":"tokenURIFetcher","inputs":[],"outputs":[{"name":"","type":"address","internalType":"address"}],"stateMutability":"view"},{"type":"function","name":"transferFrom","inputs":[{"name":"from","type":"address","internalType":"address"},{"name":"to","type":"address","internalType":"address"},{"name":"id","type":"uint256","internalType":"uint256"}],"outputs":[],"stateMutability":"payable"},{"type":"function","name":"transferOwnership","inputs":[{"name":"newOwner","type":"address","internalType":"address"}],"outputs":[],"stateMutability":"nonpayable"},{"type":"function","name":"updateAddress","inputs":[{"name":"_feeTo","type":"address","internalType":"address"},{"name":"_tokeURIFetcher","type":"address","internalType":"address"},{"name":"_dpFee","type":"address","internalType":"address"},{"name":"_optionPricing","type":"address","internalType":"address"},{"name":"_settler","type":"address","internalType":"address"},{"name":"_statusSettler","type":"bool","internalType":"bool"},{"name":"_pool","type":"address","internalType":"address"},{"name":"_statusPools","type":"bool","internalType":"bool"},{"name":"ttl","type":"uint256","internalType":"uint256"},{"name":"ttlStatus","type":"bool","internalType":"bool"},{"name":"_bufferTime","type":"uint256","internalType":"uint256"}],"outputs":[],"stateMutability":"nonpayable"},{"type":"function","name":"updateExerciseDelegate","inputs":[{"name":"_delegateTo","type":"address","internalType":"address"},{"name":"_status","type":"bool","internalType":"bool"}],"outputs":[],"stateMutability":"nonpayable"},{"type":"event","name":"Approval","inputs":[{"name":"owner","type":"address","indexed":true,"internalType":"address"},{"name":"account","type":"address","indexed":true,"internalType":"address"},{"name":"id","type":"uint256","indexed":true,"internalType":"uint256"}],"anonymous":false},{"type":"event","name":"ApprovalForAll","inputs":[{"name":"owner","type":"address","indexed":true,"internalType":"address"},{"name":"operator","type":"address","indexed":true,"internalType":"address"},{"name":"isApproved","type":"bool","indexed":false,"internalType":"bool"}],"anonymous":false},{"type":"event","name":"LogMintOption","inputs":[{"name":"user","type":"address","indexed":false,"internalType":"address"},{"name":"tokenId","type":"uint256","indexed":false,"internalType":"uint256"},{"name":"isCall","type":"bool","indexed":false,"internalType":"bool"},{"name":"premiumAmount","type":"uint256","indexed":false,"internalType":"uint256"},{"name":"totalAssetWithdrawn","type":"uint256","indexed":false,"internalType":"uint256"},{"name":"protocolFees","type":"uint256","indexed":false,"internalType":"uint256"}],"anonymous":false},{"type":"event","name":"LogMintOption","inputs":[{"name":"_params","type":"tuple","indexed":false,"internalType":"struct OptionMarketOTM.OptionParams","components":[{"name":"optionTicks","type":"tuple[]","internalType":"struct OptionMarketOTM.OptionTicks[]","components":[{"name":"_handler","type":"address","internalType":"contract IHandler"},{"name":"pool","type":"address","internalType":"contract IUniswapV3Pool"},{"name":"hook","type":"address","internalType":"address"},{"name":"tickLower","type":"int24","internalType":"int24"},{"name":"tickUpper","type":"int24","internalType":"int24"},{"name":"liquidityToUse","type":"uint256","internalType":"uint256"}]},{"name":"tickLower","type":"int24","internalType":"int24"},{"name":"tickUpper","type":"int24","internalType":"int24"},{"name":"ttl","type":"uint256","internalType":"uint256"},{"name":"isCall","type":"bool","internalType":"bool"},{"name":"maxCostAllowance","type":"uint256","internalType":"uint256"}]},{"name":"optionId","type":"uint256","indexed":false,"internalType":"uint256"},{"name":"premiumAmount","type":"uint256","indexed":false,"internalType":"uint256"},{"name":"size","type":"uint256","indexed":false,"internalType":"uint256"},{"name":"protocolFees","type":"uint256","indexed":false,"internalType":"uint256"}],"anonymous":false},{"type":"event","name":"LogOptionsMarketInitialized","inputs":[{"name":"primePool","type":"address","indexed":false,"internalType":"address"},{"name":"optionPricing","type":"address","indexed":false,"internalType":"address"},{"name":"dpFee","type":"address","indexed":false,"internalType":"address"},{"name":"callAsset","type":"address","indexed":false,"internalType":"address"},{"name":"putAsset","type":"address","indexed":false,"internalType":"address"}],"anonymous":false},{"type":"event","name":"LogSettleOption","inputs":[{"name":"assetsCache","type":"tuple","indexed":false,"internalType":"struct OptionMarketOTM.AssetsCache","components":[{"name":"assetToUse","type":"address","internalType":"contract ERC20"},{"name":"assetToGet","type":"address","internalType":"contract ERC20"},{"name":"totalProfit","type":"uint256","internalType":"uint256"},{"name":"totalAssetRelocked","type":"uint256","internalType":"uint256"},{"name":"isSettle","type":"bool","internalType":"bool"}]},{"name":"liquiditySettled","type":"uint256[]","indexed":false,"internalType":"uint256[]"},{"name":"owner","type":"address","indexed":false,"internalType":"address"},{"name":"optionId","type":"uint256","indexed":false,"internalType":"uint256"}],"anonymous":false},{"type":"event","name":"LogSplitOption","inputs":[{"name":"params","type":"tuple","indexed":false,"internalType":"struct OptionMarketOTM.PositionSplitterParams","components":[{"name":"optionId","type":"uint256","internalType":"uint256"},{"name":"to","type":"address","internalType":"address"},{"name":"liquidityToSplit","type":"uint256[]","internalType":"uint256[]"}]},{"name":"newOptionId","type":"uint256","indexed":false,"internalType":"uint256"},{"name":"oldOwner","type":"address","indexed":false,"internalType":"address"}],"anonymous":false},{"type":"event","name":"LogUpdateAddress","inputs":[{"name":"tokeURIFetcher","type":"address","indexed":false,"internalType":"address"},{"name":"dpFee","type":"address","indexed":false,"internalType":"address"},{"name":"optionPricing","type":"address","indexed":false,"internalType":"address"}],"anonymous":false},{"type":"event","name":"LogUpdateExerciseDelegate","inputs":[{"name":"owner","type":"address","indexed":false,"internalType":"address"},{"name":"delegate","type":"address","indexed":false,"internalType":"address"},{"name":"status","type":"bool","indexed":false,"internalType":"bool"}],"anonymous":false},{"type":"event","name":"OwnershipTransferred","inputs":[{"name":"previousOwner","type":"address","indexed":true,"internalType":"address"},{"name":"newOwner","type":"address","indexed":true,"internalType":"address"}],"anonymous":false},{"type":"event","name":"Transfer","inputs":[{"name":"from","type":"address","indexed":true,"internalType":"address"},{"name":"to","type":"address","indexed":true,"internalType":"address"},{"name":"id","type":"uint256","indexed":true,"internalType":"uint256"}],"anonymous":false},{"type":"error","name":"AccountBalanceOverflow","inputs":[]},{"type":"error","name":"AddressEmptyCode","inputs":[{"name":"target","type":"address","internalType":"address"}]},{"type":"error","name":"ArrayLenMismatch","inputs":[]},{"type":"error","name":"BalanceQueryForZeroAddress","inputs":[]},{"type":"error","name":"EmptyOption","inputs":[]},{"type":"error","name":"FailedInnerCall","inputs":[]},{"type":"error","name":"IVNotSet","inputs":[]},{"type":"error","name":"InBufferTime","inputs":[]},{"type":"error","name":"InvalidPool","inputs":[]},{"type":"error","name":"MaxCostAllowanceExceeded","inputs":[]},{"type":"error","name":"MaxOptionBuyReached","inputs":[]},{"type":"error","name":"NotApprovedSettler","inputs":[]},{"type":"error","name":"NotApprovedTTL","inputs":[]},{"type":"error","name":"NotEnoughAfterSwap","inputs":[]},{"type":"error","name":"NotIVSetter","inputs":[]},{"type":"error","name":"NotOwnerNorApproved","inputs":[]},{"type":"error","name":"NotOwnerOrDelegator","inputs":[]},{"type":"error","name":"NotValidStrikeTick","inputs":[]},{"type":"error","name":"OptionExpired","inputs":[]},{"type":"error","name":"OptionNotExpired","inputs":[]},{"type":"error","name":"OwnableInvalidOwner","inputs":[{"name":"owner","type":"address","internalType":"address"}]},{"type":"error","name":"OwnableUnauthorizedAccount","inputs":[{"name":"account","type":"address","internalType":"address"}]},{"type":"error","name":"PoolNotApproved","inputs":[]},{"type":"error","name":"ReentrancyGuardReentrantCall","inputs":[]},{"type":"error","name":"T","inputs":[]},{"type":"error","name":"TokenAlreadyExists","inputs":[]},{"type":"error","name":"TokenDoesNotExist","inputs":[]},{"type":"error","name":"TransferFromIncorrectOwner","inputs":[]},{"type":"error","name":"TransferToNonERC721ReceiverImplementer","inputs":[]},{"type":"error","name":"TransferToZeroAddress","inputs":[]}],"bytecode":{"object":"0x610140604052610258600e5534801561001757600080fd5b50604051615d03380380615d0383398101604081905261003691610485565b6001600055338061006157604051631e4fbdf760e01b81526000600482015260240160405180910390fd5b61006a81610417565b506001600160a01b0387811660805284811660c081905284821660e052600280546001600160a01b0319908116898516179091556003805490911689841617905590831660a081905260408051630dfe168160e01b81529051630dfe1681916004808201926020929091908290030181865afa1580156100ee573d6000803e3d6000fd5b505050506040513d601f19601f820116820180604052508101906101129190610504565b6001600160a01b03161415801561019e5750836001600160a01b031660a0516001600160a01b031663d21220a76040518163ffffffff1660e01b8152600401602060405180830381865afa15801561016e573d6000803e3d6000fd5b505050506040513d601f19601f820116820180604052508101906101929190610504565b6001600160a01b031614155b156101bb5760405162820f3560e61b815260040160405180910390fd5b826001600160a01b031660a0516001600160a01b0316630dfe16816040518163ffffffff1660e01b8152600401602060405180830381865afa158015610205573d6000803e3d6000fd5b505050506040513d601f19601f820116820180604052508101906102299190610504565b6001600160a01b0316141580156102b55750826001600160a01b031660a0516001600160a01b031663d21220a76040518163ffffffff1660e01b8152600401602060405180830381865afa158015610285573d6000803e3d6000fd5b505050506040513d601f19601f820116820180604052508101906102a99190610504565b6001600160a01b031614155b156102d25760405162820f3560e61b815260040160405180910390fd5b836001600160a01b031663313ce5676040518163ffffffff1660e01b8152600401602060405180830381865afa158015610310573d6000803e3d6000fd5b505050506040513d601f19601f820116820180604052508101906103349190610526565b60ff166101008160ff1681525050826001600160a01b031663313ce5676040518163ffffffff1660e01b8152600401602060405180830381865afa158015610380573d6000803e3d6000fd5b505050506040513d601f19601f820116820180604052508101906103a49190610526565b60ff1661012052600d819055604080516001600160a01b03848116825288811660208301528781168284015286811660608301528516608082015290517ff432a680e02fd7036a5fd19b4cc769273e33297dfb07a00278dd8f5bfa3fb67d9181900360a00190a150505050505050610549565b600180546001600160a01b038381166001600160a01b0319831681179093556040519116919082907f8be0079c531659141344cd1fd0a4f28419497f9722a3daafe3b4186f6b6457e090600090a35050565b80516001600160a01b038116811461048057600080fd5b919050565b600080600080600080600060e0888a0312156104a057600080fd5b6104a988610469565b96506104b760208901610469565b95506104c560408901610469565b94506104d360608901610469565b93506104e160808901610469565b92506104ef60a08901610469565b915060c0880151905092959891949750929550565b60006020828403121561051657600080fd5b61051f82610469565b9392505050565b60006020828403121561053857600080fd5b815160ff8116811461051f57600080fd5b60805160a05160c05160e051610100516101205161566861069b600039600081816103ac01528181612d5101526141c90152600081816104cb01528181613f7801528181613fb2015281816140b2015281816140e60152818161419901526142a30152600081816108a4015281816113c701528181611544015281816115c60152818161271d0152818161351001526135ae0152600081816105a3015281816114820152818161156a015281816115a001528181612743015281816133d90152818161345b01528181613f3e0152614078015260008181610449015281816113f1015281816114ac01528181612c890152612d1001526000818161064c015281816117590152818161181801528181611c0901528181611cfa01528181611d7d01528181611f5b01528181611fde0152818161221501528181612a5801528181612f1801526130e401526156686000f3fe6080604052600436106102675760003560e01c80638da5cb5b11610144578063c70a900f116100b6578063d302f2b81161007a578063d302f2b814610906578063e985e9c514610926578063eb22eccb1461095c578063f03b811c1461097c578063f0bbcec41461099c578063f2fde38b146109cc57600080fd5b8063c70a900f14610842578063c87b56dd14610872578063c8de6e8314610892578063d1ba76e5146108c6578063d250185c146108e657600080fd5b8063a2b15e4c11610108578063a2b15e4c14610731578063aad2402a14610795578063ab89fbaf146107c2578063ac9650d8146107e2578063b88d4fde1461080f578063bde0a7df1461082257600080fd5b80638da5cb5b1461066e57806391457d781461068c57806395d89b41146106bc5780639d98f412146106f1578063a22cb4651461071157600080fd5b80633b2b4603116101dd57806361f812a4116101a157806361f812a4146105915780636352211e146105c55780636ff1c9bc146105e557806370a0823114610605578063715018a614610625578063791b98bc1461063a57600080fd5b80633b2b46031461046b57806342842e0e146104a657806350373276146104b95780635673a221146104ed578063600b584b1461057157600080fd5b8063095ea7b31161022f578063095ea7b3146103855780630d51249b1461039a5780631508b8e2146103e05780631e3394fb1461040457806323b872dd14610424578063271ab5171461043757600080fd5b8063017e7e581461026c57806301ffc9a7146102a957806306fdde03146102f657806307d88aad14610345578063081812fc14610365575b600080fd5b34801561027857600080fd5b5060045461028c906001600160a01b031681565b6040516001600160a01b0390911681526020015b60405180910390f35b3480156102b557600080fd5b506102e66102c436600461465a565b6301ffc9a760e09190911c9081146380ac58cd821417635b5e139f9091141790565b60405190151581526020016102a0565b34801561030257600080fd5b5060408051808201909152601781527f4d5a204f7074696f6e204d61726b6574204f544d20464500000000000000000060208201525b6040516102a091906146d4565b34801561035157600080fd5b5060055461028c906001600160a01b031681565b34801561037157600080fd5b5061028c6103803660046146e7565b6109ec565b610398610393366004614715565b610a2b565b005b3480156103a657600080fd5b506103ce7f000000000000000000000000000000000000000000000000000000000000000081565b60405160ff90911681526020016102a0565b3480156103ec57600080fd5b506103f6600c5481565b6040519081526020016102a0565b34801561041057600080fd5b5060035461028c906001600160a01b031681565b610398610432366004614741565b610a3a565b34801561044357600080fd5b5061028c7f000000000000000000000000000000000000000000000000000000000000000081565b34801561047757600080fd5b506102e6610486366004614782565b600860209081526000928352604080842090915290825290205460ff1681565b6103986104b4366004614741565b610b51565b3480156104c557600080fd5b506103ce7f000000000000000000000000000000000000000000000000000000000000000081565b3480156104f957600080fd5b506105416105083660046146e7565b600660205260009081526040902080546001820154600280840154600390940154929382820b93630100000090930490910b9160ff1685565b60408051958652600294850b60208701529290930b9184019190915260608301521515608082015260a0016102a0565b34801561057d57600080fd5b5061039861058c3660046147d4565b610b7e565b34801561059d57600080fd5b5061028c7f000000000000000000000000000000000000000000000000000000000000000081565b3480156105d157600080fd5b5061028c6105e03660046146e7565b610bf4565b3480156105f157600080fd5b50610398610600366004614802565b610c32565b34801561061157600080fd5b506103f6610620366004614802565b610d0c565b34801561063157600080fd5b50610398610d47565b34801561064657600080fd5b5061028c7f000000000000000000000000000000000000000000000000000000000000000081565b34801561067a57600080fd5b506001546001600160a01b031661028c565b34801561069857600080fd5b506102e66106a73660046146e7565b600b6020526000908152604090205460ff1681565b3480156106c857600080fd5b5060408051808201909152600c81526b4d5a2d4f4d2d4f544d2d464560a01b6020820152610338565b3480156106fd57600080fd5b5061039861070c36600461481f565b610d5b565b34801561071d57600080fd5b5061039861072c3660046147d4565b611179565b34801561073d57600080fd5b5061075161074c366004614859565b6111cf565b604080516001600160a01b03978816815295871660208701529390951692840192909252600290810b60608401520b608082015260a081019190915260c0016102a0565b3480156107a157600080fd5b506107b56107b036600461487b565b61123c565b6040516102a091906148f2565b3480156107ce57600080fd5b506103f66107dd366004614802565b6123a3565b3480156107ee57600080fd5b506108026107fd366004614900565b612454565b6040516102a09190614975565b61039861081d3660046149da565b61253c565b34801561082e57600080fd5b5061039861083d366004614a79565b612597565b34801561084e57600080fd5b506102e661085d366004614802565b600a6020526000908152604090205460ff1681565b34801561087e57600080fd5b5061033861088d3660046146e7565b6132b1565b34801561089e57600080fd5b5061028c7f000000000000000000000000000000000000000000000000000000000000000081565b3480156108d257600080fd5b506103986108e1366004614ab3565b613323565b3480156108f257600080fd5b506103f6610901366004614859565b6136ba565b34801561091257600080fd5b5060025461028c906001600160a01b031681565b34801561093257600080fd5b506102e6610941366004614782565b601c52670a5a2e7a000000006008526000526030600c205490565b34801561096857600080fd5b506103f6610977366004614b97565b61373c565b34801561098857600080fd5b506103f6610997366004614bcc565b613748565b3480156109a857600080fd5b506102e66109b7366004614802565b60096020526000908152604090205460ff1681565b3480156109d857600080fd5b506103986109e7366004614802565b613765565b600081600052673ec412a9852d173d60c11b601c52602060002082018201805460601b610a215763ceea21b66000526004601cfd5b6001015492915050565b610a363383836137a5565b5050565b6000818152673ec412a9852d173d60c11b3317601c52602090208101810180546001600160a01b039485169493841693811691908286148302610a985782610a8a5763ceea21b66000526004601cfd5b63a11481006000526004601cfd5b84610aab5763ea553b346000526004601cfd5b856000528160010154925082331486331417610ad9576030600c2054610ad957634b6e7f186000526004601cfd5b8215610ae757600082600101555b85851818905550601c600c8181208054600019019055600084905220805460010163ffffffff8116610b21576301336cea6000526004601cfd5b90558082847fddf252ad1be2c89b69c2b068fc378daa952ba7f163c4a11628f55a4df523b3ef600038a45b505050565b610b5c838383610a3a565b813b15610b4c57610b4c83838360405180602001604052806000815250613846565b3360008181526008602090815260408083206001600160a01b03871680855290835292819020805460ff1916861515908117909155815194855291840192909252908201527f4ee86bb98ad0d189c6475dd48829e8525e468f3721ab971f0c0914e6693c8da69060600160405180910390a15050565b6000818152673ec412a9852d173d60c11b601c526020902081018101546001600160a01b031680610c2d5763ceea21b66000526004601cfd5b919050565b610c3a6138d2565b6040516370a0823160e01b81523060048201526001600160a01b0382169063a9059cbb90339083906370a0823190602401602060405180830381865afa158015610c88573d6000803e3d6000fd5b505050506040513d601f19601f82011682018060405250810190610cac9190614c25565b6040518363ffffffff1660e01b8152600401610cc9929190614c3e565b6020604051808303816000875af1158015610ce8573d6000803e3d6000fd5b505050506040513d601f19601f82011682018060405250810190610a369190614c57565b600081610d2157638f4eb6046000526004601cfd5b673ec412a9852d173d60c11b601c528160005263ffffffff601c600c2054169050919050565b610d4f6138d2565b610d5960006138ff565b565b610d63613951565b6001600c6000828254610d769190614c8a565b90915550339050610d878235610bf4565b6001600160a01b031614610db157604051600162486bc960e11b0319815260040160405180910390fd5b8035600090815260066020908152604091829020825160a081018452815481526001820154600281810b9483019490945263010000009004830b818501529181015460608301526003015460ff161515608082015290610e1390830183614c9d565b8251149050610e3557604051630dcb503560e11b815260040160405180910390fd5b60005b610e456040840184614c9d565b905081101561104857610e5b6040840184614c9d565b82818110610e6b57610e6b614ced565b90506020020135600003610e9257604051630f5e795760e01b815260040160405180910390fd5b82356000908152600760205260408120805483908110610eb457610eb4614ced565b90600052602060002090600402019050838060400190610ed49190614c9d565b83818110610ee457610ee4614ced565b90506020020135816003016000828254610efe9190614d03565b9091555050600c54600090815260076020908152604091829020825160c08101845284546001600160a01b039081168252600186015481169382019390935260028086015493841682860152600160a01b8404810b6060830152600160b81b90930490920b60808301529160a0820190610f7a90880188614c9d565b86818110610f8a57610f8a614ced565b60209081029290920135909252835460018082018655600095865294829020845160049092020180546001600160a01b03199081166001600160a01b0393841617825592850151818701805490941690831617909255604084015160028301805460608701516080880151939094166001600160b81b031990911617600160a01b62ffffff948516021762ffffff60b81b1916600160b81b939092169290920217905560a09092015160039092019190915550919091019050610e38565b506040518060a001604052808380604001906110649190614c9d565b825250602083810151600290810b82840152604080860151820b8185015260608087015181860152608080880151151595810195909552600c5460009081526006855282902086518155868501516001820180548986015162ffffff90811663010000000265ffffffffffff19909216931692909217919091179055908601519281019290925593909201516003909201805492151560ff19909316929092179091556111229161111a91908501908501614802565b600c5461397b565b7f44b72a7e3474ccca11170d15b3e7a2f31bc170284829bdec3e017198cfff6d5f82600c546111548560000135610bf4565b60405161116393929190614d48565b60405180910390a1506111766001600055565b50565b801515905081601c52670a5a2e7a0000000060085233600052806030600c2055806000528160601b60601c337f17307eab39ab6107e8899845ad3d59bd9653f200f220920489ca2b5937696c3160206000a35050565b600760205281600052604060002081815481106111eb57600080fd5b60009182526020909120600490910201805460018201546002808401546003909401546001600160a01b039384169650918316945091831692600160a01b8104830b92600160b81b909104900b9086565b6040805160a08101825260008082526020820181905291810182905260608101829052608081019190915261126f613951565b8135600090815260066020908152604091829020825160a081018452815481526001820154600281810b9483019490945263010000009004830b938101939093529081015460608084019190915260039091015460ff16151560808301526112d990840184614c9d565b82511490506112fb57604051630dcb503560e11b815260040160405180910390fd5b806060015142106113425760016080830152336000908152600a602052604090205460ff1661133d57604051630184bf0960e01b815260040160405180910390fd5b6113ba565b3361134d8435610bf4565b6001600160a01b03161415801561139957506008600061136d8535610bf4565b6001600160a01b031681526020808201929092526040908101600090812033825290925290205460ff16155b156113ba57604051600162486bc960e11b0319815260040160405180910390fd5b60008160800151611480577f00000000000000000000000000000000000000000000000000000000000000006001600160a01b03167f00000000000000000000000000000000000000000000000000000000000000006001600160a01b0316630dfe16816040518163ffffffff1660e01b8152600401602060405180830381865afa15801561144d573d6000803e3d6000fd5b505050506040513d601f19601f820116820180604052508101906114719190614deb565b6001600160a01b031614611537565b7f00000000000000000000000000000000000000000000000000000000000000006001600160a01b03167f00000000000000000000000000000000000000000000000000000000000000006001600160a01b0316630dfe16816040518163ffffffff1660e01b8152600401602060405180830381865afa158015611508573d6000803e3d6000fd5b505050506040513d601f19601f8201168201806040525081019061152c9190614deb565b6001600160a01b0316145b90508160800151611568577f000000000000000000000000000000000000000000000000000000000000000061158a565b7f00000000000000000000000000000000000000000000000000000000000000005b6001600160a01b0316835260808201516115c4577f00000000000000000000000000000000000000000000000000000000000000006115e6565b7f00000000000000000000000000000000000000000000000000000000000000005b6001600160a01b0316602084015260005b82518110156123425761160d6060860186614c9d565b8281811061161d5761161d614ced565b905060200201356000031561233a578435600090815260076020526040812080548390811061164e5761164e614ced565b600091825260208220600490910201915061166c6060880188614c9d565b8481811061167c5761167c614ced565b9050602002013590506000806116e36116ab8560010160009054906101000a90046001600160a01b0316613995565b6002808701546116c491600160a01b909104900b613a30565b6002808801546116dd91600160b81b909104900b613a30565b86613d53565b915091506000821180156116f5575080155b806117095750600081118015611709575081155b15611cbb5785801561171b5750600082115b801561172d5750608088015115156001145b156117cc57875160405163095ea7b360e01b81526001600160a01b039091169063095ea7b390611783907f0000000000000000000000000000000000000000000000000000000000000000908690600401614c3e565b6020604051808303816000875af11580156117a2573d6000803e3d6000fd5b505050506040513d601f19601f820116820180604052508101906117c69190614c57565b50612178565b851580156117da5750600081115b80156117ec5750608088015115156001145b1561184257875160405163095ea7b360e01b81526001600160a01b039091169063095ea7b390611783907f0000000000000000000000000000000000000000000000000000000000000000908590600401614c3e565b600086611889576002808601546118849161186591600160a01b9004900b613a30565b60028088015461187e91600160b81b909104900b613a30565b86613def565b6118c4565b6002808601546118c4916118a591600160a01b9004900b613a30565b6002808801546118be91600160b81b909104900b613a30565b86613e32565b905080896060018181516118d89190614c8a565b90525060208901516040516370a0823160e01b81523060048201526000916001600160a01b0316906370a0823190602401602060405180830381865afa158015611926573d6000803e3d6000fd5b505050506040513d601f19601f8201168201806040525081019061194a9190614c25565b8a519091506001600160a01b031663a9059cbb61196a60208e018e614c9d565b8a81811061197a5761197a614ced565b905060200201602081019061198f9190614802565b846040518363ffffffff1660e01b81526004016119ad929190614c3e565b6020604051808303816000875af11580156119cc573d6000803e3d6000fd5b505050506040513d601f19601f820116820180604052508101906119f09190614c57565b506119fe60208c018c614c9d565b88818110611a0e57611a0e614ced565b9050602002016020810190611a239190614802565b6001600160a01b031663f3be6fc28b600001518c60200151858f8060400190611a4c9190614c9d565b8d818110611a5c57611a5c614ced565b9050602002810190611a6e9190614e08565b6040518663ffffffff1660e01b8152600401611a8e959493929190614e4e565b6020604051808303816000875af1158015611aad573d6000803e3d6000fd5b505050506040513d601f19601f82011682018060405250810190611ad19190614c25565b50600088611b1957600280880154611b1491611af591600160a01b9004900b613a30565b6002808a0154611b0e91600160b81b909104900b613a30565b88613e32565b611b54565b600280880154611b5491611b3591600160a01b9004900b613a30565b6002808a0154611b4e91600160b81b909104900b613a30565b88613def565b60208c01516040516370a0823160e01b81523060048201529192506000916001600160a01b03909116906370a0823190602401602060405180830381865afa158015611ba4573d6000803e3d6000fd5b505050506040513d601f19601f82011682018060405250810190611bc89190614c25565b9050611bd48284614c8a565b811015611bf4576040516360e710f160e01b815260040160405180910390fd5b8b602001516001600160a01b031663095ea7b37f0000000000000000000000000000000000000000000000000000000000000000846040518363ffffffff1660e01b8152600401611c46929190614c3e565b6020604051808303816000875af1158015611c65573d6000803e3d6000fd5b505050506040513d601f19601f82011682018060405250810190611c899190614c57565b50611c948284614c8a565b611c9e9082614d03565b8c604001818151611caf9190614c8a565b90525050505050612178565b858015611cce5750608088015115156001145b15611f1b57875160405163095ea7b360e01b81526001600160a01b039091169063095ea7b390611d24907f0000000000000000000000000000000000000000000000000000000000000000908690600401614c3e565b6020604051808303816000875af1158015611d43573d6000803e3d6000fd5b505050506040513d601f19601f82011682018060405250810190611d679190614c57565b5087602001516001600160a01b031663095ea7b37f0000000000000000000000000000000000000000000000000000000000000000836040518363ffffffff1660e01b8152600401611dba929190614c3e565b6020604051808303816000875af1158015611dd9573d6000803e3d6000fd5b505050506040513d601f19601f82011682018060405250810190611dfd9190614c57565b50600280850154600091611e1e916118a591600160a01b909104900b613a30565b60208a01516040516323b872dd60e01b81529192506001600160a01b0316906323b872dd90611e5590339030908790600401614e9f565b6020604051808303816000875af1158015611e74573d6000803e3d6000fd5b505050506040513d601f19601f82011682018060405250810190611e989190614c57565b5088516001600160a01b031663a9059cbb33611eb48685614d03565b6040518363ffffffff1660e01b8152600401611ed1929190614c3e565b6020604051808303816000875af1158015611ef0573d6000803e3d6000fd5b505050506040513d601f19601f82011682018060405250810190611f149190614c57565b5050612178565b85158015611f2f5750608088015115156001145b1561217857875160405163095ea7b360e01b81526001600160a01b039091169063095ea7b390611f85907f0000000000000000000000000000000000000000000000000000000000000000908590600401614c3e565b6020604051808303816000875af1158015611fa4573d6000803e3d6000fd5b505050506040513d601f19601f82011682018060405250810190611fc89190614c57565b5087602001516001600160a01b031663095ea7b37f0000000000000000000000000000000000000000000000000000000000000000846040518363ffffffff1660e01b815260040161201b929190614c3e565b6020604051808303816000875af115801561203a573d6000803e3d6000fd5b505050506040513d601f19601f8201168201806040525081019061205e9190614c57565b5060028085015460009161207f9161186591600160a01b909104900b613a30565b60208a01516040516323b872dd60e01b81529192506001600160a01b0316906323b872dd906120b690339030908890600401614e9f565b6020604051808303816000875af11580156120d5573d6000803e3d6000fd5b505050506040513d601f19601f820116820180604052508101906120f99190614c57565b5088516001600160a01b031663a9059cbb336121158585614d03565b6040518363ffffffff1660e01b8152600401612132929190614c3e565b6020604051808303816000875af1158015612151573d6000803e3d6000fd5b505050506040513d601f19601f820116820180604052508101906121759190614c57565b50505b60018401546002808601546040516000936001600160a01b039081169390831692600160a01b8104820b92600160b81b90910490910b9088906121c990602001602080825260009082015260400190565b60408051601f19818403018152908290526121eb969594939291602001614ec3565b60408051601f1981840301815290829052865463d5256ca360e01b83529092506001600160a01b037f000000000000000000000000000000000000000000000000000000000000000081169263d5256ca39261224d9216908590600401614f08565b6000604051808303816000875af115801561226c573d6000803e3d6000fd5b505050506040513d6000823e601f3d908101601f191682016040526122949190810190615002565b505060408901511561231b5788602001516001600160a01b031663a9059cbb338b604001516040518363ffffffff1660e01b81526004016122d6929190614c3e565b6020604051808303816000875af11580156122f5573d6000803e3d6000fd5b505050506040513d601f19601f820116820180604052508101906123199190614c57565b505b8385600301600082825461232f9190614d03565b909155505050505050505b6001016115f7565b507f7b78b774adfce009962532b995be10fd298a0851e0479fbb4cfde8f1bd16ae07836123726060870187614c9d565b61237c8835610bf4565b60405161238f94939291908a3590615048565b60405180910390a15050610c2d6001600055565b60408051600481526024810182526020810180516001600160e01b0316633850c7bd60e01b179052905160009182916001600160a01b038516916123e691615088565b600060405180830381855afa9150503d8060008114612421576040519150601f19603f3d011682016040523d82523d6000602084013e612426565b606091505b509150506000818060200190518101906124409190614deb565b905061244c8482613ea1565b949350505050565b604080516000815260208101909152606090826001600160401b0381111561247e5761247e614f2c565b6040519080825280602002602001820160405280156124b157816020015b606081526020019060019003908161249c5790505b50915060005b838110156125335761250e308686848181106124d5576124d5614ced565b90506020028101906124e79190614e08565b856040516020016124fa939291906150a4565b604051602081830303815290604052614116565b83828151811061252057612520614ced565b60209081029190910101526001016124b7565b50505b92915050565b612547858585610a3a565b833b156125905761259085858585858080601f01602080910402602001604051908101604052809392919081815260200183838082843760009201919091525061384692505050565b5050505050565b61259f613951565b6001600c60008282546125b29190614c8a565b90915550601490506125c482806150cb565b905011156125e557604051636c9735f760e11b815260040160405180910390fd5b60608101356000908152600b602052604090205460ff16612619576040516398ac918960e01b815260040160405180910390fd5b60008160600135600d544261262e9190614d03565b6126389190615129565b61264690606084013561514b565b600d546126539042614d03565b61265d9190614d03565b61266b906060840135614d03565b6126759042614c8a565b9050600e5482606001356126899190614d03565b6126934283614d03565b11156126b25760405163a9f8e30360e01b815260040160405180910390fd5b60006126be83806150cb565b90506001600160401b038111156126d7576126d7614f2c565b604051908082528060200260200182016040528015612700578160200160208202803683370190505b5090506000808061271760a0870160808801615162565b612741577f0000000000000000000000000000000000000000000000000000000000000000612763565b7f00000000000000000000000000000000000000000000000000000000000000005b6040805160c081018252600080825260208201819052918101829052606081018290526080810182905260a081018290529192505b6127a288806150cb565b9050811015612c81576127b588806150cb565b828181106127c5576127c5614ced565b905060c002018036038101906127db919061517f565b91506127ed60a0890160808a01615162565b61281357606082015160020b61280960408a0160208b01615220565b60020b1415612831565b608082015160020b61282b60608a0160408b01615220565b60020b14155b1561284f57604051631759c67760e01b815260040160405180910390fd5b600c546000908152600760209081526040808320815160c08101835286516001600160a01b039081168252878501805182168387019081528986015183168487019081526060808c0151600290810b9187019182526080808e0151820b90880190815260a0808f0151908901908152895460018082018c559a8e528c8e209951600490910290990180546001600160a01b03199081169a8a169a909a178155955199860180549099169988169990991790975591519183018054915196519286166001600160b81b031990921691909117600160a01b62ffffff978816021762ffffff60b81b1916600160b81b96909216959095021790935592516003909201919091559051168352600990915290205460ff16612980576040516336cc3cab60e21b815260040160405180910390fd5b600082602001518360400151846060015185608001518660a00151308d8f60800160208101906129b09190615162565b6020808c015160608d015160808e0151604051612a0797969594016001600160a01b0396871681526020810195909552921515604085015293166060830152600292830b608083015290910b60a082015260c00190565b60408051601f1981840301815290829052612a29969594939291602001614ec3565b60408051601f198184030181529082905284516339ef369360e21b835290925060009182916001600160a01b037f0000000000000000000000000000000000000000000000000000000000000000169163e7bcda4c91612a8d918790600401614f08565b6000604051808303816000875af1158015612aac573d6000803e3d6000fd5b505050506040513d6000823e601f3d908101601f19168201604052612ad4919081019061523b565b5091509150856001600160a01b031682600081518110612af657612af6614ced565b60200260200101516001600160a01b031603612bc357600081600081518110612b2157612b21614ced565b6020026020010151118015612b50575080600181518110612b4457612b44614ced565b60200260200101516000145b612b5957600080fd5b80600081518110612b6c57612b6c614ced565b6020026020010151898581518110612b8657612b86614ced565b60200260200101818152505080600081518110612ba557612ba5614ced565b602002602001015188612bb89190614c8a565b975060019650612c76565b600081600181518110612bd857612bd8614ced565b6020026020010151118015612c07575080600081518110612bfb57612bfb614ced565b60200260200101516000145b612c1057600080fd5b80600181518110612c2357612c23614ced565b6020026020010151898581518110612c3d57612c3d614ced565b60200260200101818152505080600181518110612c5c57612c5c614ced565b602002602001015188612c6f9190614c8a565b9750600096505b505050600101612798565b506000612cdc7f0000000000000000000000000000000000000000000000000000000000000000612cb860a08b0160808c01615162565b612ccc5761097760408b0160208c01615220565b61097760608b0160408c01615220565b90506000612d9683604001518a6080016020810190612cfb9190615162565b612d06576001612d09565b60005b8a85612d347f00000000000000000000000000000000000000000000000000000000000000006123a3565b8e6080016020810190612d479190615162565b612d905787612d777f0000000000000000000000000000000000000000000000000000000000000000600a6153f9565b612d81908e61514b565b612d8b9190615129565b61418c565b8b61418c565b905080600003612db957604051638c18744360e01b815260040160405180910390fd5b6004546000906001600160a01b031615612e5257612dd787836136ba565b600480546040516323b872dd60e01b81529293506001600160a01b03808916936323b872dd93612e0d9333931691879101614e9f565b6020604051808303816000875af1158015612e2c573d6000803e3d6000fd5b505050506040513d601f19601f82011682018060405250810190612e509190614c57565b505b60a08a0135612e618284614c8a565b1115612e8057604051630bea79f960e11b815260040160405180910390fd5b6040516323b872dd60e01b81526001600160a01b038616906323b872dd90612eb090339030908790600401614e9f565b6020604051808303816000875af1158015612ecf573d6000803e3d6000fd5b505050506040513d601f19601f82011682018060405250810190612ef39190614c57565b5060405163095ea7b360e01b81526001600160a01b0386169063095ea7b390612f42907f0000000000000000000000000000000000000000000000000000000000000000908690600401614c3e565b6020604051808303816000875af1158015612f61573d6000803e3d6000fd5b505050506040513d601f19601f82011682018060405250810190612f859190614c57565b5060005b612f938b806150cb565b905081101561317157612fa68b806150cb565b82818110612fb657612fb6614ced565b905060c00201803603810190612fcc919061517f565b9450600088848b8481518110612fe457612fe4614ced565b6020026020010151612ff6919061514b565b6130009190615129565b905060006130546130148860200151613995565b613024896060015160020b613a30565b6130348a6080015160020b613a30565b8c613040576000613042565b855b8d61304d57866142e9565b60006142e9565b905060008760200151886040015189606001518a60800151856040516020016130ba9594939291906001600160a01b039586168152939094166020840152600291820b6040840152900b60608201526001600160801b0391909116608082015260a00190565b60408051601f198184030181529082905289516304e94bdb60e51b83529092506001600160a01b037f00000000000000000000000000000000000000000000000000000000000000001691639d297b6091613119918590600401614f08565b6000604051808303816000875af1158015613138573d6000803e3d6000fd5b505050506040513d6000823e601f3d908101601f191682016040526131609190810190615002565b505060019093019250612f89915050565b506040805160a08101909152806131888c806150cb565b905081526020018b60200160208101906131a29190615220565b60020b81526020016131ba60608d0160408e01615220565b60020b8152602081018b90526040016131d960a08d0160808e01615162565b15159052600c805460009081526006602090815260409182902084518155908401516001820180549386015162ffffff90811663010000000265ffffffffffff1990951692169190911792909217909155606083015160028201556080909201516003909201805492151560ff19909316929092179091555461325d90339061397b565b7f7579109e5de1019aee00d7149984f3a300f5cf1297dbd9e526c6f34c03ea10778a600c54848a856040516132969594939291906154c3565b60405180910390a15050505050505050506111766001600055565b6005546040516373ea766160e01b8152600481018390526060916001600160a01b0316906373ea766190602401600060405180830381865afa1580156132fb573d6000803e3d6000fd5b505050506040513d6000823e601f3d908101601f1916820160405261253691908101906155a7565b61332b6138d2565b600480546001600160a01b03199081166001600160a01b038e81169190911783556005805483168e83161790556002805483168d8316179055600380549092168b8216179091558881166000908152600a60209081526040808320805460ff199081168d1515179091558a851680855260098452828520805483168c1515179055898552600b8452938290208054909116881515179055600e8690558051630dfe168160e01b815290518a957f000000000000000000000000000000000000000000000000000000000000000090951694630dfe16819383820193909291908290030181865afa158015613423573d6000803e3d6000fd5b505050506040513d601f19601f820116820180604052508101906134479190614deb565b6001600160a01b0316141580156134f157507f00000000000000000000000000000000000000000000000000000000000000006001600160a01b0316816001600160a01b031663d21220a76040518163ffffffff1660e01b8152600401602060405180830381865afa1580156134c1573d6000803e3d6000fd5b505050506040513d601f19601f820116820180604052508101906134e59190614deb565b6001600160a01b031614155b1561350e5760405162820f3560e61b815260040160405180910390fd5b7f00000000000000000000000000000000000000000000000000000000000000006001600160a01b0316816001600160a01b0316630dfe16816040518163ffffffff1660e01b8152600401602060405180830381865afa158015613576573d6000803e3d6000fd5b505050506040513d601f19601f8201168201806040525081019061359a9190614deb565b6001600160a01b03161415801561364457507f00000000000000000000000000000000000000000000000000000000000000006001600160a01b0316816001600160a01b031663d21220a76040518163ffffffff1660e01b8152600401602060405180830381865afa158015613614573d6000803e3d6000fd5b505050506040513d601f19601f820116820180604052508101906136389190614deb565b6001600160a01b031614155b156136615760405162820f3560e61b815260040160405180910390fd5b604080516001600160a01b038d811682528c811660208301528b168183015290517f318be759e0d069183ded0831e6c2119c16ced81a05e6da31c19c8c53d01bb9e29181900360600190a1505050505050505050505050565b600254604051637669909560e01b815230600482015260248101849052604481018390526000916001600160a01b031690637669909590606401602060405180830381865afa158015613711573d6000803e3d6000fd5b505050506040513d601f19601f820116820180604052508101906137359190614c25565b9392505050565b60008061244083613a30565b600061375887878787878761418c565b90505b9695505050505050565b61376d6138d2565b6001600160a01b03811661379c57604051631e4fbdf760e01b8152600060048201526024015b60405180910390fd5b611176816138ff565b60001960601c828116925083811693508160005283673ec412a9852d173d60c11b17601c52602060002082018201805482169150816137ec5763ceea21b66000526004601cfd5b81851485151761381257816000526030600c205461381257634b6e7f186000526004601cfd5b6001018390558183827f8c5be1e5ebec7d5bd14f71427d1e84f3dd0314c0f7b2291e5b200ac8c7c3b925600038a450505050565b60405163150b7a028082523360208301528560601b60601c604083015283606083015260808083015282518060a0840152801561388d578060c08401826020870160045afa505b60208360a48301601c860160008a5af16138b0573d156138b0573d6000843e3d83fd5b508060e01b8251146138ca5763d1a57ed66000526004601cfd5b505050505050565b6001546001600160a01b03163314610d595760405163118cdaa760e01b8152336004820152602401613793565b600180546001600160a01b038381166001600160a01b0319831681179093556040519116919082907f8be0079c531659141344cd1fd0a4f28419497f9722a3daafe3b4186f6b6457e090600090a35050565b60026000540361397457604051633ee5aeb560e01b815260040160405180910390fd5b6002600055565b610a368282604051806020016040528060008152506143a1565b60408051600481526024810182526020810180516001600160e01b0316633850c7bd60e01b179052905160009182916001600160a01b038516916139d891615088565b600060405180830381855afa9150503d8060008114613a13576040519150601f19603f3d011682016040523d82523d6000602084013e613a18565b606091505b50915050808060200190518101906137359190614deb565b60008060008360020b12613a47578260020b613a4f565b8260020b6000035b9050620d89e8811115613a75576040516315e4079d60e11b815260040160405180910390fd5b600081600116600003613a8c57600160801b613a9e565b6ffffcb933bd6fad37aa2d162d1a5940015b70ffffffffffffffffffffffffffffffffff1690506002821615613ad2576ffff97272373d413259a46990580e213a0260801c5b6004821615613af1576ffff2e50f5f656932ef12357cf3c7fdcc0260801c5b6008821615613b10576fffe5caca7e10e4e61c3624eaa0941cd00260801c5b6010821615613b2f576fffcb9843d60f6159c9db58835c9266440260801c5b6020821615613b4e576fff973b41fa98c081472e6896dfb254c00260801c5b6040821615613b6d576fff2ea16466c96a3843ec78b326b528610260801c5b6080821615613b8c576ffe5dee046a99a2a811c461f1969c30530260801c5b610100821615613bac576ffcbe86c7900a88aedcffc83b479aa3a40260801c5b610200821615613bcc576ff987a7253ac413176f2b074cf7815e540260801c5b610400821615613bec576ff3392b0822b70005940c7a398e4b70f30260801c5b610800821615613c0c576fe7159475a2c29b7443b29c7fa6e889d90260801c5b611000821615613c2c576fd097f3bdfd2022b8845ad8f792aa58250260801c5b612000821615613c4c576fa9f746462d870fdf8a65dc1f90e061e50260801c5b614000821615613c6c576f70d869a156d2a1b890bb3df62baf32f70260801c5b618000821615613c8c576f31be135f97d08fd981231505542fcfa60260801c5b62010000821615613cad576f09aa508b5b7a84e1c677de54f3e99bc90260801c5b62020000821615613ccd576e5d6af8dedb81196699c329225ee6040260801c5b62040000821615613cec576d2216e584f5fa1ea926041bedfe980260801c5b62080000821615613d09576b048a170391f7dc42444e8fa20260801c5b60008460020b1315613d2a578060001981613d2657613d26615113565b0490505b640100000000810615613d3e576001613d41565b60005b60ff16602082901c0192505050919050565b600080836001600160a01b0316856001600160a01b03161115613d74579293925b846001600160a01b0316866001600160a01b031611613d9f57613d98858585613e32565b9150613de6565b836001600160a01b0316866001600160a01b03161015613dd857613dc4868585613e32565b9150613dd1858785613def565b9050613de6565b613de3858585613def565b90505b94509492505050565b6000826001600160a01b0316846001600160a01b03161115613e0f579192915b61244c826001600160801b03168585036001600160a01b0316600160601b6143bf565b6000826001600160a01b0316846001600160a01b03161115613e52579192915b836001600160a01b0316613e8b606060ff16846001600160801b0316901b8686036001600160a01b0316866001600160a01b03166143bf565b81613e9857613e98615113565b04949350505050565b60006001600160801b036001600160a01b03831611613fea576000613ecf6001600160a01b0384168061514b565b9050836001600160a01b0316630dfe16816040518163ffffffff1660e01b8152600401602060405180830381865afa158015613f0f573d6000803e3d6000fd5b505050506040513d601f19601f82011682018060405250810190613f339190614deb565b6001600160a01b03167f00000000000000000000000000000000000000000000000000000000000000006001600160a01b031614613fa957613fa4600160c01b613f9e7f0000000000000000000000000000000000000000000000000000000000000000600a6153f9565b836143bf565b613fe2565b613fe281613fd87f0000000000000000000000000000000000000000000000000000000000000000600a6153f9565b600160c01b6143bf565b915050612536565b60006140096001600160a01b03841680680100000000000000006143bf565b9050836001600160a01b0316630dfe16816040518163ffffffff1660e01b8152600401602060405180830381865afa158015614049573d6000803e3d6000fd5b505050506040513d601f19601f8201168201806040525081019061406d9190614deb565b6001600160a01b03167f00000000000000000000000000000000000000000000000000000000000000006001600160a01b0316146140dd576140d8600160801b613f9e7f0000000000000000000000000000000000000000000000000000000000000000600a6153f9565b61244c565b61244c8161410c7f0000000000000000000000000000000000000000000000000000000000000000600a6153f9565b600160801b6143bf565b6060600080846001600160a01b0316846040516141339190615088565b600060405180830381855af49150503d806000811461416e576040519150601f19603f3d011682016040523d82523d6000602084013e614173565b606091505b5091509150614183858383614471565b95945050505050565b600080866141c4576141bf7f0000000000000000000000000000000000000000000000000000000000000000600a6153f9565b6141ef565b6141ef7f0000000000000000000000000000000000000000000000000000000000000000600a6153f9565b600354604051630605068160e01b81526001600160a01b038b811660048301528a15156024830152604482018a905260648201899052608482018890529091169063060506819060a401602060405180830381865afa158015614256573d6000803e3d6000fd5b505050506040513d601f19601f8201168201806040525081019061427a9190614c25565b614284908561514b565b61428e9190615129565b9050861561429d57905061375b565b836142c97f0000000000000000000000000000000000000000000000000000000000000000600a6153f9565b6142d3908361514b565b6142dd9190615129565b98975050505050505050565b6000836001600160a01b0316856001600160a01b03161115614309579293925b846001600160a01b0316866001600160a01b0316116143345761432d8585856144cd565b9050614183565b836001600160a01b0316866001600160a01b0316101561439657600061435b8786866144cd565b9050600061436a878986614530565b9050806001600160801b0316826001600160801b03161061438b578061438d565b815b92505050614183565b61375b858584614530565b6143ab838361456d565b823b15610b4c57610b4c6000848484613846565b60008080600019858709858702925082811083820303915050806000036143f857600084116143ed57600080fd5b508290049050613735565b80841161440457600080fd5b6000848688096000868103871696879004966002600389028118808a02820302808a02820302808a02820302808a02820302808a02820302808a02909103029181900381900460010186841190950394909402919094039290920491909117919091029150509392505050565b606082614486576144818261461b565b613735565b815115801561449d57506001600160a01b0384163b155b156144c657604051639996b31560e01b81526001600160a01b0385166004820152602401613793565b5080613735565b6000826001600160a01b0316846001600160a01b031611156144ed579192915b6000614510856001600160a01b0316856001600160a01b0316600160601b6143bf565b905061418361452b84838888036001600160a01b03166143bf565b614644565b6000826001600160a01b0316846001600160a01b03161115614550579192915b61244c61452b83600160601b8787036001600160a01b03166143bf565b6001600160a01b03909116908161458c5763ea553b346000526004601cfd5b80600052673ec412a9852d173d60c11b601c5260206000208101810180548060601b156145c15763c991cbb16000526004601cfd5b831790556000829052601c600c20805460010163ffffffff81166145ed576301336cea6000526004601cfd5b9055808260007fddf252ad1be2c89b69c2b068fc378daa952ba7f163c4a11628f55a4df523b3ef8138a45050565b80511561462b5780518082602001fd5b604051630a12f52160e11b815260040160405180910390fd5b806001600160801b0381168114610c2d57600080fd5b60006020828403121561466c57600080fd5b81356001600160e01b03198116811461373557600080fd5b60005b8381101561469f578181015183820152602001614687565b50506000910152565b600081518084526146c0816020860160208601614684565b601f01601f19169290920160200192915050565b60208152600061373560208301846146a8565b6000602082840312156146f957600080fd5b5035919050565b6001600160a01b038116811461117657600080fd5b6000806040838503121561472857600080fd5b823561473381614700565b946020939093013593505050565b60008060006060848603121561475657600080fd5b833561476181614700565b9250602084013561477181614700565b929592945050506040919091013590565b6000806040838503121561479557600080fd5b82356147a081614700565b915060208301356147b081614700565b809150509250929050565b801515811461117657600080fd5b8035610c2d816147bb565b600080604083850312156147e757600080fd5b82356147f281614700565b915060208301356147b0816147bb565b60006020828403121561481457600080fd5b813561373581614700565b60006020828403121561483157600080fd5b81356001600160401b0381111561484757600080fd5b82016060818503121561373557600080fd5b6000806040838503121561486c57600080fd5b50508035926020909101359150565b60006020828403121561488d57600080fd5b81356001600160401b038111156148a357600080fd5b82016080818503121561373557600080fd5b80516001600160a01b0390811683526020808301519091169083015260408082015190830152606080820151908301526080908101511515910152565b60a0810161253682846148b5565b6000806020838503121561491357600080fd5b82356001600160401b0381111561492957600080fd5b8301601f8101851361493a57600080fd5b80356001600160401b0381111561495057600080fd5b8560208260051b840101111561496557600080fd5b6020919091019590945092505050565b6000602082016020835280845180835260408501915060408160051b86010192506020860160005b828110156149ce57603f198786030184526149b98583516146a8565b9450602093840193919091019060010161499d565b50929695505050505050565b6000806000806000608086880312156149f257600080fd5b85356149fd81614700565b94506020860135614a0d81614700565b93506040860135925060608601356001600160401b03811115614a2f57600080fd5b8601601f81018813614a4057600080fd5b80356001600160401b03811115614a5657600080fd5b886020828401011115614a6857600080fd5b959894975092955050506020019190565b600060208284031215614a8b57600080fd5b81356001600160401b03811115614aa157600080fd5b820160c0818503121561373557600080fd5b60008060008060008060008060008060006101608c8e031215614ad557600080fd5b8b35614ae081614700565b9a5060208c0135614af081614700565b995060408c0135614b0081614700565b985060608c0135614b1081614700565b975060808c0135614b2081614700565b965060a08c0135614b30816147bb565b955060c08c0135614b4081614700565b9450614b4e60e08d016147c9565b93506101008c01359250614b656101208d016147c9565b915060006101408d01359050809150509295989b509295989b9093969950565b8035600281900b8114610c2d57600080fd5b60008060408385031215614baa57600080fd5b8235614bb581614700565b9150614bc360208401614b85565b90509250929050565b60008060008060008060c08789031215614be557600080fd5b8635614bf081614700565b95506020870135614c00816147bb565b95989597505050506040840135936060810135936080820135935060a0909101359150565b600060208284031215614c3757600080fd5b5051919050565b6001600160a01b03929092168252602082015260400190565b600060208284031215614c6957600080fd5b8151613735816147bb565b634e487b7160e01b600052601160045260246000fd5b8082018082111561253657612536614c74565b6000808335601e19843603018112614cb457600080fd5b8301803591506001600160401b03821115614cce57600080fd5b6020019150600581901b3603821315614ce657600080fd5b9250929050565b634e487b7160e01b600052603260045260246000fd5b8181038181111561253657612536614c74565b81835260006001600160fb1b03831115614d2f57600080fd5b8260051b80836020870137939093016020019392505050565b606080825284359082015260006020850135614d6381614700565b6001600160a01b03166080830152604085013536869003601e19018112614d8957600080fd5b85016020810190356001600160401b03811115614da557600080fd5b8060051b3603821315614db757600080fd5b606060a0850152614dcc60c085018284614d16565b9250505083602083015261244c60408301846001600160a01b03169052565b600060208284031215614dfd57600080fd5b815161373581614700565b6000808335601e19843603018112614e1f57600080fd5b8301803591506001600160401b03821115614e3957600080fd5b602001915036819003821315614ce657600080fd5b6001600160a01b03868116825285166020820152604081018490526080606082018190528101829052818360a0830137600081830160a090810191909152601f909201601f19160101949350505050565b6001600160a01b039384168152919092166020820152604081019190915260600190565b6001600160a01b03878116825286166020820152600285810b604083015284900b60608201526080810183905260c060a082018190526000906142dd908301846146a8565b6001600160a01b038316815260406020820181905260009061244c908301846146a8565b634e487b7160e01b600052604160045260246000fd5b604051601f8201601f191681016001600160401b0381118282101715614f6a57614f6a614f2c565b604052919050565b60006001600160401b03821115614f8b57614f8b614f2c565b5060051b60200190565b600082601f830112614fa657600080fd5b8151614fb9614fb482614f72565b614f42565b8082825260208201915060208360051b860101925085831115614fdb57600080fd5b602085015b83811015614ff8578051835260209283019201614fe0565b5095945050505050565b6000806040838503121561501557600080fd5b82516001600160401b0381111561502b57600080fd5b61503785828601614f95565b602094909401519395939450505050565b61505281876148b5565b61010060a0820152600061506b61010083018688614d16565b6001600160a01b039490941660c08301525060e001529392505050565b6000825161509a818460208701614684565b9190910192915050565b8284823760008382016000815283516150c1818360208801614684565b0195945050505050565b6000808335601e198436030181126150e257600080fd5b8301803591506001600160401b038211156150fc57600080fd5b602001915060c081023603821315614ce657600080fd5b634e487b7160e01b600052601260045260246000fd5b60008261514657634e487b7160e01b600052601260045260246000fd5b500490565b808202811582820484141761253657612536614c74565b60006020828403121561517457600080fd5b8135613735816147bb565b600060c082840312801561519257600080fd5b5060405160c081016001600160401b03811182821017156151b5576151b5614f2c565b60405282356151c381614700565b815260208301356151d381614700565b602082015260408301356151e681614700565b60408201526151f760608401614b85565b606082015261520860808401614b85565b608082015260a0928301359281019290925250919050565b60006020828403121561523257600080fd5b61373582614b85565b60008060006060848603121561525057600080fd5b83516001600160401b0381111561526657600080fd5b8401601f8101861361527757600080fd5b8051615285614fb482614f72565b8082825260208201915060208360051b8501019250888311156152a757600080fd5b6020840193505b828410156152d25783516152c181614700565b8252602093840193909101906152ae565b8096505050505060208401516001600160401b038111156152f257600080fd5b6152fe86828701614f95565b604095909501519396949550929392505050565b6001815b600184111561534d5780850481111561533157615331614c74565b600184161561533f57908102905b60019390931c928002615316565b935093915050565b60008261536457506001612536565b8161537157506000612536565b81600181146153875760028114615391576153ad565b6001915050612536565b60ff8411156153a2576153a2614c74565b50506001821b612536565b5060208310610133831016604e8410600b84101617156153d0575081810a612536565b6153dd6000198484615312565b80600019048211156153f1576153f1614c74565b029392505050565b600061373560ff841683615355565b81835260208301925060008160005b848110156154b957813561542a81614700565b6001600160a01b03168652602082013561544381614700565b6001600160a01b03166020870152604082013561545f81614700565b6001600160a01b0316604087015261547960608301614b85565b60020b606087015261548d60808301614b85565b61549c608088018260020b9052565b5060a0828101359087015260c09586019590910190600101615417565b5093949350505050565b60a0815260008635601e198836030181126154dd57600080fd5b87016020810190356001600160401b038111156154f957600080fd5b60c08102360382131561550b57600080fd5b60c060a085015261552161016085018284615408565b91505061553060208901614b85565b61553f60c085018260020b9052565b5061554c60408901614b85565b61555b60e085018260020b9052565b506060880135610100840152615573608089016147c9565b151561012084015260a097909701356101408301525060208101949094526040840192909252606083015260809091015290565b6000602082840312156155b957600080fd5b81516001600160401b038111156155cf57600080fd5b8201601f810184136155e057600080fd5b80516001600160401b038111156155f9576155f9614f2c565b61560c601f8201601f1916602001614f42565b81815285602083850101111561562157600080fd5b61418382602083016020860161468456fea26469706673582212204c99e3478754f7c95c6528fd215367ef18548fa7eb1758545fcb17161f96217264736f6c634300081a0033","linkReferences":{}},"methodIdentifiers":{"approve(address,uint256)":"095ea7b3","approvedPools(address)":"f0bbcec4","approvedTTLs(uint256)":"91457d78","balanceOf(address)":"70a08231","callAsset()":"61f812a4","callAssetDecimals()":"50373276","dpFee()":"d302f2b8","emergencyWithdraw(address)":"6ff1c9bc","exerciseDelegator(address,address)":"3b2b4603","feeTo()":"017e7e58","getApproved(uint256)":"081812fc","getCurrentPricePerCallAsset(address)":"ab89fbaf","getFee(uint256,uint256)":"d250185c","getPremiumAmount(address,bool,uint256,uint256,uint256,uint256)":"f03b811c","getPricePerCallAssetViaTick(address,int24)":"eb22eccb","isApprovedForAll(address,address)":"e985e9c5","mintOption(((address,address,address,int24,int24,uint256)[],int24,int24,uint256,bool,uint256))":"bde0a7df","multicall(bytes[])":"ac9650d8","name()":"06fdde03","opData(uint256)":"5673a221","opTickMap(uint256,uint256)":"a2b15e4c","optionIds()":"1508b8e2","optionPricing()":"1e3394fb","owner()":"8da5cb5b","ownerOf(uint256)":"6352211e","positionManager()":"791b98bc","positionSplitter((uint256,address,uint256[]))":"9d98f412","primePool()":"271ab517","putAsset()":"c8de6e83","putAssetDecimals()":"0d51249b","renounceOwnership()":"715018a6","safeTransferFrom(address,address,uint256)":"42842e0e","safeTransferFrom(address,address,uint256,bytes)":"b88d4fde","setApprovalForAll(address,bool)":"a22cb465","settleOption((uint256,address[],bytes[],uint256[]))":"aad2402a","settlers(address)":"c70a900f","supportsInterface(bytes4)":"01ffc9a7","symbol()":"95d89b41","tokenURI(uint256)":"c87b56dd","tokenURIFetcher()":"07d88aad","transferFrom(address,address,uint256)":"23b872dd","transferOwnership(address)":"f2fde38b","updateAddress(address,address,address,address,address,bool,address,bool,uint256,bool,uint256)":"d1ba76e5","updateExerciseDelegate(address,bool)":"600b584b"},"id":23}