{"abi":[{"type":"constructor","inputs":[{"name":"_pm","type":"address","internalType":"address"},{"name":"_optionPricing","type":"address","internalType":"address"},{"name":"_dpFee","type":"address","internalType":"address"},{"name":"_callAsset","type":"address","internalType":"address"},{"name":"_putAsset","type":"address","internalType":"address"},{"name":"_primePool","type":"address","internalType":"address"},{"name":"_START_TIME","type":"uint256","internalType":"uint256"}],"stateMutability":"nonpayable"},{"type":"function","name":"approve","inputs":[{"name":"account","type":"address","internalType":"address"},{"name":"id","type":"uint256","internalType":"uint256"}],"outputs":[],"stateMutability":"payable"},{"type":"function","name":"approvedPools","inputs":[{"name":"","type":"address","internalType":"address"}],"outputs":[{"name":"","type":"bool","internalType":"bool"}],"stateMutability":"view"},{"type":"function","name":"approvedTTLs","inputs":[{"name":"","type":"uint256","internalType":"uint256"}],"outputs":[{"name":"","type":"bool","internalType":"bool"}],"stateMutability":"view"},{"type":"function","name":"balanceOf","inputs":[{"name":"owner","type":"address","internalType":"address"}],"outputs":[{"name":"result","type":"uint256","internalType":"uint256"}],"stateMutability":"view"},{"type":"function","name":"callAsset","inputs":[],"outputs":[{"name":"","type":"address","internalType":"address"}],"stateMutability":"view"},{"type":"function","name":"callAssetDecimals","inputs":[],"outputs":[{"name":"","type":"uint8","internalType":"uint8"}],"stateMutability":"view"},{"type":"function","name":"dpFee","inputs":[],"outputs":[{"name":"","type":"address","internalType":"contract IClammFeeStrategyV2"}],"stateMutability":"view"},{"type":"function","name":"emergencyWithdraw","inputs":[{"name":"token","type":"address","internalType":"address"}],"outputs":[],"stateMutability":"nonpayable"},{"type":"function","name":"exerciseDelegator","inputs":[{"name":"","type":"address","internalType":"address"},{"name":"","type":"address","internalType":"address"}],"outputs":[{"name":"","type":"bool","internalType":"bool"}],"stateMutability":"view"},{"type":"function","name":"feeTo","inputs":[],"outputs":[{"name":"","type":"address","internalType":"address"}],"stateMutability":"view"},{"type":"function","name":"getApproved","inputs":[{"name":"id","type":"uint256","internalType":"uint256"}],"outputs":[{"name":"result","type":"address","internalType":"address"}],"stateMutability":"view"},{"type":"function","name":"getCurrentPricePerCallAsset","inputs":[{"name":"_pool","type":"address","internalType":"contract IUniswapV3Pool"}],"outputs":[{"name":"","type":"uint256","internalType":"uint256"}],"stateMutability":"view"},{"type":"function","name":"getFee","inputs":[{"name":"amount","type":"uint256","internalType":"uint256"},{"name":"premium","type":"uint256","internalType":"uint256"}],"outputs":[{"name":"","type":"uint256","internalType":"uint256"}],"stateMutability":"view"},{"type":"function","name":"getPremiumAmount","inputs":[{"name":"hook","type":"address","internalType":"address"},{"name":"isPut","type":"bool","internalType":"bool"},{"name":"expiry","type":"uint256","internalType":"uint256"},{"name":"strike","type":"uint256","internalType":"uint256"},{"name":"lastPrice","type":"uint256","internalType":"uint256"},{"name":"amount","type":"uint256","internalType":"uint256"}],"outputs":[{"name":"","type":"uint256","internalType":"uint256"}],"stateMutability":"view"},{"type":"function","name":"getPricePerCallAssetViaTick","inputs":[{"name":"_pool","type":"address","internalType":"contract IUniswapV3Pool"},{"name":"_tick","type":"int24","internalType":"int24"}],"outputs":[{"name":"","type":"uint256","internalType":"uint256"}],"stateMutability":"view"},{"type":"function","name":"isApprovedForAll","inputs":[{"name":"owner","type":"address","internalType":"address"},{"name":"operator","type":"address","internalType":"address"}],"outputs":[{"name":"result","type":"bool","internalType":"bool"}],"stateMutability":"view"},{"type":"function","name":"mintOption","inputs":[{"name":"_params","type":"tuple","internalType":"struct OptionMarketOTM_Fixed_Expiry_V1.OptionParams","components":[{"name":"optionTicks","type":"tuple[]","internalType":"struct OptionMarketOTM_Fixed_Expiry_V1.OptionTicks[]","components":[{"name":"_handler","type":"address","internalType":"contract IHandler"},{"name":"pool","type":"address","internalType":"contract IUniswapV3Pool"},{"name":"hook","type":"address","internalType":"address"},{"name":"tickLower","type":"int24","internalType":"int24"},{"name":"tickUpper","type":"int24","internalType":"int24"},{"name":"liquidityToUse","type":"uint256","internalType":"uint256"}]},{"name":"tickLower","type":"int24","internalType":"int24"},{"name":"tickUpper","type":"int24","internalType":"int24"},{"name":"ttl","type":"uint256","internalType":"uint256"},{"name":"isCall","type":"bool","internalType":"bool"},{"name":"maxCostAllowance","type":"uint256","internalType":"uint256"}]}],"outputs":[],"stateMutability":"nonpayable"},{"type":"function","name":"multicall","inputs":[{"name":"data","type":"bytes[]","internalType":"bytes[]"}],"outputs":[{"name":"results","type":"bytes[]","internalType":"bytes[]"}],"stateMutability":"nonpayable"},{"type":"function","name":"name","inputs":[],"outputs":[{"name":"","type":"string","internalType":"string"}],"stateMutability":"view"},{"type":"function","name":"opData","inputs":[{"name":"","type":"uint256","internalType":"uint256"}],"outputs":[{"name":"opTickArrayLen","type":"uint256","internalType":"uint256"},{"name":"tickLower","type":"int24","internalType":"int24"},{"name":"tickUpper","type":"int24","internalType":"int24"},{"name":"expiry","type":"uint256","internalType":"uint256"},{"name":"isCall","type":"bool","internalType":"bool"}],"stateMutability":"view"},{"type":"function","name":"opTickMap","inputs":[{"name":"","type":"uint256","internalType":"uint256"},{"name":"","type":"uint256","internalType":"uint256"}],"outputs":[{"name":"_handler","type":"address","internalType":"contract IHandler"},{"name":"pool","type":"address","internalType":"contract IUniswapV3Pool"},{"name":"hook","type":"address","internalType":"address"},{"name":"tickLower","type":"int24","internalType":"int24"},{"name":"tickUpper","type":"int24","internalType":"int24"},{"name":"liquidityToUse","type":"uint256","internalType":"uint256"}],"stateMutability":"view"},{"type":"function","name":"optionIds","inputs":[],"outputs":[{"name":"","type":"uint256","internalType":"uint256"}],"stateMutability":"view"},{"type":"function","name":"optionPricing","inputs":[],"outputs":[{"name":"","type":"address","internalType":"contract IOptionPricingV2"}],"stateMutability":"view"},{"type":"function","name":"owner","inputs":[],"outputs":[{"name":"","type":"address","internalType":"address"}],"stateMutability":"view"},{"type":"function","name":"ownerOf","inputs":[{"name":"id","type":"uint256","internalType":"uint256"}],"outputs":[{"name":"result","type":"address","internalType":"address"}],"stateMutability":"view"},{"type":"function","name":"positionManager","inputs":[],"outputs":[{"name":"","type":"address","internalType":"contract IPositionManager"}],"stateMutability":"view"},{"type":"function","name":"positionSplitter","inputs":[{"name":"_params","type":"tuple","internalType":"struct OptionMarketOTM_Fixed_Expiry_V1.PositionSplitterParams","components":[{"name":"optionId","type":"uint256","internalType":"uint256"},{"name":"to","type":"address","internalType":"address"},{"name":"liquidityToSplit","type":"uint256[]","internalType":"uint256[]"}]}],"outputs":[],"stateMutability":"nonpayable"},{"type":"function","name":"primePool","inputs":[],"outputs":[{"name":"","type":"address","internalType":"contract IUniswapV3Pool"}],"stateMutability":"view"},{"type":"function","name":"putAsset","inputs":[],"outputs":[{"name":"","type":"address","internalType":"address"}],"stateMutability":"view"},{"type":"function","name":"putAssetDecimals","inputs":[],"outputs":[{"name":"","type":"uint8","internalType":"uint8"}],"stateMutability":"view"},{"type":"function","name":"renounceOwnership","inputs":[],"outputs":[],"stateMutability":"nonpayable"},{"type":"function","name":"safeTransferFrom","inputs":[{"name":"from","type":"address","internalType":"address"},{"name":"to","type":"address","internalType":"address"},{"name":"id","type":"uint256","internalType":"uint256"}],"outputs":[],"stateMutability":"payable"},{"type":"function","name":"safeTransferFrom","inputs":[{"name":"from","type":"address","internalType":"address"},{"name":"to","type":"address","internalType":"address"},{"name":"id","type":"uint256","internalType":"uint256"},{"name":"data","type":"bytes","internalType":"bytes"}],"outputs":[],"stateMutability":"payable"},{"type":"function","name":"setApprovalForAll","inputs":[{"name":"operator","type":"address","internalType":"address"},{"name":"isApproved","type":"bool","internalType":"bool"}],"outputs":[],"stateMutability":"nonpayable"},{"type":"function","name":"settleOption","inputs":[{"name":"_params","type":"tuple","internalType":"struct OptionMarketOTM_Fixed_Expiry_V1.SettleOptionParams","components":[{"name":"optionId","type":"uint256","internalType":"uint256"},{"name":"swapper","type":"address[]","internalType":"contract ISwapper[]"},{"name":"swapData","type":"bytes[]","internalType":"bytes[]"},{"name":"liquidityToSettle","type":"uint256[]","internalType":"uint256[]"}]}],"outputs":[{"name":"ac","type":"tuple","internalType":"struct OptionMarketOTM_Fixed_Expiry_V1.AssetsCache","components":[{"name":"assetToUse","type":"address","internalType":"contract ERC20"},{"name":"assetToGet","type":"address","internalType":"contract ERC20"},{"name":"totalProfit","type":"uint256","internalType":"uint256"},{"name":"totalAssetRelocked","type":"uint256","internalType":"uint256"},{"name":"isSettle","type":"bool","internalType":"bool"}]}],"stateMutability":"nonpayable"},{"type":"function","name":"settlers","inputs":[{"name":"","type":"address","internalType":"address"}],"outputs":[{"name":"","type":"bool","internalType":"bool"}],"stateMutability":"view"},{"type":"function","name":"supportsInterface","inputs":[{"name":"interfaceId","type":"bytes4","internalType":"bytes4"}],"outputs":[{"name":"result","type":"bool","internalType":"bool"}],"stateMutability":"view"},{"type":"function","name":"symbol","inputs":[],"outputs":[{"name":"","type":"string","internalType":"string"}],"stateMutability":"view"},{"type":"function","name":"tokenURI","inputs":[{"name":"id","type":"uint256","internalType":"uint256"}],"outputs":[{"name":"","type":"string","internalType":"string"}],"stateMutability":"view"},{"type":"function","name":"tokenURIFetcher","inputs":[],"outputs":[{"name":"","type":"address","internalType":"address"}],"stateMutability":"view"},{"type":"function","name":"transferFrom","inputs":[{"name":"from","type":"address","internalType":"address"},{"name":"to","type":"address","internalType":"address"},{"name":"id","type":"uint256","internalType":"uint256"}],"outputs":[],"stateMutability":"payable"},{"type":"function","name":"transferOwnership","inputs":[{"name":"newOwner","type":"address","internalType":"address"}],"outputs":[],"stateMutability":"nonpayable"},{"type":"function","name":"updateExerciseDelegate","inputs":[{"name":"_delegateTo","type":"address","internalType":"address"},{"name":"_status","type":"bool","internalType":"bool"}],"outputs":[],"stateMutability":"nonpayable"},{"type":"function","name":"updatePoolApporvals","inputs":[{"name":"_settler","type":"address","internalType":"address"},{"name":"_statusSettler","type":"bool","internalType":"bool"},{"name":"_pool","type":"address","internalType":"address"},{"name":"_statusPools","type":"bool","internalType":"bool"},{"name":"ttl","type":"uint256","internalType":"uint256"},{"name":"ttlStatus","type":"bool","internalType":"bool"},{"name":"_BUFFER_TIME","type":"uint256","internalType":"uint256"}],"outputs":[],"stateMutability":"nonpayable"},{"type":"function","name":"updatePoolSettings","inputs":[{"name":"_feeTo","type":"address","internalType":"address"},{"name":"_tokenURIFetcher","type":"address","internalType":"address"},{"name":"_dpFee","type":"address","internalType":"address"},{"name":"_optionPricing","type":"address","internalType":"address"}],"outputs":[],"stateMutability":"nonpayable"},{"type":"event","name":"Approval","inputs":[{"name":"owner","type":"address","indexed":true,"internalType":"address"},{"name":"account","type":"address","indexed":true,"internalType":"address"},{"name":"id","type":"uint256","indexed":true,"internalType":"uint256"}],"anonymous":false},{"type":"event","name":"ApprovalForAll","inputs":[{"name":"owner","type":"address","indexed":true,"internalType":"address"},{"name":"operator","type":"address","indexed":true,"internalType":"address"},{"name":"isApproved","type":"bool","indexed":false,"internalType":"bool"}],"anonymous":false},{"type":"event","name":"LogMintOption","inputs":[{"name":"_params","type":"tuple","indexed":false,"internalType":"struct OptionMarketOTM_Fixed_Expiry_V1.OptionParams","components":[{"name":"optionTicks","type":"tuple[]","internalType":"struct OptionMarketOTM_Fixed_Expiry_V1.OptionTicks[]","components":[{"name":"_handler","type":"address","internalType":"contract IHandler"},{"name":"pool","type":"address","internalType":"contract IUniswapV3Pool"},{"name":"hook","type":"address","internalType":"address"},{"name":"tickLower","type":"int24","internalType":"int24"},{"name":"tickUpper","type":"int24","internalType":"int24"},{"name":"liquidityToUse","type":"uint256","internalType":"uint256"}]},{"name":"tickLower","type":"int24","internalType":"int24"},{"name":"tickUpper","type":"int24","internalType":"int24"},{"name":"ttl","type":"uint256","internalType":"uint256"},{"name":"isCall","type":"bool","internalType":"bool"},{"name":"maxCostAllowance","type":"uint256","internalType":"uint256"}]},{"name":"optionId","type":"uint256","indexed":false,"internalType":"uint256"},{"name":"premiumAmount","type":"uint256","indexed":false,"internalType":"uint256"},{"name":"size","type":"uint256","indexed":false,"internalType":"uint256"},{"name":"protocolFees","type":"uint256","indexed":false,"internalType":"uint256"}],"anonymous":false},{"type":"event","name":"LogOptionsMarketInitialized","inputs":[{"name":"primePool","type":"address","indexed":false,"internalType":"address"},{"name":"optionPricing","type":"address","indexed":false,"internalType":"address"},{"name":"dpFee","type":"address","indexed":false,"internalType":"address"},{"name":"callAsset","type":"address","indexed":false,"internalType":"address"},{"name":"putAsset","type":"address","indexed":false,"internalType":"address"}],"anonymous":false},{"type":"event","name":"LogSettleOption","inputs":[{"name":"assetsCache","type":"tuple","indexed":false,"internalType":"struct OptionMarketOTM_Fixed_Expiry_V1.AssetsCache","components":[{"name":"assetToUse","type":"address","internalType":"contract ERC20"},{"name":"assetToGet","type":"address","internalType":"contract ERC20"},{"name":"totalProfit","type":"uint256","internalType":"uint256"},{"name":"totalAssetRelocked","type":"uint256","internalType":"uint256"},{"name":"isSettle","type":"bool","internalType":"bool"}]},{"name":"liquiditySettled","type":"uint256[]","indexed":false,"internalType":"uint256[]"},{"name":"owner","type":"address","indexed":false,"internalType":"address"},{"name":"optionId","type":"uint256","indexed":false,"internalType":"uint256"}],"anonymous":false},{"type":"event","name":"LogSplitOption","inputs":[{"name":"params","type":"tuple","indexed":false,"internalType":"struct OptionMarketOTM_Fixed_Expiry_V1.PositionSplitterParams","components":[{"name":"optionId","type":"uint256","internalType":"uint256"},{"name":"to","type":"address","internalType":"address"},{"name":"liquidityToSplit","type":"uint256[]","internalType":"uint256[]"}]},{"name":"newOptionId","type":"uint256","indexed":false,"internalType":"uint256"},{"name":"oldOwner","type":"address","indexed":false,"internalType":"address"}],"anonymous":false},{"type":"event","name":"LogUpdateExerciseDelegate","inputs":[{"name":"owner","type":"address","indexed":false,"internalType":"address"},{"name":"delegate","type":"address","indexed":false,"internalType":"address"},{"name":"status","type":"bool","indexed":false,"internalType":"bool"}],"anonymous":false},{"type":"event","name":"LogUpdatePoolApprovals","inputs":[{"name":"settler","type":"address","indexed":false,"internalType":"address"},{"name":"statusSettler","type":"bool","indexed":false,"internalType":"bool"},{"name":"pool","type":"address","indexed":false,"internalType":"address"},{"name":"statusPools","type":"bool","indexed":false,"internalType":"bool"},{"name":"ttl","type":"uint256","indexed":false,"internalType":"uint256"},{"name":"ttlStatus","type":"bool","indexed":false,"internalType":"bool"},{"name":"bufferTime","type":"uint256","indexed":false,"internalType":"uint256"}],"anonymous":false},{"type":"event","name":"LogUpdatePoolSettings","inputs":[{"name":"feeTo","type":"address","indexed":false,"internalType":"address"},{"name":"tokenURIFetcher","type":"address","indexed":false,"internalType":"address"},{"name":"dpFee","type":"address","indexed":false,"internalType":"address"},{"name":"optionPricing","type":"address","indexed":false,"internalType":"address"}],"anonymous":false},{"type":"event","name":"OwnershipTransferred","inputs":[{"name":"previousOwner","type":"address","indexed":true,"internalType":"address"},{"name":"newOwner","type":"address","indexed":true,"internalType":"address"}],"anonymous":false},{"type":"event","name":"Transfer","inputs":[{"name":"from","type":"address","indexed":true,"internalType":"address"},{"name":"to","type":"address","indexed":true,"internalType":"address"},{"name":"id","type":"uint256","indexed":true,"internalType":"uint256"}],"anonymous":false},{"type":"error","name":"AccountBalanceOverflow","inputs":[]},{"type":"error","name":"AddressEmptyCode","inputs":[{"name":"target","type":"address","internalType":"address"}]},{"type":"error","name":"ArrayLenMismatch","inputs":[]},{"type":"error","name":"BalanceQueryForZeroAddress","inputs":[]},{"type":"error","name":"FailedInnerCall","inputs":[]},{"type":"error","name":"IVNotSet","inputs":[]},{"type":"error","name":"InBUFFER_TIME","inputs":[]},{"type":"error","name":"InvalidPool","inputs":[]},{"type":"error","name":"MaxCostAllowanceExceeded","inputs":[]},{"type":"error","name":"MaxOptionBuyReached","inputs":[]},{"type":"error","name":"NotApprovedSettler","inputs":[]},{"type":"error","name":"NotApprovedTTL","inputs":[]},{"type":"error","name":"NotEnoughAfterSwap","inputs":[]},{"type":"error","name":"NotIVSetter","inputs":[]},{"type":"error","name":"NotOwnerNorApproved","inputs":[]},{"type":"error","name":"NotOwnerOrDelegator","inputs":[]},{"type":"error","name":"NotValidStrikeTick","inputs":[]},{"type":"error","name":"OwnableInvalidOwner","inputs":[{"name":"owner","type":"address","internalType":"address"}]},{"type":"error","name":"OwnableUnauthorizedAccount","inputs":[{"name":"account","type":"address","internalType":"address"}]},{"type":"error","name":"PoolNotApproved","inputs":[]},{"type":"error","name":"ReentrancyGuardReentrantCall","inputs":[]},{"type":"error","name":"T","inputs":[]},{"type":"error","name":"TokenAlreadyExists","inputs":[]},{"type":"error","name":"TokenDoesNotExist","inputs":[]},{"type":"error","name":"TransferFromIncorrectOwner","inputs":[]},{"type":"error","name":"TransferToNonERC721ReceiverImplementer","inputs":[]},{"type":"error","name":"TransferToZeroAddress","inputs":[]}],"bytecode":{"object":"0x61014060405261025860045534801561001757600080fd5b50604051615d74380380615d7483398101604081905261003691610485565b6001600055338061006157604051631e4fbdf760e01b81526000600482015260240160405180910390fd5b61006a81610417565b506001600160a01b0387811660805284811660c081905284821660e052600580546001600160a01b0319908116898516179091556006805490911689841617905590831660a081905260408051630dfe168160e01b81529051630dfe1681916004808201926020929091908290030181865afa1580156100ee573d6000803e3d6000fd5b505050506040513d601f19601f820116820180604052508101906101129190610504565b6001600160a01b03161415801561019e5750836001600160a01b031660a0516001600160a01b031663d21220a76040518163ffffffff1660e01b8152600401602060405180830381865afa15801561016e573d6000803e3d6000fd5b505050506040513d601f19601f820116820180604052508101906101929190610504565b6001600160a01b031614155b156101bb5760405162820f3560e61b815260040160405180910390fd5b826001600160a01b031660a0516001600160a01b0316630dfe16816040518163ffffffff1660e01b8152600401602060405180830381865afa158015610205573d6000803e3d6000fd5b505050506040513d601f19601f820116820180604052508101906102299190610504565b6001600160a01b0316141580156102b55750826001600160a01b031660a0516001600160a01b031663d21220a76040518163ffffffff1660e01b8152600401602060405180830381865afa158015610285573d6000803e3d6000fd5b505050506040513d601f19601f820116820180604052508101906102a99190610504565b6001600160a01b031614155b156102d25760405162820f3560e61b815260040160405180910390fd5b836001600160a01b031663313ce5676040518163ffffffff1660e01b8152600401602060405180830381865afa158015610310573d6000803e3d6000fd5b505050506040513d601f19601f820116820180604052508101906103349190610526565b60ff166101008160ff1681525050826001600160a01b031663313ce5676040518163ffffffff1660e01b8152600401602060405180830381865afa158015610380573d6000803e3d6000fd5b505050506040513d601f19601f820116820180604052508101906103a49190610526565b60ff16610120526003819055604080516001600160a01b03848116825288811660208301528781168284015286811660608301528516608082015290517ff432a680e02fd7036a5fd19b4cc769273e33297dfb07a00278dd8f5bfa3fb67d9181900360a00190a150505050505050610549565b600180546001600160a01b038381166001600160a01b0319831681179093556040519116919082907f8be0079c531659141344cd1fd0a4f28419497f9722a3daafe3b4186f6b6457e090600090a35050565b80516001600160a01b038116811461048057600080fd5b919050565b600080600080600080600060e0888a0312156104a057600080fd5b6104a988610469565b96506104b760208901610469565b95506104c560408901610469565b94506104d360608901610469565b93506104e160808901610469565b92506104ef60a08901610469565b915060c0880151905092959891949750929550565b60006020828403121561051657600080fd5b61051f82610469565b9392505050565b60006020828403121561053857600080fd5b815160ff8116811461051f57600080fd5b60805160a05160c05160e05161010051610120516156d961069b600039600081816103b701528181613149015261422b0152600081816104f601528181613fda015281816140140152818161411401528181614148015281816141fb01526143050152600081816108ef01528181610c1201528181610cb0015281816117c00152818161193d015281816119bf0152612b160152600081816105ce01528181610adc01528181610b5d0152818161187b015281816119630152818161199901528181612b3c01528181613fa001526140da015260008181610474015281816117ea015281816118a501528181613081015261310801526000818161069701528181611b5201528181611c1101528181612002015281816120f30152818161217601528181612354015281816123d70152818161260e01528181612e500152818161331201526134de01526156d96000f3fe6080604052600436106102725760003560e01c806378d476f31161014f578063b88d4fde116100c1578063d302f2b81161007a578063d302f2b814610931578063e985e9c514610951578063eb22eccb14610987578063f03b811c146109a7578063f0bbcec4146109c7578063f2fde38b146109f757600080fd5b8063b88d4fde1461085a578063bde0a7df1461086d578063c70a900f1461088d578063c87b56dd146108bd578063c8de6e83146108dd578063d250185c1461091157600080fd5b80639d98f412116101135780639d98f4121461073c578063a22cb4651461075c578063a2b15e4c1461077c578063aad2402a146107e0578063ab89fbaf1461080d578063ac9650d81461082d57600080fd5b806378d476f314610665578063791b98bc146106855780638da5cb5b146106b957806391457d78146106d757806395d89b411461070757600080fd5b8063271ab517116101e8578063600b584b116101ac578063600b584b1461059c57806361f812a4146105bc5780636352211e146105f05780636ff1c9bc1461061057806370a0823114610630578063715018a61461065057600080fd5b8063271ab517146104625780633b2b46031461049657806342842e0e146104d157806350373276146104e45780635673a2211461051857600080fd5b8063095ea7b31161023a578063095ea7b3146103905780630d51249b146103a557806314f46499146103eb5780631508b8e21461040b5780631e3394fb1461042f57806323b872dd1461044f57600080fd5b8063017e7e581461027757806301ffc9a7146102b457806306fdde031461030157806307d88aad14610350578063081812fc14610370575b600080fd5b34801561028357600080fd5b50600754610297906001600160a01b031681565b6040516001600160a01b0390911681526020015b60405180910390f35b3480156102c057600080fd5b506102f16102cf3660046146bc565b6301ffc9a760e09190911c9081146380ac58cd821417635b5e139f9091141790565b60405190151581526020016102ab565b34801561030d57600080fd5b5060408051808201909152601f81527f4d617267696e5a65726f204f7074696f6e204d61726b6574204f544d2046450060208201525b6040516102ab9190614736565b34801561035c57600080fd5b50600854610297906001600160a01b031681565b34801561037c57600080fd5b5061029761038b366004614749565b610a17565b6103a361039e366004614777565b610a56565b005b3480156103b157600080fd5b506103d97f000000000000000000000000000000000000000000000000000000000000000081565b60405160ff90911681526020016102ab565b3480156103f757600080fd5b506103a36104063660046147bc565b610a65565b34801561041757600080fd5b5061042160025481565b6040519081526020016102ab565b34801561043b57600080fd5b50600654610297906001600160a01b031681565b6103a361045d366004614841565b610dd6565b34801561046e57600080fd5b506102977f000000000000000000000000000000000000000000000000000000000000000081565b3480156104a257600080fd5b506102f16104b1366004614882565b600b60209081526000928352604080842090915290825290205460ff1681565b6103a36104df366004614841565b610eed565b3480156104f057600080fd5b506103d97f000000000000000000000000000000000000000000000000000000000000000081565b34801561052457600080fd5b5061056c610533366004614749565b600960205260009081526040902080546001820154600280840154600390940154929382820b93630100000090930490910b9160ff1685565b60408051958652600294850b60208701529290930b9184019190915260608301521515608082015260a0016102ab565b3480156105a857600080fd5b506103a36105b73660046148bb565b610f1a565b3480156105c857600080fd5b506102977f000000000000000000000000000000000000000000000000000000000000000081565b3480156105fc57600080fd5b5061029761060b366004614749565b610f90565b34801561061c57600080fd5b506103a361062b3660046148e9565b610fce565b34801561063c57600080fd5b5061042161064b3660046148e9565b6110a8565b34801561065c57600080fd5b506103a36110e3565b34801561067157600080fd5b506103a3610680366004614906565b6110f7565b34801561069157600080fd5b506102977f000000000000000000000000000000000000000000000000000000000000000081565b3480156106c557600080fd5b506001546001600160a01b0316610297565b3480156106e357600080fd5b506102f16106f2366004614749565b600e6020526000908152604090205460ff1681565b34801561071357600080fd5b5060408051808201909152600c81526b4d5a2d4f4d2d4f544d2d464560a01b6020820152610343565b34801561074857600080fd5b506103a3610757366004614962565b61119a565b34801561076857600080fd5b506103a36107773660046148bb565b611572565b34801561078857600080fd5b5061079c61079736600461499c565b6115c8565b604080516001600160a01b03978816815295871660208701529390951692840192909252600290810b60608401520b608082015260a081019190915260c0016102ab565b3480156107ec57600080fd5b506108006107fb3660046149be565b611635565b6040516102ab9190614a35565b34801561081957600080fd5b506104216108283660046148e9565b61279c565b34801561083957600080fd5b5061084d610848366004614a43565b61284d565b6040516102ab9190614ab8565b6103a3610868366004614b1d565b612935565b34801561087957600080fd5b506103a3610888366004614bbc565b612990565b34801561089957600080fd5b506102f16108a83660046148e9565b600d6020526000908152604090205460ff1681565b3480156108c957600080fd5b506103436108d8366004614749565b6136aa565b3480156108e957600080fd5b506102977f000000000000000000000000000000000000000000000000000000000000000081565b34801561091d57600080fd5b5061042161092c36600461499c565b61371c565b34801561093d57600080fd5b50600554610297906001600160a01b031681565b34801561095d57600080fd5b506102f161096c366004614882565b601c52670a5a2e7a000000006008526000526030600c205490565b34801561099357600080fd5b506104216109a2366004614c08565b61379e565b3480156109b357600080fd5b506104216109c2366004614c3d565b6137aa565b3480156109d357600080fd5b506102f16109e23660046148e9565b600c6020526000908152604090205460ff1681565b348015610a0357600080fd5b506103a3610a123660046148e9565b6137c7565b600081600052673ec412a9852d173d60c11b601c52602060002082018201805460601b610a4c5763ceea21b66000526004601cfd5b6001015492915050565b610a61338383613807565b5050565b610a6d6138a8565b6001600160a01b038781166000908152600d60209081526040808320805460ff199081168c151517909155898516808552600c8452828520805483168b1515179055888552600e845293829020805490911687151517905560048581558151630dfe168160e01b815291518a957f0000000000000000000000000000000000000000000000000000000000000000169493630dfe16819380840193919291908290030181865afa158015610b25573d6000803e3d6000fd5b505050506040513d601f19601f82011682018060405250810190610b499190614c96565b6001600160a01b031614158015610bf357507f00000000000000000000000000000000000000000000000000000000000000006001600160a01b0316816001600160a01b031663d21220a76040518163ffffffff1660e01b8152600401602060405180830381865afa158015610bc3573d6000803e3d6000fd5b505050506040513d601f19601f82011682018060405250810190610be79190614c96565b6001600160a01b031614155b15610c105760405162820f3560e61b815260040160405180910390fd5b7f00000000000000000000000000000000000000000000000000000000000000006001600160a01b0316816001600160a01b0316630dfe16816040518163ffffffff1660e01b8152600401602060405180830381865afa158015610c78573d6000803e3d6000fd5b505050506040513d601f19601f82011682018060405250810190610c9c9190614c96565b6001600160a01b031614158015610d4657507f00000000000000000000000000000000000000000000000000000000000000006001600160a01b0316816001600160a01b031663d21220a76040518163ffffffff1660e01b8152600401602060405180830381865afa158015610d16573d6000803e3d6000fd5b505050506040513d601f19601f82011682018060405250810190610d3a9190614c96565b6001600160a01b031614155b15610d635760405162820f3560e61b815260040160405180910390fd5b604080516001600160a01b038a81168252891515602083015288168183015286151560608201526080810186905284151560a082015260c0810184905290517fcdc112930f00a39a65ef97c74cbf1bb21f8cd84fb9b769f12e4c5a48a942d2769181900360e00190a15050505050505050565b6000818152673ec412a9852d173d60c11b3317601c52602090208101810180546001600160a01b039485169493841693811691908286148302610e345782610e265763ceea21b66000526004601cfd5b63a11481006000526004601cfd5b84610e475763ea553b346000526004601cfd5b856000528160010154925082331486331417610e75576030600c2054610e7557634b6e7f186000526004601cfd5b8215610e8357600082600101555b85851818905550601c600c8181208054600019019055600084905220805460010163ffffffff8116610ebd576301336cea6000526004601cfd5b90558082847fddf252ad1be2c89b69c2b068fc378daa952ba7f163c4a11628f55a4df523b3ef600038a45b505050565b610ef8838383610dd6565b813b15610ee857610ee8838383604051806020016040528060008152506138d5565b336000818152600b602090815260408083206001600160a01b03871680855290835292819020805460ff1916861515908117909155815194855291840192909252908201527f4ee86bb98ad0d189c6475dd48829e8525e468f3721ab971f0c0914e6693c8da69060600160405180910390a15050565b6000818152673ec412a9852d173d60c11b601c526020902081018101546001600160a01b031680610fc95763ceea21b66000526004601cfd5b919050565b610fd66138a8565b6040516370a0823160e01b81523060048201526001600160a01b0382169063a9059cbb90339083906370a0823190602401602060405180830381865afa158015611024573d6000803e3d6000fd5b505050506040513d601f19601f820116820180604052508101906110489190614cb3565b6040518363ffffffff1660e01b8152600401611065929190614ccc565b6020604051808303816000875af1158015611084573d6000803e3d6000fd5b505050506040513d601f19601f82011682018060405250810190610a619190614ce5565b6000816110bd57638f4eb6046000526004601cfd5b673ec412a9852d173d60c11b601c528160005263ffffffff601c600c2054169050919050565b6110eb6138a8565b6110f56000613961565b565b6110ff6138a8565b600780546001600160a01b038681166001600160a01b031992831681179093556008805487831690841681179091556005805487841690851681179091556006805493871693909416831790935560408051948552602085019190915283019190915260608201527f2a38eeb7b477d2d02f8c59437e9493ed71a5c5a1d426dfd40446830348acf8909060800160405180910390a150505050565b6111a26139b3565b6001600260008282546111b59190614d18565b909155503390506111c68235610f90565b6001600160a01b0316146111f057604051600162486bc960e11b0319815260040160405180910390fd5b8035600090815260096020908152604091829020825160a081018452815481526001820154600281810b9483019490945263010000009004830b818501529181015460608301526003015460ff16151560808201529061125290830183614d2b565b825114905061127457604051630dcb503560e11b815260040160405180910390fd5b60005b6112846040840184614d2b565b90508110156114425782356000908152600a602052604081208054839081106112af576112af614d7b565b906000526020600020906004020190508380604001906112cf9190614d2b565b838181106112df576112df614d7b565b905060200201358160030160008282546112f99190614d91565b9091555050600280546000908152600a6020908152604091829020825160c08101845285546001600160a01b03908116825260018701548116938201939093528585015492831681850152600160a01b8304850b6060820152600160b81b90920490930b60808201529060a082019061137490880188614d2b565b8681811061138457611384614d7b565b60209081029290920135909252835460018082018655600095865294829020845160049092020180546001600160a01b03199081166001600160a01b0393841617825592850151818701805490941690831617909255604084015160028301805460608701516080880151939094166001600160b81b031990911617600160a01b62ffffff948516021762ffffff60b81b1916600160b81b939092169290920217905560a09092015160039092019190915550919091019050611277565b506040518060a0016040528083806040019061145e9190614d2b565b825250602083810151600290810b82840152604080860151820b8185015260608087015181860152608080880151151595810195909552825460009081526009855282902086518155868501516001820180548986015162ffffff90811663010000000265ffffffffffff19909216931692909217919091179055908601519281019290925593909201516003909201805492151560ff199093169290921790915561151b91611513919085019085016148e9565b6002546139dd565b7f44b72a7e3474ccca11170d15b3e7a2f31bc170284829bdec3e017198cfff6d5f8260025461154d8560000135610f90565b60405161155c93929190614dd6565b60405180910390a15061156f6001600055565b50565b801515905081601c52670a5a2e7a0000000060085233600052806030600c2055806000528160601b60601c337f17307eab39ab6107e8899845ad3d59bd9653f200f220920489ca2b5937696c3160206000a35050565b600a60205281600052604060002081815481106115e457600080fd5b60009182526020909120600490910201805460018201546002808401546003909401546001600160a01b039384169650918316945091831692600160a01b8104830b92600160b81b909104900b9086565b6040805160a0810182526000808252602082018190529181018290526060810182905260808101919091526116686139b3565b8135600090815260096020908152604091829020825160a081018452815481526001820154600281810b9483019490945263010000009004830b938101939093529081015460608084019190915260039091015460ff16151560808301526116d290840184614d2b565b82511490506116f457604051630dcb503560e11b815260040160405180910390fd5b8060600151421061173b5760016080830152336000908152600d602052604090205460ff1661173657604051630184bf0960e01b815260040160405180910390fd5b6117b3565b336117468435610f90565b6001600160a01b0316141580156117925750600b60006117668535610f90565b6001600160a01b031681526020808201929092526040908101600090812033825290925290205460ff16155b156117b357604051600162486bc960e11b0319815260040160405180910390fd5b60008160800151611879577f00000000000000000000000000000000000000000000000000000000000000006001600160a01b03167f00000000000000000000000000000000000000000000000000000000000000006001600160a01b0316630dfe16816040518163ffffffff1660e01b8152600401602060405180830381865afa158015611846573d6000803e3d6000fd5b505050506040513d601f19601f8201168201806040525081019061186a9190614c96565b6001600160a01b031614611930565b7f00000000000000000000000000000000000000000000000000000000000000006001600160a01b03167f00000000000000000000000000000000000000000000000000000000000000006001600160a01b0316630dfe16816040518163ffffffff1660e01b8152600401602060405180830381865afa158015611901573d6000803e3d6000fd5b505050506040513d601f19601f820116820180604052508101906119259190614c96565b6001600160a01b0316145b90508160800151611961577f0000000000000000000000000000000000000000000000000000000000000000611983565b7f00000000000000000000000000000000000000000000000000000000000000005b6001600160a01b0316835260808201516119bd577f00000000000000000000000000000000000000000000000000000000000000006119df565b7f00000000000000000000000000000000000000000000000000000000000000005b6001600160a01b0316602084015260005b825181101561273b57611a066060860186614d2b565b82818110611a1657611a16614d7b565b90506020020135600003156127335784356000908152600a60205260408120805483908110611a4757611a47614d7b565b6000918252602082206004909102019150611a656060880188614d2b565b84818110611a7557611a75614d7b565b905060200201359050600080611adc611aa48560010160009054906101000a90046001600160a01b03166139f7565b600280870154611abd91600160a01b909104900b613a92565b600280880154611ad691600160b81b909104900b613a92565b86613db5565b91509150600082118015611aee575080155b80611b025750600081118015611b02575081155b156120b457858015611b145750600082115b8015611b265750608088015115156001145b15611bc557875160405163095ea7b360e01b81526001600160a01b039091169063095ea7b390611b7c907f0000000000000000000000000000000000000000000000000000000000000000908690600401614ccc565b6020604051808303816000875af1158015611b9b573d6000803e3d6000fd5b505050506040513d601f19601f82011682018060405250810190611bbf9190614ce5565b50612571565b85158015611bd35750600081115b8015611be55750608088015115156001145b15611c3b57875160405163095ea7b360e01b81526001600160a01b039091169063095ea7b390611b7c907f0000000000000000000000000000000000000000000000000000000000000000908590600401614ccc565b600086611c8257600280860154611c7d91611c5e91600160a01b9004900b613a92565b600280880154611c7791600160b81b909104900b613a92565b86613e51565b611cbd565b600280860154611cbd91611c9e91600160a01b9004900b613a92565b600280880154611cb791600160b81b909104900b613a92565b86613e94565b90508089606001818151611cd19190614d18565b90525060208901516040516370a0823160e01b81523060048201526000916001600160a01b0316906370a0823190602401602060405180830381865afa158015611d1f573d6000803e3d6000fd5b505050506040513d601f19601f82011682018060405250810190611d439190614cb3565b8a519091506001600160a01b031663a9059cbb611d6360208e018e614d2b565b8a818110611d7357611d73614d7b565b9050602002016020810190611d8891906148e9565b846040518363ffffffff1660e01b8152600401611da6929190614ccc565b6020604051808303816000875af1158015611dc5573d6000803e3d6000fd5b505050506040513d601f19601f82011682018060405250810190611de99190614ce5565b50611df760208c018c614d2b565b88818110611e0757611e07614d7b565b9050602002016020810190611e1c91906148e9565b6001600160a01b031663f3be6fc28b600001518c60200151858f8060400190611e459190614d2b565b8d818110611e5557611e55614d7b565b9050602002810190611e679190614e79565b6040518663ffffffff1660e01b8152600401611e87959493929190614ebf565b6020604051808303816000875af1158015611ea6573d6000803e3d6000fd5b505050506040513d601f19601f82011682018060405250810190611eca9190614cb3565b50600088611f1257600280880154611f0d91611eee91600160a01b9004900b613a92565b6002808a0154611f0791600160b81b909104900b613a92565b88613e94565b611f4d565b600280880154611f4d91611f2e91600160a01b9004900b613a92565b6002808a0154611f4791600160b81b909104900b613a92565b88613e51565b60208c01516040516370a0823160e01b81523060048201529192506000916001600160a01b03909116906370a0823190602401602060405180830381865afa158015611f9d573d6000803e3d6000fd5b505050506040513d601f19601f82011682018060405250810190611fc19190614cb3565b9050611fcd8284614d18565b811015611fed576040516360e710f160e01b815260040160405180910390fd5b8b602001516001600160a01b031663095ea7b37f0000000000000000000000000000000000000000000000000000000000000000846040518363ffffffff1660e01b815260040161203f929190614ccc565b6020604051808303816000875af115801561205e573d6000803e3d6000fd5b505050506040513d601f19601f820116820180604052508101906120829190614ce5565b5061208d8284614d18565b6120979082614d91565b8c6040018181516120a89190614d18565b90525050505050612571565b8580156120c75750608088015115156001145b1561231457875160405163095ea7b360e01b81526001600160a01b039091169063095ea7b39061211d907f0000000000000000000000000000000000000000000000000000000000000000908690600401614ccc565b6020604051808303816000875af115801561213c573d6000803e3d6000fd5b505050506040513d601f19601f820116820180604052508101906121609190614ce5565b5087602001516001600160a01b031663095ea7b37f0000000000000000000000000000000000000000000000000000000000000000836040518363ffffffff1660e01b81526004016121b3929190614ccc565b6020604051808303816000875af11580156121d2573d6000803e3d6000fd5b505050506040513d601f19601f820116820180604052508101906121f69190614ce5565b5060028085015460009161221791611c9e91600160a01b909104900b613a92565b60208a01516040516323b872dd60e01b81529192506001600160a01b0316906323b872dd9061224e90339030908790600401614f10565b6020604051808303816000875af115801561226d573d6000803e3d6000fd5b505050506040513d601f19601f820116820180604052508101906122919190614ce5565b5088516001600160a01b031663a9059cbb336122ad8685614d91565b6040518363ffffffff1660e01b81526004016122ca929190614ccc565b6020604051808303816000875af11580156122e9573d6000803e3d6000fd5b505050506040513d601f19601f8201168201806040525081019061230d9190614ce5565b5050612571565b851580156123285750608088015115156001145b1561257157875160405163095ea7b360e01b81526001600160a01b039091169063095ea7b39061237e907f0000000000000000000000000000000000000000000000000000000000000000908590600401614ccc565b6020604051808303816000875af115801561239d573d6000803e3d6000fd5b505050506040513d601f19601f820116820180604052508101906123c19190614ce5565b5087602001516001600160a01b031663095ea7b37f0000000000000000000000000000000000000000000000000000000000000000846040518363ffffffff1660e01b8152600401612414929190614ccc565b6020604051808303816000875af1158015612433573d6000803e3d6000fd5b505050506040513d601f19601f820116820180604052508101906124579190614ce5565b5060028085015460009161247891611c5e91600160a01b909104900b613a92565b60208a01516040516323b872dd60e01b81529192506001600160a01b0316906323b872dd906124af90339030908890600401614f10565b6020604051808303816000875af11580156124ce573d6000803e3d6000fd5b505050506040513d601f19601f820116820180604052508101906124f29190614ce5565b5088516001600160a01b031663a9059cbb3361250e8585614d91565b6040518363ffffffff1660e01b815260040161252b929190614ccc565b6020604051808303816000875af115801561254a573d6000803e3d6000fd5b505050506040513d601f19601f8201168201806040525081019061256e9190614ce5565b50505b60018401546002808601546040516000936001600160a01b039081169390831692600160a01b8104820b92600160b81b90910490910b9088906125c290602001602080825260009082015260400190565b60408051601f19818403018152908290526125e4969594939291602001614f34565b60408051601f1981840301815290829052865463d5256ca360e01b83529092506001600160a01b037f000000000000000000000000000000000000000000000000000000000000000081169263d5256ca3926126469216908590600401614f79565b6000604051808303816000875af1158015612665573d6000803e3d6000fd5b505050506040513d6000823e601f3d908101601f1916820160405261268d9190810190615073565b50506040890151156127145788602001516001600160a01b031663a9059cbb338b604001516040518363ffffffff1660e01b81526004016126cf929190614ccc565b6020604051808303816000875af11580156126ee573d6000803e3d6000fd5b505050506040513d601f19601f820116820180604052508101906127129190614ce5565b505b838560030160008282546127289190614d91565b909155505050505050505b6001016119f0565b507f7b78b774adfce009962532b995be10fd298a0851e0479fbb4cfde8f1bd16ae078361276b6060870187614d2b565b6127758835610f90565b60405161278894939291908a35906150b9565b60405180910390a15050610fc96001600055565b60408051600481526024810182526020810180516001600160e01b0316633850c7bd60e01b179052905160009182916001600160a01b038516916127df916150f9565b600060405180830381855afa9150503d806000811461281a576040519150601f19603f3d011682016040523d82523d6000602084013e61281f565b606091505b509150506000818060200190518101906128399190614c96565b90506128458482613f03565b949350505050565b604080516000815260208101909152606090826001600160401b0381111561287757612877614f9d565b6040519080825280602002602001820160405280156128aa57816020015b60608152602001906001900390816128955790505b50915060005b8381101561292c57612907308686848181106128ce576128ce614d7b565b90506020028101906128e09190614e79565b856040516020016128f393929190615115565b604051602081830303815290604052614178565b83828151811061291957612919614d7b565b60209081029190910101526001016128b0565b50505b92915050565b612940858585610dd6565b833b156129895761298985858585858080601f0160208091040260200160405190810160405280939291908181526020018383808284376000920191909152506138d592505050565b5050505050565b6129986139b3565b6001600260008282546129ab9190614d18565b90915550601490506129bd828061513c565b905011156129de57604051636c9735f760e11b815260040160405180910390fd5b60608101356000908152600e602052604090205460ff16612a12576040516398ac918960e01b815260040160405180910390fd5b6000816060013560035442612a279190614d91565b612a31919061519a565b612a3f9060608401356151bc565b600354612a4c9042614d91565b612a569190614d91565b612a64906060840135614d91565b612a6e9042614d18565b90506004548260600135612a829190614d91565b612a8c4283614d91565b1115612aab57604051634046db7560e01b815260040160405180910390fd5b6000612ab7838061513c565b90506001600160401b03811115612ad057612ad0614f9d565b604051908082528060200260200182016040528015612af9578160200160208202803683370190505b50905060008080612b1060a08701608088016151d3565b612b3a577f0000000000000000000000000000000000000000000000000000000000000000612b5c565b7f00000000000000000000000000000000000000000000000000000000000000005b6040805160c081018252600080825260208201819052918101829052606081018290526080810182905260a081018290529192505b612b9b888061513c565b905081101561307957612bae888061513c565b82818110612bbe57612bbe614d7b565b905060c00201803603810190612bd491906151f0565b9150612be660a0890160808a016151d3565b612c0c57606082015160020b612c0260408a0160208b01615291565b60020b1415612c2a565b608082015160020b612c2460608a0160408b01615291565b60020b14155b15612c4857604051631759c67760e01b815260040160405180910390fd5b600280546000908152600a60209081526040808320815160c08101835287516001600160a01b039081168252888501805182168387019081528a86015183168487019081526060808d01518b0b9086019081526080808e01518c0b90870190815260a0808f0151908801908152885460018181018b55998d528b8d209851600490910290980180549888166001600160a01b0319998a16178155945198850180549988169990981698909817909655905199820180549151955162ffffff908116600160b81b0262ffffff60b81b1991909716600160a01b026001600160b81b03199093169b86169b909b17919091179990991693909317909755915160039091015593519093168252600c9052205460ff16612d78576040516336cc3cab60e21b815260040160405180910390fd5b600082602001518360400151846060015185608001518660a00151308d8f6080016020810190612da891906151d3565b6020808c015160608d015160808e0151604051612dff97969594016001600160a01b0396871681526020810195909552921515604085015293166060830152600292830b608083015290910b60a082015260c00190565b60408051601f1981840301815290829052612e21969594939291602001614f34565b60408051601f198184030181529082905284516339ef369360e21b835290925060009182916001600160a01b037f0000000000000000000000000000000000000000000000000000000000000000169163e7bcda4c91612e85918790600401614f79565b6000604051808303816000875af1158015612ea4573d6000803e3d6000fd5b505050506040513d6000823e601f3d908101601f19168201604052612ecc91908101906152ac565b5091509150856001600160a01b031682600081518110612eee57612eee614d7b565b60200260200101516001600160a01b031603612fbb57600081600081518110612f1957612f19614d7b565b6020026020010151118015612f48575080600181518110612f3c57612f3c614d7b565b60200260200101516000145b612f5157600080fd5b80600081518110612f6457612f64614d7b565b6020026020010151898581518110612f7e57612f7e614d7b565b60200260200101818152505080600081518110612f9d57612f9d614d7b565b602002602001015188612fb09190614d18565b97506001965061306e565b600081600181518110612fd057612fd0614d7b565b6020026020010151118015612fff575080600081518110612ff357612ff3614d7b565b60200260200101516000145b61300857600080fd5b8060018151811061301b5761301b614d7b565b602002602001015189858151811061303557613035614d7b565b6020026020010181815250508060018151811061305457613054614d7b565b6020026020010151886130679190614d18565b9750600096505b505050600101612b91565b5060006130d47f00000000000000000000000000000000000000000000000000000000000000006130b060a08b0160808c016151d3565b6130c4576109a260408b0160208c01615291565b6109a260608b0160408c01615291565b9050600061318e83604001518a60800160208101906130f391906151d3565b6130fe576001613101565b60005b8a8561312c7f000000000000000000000000000000000000000000000000000000000000000061279c565b8e608001602081019061313f91906151d3565b613188578761316f7f0000000000000000000000000000000000000000000000000000000000000000600a61546a565b613179908e6151bc565b613183919061519a565b6141ee565b8b6141ee565b9050806000036131b157604051638c18744360e01b815260040160405180910390fd5b6007546000906001600160a01b03161561324c576131cf878361371c565b6007546040516323b872dd60e01b81529192506001600160a01b03808816926323b872dd926132079233929116908690600401614f10565b6020604051808303816000875af1158015613226573d6000803e3d6000fd5b505050506040513d601f19601f8201168201806040525081019061324a9190614ce5565b505b60a08a013561325b8284614d18565b111561327a57604051630bea79f960e11b815260040160405180910390fd5b6040516323b872dd60e01b81526001600160a01b038616906323b872dd906132aa90339030908790600401614f10565b6020604051808303816000875af11580156132c9573d6000803e3d6000fd5b505050506040513d601f19601f820116820180604052508101906132ed9190614ce5565b5060405163095ea7b360e01b81526001600160a01b0386169063095ea7b39061333c907f0000000000000000000000000000000000000000000000000000000000000000908690600401614ccc565b6020604051808303816000875af115801561335b573d6000803e3d6000fd5b505050506040513d601f19601f8201168201806040525081019061337f9190614ce5565b5060005b61338d8b8061513c565b905081101561356b576133a08b8061513c565b828181106133b0576133b0614d7b565b905060c002018036038101906133c691906151f0565b9450600088848b84815181106133de576133de614d7b565b60200260200101516133f091906151bc565b6133fa919061519a565b9050600061344e61340e88602001516139f7565b61341e896060015160020b613a92565b61342e8a6080015160020b613a92565b8c61343a57600061343c565b855b8d613447578661434b565b600061434b565b905060008760200151886040015189606001518a60800151856040516020016134b49594939291906001600160a01b039586168152939094166020840152600291820b6040840152900b60608201526001600160801b0391909116608082015260a00190565b60408051601f198184030181529082905289516304e94bdb60e51b83529092506001600160a01b037f00000000000000000000000000000000000000000000000000000000000000001691639d297b6091613513918590600401614f79565b6000604051808303816000875af1158015613532573d6000803e3d6000fd5b505050506040513d6000823e601f3d908101601f1916820160405261355a9190810190615073565b505060019093019250613383915050565b506040805160a08101909152806135828c8061513c565b905081526020018b602001602081019061359c9190615291565b60020b81526020016135b460608d0160408e01615291565b60020b8152602081018b90526040016135d360a08d0160808e016151d3565b151590526002805460009081526009602090815260409182902084518155908401516001820180549386015162ffffff90811663010000000265ffffffffffff19909516921691909117929092179091556060830151818301556080909201516003909201805492151560ff1990931692909217909155546136569033906139dd565b7f7579109e5de1019aee00d7149984f3a300f5cf1297dbd9e526c6f34c03ea10778a600254848a8560405161368f959493929190615534565b60405180910390a150505050505050505061156f6001600055565b6008546040516373ea766160e01b8152600481018390526060916001600160a01b0316906373ea766190602401600060405180830381865afa1580156136f4573d6000803e3d6000fd5b505050506040513d6000823e601f3d908101601f1916820160405261292f9190810190615618565b600554604051637669909560e01b815230600482015260248101849052604481018390526000916001600160a01b031690637669909590606401602060405180830381865afa158015613773573d6000803e3d6000fd5b505050506040513d601f19601f820116820180604052508101906137979190614cb3565b9392505050565b60008061283983613a92565b60006137ba8787878787876141ee565b90505b9695505050505050565b6137cf6138a8565b6001600160a01b0381166137fe57604051631e4fbdf760e01b8152600060048201526024015b60405180910390fd5b61156f81613961565b60001960601c828116925083811693508160005283673ec412a9852d173d60c11b17601c526020600020820182018054821691508161384e5763ceea21b66000526004601cfd5b81851485151761387457816000526030600c205461387457634b6e7f186000526004601cfd5b6001018390558183827f8c5be1e5ebec7d5bd14f71427d1e84f3dd0314c0f7b2291e5b200ac8c7c3b925600038a450505050565b6001546001600160a01b031633146110f55760405163118cdaa760e01b81523360048201526024016137f5565b60405163150b7a028082523360208301528560601b60601c604083015283606083015260808083015282518060a0840152801561391c578060c08401826020870160045afa505b60208360a48301601c860160008a5af161393f573d1561393f573d6000843e3d83fd5b508060e01b8251146139595763d1a57ed66000526004601cfd5b505050505050565b600180546001600160a01b038381166001600160a01b0319831681179093556040519116919082907f8be0079c531659141344cd1fd0a4f28419497f9722a3daafe3b4186f6b6457e090600090a35050565b6002600054036139d657604051633ee5aeb560e01b815260040160405180910390fd5b6002600055565b610a61828260405180602001604052806000815250614403565b60408051600481526024810182526020810180516001600160e01b0316633850c7bd60e01b179052905160009182916001600160a01b03851691613a3a916150f9565b600060405180830381855afa9150503d8060008114613a75576040519150601f19603f3d011682016040523d82523d6000602084013e613a7a565b606091505b50915050808060200190518101906137979190614c96565b60008060008360020b12613aa9578260020b613ab1565b8260020b6000035b9050620d89e8811115613ad7576040516315e4079d60e11b815260040160405180910390fd5b600081600116600003613aee57600160801b613b00565b6ffffcb933bd6fad37aa2d162d1a5940015b70ffffffffffffffffffffffffffffffffff1690506002821615613b34576ffff97272373d413259a46990580e213a0260801c5b6004821615613b53576ffff2e50f5f656932ef12357cf3c7fdcc0260801c5b6008821615613b72576fffe5caca7e10e4e61c3624eaa0941cd00260801c5b6010821615613b91576fffcb9843d60f6159c9db58835c9266440260801c5b6020821615613bb0576fff973b41fa98c081472e6896dfb254c00260801c5b6040821615613bcf576fff2ea16466c96a3843ec78b326b528610260801c5b6080821615613bee576ffe5dee046a99a2a811c461f1969c30530260801c5b610100821615613c0e576ffcbe86c7900a88aedcffc83b479aa3a40260801c5b610200821615613c2e576ff987a7253ac413176f2b074cf7815e540260801c5b610400821615613c4e576ff3392b0822b70005940c7a398e4b70f30260801c5b610800821615613c6e576fe7159475a2c29b7443b29c7fa6e889d90260801c5b611000821615613c8e576fd097f3bdfd2022b8845ad8f792aa58250260801c5b612000821615613cae576fa9f746462d870fdf8a65dc1f90e061e50260801c5b614000821615613cce576f70d869a156d2a1b890bb3df62baf32f70260801c5b618000821615613cee576f31be135f97d08fd981231505542fcfa60260801c5b62010000821615613d0f576f09aa508b5b7a84e1c677de54f3e99bc90260801c5b62020000821615613d2f576e5d6af8dedb81196699c329225ee6040260801c5b62040000821615613d4e576d2216e584f5fa1ea926041bedfe980260801c5b62080000821615613d6b576b048a170391f7dc42444e8fa20260801c5b60008460020b1315613d8c578060001981613d8857613d88615184565b0490505b640100000000810615613da0576001613da3565b60005b60ff16602082901c0192505050919050565b600080836001600160a01b0316856001600160a01b03161115613dd6579293925b846001600160a01b0316866001600160a01b031611613e0157613dfa858585613e94565b9150613e48565b836001600160a01b0316866001600160a01b03161015613e3a57613e26868585613e94565b9150613e33858785613e51565b9050613e48565b613e45858585613e51565b90505b94509492505050565b6000826001600160a01b0316846001600160a01b03161115613e71579192915b612845826001600160801b03168585036001600160a01b0316600160601b614421565b6000826001600160a01b0316846001600160a01b03161115613eb4579192915b836001600160a01b0316613eed606060ff16846001600160801b0316901b8686036001600160a01b0316866001600160a01b0316614421565b81613efa57613efa615184565b04949350505050565b60006001600160801b036001600160a01b0383161161404c576000613f316001600160a01b038416806151bc565b9050836001600160a01b0316630dfe16816040518163ffffffff1660e01b8152600401602060405180830381865afa158015613f71573d6000803e3d6000fd5b505050506040513d601f19601f82011682018060405250810190613f959190614c96565b6001600160a01b03167f00000000000000000000000000000000000000000000000000000000000000006001600160a01b03161461400b57614006600160c01b6140007f0000000000000000000000000000000000000000000000000000000000000000600a61546a565b83614421565b614044565b6140448161403a7f0000000000000000000000000000000000000000000000000000000000000000600a61546a565b600160c01b614421565b91505061292f565b600061406b6001600160a01b0384168068010000000000000000614421565b9050836001600160a01b0316630dfe16816040518163ffffffff1660e01b8152600401602060405180830381865afa1580156140ab573d6000803e3d6000fd5b505050506040513d601f19601f820116820180604052508101906140cf9190614c96565b6001600160a01b03167f00000000000000000000000000000000000000000000000000000000000000006001600160a01b03161461413f5761413a600160801b6140007f0000000000000000000000000000000000000000000000000000000000000000600a61546a565b612845565b6128458161416e7f0000000000000000000000000000000000000000000000000000000000000000600a61546a565b600160801b614421565b6060600080846001600160a01b03168460405161419591906150f9565b600060405180830381855af49150503d80600081146141d0576040519150601f19603f3d011682016040523d82523d6000602084013e6141d5565b606091505b50915091506141e58583836144d3565b95945050505050565b60008086614226576142217f0000000000000000000000000000000000000000000000000000000000000000600a61546a565b614251565b6142517f0000000000000000000000000000000000000000000000000000000000000000600a61546a565b600654604051630605068160e01b81526001600160a01b038b811660048301528a15156024830152604482018a905260648201899052608482018890529091169063060506819060a401602060405180830381865afa1580156142b8573d6000803e3d6000fd5b505050506040513d601f19601f820116820180604052508101906142dc9190614cb3565b6142e690856151bc565b6142f0919061519a565b905086156142ff5790506137bd565b8361432b7f0000000000000000000000000000000000000000000000000000000000000000600a61546a565b61433590836151bc565b61433f919061519a565b98975050505050505050565b6000836001600160a01b0316856001600160a01b0316111561436b579293925b846001600160a01b0316866001600160a01b0316116143965761438f85858561452f565b90506141e5565b836001600160a01b0316866001600160a01b031610156143f85760006143bd87868661452f565b905060006143cc878986614592565b9050806001600160801b0316826001600160801b0316106143ed57806143ef565b815b925050506141e5565b6137bd858584614592565b61440d83836145cf565b823b15610ee857610ee860008484846138d5565b600080806000198587098587029250828110838203039150508060000361445a576000841161444f57600080fd5b508290049050613797565b80841161446657600080fd5b6000848688096000868103871696879004966002600389028118808a02820302808a02820302808a02820302808a02820302808a02820302808a02909103029181900381900460010186841190950394909402919094039290920491909117919091029150509392505050565b6060826144e8576144e38261467d565b613797565b81511580156144ff57506001600160a01b0384163b155b1561452857604051639996b31560e01b81526001600160a01b03851660048201526024016137f5565b5080613797565b6000826001600160a01b0316846001600160a01b0316111561454f579192915b6000614572856001600160a01b0316856001600160a01b0316600160601b614421565b90506141e561458d84838888036001600160a01b0316614421565b6146a6565b6000826001600160a01b0316846001600160a01b031611156145b2579192915b61284561458d83600160601b8787036001600160a01b0316614421565b6001600160a01b0390911690816145ee5763ea553b346000526004601cfd5b80600052673ec412a9852d173d60c11b601c5260206000208101810180548060601b156146235763c991cbb16000526004601cfd5b831790556000829052601c600c20805460010163ffffffff811661464f576301336cea6000526004601cfd5b9055808260007fddf252ad1be2c89b69c2b068fc378daa952ba7f163c4a11628f55a4df523b3ef8138a45050565b80511561468d5780518082602001fd5b604051630a12f52160e11b815260040160405180910390fd5b806001600160801b0381168114610fc957600080fd5b6000602082840312156146ce57600080fd5b81356001600160e01b03198116811461379757600080fd5b60005b838110156147015781810151838201526020016146e9565b50506000910152565b600081518084526147228160208601602086016146e6565b601f01601f19169290920160200192915050565b602081526000613797602083018461470a565b60006020828403121561475b57600080fd5b5035919050565b6001600160a01b038116811461156f57600080fd5b6000806040838503121561478a57600080fd5b823561479581614762565b946020939093013593505050565b801515811461156f57600080fd5b8035610fc9816147a3565b600080600080600080600060e0888a0312156147d757600080fd5b87356147e281614762565b965060208801356147f2816147a3565b9550604088013561480281614762565b94506060880135614812816147a3565b93506080880135925060a0880135614829816147a3565b96999598509396929591949193505060c09091013590565b60008060006060848603121561485657600080fd5b833561486181614762565b9250602084013561487181614762565b929592945050506040919091013590565b6000806040838503121561489557600080fd5b82356148a081614762565b915060208301356148b081614762565b809150509250929050565b600080604083850312156148ce57600080fd5b82356148d981614762565b915060208301356148b0816147a3565b6000602082840312156148fb57600080fd5b813561379781614762565b6000806000806080858703121561491c57600080fd5b843561492781614762565b9350602085013561493781614762565b9250604085013561494781614762565b9150606085013561495781614762565b939692955090935050565b60006020828403121561497457600080fd5b81356001600160401b0381111561498a57600080fd5b82016060818503121561379757600080fd5b600080604083850312156149af57600080fd5b50508035926020909101359150565b6000602082840312156149d057600080fd5b81356001600160401b038111156149e657600080fd5b82016080818503121561379757600080fd5b80516001600160a01b0390811683526020808301519091169083015260408082015190830152606080820151908301526080908101511515910152565b60a0810161292f82846149f8565b60008060208385031215614a5657600080fd5b82356001600160401b03811115614a6c57600080fd5b8301601f81018513614a7d57600080fd5b80356001600160401b03811115614a9357600080fd5b8560208260051b8401011115614aa857600080fd5b6020919091019590945092505050565b6000602082016020835280845180835260408501915060408160051b86010192506020860160005b82811015614b1157603f19878603018452614afc85835161470a565b94506020938401939190910190600101614ae0565b50929695505050505050565b600080600080600060808688031215614b3557600080fd5b8535614b4081614762565b94506020860135614b5081614762565b93506040860135925060608601356001600160401b03811115614b7257600080fd5b8601601f81018813614b8357600080fd5b80356001600160401b03811115614b9957600080fd5b886020828401011115614bab57600080fd5b959894975092955050506020019190565b600060208284031215614bce57600080fd5b81356001600160401b03811115614be457600080fd5b820160c0818503121561379757600080fd5b8035600281900b8114610fc957600080fd5b60008060408385031215614c1b57600080fd5b8235614c2681614762565b9150614c3460208401614bf6565b90509250929050565b60008060008060008060c08789031215614c5657600080fd5b8635614c6181614762565b95506020870135614c71816147a3565b95989597505050506040840135936060810135936080820135935060a0909101359150565b600060208284031215614ca857600080fd5b815161379781614762565b600060208284031215614cc557600080fd5b5051919050565b6001600160a01b03929092168252602082015260400190565b600060208284031215614cf757600080fd5b8151613797816147a3565b634e487b7160e01b600052601160045260246000fd5b8082018082111561292f5761292f614d02565b6000808335601e19843603018112614d4257600080fd5b8301803591506001600160401b03821115614d5c57600080fd5b6020019150600581901b3603821315614d7457600080fd5b9250929050565b634e487b7160e01b600052603260045260246000fd5b8181038181111561292f5761292f614d02565b81835260006001600160fb1b03831115614dbd57600080fd5b8260051b80836020870137939093016020019392505050565b606080825284359082015260006020850135614df181614762565b6001600160a01b03166080830152604085013536869003601e19018112614e1757600080fd5b85016020810190356001600160401b03811115614e3357600080fd5b8060051b3603821315614e4557600080fd5b606060a0850152614e5a60c085018284614da4565b9250505083602083015261284560408301846001600160a01b03169052565b6000808335601e19843603018112614e9057600080fd5b8301803591506001600160401b03821115614eaa57600080fd5b602001915036819003821315614d7457600080fd5b6001600160a01b03868116825285166020820152604081018490526080606082018190528101829052818360a0830137600081830160a090810191909152601f909201601f19160101949350505050565b6001600160a01b039384168152919092166020820152604081019190915260600190565b6001600160a01b03878116825286166020820152600285810b604083015284900b60608201526080810183905260c060a0820181905260009061433f9083018461470a565b6001600160a01b03831681526040602082018190526000906128459083018461470a565b634e487b7160e01b600052604160045260246000fd5b604051601f8201601f191681016001600160401b0381118282101715614fdb57614fdb614f9d565b604052919050565b60006001600160401b03821115614ffc57614ffc614f9d565b5060051b60200190565b600082601f83011261501757600080fd5b815161502a61502582614fe3565b614fb3565b8082825260208201915060208360051b86010192508583111561504c57600080fd5b602085015b83811015615069578051835260209283019201615051565b5095945050505050565b6000806040838503121561508657600080fd5b82516001600160401b0381111561509c57600080fd5b6150a885828601615006565b602094909401519395939450505050565b6150c381876149f8565b61010060a082015260006150dc61010083018688614da4565b6001600160a01b039490941660c08301525060e001529392505050565b6000825161510b8184602087016146e6565b9190910192915050565b8284823760008382016000815283516151328183602088016146e6565b0195945050505050565b6000808335601e1984360301811261515357600080fd5b8301803591506001600160401b0382111561516d57600080fd5b602001915060c081023603821315614d7457600080fd5b634e487b7160e01b600052601260045260246000fd5b6000826151b757634e487b7160e01b600052601260045260246000fd5b500490565b808202811582820484141761292f5761292f614d02565b6000602082840312156151e557600080fd5b8135613797816147a3565b600060c082840312801561520357600080fd5b5060405160c081016001600160401b038111828210171561522657615226614f9d565b604052823561523481614762565b8152602083013561524481614762565b6020820152604083013561525781614762565b604082015261526860608401614bf6565b606082015261527960808401614bf6565b608082015260a0928301359281019290925250919050565b6000602082840312156152a357600080fd5b61379782614bf6565b6000806000606084860312156152c157600080fd5b83516001600160401b038111156152d757600080fd5b8401601f810186136152e857600080fd5b80516152f661502582614fe3565b8082825260208201915060208360051b85010192508883111561531857600080fd5b6020840193505b8284101561534357835161533281614762565b82526020938401939091019061531f565b8096505050505060208401516001600160401b0381111561536357600080fd5b61536f86828701615006565b604095909501519396949550929392505050565b6001815b60018411156153be578085048111156153a2576153a2614d02565b60018416156153b057908102905b60019390931c928002615387565b935093915050565b6000826153d55750600161292f565b816153e25750600061292f565b81600181146153f857600281146154025761541e565b600191505061292f565b60ff84111561541357615413614d02565b50506001821b61292f565b5060208310610133831016604e8410600b8410161715615441575081810a61292f565b61544e6000198484615383565b806000190482111561546257615462614d02565b029392505050565b600061379760ff8416836153c6565b81835260208301925060008160005b8481101561552a57813561549b81614762565b6001600160a01b0316865260208201356154b481614762565b6001600160a01b0316602087015260408201356154d081614762565b6001600160a01b031660408701526154ea60608301614bf6565b60020b60608701526154fe60808301614bf6565b61550d608088018260020b9052565b5060a0828101359087015260c09586019590910190600101615488565b5093949350505050565b60a0815260008635601e1988360301811261554e57600080fd5b87016020810190356001600160401b0381111561556a57600080fd5b60c08102360382131561557c57600080fd5b60c060a085015261559261016085018284615479565b9150506155a160208901614bf6565b6155b060c085018260020b9052565b506155bd60408901614bf6565b6155cc60e085018260020b9052565b5060608801356101008401526155e4608089016147b1565b151561012084015260a097909701356101408301525060208101949094526040840192909252606083015260809091015290565b60006020828403121561562a57600080fd5b81516001600160401b0381111561564057600080fd5b8201601f8101841361565157600080fd5b80516001600160401b0381111561566a5761566a614f9d565b61567d601f8201601f1916602001614fb3565b81815285602083850101111561569257600080fd5b6141e58260208301602086016146e656fea26469706673582212208d353f83c68150d1067c7f44038af71cbe0a437b9090ecdc2e479b35cfa09cf664736f6c634300081a0033","linkReferences":{}},"methodIdentifiers":{"approve(address,uint256)":"095ea7b3","approvedPools(address)":"f0bbcec4","approvedTTLs(uint256)":"91457d78","balanceOf(address)":"70a08231","callAsset()":"61f812a4","callAssetDecimals()":"50373276","dpFee()":"d302f2b8","emergencyWithdraw(address)":"6ff1c9bc","exerciseDelegator(address,address)":"3b2b4603","feeTo()":"017e7e58","getApproved(uint256)":"081812fc","getCurrentPricePerCallAsset(address)":"ab89fbaf","getFee(uint256,uint256)":"d250185c","getPremiumAmount(address,bool,uint256,uint256,uint256,uint256)":"f03b811c","getPricePerCallAssetViaTick(address,int24)":"eb22eccb","isApprovedForAll(address,address)":"e985e9c5","mintOption(((address,address,address,int24,int24,uint256)[],int24,int24,uint256,bool,uint256))":"bde0a7df","multicall(bytes[])":"ac9650d8","name()":"06fdde03","opData(uint256)":"5673a221","opTickMap(uint256,uint256)":"a2b15e4c","optionIds()":"1508b8e2","optionPricing()":"1e3394fb","owner()":"8da5cb5b","ownerOf(uint256)":"6352211e","positionManager()":"791b98bc","positionSplitter((uint256,address,uint256[]))":"9d98f412","primePool()":"271ab517","putAsset()":"c8de6e83","putAssetDecimals()":"0d51249b","renounceOwnership()":"715018a6","safeTransferFrom(address,address,uint256)":"42842e0e","safeTransferFrom(address,address,uint256,bytes)":"b88d4fde","setApprovalForAll(address,bool)":"a22cb465","settleOption((uint256,address[],bytes[],uint256[]))":"aad2402a","settlers(address)":"c70a900f","supportsInterface(bytes4)":"01ffc9a7","symbol()":"95d89b41","tokenURI(uint256)":"c87b56dd","tokenURIFetcher()":"07d88aad","transferFrom(address,address,uint256)":"23b872dd","transferOwnership(address)":"f2fde38b","updateExerciseDelegate(address,bool)":"600b584b","updatePoolApporvals(address,bool,address,bool,uint256,bool,uint256)":"14f46499","updatePoolSettings(address,address,address,address)":"78d476f3"},"id":59}