{"abi":[{"type":"constructor","inputs":[{"name":"_factory","type":"address","internalType":"address"}],"stateMutability":"nonpayable"},{"type":"function","name":"addLiquidity","inputs":[{"name":"params","type":"tuple","internalType":"struct UniswapV3LiquidityManagement.AddLiquidityParams","components":[{"name":"token0","type":"address","internalType":"address"},{"name":"token1","type":"address","internalType":"address"},{"name":"fee","type":"uint24","internalType":"uint24"},{"name":"recipient","type":"address","internalType":"address"},{"name":"tickLower","type":"int24","internalType":"int24"},{"name":"tickUpper","type":"int24","internalType":"int24"},{"name":"amount0Desired","type":"uint256","internalType":"uint256"},{"name":"amount1Desired","type":"uint256","internalType":"uint256"},{"name":"amount0Min","type":"uint256","internalType":"uint256"},{"name":"amount1Min","type":"uint256","internalType":"uint256"}]}],"outputs":[{"name":"liquidity","type":"uint128","internalType":"uint128"},{"name":"amount0","type":"uint256","internalType":"uint256"},{"name":"amount1","type":"uint256","internalType":"uint256"},{"name":"pool","type":"address","internalType":"contract IUniswapV3Pool"}],"stateMutability":"nonpayable"},{"type":"function","name":"factory","inputs":[],"outputs":[{"name":"","type":"address","internalType":"address"}],"stateMutability":"view"},{"type":"function","name":"uniswapV3MintCallback","inputs":[{"name":"amount0Owed","type":"uint256","internalType":"uint256"},{"name":"amount1Owed","type":"uint256","internalType":"uint256"},{"name":"data","type":"bytes","internalType":"bytes"}],"outputs":[],"stateMutability":"nonpayable"},{"type":"error","name":"AddressEmptyCode","inputs":[{"name":"target","type":"address","internalType":"address"}]},{"type":"error","name":"AddressInsufficientBalance","inputs":[{"name":"account","type":"address","internalType":"address"}]},{"type":"error","name":"FailedInnerCall","inputs":[]},{"type":"error","name":"SafeERC20FailedOperation","inputs":[{"name":"token","type":"address","internalType":"address"}]},{"type":"error","name":"T","inputs":[]}],"bytecode":{"object":"0x60a0604052348015600f57600080fd5b5060405161115b38038061115b833981016040819052602c91603c565b6001600160a01b0316608052606a565b600060208284031215604d57600080fd5b81516001600160a01b0381168114606357600080fd5b9392505050565b6080516110c961009260003960008181609601528181610132015261037e01526110c96000f3fe608060405234801561001057600080fd5b50600436106100415760003560e01c80639981bb9b14610046578063c45a015514610091578063d3487997146100d0575b600080fd5b610059610054366004610cf4565b6100e5565b604080516001600160801b0390951685526020850193909352918301526001600160a01b031660608201526080015b60405180910390f35b6100b87f000000000000000000000000000000000000000000000000000000000000000081565b6040516001600160a01b039091168152602001610088565b6100e36100de366004610da8565b610369565b005b6000806000806000604051806060016040528087600001516001600160a01b0316815260200187602001516001600160a01b03168152602001876040015162ffffff1681525090506101577f0000000000000000000000000000000000000000000000000000000000000000826103e7565b91506000826001600160a01b0316633850c7bd6040518163ffffffff1660e01b815260040160e060405180830381865afa158015610199573d6000803e3d6000fd5b505050506040513d601f19601f820116820180604052508101906101bd9190610e4d565b505050505050905060006101d488608001516104d0565b905060006101e58960a001516104d0565b90506101fc8383838c60c001518d60e001516107f3565b9750505050816001600160a01b0316633c8a7d8d876060015188608001518960a00151896040518060400160405280888152602001336001600160a01b03168152506040516020016102899190815180516001600160a01b03908116835260208083015182168185015260409283015162ffffff1692840192909252920151909116606082015260800190565b6040516020818303038152906040526040518663ffffffff1660e01b81526004016102b8959493929190610f04565b60408051808303816000875af11580156102d6573d6000803e3d6000fd5b505050506040513d601f19601f820116820180604052508101906102fa9190610f6a565b6101008801519195509350841080159061031957508561012001518310155b6103615760405162461bcd60e51b8152602060048201526014602482015273507269636520736c69707061676520636865636b60601b60448201526064015b60405180910390fd5b509193509193565b600061037782840184610f8e565b90506103a77f000000000000000000000000000000000000000000000000000000000000000082600001516108b7565b5084156103c25780515160208201516103c2919033886108e0565b83156103e0576103e0816000015160200151826020015133876108e0565b5050505050565b600081602001516001600160a01b031682600001516001600160a01b03161061040f57600080fd5b815160208084015160408086015181516001600160a01b0395861681860152949092168482015262ffffff90911660608085019190915281518085038201815260808501909252815191909201206001600160f81b031960a08401529085901b6bffffffffffffffffffffffff191660a183015260b58201527fa598dd2fba360510c5a8f02f44423a4468e902df5857dbce3ca162a43a3a31ff60d582015260f50160408051601f1981840301815291905280516020909101209392505050565b60008060008360020b126104e7578260020b6104ef565b8260020b6000035b9050620d89e8811115610515576040516315e4079d60e11b815260040160405180910390fd5b60008160011660000361052c57600160801b61053e565b6ffffcb933bd6fad37aa2d162d1a5940015b70ffffffffffffffffffffffffffffffffff1690506002821615610572576ffff97272373d413259a46990580e213a0260801c5b6004821615610591576ffff2e50f5f656932ef12357cf3c7fdcc0260801c5b60088216156105b0576fffe5caca7e10e4e61c3624eaa0941cd00260801c5b60108216156105cf576fffcb9843d60f6159c9db58835c9266440260801c5b60208216156105ee576fff973b41fa98c081472e6896dfb254c00260801c5b604082161561060d576fff2ea16466c96a3843ec78b326b528610260801c5b608082161561062c576ffe5dee046a99a2a811c461f1969c30530260801c5b61010082161561064c576ffcbe86c7900a88aedcffc83b479aa3a40260801c5b61020082161561066c576ff987a7253ac413176f2b074cf7815e540260801c5b61040082161561068c576ff3392b0822b70005940c7a398e4b70f30260801c5b6108008216156106ac576fe7159475a2c29b7443b29c7fa6e889d90260801c5b6110008216156106cc576fd097f3bdfd2022b8845ad8f792aa58250260801c5b6120008216156106ec576fa9f746462d870fdf8a65dc1f90e061e50260801c5b61400082161561070c576f70d869a156d2a1b890bb3df62baf32f70260801c5b61800082161561072c576f31be135f97d08fd981231505542fcfa60260801c5b6201000082161561074d576f09aa508b5b7a84e1c677de54f3e99bc90260801c5b6202000082161561076d576e5d6af8dedb81196699c329225ee6040260801c5b6204000082161561078c576d2216e584f5fa1ea926041bedfe980260801c5b620800008216156107a9576b048a170391f7dc42444e8fa20260801c5b60008460020b13156107ca5780600019816107c6576107c6611046565b0490505b6401000000008106156107de5760016107e1565b60005b60ff16602082901c0192505050919050565b6000836001600160a01b0316856001600160a01b03161115610813579293925b846001600160a01b0316866001600160a01b03161161083e576108378585856108f2565b90506108ae565b836001600160a01b0316866001600160a01b031610156108a05760006108658786866108f2565b90506000610874878986610960565b9050806001600160801b0316826001600160801b0316106108955780610897565b815b925050506108ae565b6108ab858584610960565b90505b95945050505050565b60006108c383836103e7565b9050336001600160a01b038216146108da57600080fd5b92915050565b6108ec848484846109a5565b50505050565b6000826001600160a01b0316846001600160a01b03161115610912579192915b6000610935856001600160a01b0316856001600160a01b0316600160601b6109ff565b905061095561095084838888036001600160a01b03166109ff565b610ab1565b9150505b9392505050565b6000826001600160a01b0316846001600160a01b03161115610980579192915b61099d61095083600160601b8787036001600160a01b03166109ff565b949350505050565b604080516001600160a01b0385811660248301528416604482015260648082018490528251808303909101815260849091019091526020810180516001600160e01b03166323b872dd60e01b1790526108ec908590610acc565b6000808060001985870985870292508281108382030391505080600003610a385760008411610a2d57600080fd5b508290049050610959565b808411610a4457600080fd5b6000848688096000868103871696879004966002600389028118808a02820302808a02820302808a02820302808a02820302808a02820302808a02909103029181900381900460010186841190950394909402919094039290920491909117919091029150509392505050565b806001600160801b0381168114610ac757600080fd5b919050565b6000610ae16001600160a01b03841683610b34565b90508051600014158015610b06575080806020019051810190610b04919061105c565b155b15610b2f57604051635274afe760e01b81526001600160a01b0384166004820152602401610358565b505050565b60606109598383600084600080856001600160a01b03168486604051610b5a9190611077565b60006040518083038185875af1925050503d8060008114610b97576040519150601f19603f3d011682016040523d82523d6000602084013e610b9c565b606091505b5091509150610bac868383610bb6565b9695505050505050565b606082610bcb57610bc682610c12565b610959565b8151158015610be257506001600160a01b0384163b155b15610c0b57604051639996b31560e01b81526001600160a01b0385166004820152602401610358565b5080610959565b805115610c225780518082602001fd5b604051630a12f52160e11b815260040160405180910390fd5b50565b604051610140810167ffffffffffffffff81118282101715610c7057634e487b7160e01b600052604160045260246000fd5b60405290565b6040516060810167ffffffffffffffff81118282101715610c7057634e487b7160e01b600052604160045260246000fd5b6001600160a01b0381168114610c3b57600080fd5b8035610ac781610ca7565b803562ffffff81168114610ac757600080fd5b8060020b8114610c3b57600080fd5b8035610ac781610cda565b6000610140828403128015610d0857600080fd5b506000610d13610c3e565b610d1c84610cbc565b8152610d2a60208501610cbc565b6020820152610d3b60408501610cc7565b6040820152610d4c60608501610cbc565b6060820152610d5d60808501610ce9565b6080820152610d6e60a08501610ce9565b60a082015260c0848101359082015260e0808501359082015261010080850135908201526101209384013593810193909352509092915050565b60008060008060608587031215610dbe57600080fd5b8435935060208501359250604085013567ffffffffffffffff811115610de357600080fd5b8501601f81018713610df457600080fd5b803567ffffffffffffffff811115610e0b57600080fd5b876020828401011115610e1d57600080fd5b949793965060200194505050565b805161ffff81168114610ac757600080fd5b80518015158114610ac757600080fd5b600080600080600080600060e0888a031215610e6857600080fd5b8751610e7381610ca7565b6020890151909750610e8481610cda565b9550610e9260408901610e2b565b9450610ea060608901610e2b565b9350610eae60808901610e2b565b925060a088015160ff81168114610ec457600080fd5b9150610ed260c08901610e3d565b905092959891949750929550565b60005b83811015610efb578181015183820152602001610ee3565b50506000910152565b60018060a01b03861681528460020b60208201528360020b60408201526001600160801b038316606082015260a06080820152600082518060a0840152610f528160c0850160208701610ee0565b601f01601f19169190910160c0019695505050505050565b60008060408385031215610f7d57600080fd5b505080516020909101519092909150565b6000818303608081128015610fa257600080fd5b5060408051600091810167ffffffffffffffff81118282101715610fd457634e487b7160e01b83526041600452602483fd5b6040526060831215610fe4578182fd5b610fec610c76565b925084359150610ffb82610ca7565b90825260208401359061100d82610ca7565b81602084015261101f60408601610cc7565b604084015291825260608401359161103683610ca7565b6020810192909252509392505050565b634e487b7160e01b600052601260045260246000fd5b60006020828403121561106e57600080fd5b61095982610e3d565b60008251611089818460208701610ee0565b919091019291505056fea26469706673582212205d73c7787253997d15952b40ea6f965714dad044a1deb713cb1060d193297ba964736f6c634300081a0033","linkReferences":{}},"methodIdentifiers":{"addLiquidity((address,address,uint24,address,int24,int24,uint256,uint256,uint256,uint256))":"9981bb9b","factory()":"c45a0155","uniswapV3MintCallback(uint256,uint256,bytes)":"d3487997"},"id":100}