{"abi":[{"type":"constructor","inputs":[{"name":"_volatilityOffset","type":"uint256","internalType":"uint256"},{"name":"_volatilityMultiplier","type":"uint256","internalType":"uint256"},{"name":"_minOptionPricePercentage","type":"uint256","internalType":"uint256"}],"stateMutability":"nonpayable"},{"type":"function","name":"VOLATILITY_PRECISION","inputs":[],"outputs":[{"name":"","type":"uint256","internalType":"uint256"}],"stateMutability":"view"},{"type":"function","name":"getOptionPrice","inputs":[{"name":"hook","type":"address","internalType":"address"},{"name":"isPut","type":"bool","internalType":"bool"},{"name":"expiry","type":"uint256","internalType":"uint256"},{"name":"ttl","type":"uint256","internalType":"uint256"},{"name":"strike","type":"uint256","internalType":"uint256"},{"name":"lastPrice","type":"uint256","internalType":"uint256"}],"outputs":[{"name":"","type":"uint256","internalType":"uint256"}],"stateMutability":"view"},{"type":"function","name":"getOptionPriceViaTTL","inputs":[{"name":"hook","type":"address","internalType":"address"},{"name":"isPut","type":"bool","internalType":"bool"},{"name":"ttl","type":"uint256","internalType":"uint256"},{"name":"strike","type":"uint256","internalType":"uint256"},{"name":"lastPrice","type":"uint256","internalType":"uint256"}],"outputs":[{"name":"","type":"uint256","internalType":"uint256"}],"stateMutability":"view"},{"type":"function","name":"getVolatility","inputs":[{"name":"strike","type":"uint256","internalType":"uint256"},{"name":"lastPrice","type":"uint256","internalType":"uint256"},{"name":"volatility","type":"uint256","internalType":"uint256"}],"outputs":[{"name":"","type":"uint256","internalType":"uint256"}],"stateMutability":"view"},{"type":"function","name":"ivSetter","inputs":[{"name":"","type":"address","internalType":"address"}],"outputs":[{"name":"","type":"bool","internalType":"bool"}],"stateMutability":"view"},{"type":"function","name":"minOptionPricePercentage","inputs":[],"outputs":[{"name":"","type":"uint256","internalType":"uint256"}],"stateMutability":"view"},{"type":"function","name":"owner","inputs":[],"outputs":[{"name":"","type":"address","internalType":"address"}],"stateMutability":"view"},{"type":"function","name":"renounceOwnership","inputs":[],"outputs":[],"stateMutability":"nonpayable"},{"type":"function","name":"transferOwnership","inputs":[{"name":"newOwner","type":"address","internalType":"address"}],"outputs":[],"stateMutability":"nonpayable"},{"type":"function","name":"ttlToVol","inputs":[{"name":"","type":"uint256","internalType":"uint256"}],"outputs":[{"name":"","type":"uint256","internalType":"uint256"}],"stateMutability":"view"},{"type":"function","name":"updateIVSetter","inputs":[{"name":"_setter","type":"address","internalType":"address"},{"name":"_status","type":"bool","internalType":"bool"}],"outputs":[],"stateMutability":"nonpayable"},{"type":"function","name":"updateIVs","inputs":[{"name":"_ttls","type":"uint256[]","internalType":"uint256[]"},{"name":"_ttlIV","type":"uint256[]","internalType":"uint256[]"}],"outputs":[],"stateMutability":"nonpayable"},{"type":"function","name":"updateMinOptionPricePercentage","inputs":[{"name":"_minOptionPricePercentage","type":"uint256","internalType":"uint256"}],"outputs":[{"name":"","type":"bool","internalType":"bool"}],"stateMutability":"nonpayable"},{"type":"function","name":"updateVolatilityMultiplier","inputs":[{"name":"_volatilityMultiplier","type":"uint256","internalType":"uint256"}],"outputs":[{"name":"","type":"bool","internalType":"bool"}],"stateMutability":"nonpayable"},{"type":"function","name":"updateVolatilityOffset","inputs":[{"name":"_volatilityOffset","type":"uint256","internalType":"uint256"}],"outputs":[{"name":"","type":"bool","internalType":"bool"}],"stateMutability":"nonpayable"},{"type":"function","name":"volatilityMultiplier","inputs":[],"outputs":[{"name":"","type":"uint256","internalType":"uint256"}],"stateMutability":"view"},{"type":"function","name":"volatilityOffset","inputs":[],"outputs":[{"name":"","type":"uint256","internalType":"uint256"}],"stateMutability":"view"},{"type":"event","name":"OwnershipTransferred","inputs":[{"name":"previousOwner","type":"address","indexed":true,"internalType":"address"},{"name":"newOwner","type":"address","indexed":true,"internalType":"address"}],"anonymous":false},{"type":"error","name":"ArrayLengthMismatch","inputs":[]},{"type":"error","name":"NotIVSetter","inputs":[]},{"type":"error","name":"OwnableInvalidOwner","inputs":[{"name":"owner","type":"address","internalType":"address"}]},{"type":"error","name":"OwnableUnauthorizedAccount","inputs":[{"name":"account","type":"address","internalType":"address"}]},{"type":"error","name":"Vol_Not_Set","inputs":[]}],"bytecode":{"object":"0x608060405234801561001057600080fd5b506040516130ca3803806130ca83398101604081905261002f916100dc565b338061005557604051631e4fbdf760e01b81526000600482015260240160405180910390fd5b61005e8161008c565b506001928355600291909155600355336000908152600560205260409020805460ff1916909117905561010a565b600080546001600160a01b038381166001600160a01b0319831681178455604051919092169283917f8be0079c531659141344cd1fd0a4f28419497f9722a3daafe3b4186f6b6457e09190a35050565b6000806000606084860312156100f157600080fd5b5050815160208301516040909301519094929350919050565b612fb1806101196000396000f3fe608060405234801561001057600080fd5b506004361061010b5760003560e01c80638da5cb5b116100a2578063c83ffad211610071578063c83ffad214610205578063d5f1b2ce14610218578063d82940a31461023b578063dd2555dd14610244578063f2fde38b1461025757600080fd5b80638da5cb5b146101ae578063944b4468146101c9578063b12ce0b4146101d2578063ba3b7bad146101f257600080fd5b806369f583f2116100de57806369f583f2146101775780636c7da48f1461018a578063715018a61461019d5780637c90d3c7146101a557600080fd5b8063016d47b51461011057806325b2a93b146101255780632ae0d14114610141578063326611f814610154575b600080fd5b61012361011e366004612cf7565b61026a565b005b61012e60035481565b6040519081526020015b60405180910390f35b61012361014f366004612d8f565b61031d565b610167610162366004612dc2565b610350565b6040519015158152602001610138565b610167610185366004612dc2565b610368565b61012e610198366004612ddb565b61037b565b61012361042b565b61012e61271081565b6000546040516001600160a01b039091168152602001610138565b61012e60025481565b61012e6101e0366004612dc2565b60046020526000908152604090205481565b610167610200366004612dc2565b61043f565b61012e610213366004612e28565b610452565b610167610226366004612e7d565b60056020526000908152604090205460ff1681565b61012e60015481565b61012e610252366004612e98565b610507565b610123610265366004612e7d565b61058f565b3360009081526005602052604090205460ff1661029a5760405163f25c884f60e01b815260040160405180910390fd5b8281146102ba5760405163512509d360e11b815260040160405180910390fd5b60005b83811015610316578282828181106102d7576102d7612ec4565b90506020020135600460008787858181106102f4576102f4612ec4565b60209081029290920135835250810191909152604001600020556001016102bd565b5050505050565b6103256105d2565b6001600160a01b03919091166000908152600560205260409020805460ff1916911515919091179055565b600061035a6105d2565b50600381905560015b919050565b60006103726105d2565b50600255600190565b60008061038a856103606105ff565b6000868152600460205260408120549192508190036103a857600080fd5b6103b3858583610507565b905060006103e5662386f26fc100006103df8a6103d15760006103d4565b60015b888a88600089610614565b906105ff565b905060006104076402540be4006103df6003548961075f90919063ffffffff16565b90508181111561041c57935061042292505050565b50925050505b95945050505050565b6104336105d2565b61043d6000610795565b565b60006104496105d2565b50600190815590565b6000806104656103606103df88426107e5565b60008681526004602052604081205491925081900361049757604051630b3951db60e11b815260040160405180910390fd5b6104a2858583610507565b905060006104c0662386f26fc100006103df8b6103d15760006103d4565b905060006104e26402540be4006103df6003548961075f90919063ffffffff16565b9050818111156104f75793506104fd92505050565b50925050505b9695505050505050565b600080610525846103df61271061051f89606461075f565b9061075f565b9050838511156105435761053c81620f42406107e5565b9050610553565b610550620f4240826107e5565b90505b60006105706127106103df6002548561075f90919063ffffffff16565b60015461057d9190612ef0565b90506104fd6127106103df868461075f565b6105976105d2565b6001600160a01b0381166105c657604051631e4fbdf760e01b8152600060048201526024015b60405180910390fd5b6105cf81610795565b50565b6000546001600160a01b0316331461043d5760405163118cdaa760e01b81523360048201526024016105bd565b600061060b8284612f19565b90505b92915050565b60008061062087610801565b9050600061062d87610801565b9050600061064d61063d88610801565b610648618e94610801565b610868565b9050600061066861065d88610801565b610648612710610801565b9050600061068261067888610801565b6106486064610801565b905060006106d46106c761069e6106998989610868565b610b2f565b6106bc6106c1876106bc886106b78a6106486002610801565b610b52565b610dbb565b88610b52565b610648846106b788611185565b905060006106ee826106e9856106b789611185565b61135e565b905060ff8e1661072f5761072161071c61070c89858a898b88611370565b6106b7662386f26fc10000610801565b6113b5565b9750505050505050506104fd565b60001960ff8f160161074f5761072161071c61070c888789868d89611439565b60009750505050505050506104fd565b6000826000036107715750600061060e565b61077b8284612f3b565b9050816107888483612f19565b1461060e5761060e612f52565b600080546001600160a01b038381166001600160a01b0319831681178455604051919092169283917f8be0079c531659141344cd1fd0a4f28419497f9722a3daafe3b4186f6b6457e09190a35050565b6000828211156107f7576107f7612f52565b61060b8284612f68565b60008160000361081357506000919050565b81600061081f82611498565b90506070811015610838578060700382901b915061084b565b607081111561084b576070810382901c91505b613fff0160701b6001600160701b03919091161760801b92915050565b6000617fff60f084811c8216919084901c8116908290036108ad5780617fff0361089c575061ffff60ef1b915061060e9050565b505050600160ff1b8116821861060e565b80617fff036108f0576dffffffffffffffffffffffffffff60801b8416156108df575061ffff60ef1b915061060e9050565b505050808218600160ff1b1661060e565b600160801b600160ff1b03841660000361094057600160801b600160ff1b038516600003610928575061ffff60ef1b915061060e9050565b505050808218600160ff1b16617fff60f01b1761060e565b6001600160701b03608085901c1660008290036109605760019150610967565b600160701b175b6001600160701b03608087901c1660008490036109aa5780156109a557600061098f82611498565b6001955060e20393840160711901939190911b90505b6109b4565b600160701b1760721b5b8181816109c3576109c3612f03565b049050806000036109f357600160ff1b878718166109e25760006109e8565b600160ff1b5b94505050505061060e565b6001606c1b811015610a0757610a07612f52565b6000600160731b821015610a4657600160721b821015610a3b57600160711b821015610a34576070610a3e565b6071610a3e565b60725b60ff16610a4f565b610a4f82611498565b905083614071018186011115610a6d57617fff945060009150610b00565b83818601613ffc011015610a88576000945060009150610b00565b83818601613f8c011015610ad5578385613ffc011115610ab3578385613ffc010382901b9150610acc565b8385613ffc011015610acc57613ffc8585030382901c91505b60009450610b00565b6070811115610ae8576070810382901c91505b6001600160701b038216915083818601613f8d010394505b81607086901b888a186001607f1b60801b1660801c6001600160801b0316171760801b9550505050505061060e565b600061060e610b3d83611536565b6f3ffe62e42fefa39ef35793c7673007e560801b5b6000617fff60f084811c8216919084901c811690829003610bf15780617fff03610bcd576001600160801b031980851690861603610b9b57505050600160ff1b8116821861060e565b6001600160801b031985851816600160ff1b03610bbd5750505081811761060e565b5061ffff60ef1b915061060e9050565b600160801b600160ff1b03841660000361089c575061ffff60ef1b915061060e9050565b80617fff03610c2f57600160801b600160ff1b038516600003610c1e575061ffff60ef1b915061060e9050565b505050600160ff1b8216811861060e565b6001600160701b03608086901c166000839003610c4f5760019250610c56565b600160701b175b6001600160701b03608086901c166000839003610c765760019250610c7d565b600160701b175b808202915081600003610c9e57600160ff1b878718166109e25760006109e8565b928201926000600160e11b831015610cd157600160e01b831015610cca57610cc583611498565b610cd4565b60e0610cd4565b60e15b90506140708186011015610cef576000945060009250610d8c565b6140e08186011015610d3257614070851015610d1457846140700383901c9250610d29565b614070851115610d2957614070850383901b92505b60009450610d8c565b61c0dd8186011115610d4c57617fff945060009250610d8c565b6070811115610d63576070810383901c9250610d76565b6070811015610d76578060700383901b92505b6001600160701b03831692506140df8186010394505b82607086901b888a186001607f1b60801b1660801c6001600160801b0316171760801b9550505050505061060e565b6000617fff60f084811c8216919084901c811690829003610e075780617fff03610dfd576001600160801b031980851690861603610bbd57849250505061060e565b849250505061060e565b80617fff03610e1a57839250505061060e565b6001607f1b608086901c90811015906001600160701b03166000849003610e445760019350610e4b565b600160701b175b6001607f1b608087901c90811015906001600160701b03166000859003610e755760019450610e7c565b600160701b175b82600003610eaf576001600160801b03198816600160ff1b14610e9f5787610ea2565b60005b965050505050505061060e565b80600003610ed2576001600160801b03198916600160ff1b14610e9f5788610ea2565b84860382151585151503610fdb576070811315610ef8578997505050505050505061060e565b6000811315610f0a5790811c90610f39565b606f19811215610f23578897505050505050505061060e565b6000811215610f39578060000384901c93508596505b92810192600160711b8410610f54576001968701969390931c925b86617fff03610f855784610f6d57617fff60f01b610f77565b6001600160f01b03195b97505050505050505061060e565b600160701b841015610f9a5760009650610fa7565b6001600160701b03841693505b83607088901b86610fb9576000610fbf565b6001607f1b5b6001600160801b0316171760801b97505050505050505061060e565b6000811315610ff657600184901b935060018703965061100d565b600081121561100d57600182901b91506001860396505b607081131561101f576001915061106c565b600181131561103c576001810360018303901c600101915061106c565b606f1981121561104f576001935061106c565b60001981121561106c576001816000030360018503901c60010193505b81841061107d578184039350611086565b83820393508294505b8360000361109f57506000965061060e95505050505050565b60006110aa85611498565b9050806071036110cf57600185901c6001600160701b0316945060018801975061111e565b6070811015611111576070819003808911156110fe578086901b6001600160701b03169550808903985061110b565b600098600019019590951b945b5061111e565b6001600160701b03851694505b87617fff03611150578561113757617fff60f01b611141565b6001600160f01b03195b9850505050505050505061060e565b84607089901b87611162576000611168565b6001607f1b5b6001600160801b0316171760801b9850505050505050505061060e565b60006001607f1b608083901c11156111a3575061ffff60ef1b919050565b617fff60f083901c8116908190036111bc575090919050565b6001600160701b03608084901c1660008290036111dc57600191506111e3565b600160701b175b806000036111f5575060009392505050565b613fff8201600190811c921615801561124757600160701b821061121f57607182901b9150611282565b600061122a83611498565b60e20360fe16606f19810160011c909403939290921b9150611282565b600160701b821061125e57607082901b9150611282565b600061126983611498565b60e10360fe16606f19810160011c909403939290921b91505b600160701b80830401600190811c908184816112a0576112a0612f03565b048201901c905060018184816112b8576112b8612f03565b048201901c905060018184816112d0576112d0612f03565b048201901c905060018184816112e8576112e8612f03565b048201901c9050600181848161130057611300612f03565b048201901c9050600181848161131857611318612f03565b048201901c9050600081848161133057611330612f03565b0490508181101561133f578091505b816001600160701b0316607086901b1760801b95505050505050919050565b600061060b83600160ff1b8418610dbb565b60006113aa611382886106b7896116ee565b6106e96113a1886106b761139c600160ff1b8b188a610b52565b611789565b6106b7866116ee565b979650505050505050565b6000617fff60f083901c16613fff8110156113d35750600092915050565b6001607f1b608084901c106113e757600080fd5b6140fe8111156113f657600080fd5b600160701b6001600160701b03608085901c161761406f8210156114205761406f8290031c611432565b61406f8211156114325761406e1982011b5b9392505050565b600080611465611456896106b761139c600160ff1b8c188b610b52565b6106b7600160ff1b88186116ee565b9050600061147c856106b7600160ff1b87186116ee565b9050600061148a838361135e565b9a9950505050505050505050565b60008082116114a657600080fd5b6000600160801b83106114bb57608092831c92015b600160401b83106114ce57604092831c92015b64010000000083106114e257602092831c92015b6201000083106114f457601092831c92015b610100831061150557600892831c92015b6010831061151557600492831c92015b6004831061152557600292831c92015b6002831061060e5760010192915050565b60006001607f1b608083901c1115611554575061ffff60ef1b919050565b6001600160801b03198216613fff60f01b0361157257506000919050565b617fff60f083901c81169081900361158b575090919050565b6001600160701b03608084901c1660008290036115ab57600191506115b2565b600160701b175b806000036115cb57506001600160f01b03199392505050565b600061406f81613fff85106115f15750600f9290921b9160009150613ffe198401611630565b60019250600160701b84106116135784613ffe039050600f84901b9350611630565b600061161e85611498565b607f8190039590951b9461406d039150505b836001607f1b03611666578215611645576001015b600061165082611498565b60700390508082901b91508083039250506116b4565b600083611674576000611677565b60015b60ff1690505b600160701b8210156116b25793800260ff81901c607f81019190911c94600019939093019260019290921b908218019061167d565b505b806001600160701b0316607083901b846116cf5760006116d5565b6001607f1b5b6001600160801b0316171760801b979650505050505050565b6000806116fa836117b0565b121561171c5761060e61170d6001610801565b6106e9600160ff1b85186116ee565b600061175e61172b6001610801565b6106486117386001610801565b6106bc6106c161174e66083ac553a55e00610801565b610648662386f26fc10000610801565b9050600061176c8285611857565b905061178161177b6001610801565b8261135e565b949350505050565b600061060e6117ab836f1fffb8aa3b295c17f0bbbe87fed0691d60811b610b52565b61186e565b6000617fff60f083901c166140fe8111156117ca57600080fd5b613fff8110156117dd5750600092915050565b600160701b6001600160701b03608085901c161761406f8210156118075761406f8290031c611819565b61406f8211156118195761406e1982011b5b6001607f1b608085901c1061184357600160ff1b81111561183957600080fd5b6000039392505050565b6001600160ff1b0381111561143257600080fd5b600061060b61186583612bc3565b6106b785612c0b565b60006001607f1b608083901c90811190617fff60f085901c8116916001600160701b031690821480156118a057508015155b156118b4575061ffff60ef1b949350505050565b61400d8211156118d957826118ce57617fff60f01b610422565b600095945050505050565b613f7f8210156118f25750613fff60f01b949350505050565b81600003611903576001915061190a565b600160701b175b613fef82111561192057613fee1982011b611932565b613fef82101561193257613fef8290031c5b828015611943575061203760811b81115b1561195357506000949350505050565b821580156119725750713fffffffffffffffffffffffffffffffffff81115b156119865750617fff60f01b949350505050565b6001600160801b0381169060801c8380156119a057508115155b156119ac579019906001015b6001607f1b828116156119d05770016a09e667f3bcc908b2fb1366ea957d3e0260801c5b6001607e1b8316156119f3577001306fe0a31b7152de8d5a46305c85edec0260801c5b6001607d1b831615611a16577001172b83c7d517adcdf7c8c50eb14a791f0260801c5b6001607c1b831615611a395770010b5586cf9890f6298b92b71842a983630260801c5b6001607b1b831615611a5c577001059b0d31585743ae7c548eb68ca417fd0260801c5b6001607a1b831615611a7f57700102c9a3e778060ee6f7caca4f7a29bde80260801c5b600160791b831615611aa25770010163da9fb33356d84a66ae336dcdfa3f0260801c5b600160781b831615611ac557700100b1afa5abcbed6129ab13ec11dc95430260801c5b600160771b831615611ae85770010058c86da1c09ea1ff19d294cf2f679b0260801c5b600160761b831615611b0b577001002c605e2e8cec506d21bfc89a23a00f0260801c5b600160751b831615611b2e57700100162f3904051fa128bca9c55c31e5df0260801c5b600160741b831615611b51577001000b175effdc76ba38e31671ca9397250260801c5b600160731b831615611b7457700100058ba01fb9f96d6cacd4b180917c3d0260801c5b600160721b831615611b975770010002c5cc37da9491d0985c348c68e7b30260801c5b600160711b831615611bba577001000162e525ee054754457d59952920260260801c5b600160701b831615611bdd5770010000b17255775c040618bf4a4ade83fc0260801c5b6001606f1b831615611c00577001000058b91b5bc9ae2eed81e9b7d4cfab0260801c5b6001606e1b831615611c2357700100002c5c89d5ec6ca4d7c8acc017b7c90260801c5b6001606d1b831615611c465770010000162e43f4f831060e02d839a9d16d0260801c5b6001606c1b831615611c6957700100000b1721bcfc99d9f890ea069117630260801c5b6001606b1b831615611c8c5770010000058b90cf1e6d97f9ca14dbcc16280260801c5b6001606a1b831615611caf577001000002c5c863b73f016468f6bac5ca2b0260801c5b600160691b831615611cd257700100000162e430e5a18f6119e3c02282a50260801c5b600160681b831615611cf5577001000000b1721835514b86e6d96efd1bfe0260801c5b600160671b831615611d1857700100000058b90c0b48c6be5df846c5b2ef0260801c5b600160661b831615611d3b5770010000002c5c8601cc6b9e94213c72737a0260801c5b600160651b831615611d5e577001000000162e42fff037df38aa2b219f060260801c5b600160641b831615611d815770010000000b17217fba9c739aa5819f44f90260801c5b600160631b831615611da4577001000000058b90bfcdee5acd3c1cedc8230260801c5b600160621b831615611dc757700100000002c5c85fe31f35a6a30da1be500260801c5b600160611b831615611dea5770010000000162e42ff0999ce3541b9fffcf0260801c5b600160601b831615611e0d57700100000000b17217f80f4ef5aadda455540260801c5b6001605f1b831615611e305770010000000058b90bfbf8479bd5a81b51ad0260801c5b6001605e1b831615611e53577001000000002c5c85fdf84bd62ae30a74cc0260801c5b6001605d1b831615611e7657700100000000162e42fefb2fed257559bdaa0260801c5b6001605c1b831615611e99577001000000000b17217f7d5a7716bba4a9ae0260801c5b6001605b1b831615611ebc57700100000000058b90bfbe9ddbac5e109cce0260801c5b6001605a1b831615611edf5770010000000002c5c85fdf4b15de6f17eb0d0260801c5b600160591b831615611f02577001000000000162e42fefa494f1478fde050260801c5b600160581b831615611f255770010000000000b17217f7d20cf927c8e94c0260801c5b600160571b831615611f48577001000000000058b90bfbe8f71cb4e4b33d0260801c5b600160561b831615611f6b57700100000000002c5c85fdf477b662b269450260801c5b600160551b831615611f8e5770010000000000162e42fefa3ae53369388c0260801c5b600160541b831615611fb157700100000000000b17217f7d1d351a389d400260801c5b600160531b831615611fd45770010000000000058b90bfbe8e8b2d3d4ede0260801c5b600160521b831615611ff7577001000000000002c5c85fdf4741bea6e77e0260801c5b600160511b83161561201a57700100000000000162e42fefa39fe95583c20260801c5b600160501b83161561203d577001000000000000b17217f7d1cfb72b45e10260801c5b698000000000000000000083161561206657700100000000000058b90bfbe8e7cc35c3f00260801c5b694000000000000000000083161561208f5770010000000000002c5c85fdf473e242ea380260801c5b69200000000000000000008316156120b8577001000000000000162e42fefa39f02b772c0260801c5b69100000000000000000008316156120e15770010000000000000b17217f7d1cf7d83c1a0260801c5b690800000000000000000083161561210a577001000000000000058b90bfbe8e7bdcbe2e0260801c5b690400000000000000000083161561213357700100000000000002c5c85fdf473dea871f0260801c5b690200000000000000000083161561215c5770010000000000000162e42fefa39ef44d910260801c5b690100000000000000000083161561218557700100000000000000b17217f7d1cf79e9490260801c5b688000000000000000008316156121ad5770010000000000000058b90bfbe8e7bce5440260801c5b684000000000000000008316156121d5577001000000000000002c5c85fdf473de6eca0260801c5b682000000000000000008316156121fd57700100000000000000162e42fefa39ef366f0260801c5b68100000000000000000831615612225577001000000000000000b17217f7d1cf79afa0260801c5b6808000000000000000083161561224d57700100000000000000058b90bfbe8e7bcd6d0260801c5b680400000000000000008316156122755770010000000000000002c5c85fdf473de6b20260801c5b6802000000000000000083161561229d577001000000000000000162e42fefa39ef3580260801c5b600160401b8316156122c05770010000000000000000b17217f7d1cf79ab0260801c5b6780000000000000008316156122e7577001000000000000000058b90bfbe8e7bcd50260801c5b67400000000000000083161561230e57700100000000000000002c5c85fdf473de6a0260801c5b6720000000000000008316156123355770010000000000000000162e42fefa39ef340260801c5b67100000000000000083161561235c57700100000000000000000b17217f7d1cf7990260801c5b6708000000000000008316156123835770010000000000000000058b90bfbe8e7bcc0260801c5b6704000000000000008316156123aa577001000000000000000002c5c85fdf473de50260801c5b6702000000000000008316156123d157700100000000000000000162e42fefa39ef20260801c5b6701000000000000008316156123f8577001000000000000000000b17217f7d1cf780260801c5b668000000000000083161561241e57700100000000000000000058b90bfbe8e7bb0260801c5b66400000000000008316156124445770010000000000000000002c5c85fdf473dd0260801c5b662000000000000083161561246a577001000000000000000000162e42fefa39ee0260801c5b66100000000000008316156124905770010000000000000000000b17217f7d1cf60260801c5b66080000000000008316156124b6577001000000000000000000058b90bfbe8e7a0260801c5b66040000000000008316156124dc57700100000000000000000002c5c85fdf473c0260801c5b66020000000000008316156125025770010000000000000000000162e42fefa39d0260801c5b660100000000000083161561252857700100000000000000000000b17217f7d1ce0260801c5b6580000000000083161561254d5770010000000000000000000058b90bfbe8e60260801c5b65400000000000831615612572577001000000000000000000002c5c85fdf4720260801c5b6520000000000083161561259757700100000000000000000000162e42fefa380260801c5b651000000000008316156125bc577001000000000000000000000b17217f7d1b0260801c5b650800000000008316156125e157700100000000000000000000058b90bfbe8d0260801c5b650400000000008316156126065770010000000000000000000002c5c85fdf460260801c5b6502000000000083161561262b577001000000000000000000000162e42fefa20260801c5b650100000000008316156126505770010000000000000000000000b17217f7d00260801c5b648000000000831615612674577001000000000000000000000058b90bfbe70260801c5b64400000000083161561269857700100000000000000000000002c5c85fdf30260801c5b6420000000008316156126bc5770010000000000000000000000162e42fef90260801c5b6410000000008316156126e057700100000000000000000000000b17217f7c0260801c5b6408000000008316156127045770010000000000000000000000058b90bfbd0260801c5b640400000000831615612728577001000000000000000000000002c5c85fde0260801c5b64020000000083161561274c57700100000000000000000000000162e42fee0260801c5b640100000000831615612770577001000000000000000000000000b17217f60260801c5b638000000083161561279357700100000000000000000000000058b90bfa0260801c5b63400000008316156127b65770010000000000000000000000002c5c85fc0260801c5b63200000008316156127d9577001000000000000000000000000162e42fd0260801c5b63100000008316156127fc5770010000000000000000000000000b17217e0260801c5b630800000083161561281f577001000000000000000000000000058b90be0260801c5b630400000083161561284257700100000000000000000000000002c5c85e0260801c5b63020000008316156128655770010000000000000000000000000162e42e0260801c5b630100000083161561288857700100000000000000000000000000b172160260801c5b628000008316156128aa5770010000000000000000000000000058b90a0260801c5b624000008316156128cc577001000000000000000000000000002c5c840260801c5b622000008316156128ee57700100000000000000000000000000162e410260801c5b62100000831615612910577001000000000000000000000000000b17200260801c5b6208000083161561293257700100000000000000000000000000058b8f0260801c5b620400008316156129545770010000000000000000000000000002c5c70260801c5b62020000831615612976577001000000000000000000000000000162e30260801c5b620100008316156129985770010000000000000000000000000000b1710260801c5b6180008316156129b9577001000000000000000000000000000058b80260801c5b6140008316156129da57700100000000000000000000000000002c5b0260801c5b6120008316156129fb5770010000000000000000000000000000162d0260801c5b611000831615612a1c57700100000000000000000000000000000b160260801c5b610800831615612a3d5770010000000000000000000000000000058a0260801c5b610400831615612a5e577001000000000000000000000000000002c40260801c5b610200831615612a7f577001000000000000000000000000000001610260801c5b610100831615612aa0577001000000000000000000000000000000b00260801c5b6080831615612ac0577001000000000000000000000000000000570260801c5b6040831615612ae05770010000000000000000000000000000002b0260801c5b6020831615612b00577001000000000000000000000000000000150260801c5b6010831615612b205770010000000000000000000000000000000a0260801c5b6008831615612b40577001000000000000000000000000000000040260801c5b6004831615612b60577001000000000000000000000000000000010260801c5b84612b8157600f81901c6001600160701b03169050613fff82019150612bb0565b613ffe8211612ba657600f81901c6001600160701b0316905081613fff039150612bb0565b600091613fee19011c5b60709190911b1760801b95945050505050565b600061060e612be361139c600160ff1b85186106b7866106486002610801565b610648612c06612bf36002610801565b6106b761174e666f9c9e651c4480610801565b611185565b600061060e612c6f612c2661174e660b58c2126f4900610801565b6106bc856106b7612c4c612c4361174e660caaedbfa8a700610801565b600160ff1b1890565b6106bc896106b7612c6661174e663f4a728c19ce80610801565b6106bc8d612c75565b83610b52565b600061060e826106b7612c94612c4361174e6640b43a04233100610801565b6106bc866106b761174e662f42c683f17c80610801565b60008083601f840112612cbd57600080fd5b50813567ffffffffffffffff811115612cd557600080fd5b6020830191508360208260051b8501011115612cf057600080fd5b9250929050565b60008060008060408587031215612d0d57600080fd5b843567ffffffffffffffff811115612d2457600080fd5b612d3087828801612cab565b909550935050602085013567ffffffffffffffff811115612d5057600080fd5b612d5c87828801612cab565b95989497509550505050565b80356001600160a01b038116811461036357600080fd5b8035801515811461036357600080fd5b60008060408385031215612da257600080fd5b612dab83612d68565b9150612db960208401612d7f565b90509250929050565b600060208284031215612dd457600080fd5b5035919050565b600080600080600060a08688031215612df357600080fd5b612dfc86612d68565b9450612e0a60208701612d7f565b94979496505050506040830135926060810135926080909101359150565b60008060008060008060c08789031215612e4157600080fd5b612e4a87612d68565b9550612e5860208801612d7f565b95989597505050506040840135936060810135936080820135935060a0909101359150565b600060208284031215612e8f57600080fd5b61060b82612d68565b600080600060608486031215612ead57600080fd5b505081359360208301359350604090920135919050565b634e487b7160e01b600052603260045260246000fd5b634e487b7160e01b600052601160045260246000fd5b8082018082111561060e5761060e612eda565b634e487b7160e01b600052601260045260246000fd5b600082612f3657634e487b7160e01b600052601260045260246000fd5b500490565b808202811582820484141761060e5761060e612eda565b634e487b7160e01b600052600160045260246000fd5b8181038181111561060e5761060e612eda56fea26469706673582212204a481a1accd79e730e8a324879983362d08137964f7b5f94243e2d4f9b3958e964736f6c634300081a0033","linkReferences":{}},"methodIdentifiers":{"VOLATILITY_PRECISION()":"7c90d3c7","getOptionPrice(address,bool,uint256,uint256,uint256,uint256)":"c83ffad2","getOptionPriceViaTTL(address,bool,uint256,uint256,uint256)":"6c7da48f","getVolatility(uint256,uint256,uint256)":"dd2555dd","ivSetter(address)":"d5f1b2ce","minOptionPricePercentage()":"25b2a93b","owner()":"8da5cb5b","renounceOwnership()":"715018a6","transferOwnership(address)":"f2fde38b","ttlToVol(uint256)":"b12ce0b4","updateIVSetter(address,bool)":"2ae0d141","updateIVs(uint256[],uint256[])":"016d47b5","updateMinOptionPricePercentage(uint256)":"326611f8","updateVolatilityMultiplier(uint256)":"69f583f2","updateVolatilityOffset(uint256)":"ba3b7bad","volatilityMultiplier()":"944b4468","volatilityOffset()":"d82940a3"},"id":58}