{"abi":[{"type":"constructor","inputs":[{"name":"_feeReceiver","type":"address","internalType":"address"},{"name":"_factory","type":"address","internalType":"address"},{"name":"_pool_init_code_hash","type":"bytes32","internalType":"bytes32"}],"stateMutability":"nonpayable"},{"type":"function","name":"POOL_INIT_CODE_HASH","inputs":[],"outputs":[{"name":"","type":"bytes32","internalType":"bytes32"}],"stateMutability":"view"},{"type":"function","name":"addLiquidity","inputs":[{"name":"params","type":"tuple","internalType":"struct LiquidityManager.AddLiquidityParams","components":[{"name":"token0","type":"address","internalType":"address"},{"name":"token1","type":"address","internalType":"address"},{"name":"fee","type":"uint24","internalType":"uint24"},{"name":"recipient","type":"address","internalType":"address"},{"name":"tickLower","type":"int24","internalType":"int24"},{"name":"tickUpper","type":"int24","internalType":"int24"},{"name":"amount0Desired","type":"uint256","internalType":"uint256"},{"name":"amount1Desired","type":"uint256","internalType":"uint256"},{"name":"amount0Min","type":"uint256","internalType":"uint256"},{"name":"amount1Min","type":"uint256","internalType":"uint256"}]}],"outputs":[{"name":"liquidity","type":"uint128","internalType":"uint128"},{"name":"amount0","type":"uint256","internalType":"uint256"},{"name":"amount1","type":"uint256","internalType":"uint256"},{"name":"pool","type":"address","internalType":"contract IUniswapV3Pool"}],"stateMutability":"nonpayable"},{"type":"function","name":"allowance","inputs":[{"name":"","type":"address","internalType":"address"},{"name":"","type":"address","internalType":"address"},{"name":"","type":"uint256","internalType":"uint256"}],"outputs":[{"name":"","type":"uint256","internalType":"uint256"}],"stateMutability":"view"},{"type":"function","name":"approve","inputs":[{"name":"spender","type":"address","internalType":"address"},{"name":"id","type":"uint256","internalType":"uint256"},{"name":"amount","type":"uint256","internalType":"uint256"}],"outputs":[{"name":"","type":"bool","internalType":"bool"}],"stateMutability":"nonpayable"},{"type":"function","name":"balanceOf","inputs":[{"name":"","type":"address","internalType":"address"},{"name":"","type":"uint256","internalType":"uint256"}],"outputs":[{"name":"","type":"uint256","internalType":"uint256"}],"stateMutability":"view"},{"type":"function","name":"burnPositionHandler","inputs":[{"name":"context","type":"address","internalType":"address"},{"name":"_burnPositionData","type":"bytes","internalType":"bytes"}],"outputs":[{"name":"","type":"uint256","internalType":"uint256"}],"stateMutability":"nonpayable"},{"type":"function","name":"donateToPosition","inputs":[{"name":"_donateData","type":"bytes","internalType":"bytes"}],"outputs":[{"name":"","type":"uint256[]","internalType":"uint256[]"},{"name":"","type":"uint256","internalType":"uint256"}],"stateMutability":"nonpayable"},{"type":"function","name":"emergencyPause","inputs":[],"outputs":[],"stateMutability":"nonpayable"},{"type":"function","name":"emergencyUnpause","inputs":[],"outputs":[],"stateMutability":"nonpayable"},{"type":"function","name":"factory","inputs":[],"outputs":[{"name":"","type":"address","internalType":"address"}],"stateMutability":"view"},{"type":"function","name":"feeReceiver","inputs":[],"outputs":[{"name":"","type":"address","internalType":"address"}],"stateMutability":"view"},{"type":"function","name":"getHandlerIdentifier","inputs":[{"name":"_data","type":"bytes","internalType":"bytes"}],"outputs":[{"name":"handlerIdentifierId","type":"uint256","internalType":"uint256"}],"stateMutability":"view"},{"type":"function","name":"hookPerms","inputs":[{"name":"","type":"address","internalType":"address"}],"outputs":[{"name":"onMint","type":"bool","internalType":"bool"},{"name":"onBurn","type":"bool","internalType":"bool"},{"name":"onUse","type":"bool","internalType":"bool"},{"name":"onUnuse","type":"bool","internalType":"bool"},{"name":"onDonate","type":"bool","internalType":"bool"},{"name":"allowSplit","type":"bool","internalType":"bool"}],"stateMutability":"view"},{"type":"function","name":"hookRegistered","inputs":[{"name":"","type":"address","internalType":"address"}],"outputs":[{"name":"","type":"bool","internalType":"bool"}],"stateMutability":"view"},{"type":"function","name":"isOperator","inputs":[{"name":"","type":"address","internalType":"address"},{"name":"","type":"address","internalType":"address"}],"outputs":[{"name":"","type":"bool","internalType":"bool"}],"stateMutability":"view"},{"type":"function","name":"mintPositionHandler","inputs":[{"name":"context","type":"address","internalType":"address"},{"name":"_mintPositionData","type":"bytes","internalType":"bytes"}],"outputs":[{"name":"","type":"uint256","internalType":"uint256"}],"stateMutability":"nonpayable"},{"type":"function","name":"owner","inputs":[],"outputs":[{"name":"","type":"address","internalType":"address"}],"stateMutability":"view"},{"type":"function","name":"registerHook","inputs":[{"name":"_hook","type":"address","internalType":"address"},{"name":"_info","type":"tuple","internalType":"struct IHandler.HookPermInfo","components":[{"name":"onMint","type":"bool","internalType":"bool"},{"name":"onBurn","type":"bool","internalType":"bool"},{"name":"onUse","type":"bool","internalType":"bool"},{"name":"onUnuse","type":"bool","internalType":"bool"},{"name":"onDonate","type":"bool","internalType":"bool"},{"name":"allowSplit","type":"bool","internalType":"bool"}]}],"outputs":[],"stateMutability":"nonpayable"},{"type":"function","name":"renounceOwnership","inputs":[],"outputs":[],"stateMutability":"nonpayable"},{"type":"function","name":"reserveCooldownHook","inputs":[{"name":"","type":"address","internalType":"address"}],"outputs":[{"name":"","type":"uint64","internalType":"uint64"}],"stateMutability":"view"},{"type":"function","name":"reservedLiquidityPerUser","inputs":[{"name":"","type":"uint256","internalType":"uint256"},{"name":"","type":"address","internalType":"address"}],"outputs":[{"name":"liquidity","type":"uint128","internalType":"uint128"},{"name":"lastReserve","type":"uint64","internalType":"uint64"}],"stateMutability":"view"},{"type":"function","name":"setOperator","inputs":[{"name":"operator","type":"address","internalType":"address"},{"name":"approved","type":"bool","internalType":"bool"}],"outputs":[{"name":"","type":"bool","internalType":"bool"}],"stateMutability":"nonpayable"},{"type":"function","name":"supportsInterface","inputs":[{"name":"interfaceId","type":"bytes4","internalType":"bytes4"}],"outputs":[{"name":"","type":"bool","internalType":"bool"}],"stateMutability":"view"},{"type":"function","name":"sweepTokens","inputs":[{"name":"_token","type":"address","internalType":"address"},{"name":"_amount","type":"uint256","internalType":"uint256"}],"outputs":[],"stateMutability":"nonpayable"},{"type":"function","name":"tokenIds","inputs":[{"name":"","type":"uint256","internalType":"uint256"}],"outputs":[{"name":"totalLiquidity","type":"uint128","internalType":"uint128"},{"name":"liquidityUsed","type":"uint128","internalType":"uint128"},{"name":"feeGrowthInside0LastX128","type":"uint256","internalType":"uint256"},{"name":"feeGrowthInside1LastX128","type":"uint256","internalType":"uint256"},{"name":"tokensOwed0","type":"uint128","internalType":"uint128"},{"name":"tokensOwed1","type":"uint128","internalType":"uint128"},{"name":"token0","type":"address","internalType":"address"},{"name":"token1","type":"address","internalType":"address"},{"name":"fee","type":"uint24","internalType":"uint24"},{"name":"reservedLiquidity","type":"uint128","internalType":"uint128"}],"stateMutability":"view"},{"type":"function","name":"tokensToPullForDonate","inputs":[{"name":"_donatePosition","type":"bytes","internalType":"bytes"}],"outputs":[{"name":"","type":"address[]","internalType":"address[]"},{"name":"","type":"uint256[]","internalType":"uint256[]"}],"stateMutability":"view"},{"type":"function","name":"tokensToPullForMint","inputs":[{"name":"_mintPositionData","type":"bytes","internalType":"bytes"}],"outputs":[{"name":"tokens","type":"address[]","internalType":"address[]"},{"name":"amounts","type":"uint256[]","internalType":"uint256[]"}],"stateMutability":"view"},{"type":"function","name":"tokensToPullForUnUse","inputs":[{"name":"_unusePositionData","type":"bytes","internalType":"bytes"}],"outputs":[{"name":"tokens","type":"address[]","internalType":"address[]"},{"name":"amounts","type":"uint256[]","internalType":"uint256[]"}],"stateMutability":"view"},{"type":"function","name":"tokensToPullForWildcard","inputs":[{"name":"_data","type":"bytes","internalType":"bytes"}],"outputs":[{"name":"","type":"address[]","internalType":"address[]"},{"name":"","type":"uint256[]","internalType":"uint256[]"}],"stateMutability":"view"},{"type":"function","name":"transfer","inputs":[{"name":"receiver","type":"address","internalType":"address"},{"name":"id","type":"uint256","internalType":"uint256"},{"name":"amount","type":"uint256","internalType":"uint256"}],"outputs":[{"name":"","type":"bool","internalType":"bool"}],"stateMutability":"nonpayable"},{"type":"function","name":"transferFrom","inputs":[{"name":"sender","type":"address","internalType":"address"},{"name":"receiver","type":"address","internalType":"address"},{"name":"id","type":"uint256","internalType":"uint256"},{"name":"amount","type":"uint256","internalType":"uint256"}],"outputs":[{"name":"","type":"bool","internalType":"bool"}],"stateMutability":"nonpayable"},{"type":"function","name":"transferOwnership","inputs":[{"name":"newOwner","type":"address","internalType":"address"}],"outputs":[],"stateMutability":"nonpayable"},{"type":"function","name":"uniswapV3MintCallback","inputs":[{"name":"amount0Owed","type":"uint256","internalType":"uint256"},{"name":"amount1Owed","type":"uint256","internalType":"uint256"},{"name":"data","type":"bytes","internalType":"bytes"}],"outputs":[],"stateMutability":"nonpayable"},{"type":"function","name":"unusePositionHandler","inputs":[{"name":"_unusePositionData","type":"bytes","internalType":"bytes"}],"outputs":[{"name":"","type":"uint256[]","internalType":"uint256[]"},{"name":"","type":"uint256","internalType":"uint256"}],"stateMutability":"nonpayable"},{"type":"function","name":"updateHandlerSettings","inputs":[{"name":"_app","type":"address","internalType":"address"},{"name":"_status","type":"bool","internalType":"bool"},{"name":"_hook","type":"address","internalType":"address"},{"name":"_newReserveCooldown","type":"uint64","internalType":"uint64"},{"name":"_newFeeReceiver","type":"address","internalType":"address"}],"outputs":[],"stateMutability":"nonpayable"},{"type":"function","name":"usePositionHandler","inputs":[{"name":"_usePositionData","type":"bytes","internalType":"bytes"}],"outputs":[{"name":"","type":"address[]","internalType":"address[]"},{"name":"","type":"uint256[]","internalType":"uint256[]"},{"name":"","type":"uint256","internalType":"uint256"}],"stateMutability":"nonpayable"},{"type":"function","name":"whitelistedApps","inputs":[{"name":"","type":"address","internalType":"address"}],"outputs":[{"name":"","type":"bool","internalType":"bool"}],"stateMutability":"view"},{"type":"function","name":"wildcardHandler","inputs":[{"name":"context","type":"address","internalType":"address"},{"name":"_wildcardData","type":"bytes","internalType":"bytes"}],"outputs":[{"name":"","type":"bytes","internalType":"bytes"}],"stateMutability":"nonpayable"},{"type":"event","name":"Approval","inputs":[{"name":"owner","type":"address","indexed":true,"internalType":"address"},{"name":"spender","type":"address","indexed":true,"internalType":"address"},{"name":"id","type":"uint256","indexed":true,"internalType":"uint256"},{"name":"amount","type":"uint256","indexed":false,"internalType":"uint256"}],"anonymous":false},{"type":"event","name":"LogBurnPositionHandler","inputs":[{"name":"params","type":"tuple","indexed":false,"internalType":"struct V3BaseHandler.BurnPositionParams","components":[{"name":"pool","type":"address","internalType":"contract IV3Pool"},{"name":"hook","type":"address","internalType":"address"},{"name":"tickLower","type":"int24","internalType":"int24"},{"name":"tickUpper","type":"int24","internalType":"int24"},{"name":"liquidity","type":"uint128","internalType":"uint128"}]},{"name":"context","type":"address","indexed":false,"internalType":"address"},{"name":"amount0","type":"uint256","indexed":false,"internalType":"uint256"},{"name":"amount1","type":"uint256","indexed":false,"internalType":"uint256"}],"anonymous":false},{"type":"event","name":"LogDonateToPosition","inputs":[{"name":"params","type":"tuple","indexed":false,"internalType":"struct V3BaseHandler.DonateParams","components":[{"name":"pool","type":"address","internalType":"contract IV3Pool"},{"name":"hook","type":"address","internalType":"address"},{"name":"tickLower","type":"int24","internalType":"int24"},{"name":"tickUpper","type":"int24","internalType":"int24"},{"name":"amount0","type":"uint128","internalType":"uint128"},{"name":"amount1","type":"uint128","internalType":"uint128"}]},{"name":"context","type":"address","indexed":false,"internalType":"address"}],"anonymous":false},{"type":"event","name":"LogMintPositionHandler","inputs":[{"name":"params","type":"tuple","indexed":false,"internalType":"struct V3BaseHandler.MintPositionParams","components":[{"name":"pool","type":"address","internalType":"contract IV3Pool"},{"name":"hook","type":"address","internalType":"address"},{"name":"tickLower","type":"int24","internalType":"int24"},{"name":"tickUpper","type":"int24","internalType":"int24"},{"name":"liquidity","type":"uint128","internalType":"uint128"}]},{"name":"context","type":"address","indexed":false,"internalType":"address"},{"name":"amount0","type":"uint256","indexed":false,"internalType":"uint256"},{"name":"amount1","type":"uint256","indexed":false,"internalType":"uint256"}],"anonymous":false},{"type":"event","name":"LogReservedLiquidity","inputs":[{"name":"params","type":"tuple","indexed":false,"internalType":"struct V3BaseHandler.ReserveOperation","components":[{"name":"pool","type":"address","internalType":"contract IV3Pool"},{"name":"hook","type":"address","internalType":"address"},{"name":"tickLower","type":"int24","internalType":"int24"},{"name":"tickUpper","type":"int24","internalType":"int24"},{"name":"liquidity","type":"uint128","internalType":"uint128"},{"name":"isReserve","type":"bool","internalType":"bool"}]},{"name":"context","type":"address","indexed":false,"internalType":"address"},{"name":"lastReserve","type":"uint256","indexed":false,"internalType":"uint256"}],"anonymous":false},{"type":"event","name":"LogUnusePositionHandler","inputs":[{"name":"params","type":"tuple","indexed":false,"internalType":"struct V3BaseHandler.UnusePositionParams","components":[{"name":"pool","type":"address","internalType":"contract IV3Pool"},{"name":"hook","type":"address","internalType":"address"},{"name":"tickLower","type":"int24","internalType":"int24"},{"name":"tickUpper","type":"int24","internalType":"int24"},{"name":"liquidityToUnuse","type":"uint128","internalType":"uint128"}]},{"name":"context","type":"address","indexed":false,"internalType":"address"},{"name":"amount0","type":"uint256","indexed":false,"internalType":"uint256"},{"name":"amount1","type":"uint256","indexed":false,"internalType":"uint256"}],"anonymous":false},{"type":"event","name":"LogUsePositionHandler","inputs":[{"name":"params","type":"tuple","indexed":false,"internalType":"struct V3BaseHandler.UsePositionParams","components":[{"name":"pool","type":"address","internalType":"contract IV3Pool"},{"name":"hook","type":"address","internalType":"address"},{"name":"tickLower","type":"int24","internalType":"int24"},{"name":"tickUpper","type":"int24","internalType":"int24"},{"name":"liquidityToUse","type":"uint128","internalType":"uint128"}]},{"name":"context","type":"address","indexed":false,"internalType":"address"},{"name":"amount0","type":"uint256","indexed":false,"internalType":"uint256"},{"name":"amount1","type":"uint256","indexed":false,"internalType":"uint256"}],"anonymous":false},{"type":"event","name":"LogWithdrawReserveLiquidity","inputs":[{"name":"params","type":"tuple","indexed":false,"internalType":"struct V3BaseHandler.ReserveOperation","components":[{"name":"pool","type":"address","internalType":"contract IV3Pool"},{"name":"hook","type":"address","internalType":"address"},{"name":"tickLower","type":"int24","internalType":"int24"},{"name":"tickUpper","type":"int24","internalType":"int24"},{"name":"liquidity","type":"uint128","internalType":"uint128"},{"name":"isReserve","type":"bool","internalType":"bool"}]},{"name":"context","type":"address","indexed":false,"internalType":"address"},{"name":"amount0","type":"uint256","indexed":false,"internalType":"uint256"},{"name":"amount1","type":"uint256","indexed":false,"internalType":"uint256"}],"anonymous":false},{"type":"event","name":"OperatorSet","inputs":[{"name":"owner","type":"address","indexed":true,"internalType":"address"},{"name":"operator","type":"address","indexed":true,"internalType":"address"},{"name":"approved","type":"bool","indexed":false,"internalType":"bool"}],"anonymous":false},{"type":"event","name":"OwnershipTransferred","inputs":[{"name":"previousOwner","type":"address","indexed":true,"internalType":"address"},{"name":"newOwner","type":"address","indexed":true,"internalType":"address"}],"anonymous":false},{"type":"event","name":"Transfer","inputs":[{"name":"caller","type":"address","indexed":false,"internalType":"address"},{"name":"from","type":"address","indexed":true,"internalType":"address"},{"name":"to","type":"address","indexed":true,"internalType":"address"},{"name":"id","type":"uint256","indexed":true,"internalType":"uint256"},{"name":"amount","type":"uint256","indexed":false,"internalType":"uint256"}],"anonymous":false},{"type":"error","name":"AddressEmptyCode","inputs":[{"name":"target","type":"address","internalType":"address"}]},{"type":"error","name":"AddressInsufficientBalance","inputs":[{"name":"account","type":"address","internalType":"address"}]},{"type":"error","name":"BeforeReserveCooldown","inputs":[]},{"type":"error","name":"FailedInnerCall","inputs":[]},{"type":"error","name":"HookAlreadyRegistered","inputs":[]},{"type":"error","name":"HookNotRegistered","inputs":[]},{"type":"error","name":"InsufficientLiquidity","inputs":[]},{"type":"error","name":"InvalidTicks","inputs":[]},{"type":"error","name":"NotWhitelisted","inputs":[]},{"type":"error","name":"OwnableInvalidOwner","inputs":[{"name":"owner","type":"address","internalType":"address"}]},{"type":"error","name":"OwnableUnauthorizedAccount","inputs":[{"name":"account","type":"address","internalType":"address"}]},{"type":"error","name":"Paused","inputs":[]},{"type":"error","name":"SafeERC20FailedOperation","inputs":[{"name":"token","type":"address","internalType":"address"}]},{"type":"error","name":"T","inputs":[]}],"bytecode":{"object":"0x60c060405234801561001057600080fd5b5060405161603138038061603183398101604081905261002f916100ff565b818184338061005857604051631e4fbdf760e01b81526000600482015260240160405180910390fd5b61006181610091565b50600a80546001600160a01b0319166001600160a01b039283161790559190911660805260a0525061013b915050565b600380546001600160a01b038381166001600160a01b0319831681179093556040519116919082907f8be0079c531659141344cd1fd0a4f28419497f9722a3daafe3b4186f6b6457e090600090a35050565b80516001600160a01b03811681146100fa57600080fd5b919050565b60008060006060848603121561011457600080fd5b61011d846100e3565b925061012b602085016100e3565b9150604084015190509250925092565b60805160a051615ebc610175600039600081816106d1015261342b0152600081816105650152818161153a0152611e070152615ebc6000f3fe608060405234801561001057600080fd5b50600436106102315760003560e01c80639981bb9b11610130578063d58778d6116100b8578063e1b130d61161007c578063e1b130d614610706578063e88c9ffd14610795578063eb148be4146107a8578063f2fde38b146107c8578063fe99049a146107db57600080fd5b8063d58778d61461059a578063d9843c111461068b578063dc6fd8ab146106cc578063dec66036146106f3578063e0f19adf146103e257600080fd5b8063b6363cf2116100ff578063b6363cf21461050f578063b8ea4a841461053a578063bdab027b1461054d578063c45a015514610560578063d34879971461058757600080fd5b80639981bb9b146104715780639f1c8473146104b7578063b220e470146104da578063b3f00674146104fc57600080fd5b8063558a7297116101be578063742b5fdd11610182578063742b5fdd146103e25780637b3fd96514610403578063893e81ec146104165780638cf69998146104295780638da5cb5b1461044c57600080fd5b8063558a729714610316578063598af9e7146103295780635bbc40681461035a57806363f558c8146103c7578063715018a6146103da57600080fd5b80632b4d93ea116102055780632b4d93ea146102bd578063426a8493146102de5780634a4e3bd5146102f15780634d0b1de3146102fb57806351858e271461030e57600080fd5b8062fdd58e1461023657806301ffc9a714610274578063095bcdb6146102975780631575e948146102aa575b600080fd5b610261610244366004614ad1565b600160209081526000928352604080842090915290825290205481565b6040519081526020015b60405180910390f35b610287610282366004614afd565b6107ee565b604051901515815260200161026b565b6102876102a5366004614b27565b6107ff565b6102616102b8366004614b9d565b6108a9565b6102d06102cb366004614bf1565b610a5c565b60405161026b929190614c6e565b6102876102ec366004614b27565b610e28565b6102f9610e8d565b005b6102d0610309366004614bf1565b610ea4565b6102f96111af565b610287610324366004614c9e565b6111cc565b610261610337366004614cd7565b600260209081526000938452604080852082529284528284209052825290205481565b6103a0610368366004614d18565b60066020908152600092835260408084209091529082529020546001600160801b03811690600160801b90046001600160401b031682565b604080516001600160801b0390931683526001600160401b0390911660208301520161026b565b6102616103d5366004614bf1565b61123a565b6102f9611290565b6103f56103f0366004614bf1565b6112a4565b60405161026b929190614d78565b610261610411366004614b9d565b6112bc565b6102f9610424366004614d9d565b611476565b610287610437366004614e1a565b60056020526000908152604090205460ff1681565b6003546001600160a01b03165b6040516001600160a01b03909116815260200161026b565b61048461047f366004614f20565b6114ed565b604080516001600160801b0390951685526020850193909352918301526001600160a01b0316606082015260800161026b565b6102876104c5366004614e1a565b60086020526000908152604090205460ff1681565b6104ed6104e8366004614bf1565b611710565b60405161026b93929190614fd4565b600a54610459906001600160a01b031681565b61028761051d36600461500a565b600060208181529281526040808220909352908152205460ff1681565b6103f5610548366004614bf1565b611b05565b6102f961055b366004615038565b611cef565b6104597f000000000000000000000000000000000000000000000000000000000000000081565b6102f96105953660046150ee565b611df2565b6106216105a8366004615140565b600460208190526000918252604090912080546001820154600283015460038401549484015460058501546006909501546001600160801b0380861697600160801b9687900482169795969495828216959091048216936001600160a01b039081169390821692600160a01b90920462ffffff1691168a565b604080516001600160801b039b8c168152998b1660208b01528901979097526060880195909552928716608087015290861660a08601526001600160a01b0390811660c08601521660e084015262ffffff166101008301529091166101208201526101400161026b565b6106b4610699366004614e1a565b6007602052600090815260409020546001600160401b031681565b6040516001600160401b03909116815260200161026b565b6102617f000000000000000000000000000000000000000000000000000000000000000081565b6102f9610701366004614ad1565b611e70565b61075c610714366004614e1a565b60096020526000908152604090205460ff8082169161010081048216916201000082048116916301000000810482169164010000000082048116916501000000000090041686565b604080519615158752941515602087015292151593850193909352151560608401529015156080830152151560a082015260c00161026b565b6103f56107a3366004614bf1565b611e90565b6107bb6107b6366004614b9d565b611ee6565b60405161026b91906151a9565b6102f96107d6366004614e1a565b611f89565b6102876107e93660046151bc565b611fcc565b60006107f982612130565b92915050565b33600090815260016020908152604080832085845290915281208054839190839061082b908490615218565b90915550506001600160a01b03841660009081526001602090815260408083208684529091528120805484929061086390849061522b565b909155505060408051338082526020820185905285926001600160a01b03881692600080516020615e6783398151915291015b60405180910390a45060015b9392505050565b60006108b3612163565b6000806108c28486018661535d565b6020828101516001600160a01b03166000908152600990915260409020549193509150610100900460ff16801561091657506020808301516001600160a01b031660009081526008909152604090205460ff165b1561097e5781602001516001600160a01b031663e849a8b6826040518263ffffffff1660e01b815260040161094b91906151a9565b600060405180830381600087803b15801561096557600080fd5b505af1158015610979573d6000803e3d6000fd5b505050505b604080516101008101825283516020850151928501516060860151610a449484936109b293309391929161012087016153ab565b6040516020818303038152906040528051906020012060001c815260200184600001516001600160a01b0316815260200184602001516001600160a01b03168152602001846040015160020b8152602001846060015160020b815260200184608001516001600160801b03168152602001886001600160a01b03168152602001886001600160a01b03168152506121be565b505050608001516001600160801b0316949350505050565b60606000610a68612163565b600080610a778587018761535d565b915091506000308360000151846020015185604001518660600151604051602001610aa69594939291906153ab565b60408051808303601f190181529181528151602092830120600081815260048452828120878501516001600160a01b03168252600990945291909120549092506301000000900460ff168015610b1957506020808501516001600160a01b031660009081526008909152604090205460ff165b15610b815783602001516001600160a01b03166340b62019846040518263ffffffff1660e01b8152600401610b4e91906151a9565b600060405180830381600087803b158015610b6857600080fd5b505af1158015610b7c573d6000803e3d6000fd5b505050505b6000610b90856000015161246f565b509050600080610bc483610baa896040015160020b6124e4565b610bba8a6060015160020b6124e4565b8a60800151612807565b604080516101408101825287546001600160801b038082168352600160801b918290048116602084015260018a01548385015260028a015460608085019190915260038b0154808316608086015292909204811660a084015260048a01546001600160a01b0390811660c085015260058b015490811660e0850152600160a01b900462ffffff1661010084015260068a015416610120830152918b0151918b0151939550919350600092610c7d928492909187876128a3565b50509050610c998589600001518a604001518b60600151612a37565b84546001600160801b03808316600160801b9092041610610d0157845481908690601090610cd8908490600160801b90046001600160801b03166153e1565b92506101000a8154816001600160801b0302191690836001600160801b03160217905550610d5f565b8454610d1d90600160801b90046001600160801b0316826153e1565b85548690600090610d389084906001600160801b0316615400565b82546101009290920a6001600160801b038181021990931691831602179091558654168655505b6040805160028082526060820183526000926020830190803683370190505090508381600081518110610d9457610d9461541f565b6020026020010181815250508281600181518110610db457610db461541f565b60209081029190910101526001600160801b03821660808a01526040517f9947dcc0369e358b6658b3c737e9b50fb988f069f55f189f250076b4db69937490610e04908b90339088908890615435565b60405180910390a199506001600160801b03169750505050505050505b9250929050565b3360008181526002602090815260408083206001600160a01b03881680855290835281842087855290925280832085905551919285927fb3fd5071835887567a0671151121894ddccc2842f1d10bedad13e0d17cace9a7906108969087815260200190565b610e95612bd3565b600a805460ff60a01b19169055565b60606000610eb0612163565b600080610ebf858701876154b2565b915091506000308360000151846020015185604001518660600151604051602001610eee9594939291906153ab565b60408051808303601f190181529181528151602092830120858301516001600160a01b031660009081526009909352912054909150640100000000900460ff168015610f5757506020808401516001600160a01b031660009081526008909152604090205460ff165b15610fbf5782602001516001600160a01b0316638b5ef33a836040518263ffffffff1660e01b8152600401610f8c91906151a9565b600060405180830381600087803b158015610fa657600080fd5b505af1158015610fba573d6000803e3d6000fd5b505050505b60008181526004602081815260409283902083516101408101855281546001600160801b038082168352600160801b91829004811694830194909452600183015495820195909552600282015460608201526003820154808416608080840191909152959004831660a0820152928101546001600160a01b0390811660c0850152600582015490811660e0850152600160a01b900462ffffff1661010084015260060154811661012083015291850151909116156110a857600a54608085015160c08301516110a8926001600160a01b03918216923392909116906001600160801b0316612c00565b60a08401516001600160801b0316156110ec57600a5460a085015160e08301516110ec926001600160a01b03918216923392909116906001600160801b0316612c00565b60408051600280825260608201835260009260208301908036833701905050905084608001516001600160801b03168160008151811061112e5761112e61541f565b6020026020010181815250508460a001516001600160801b03168160018151811061115b5761115b61541f565b6020026020010181815250507fd56018ecc6a046635457cebc1f2716e82f7fed949bf224bc2f3f58e2178682c08533604051611198929190615564565b60405180910390a198600098509650505050505050565b6111b7612bd3565b600a805460ff60a01b1916600160a01b179055565b336000818152602081815260408083206001600160a01b038716808552908352818420805460ff191687151590811790915591519182529293917fceb576d9f15e4e200fdb5096d64d5dfd667e16def20c1eefd14256d8e3faa267910160405180910390a350600192915050565b60008080808061124c868801886155df565b9350935093509350308484848460405160200161126d9594939291906153ab565b60408051601f198184030181529190528051602090910120979650505050505050565b611298612bd3565b6112a26000612c6d565b565b6060806112b18484612cbf565b915091509250929050565b60006112c6612163565b6000806112d58486018661535d565b6020808301516001600160a01b0316600090815260099091526040902054919350915060ff16801561132457506020808301516001600160a01b031660009081526008909152604090205460ff165b1561138c5781602001516001600160a01b0316633fc32173826040518263ffffffff1660e01b815260040161135991906151a9565b600060405180830381600087803b15801561137357600080fd5b505af1158015611387573d6000803e3d6000fd5b505050505b60006114606040518061014001604052806000151581526020013086600001518760200151886040015189606001516040516020016113cf9594939291906153ab565b6040516020818303038152906040528051906020012060001c815260200185600001516001600160a01b0316815260200185602001516001600160a01b0316815260200185608001516001600160801b031681526020016000815260200160008152602001856040015160020b8152602001856060015160020b8152602001896001600160a01b0316815250612ed9565b50506001600160801b0316979650505050505050565b61147e612bd3565b6001600160a01b039485166000908152600560209081526040808320805460ff1916971515979097179096559386168152600790935292909120805467ffffffffffffffff19166001600160401b03909216919091179055600a80546001600160a01b03191691909216179055565b6000806000806000604051806060016040528087600001516001600160a01b0316815260200187602001516001600160a01b03168152602001876040015162ffffff16815250905061155f7f000000000000000000000000000000000000000000000000000000000000000082613388565b91506000826001600160a01b0316633850c7bd6040518163ffffffff1660e01b815260040160e060405180830381865afa1580156115a1573d6000803e3d6000fd5b505050506040513d601f19601f820116820180604052508101906115c59190615658565b505050505050905060006115dc88608001516124e4565b905060006115ed8960a001516124e4565b90506116048383838c60c001518d60e00151613471565b9750505050816001600160a01b0316633c8a7d8d876060015188608001518960a00151896040518060400160405280888152602001336001600160a01b03168152506040516020016116919190815180516001600160a01b03908116835260208083015182168185015260409283015162ffffff1692840192909252920151909116606082015260800190565b6040516020818303038152906040526040518663ffffffff1660e01b81526004016116c09594939291906156f0565b60408051808303816000875af11580156116de573d6000803e3d6000fd5b505050506040513d601f19601f82011682018060405250810190611702919061573d565b959790965091935090915050565b606080600061171d612163565b60008061172c8688018861535d565b91509150600030836000015184602001518560400151866060015160405160200161175b9594939291906153ab565b60408051808303601f190181529181528151602092830120600081815260048452828120878501516001600160a01b031682526009909452919091205490925062010000900460ff1680156117cd57506020808501516001600160a01b031660009081526008909152604090205460ff165b156118355783602001516001600160a01b031663753f19fb846040518263ffffffff1660e01b815260040161180291906151a9565b600060405180830381600087803b15801561181c57600080fd5b505af1158015611830573d6000803e3d6000fd5b505050505b608084015181546001600160801b039182169161185c91600160801b8104821691166153e1565b6001600160801b031610156118845760405163bb55fd2760e01b815260040160405180910390fd5b6000806118a38660000151876040015188606001518960800151613535565b87516040808a015160608b015191516309e3d67b60e31b81529496509294506001600160a01b0390911692634f1eb3d8926118e692339288908890600401615761565b60408051808303816000875af1158015611904573d6000803e3d6000fd5b505050506040513d601f19601f82011682018060405250810190611928919061579e565b505061194283876000015188604001518960600151612a37565b608086015183548490601090611969908490600160801b90046001600160801b0316615400565b92506101000a8154816001600160801b0302191690836001600160801b03160217905550600060026001600160401b038111156119a8576119a8614e37565b6040519080825280602002602001820160405280156119d1578160200160208202803683370190505b50600485015481519192506001600160a01b03169082906000906119f7576119f761541f565b6001600160a01b0392831660209182029290920101526005850154825191169082906001908110611a2a57611a2a61541f565b6001600160a01b039290921660209283029190910182015260408051600280825260608201835260009391929091830190803683370190505090508381600081518110611a7957611a7961541f565b6020026020010181815250508281600181518110611a9957611a9961541f565b6020026020010181815250507f8643ccc443265e37c9da35348e57363bd63b37b6112bca61947776a86b637a3888338686604051611ada9493929190615435565b60405180910390a160809790970151909c969b506001600160801b0316995094975050505050505050565b6060806000611b16848601866154b2565b50604080516002808252606082018352929350600092909160208301908036833701905050905081600001516001600160a01b0316630dfe16816040518163ffffffff1660e01b8152600401602060405180830381865afa158015611b7f573d6000803e3d6000fd5b505050506040513d601f19601f82011682018060405250810190611ba391906157cd565b81600081518110611bb657611bb661541f565b60200260200101906001600160a01b031690816001600160a01b03168152505081600001516001600160a01b031663d21220a76040518163ffffffff1660e01b8152600401602060405180830381865afa158015611c18573d6000803e3d6000fd5b505050506040513d601f19601f82011682018060405250810190611c3c91906157cd565b81600181518110611c4f57611c4f61541f565b6001600160a01b0392909216602092830291909101820152604080516002808252606082018352600093919290918301908036833701905050905082608001516001600160801b031681600081518110611cab57611cab61541f565b6020026020010181815250508260a001516001600160801b031681600181518110611cd857611cd861541f565b602090810291909101015290969095509350505050565b6001600160a01b03821660009081526008602052604090205460ff1615611d29576040516325c3d4c360e01b815260040160405180910390fd5b6001600160a01b039091166000908152600960209081526040808320845181548487015184880151606089015160808a015160a0909a01511515650100000000000265ff0000000000199a1515640100000000029a909a1665ffff000000001991151563010000000263ff0000001993151562010000029390931663ffff0000199415156101000261ff00199715159790971661ffff1990961695909517959095179290921692909217919091171617949094179093556008905220805460ff19166001179055565b6000611e00828401846157ea565b9050611e307f000000000000000000000000000000000000000000000000000000000000000082600001516135cb565b508415611e4b578051516020820151611e4b919033886135ee565b8315611e6957611e69816000015160200151826020015133876135ee565b5050505050565b611e78612bd3565b611e8c6001600160a01b038316338361361a565b5050565b604080516002808252606082810190935282916000918160200160208202803683375050604080516002808252606082018352939450600093909250906020830190803683375093989197509095505050505050565b6060611ef0612163565b600080611eff84860186615890565b90925090506000826002811115611f1857611f186158cd565b03611f2c57611f278682613650565b611f70565b6001826002811115611f4057611f406158cd565b03611f4e57611f2781613b19565b6002826002811115611f6257611f626158cd565b03611f7057611f7081613c41565b5050604080516020810190915260008152949350505050565b611f91612bd3565b6001600160a01b038116611fc057604051631e4fbdf760e01b8152600060048201526024015b60405180910390fd5b611fc981612c6d565b50565b6000336001600160a01b0386161480159061200957506001600160a01b03851660009081526020818152604080832033845290915290205460ff16155b1561207c576001600160a01b03851660009081526002602090815260408083203384528252808320868452909152902054600019811461207a5761204d8382615218565b6001600160a01b038716600090815260026020908152604080832033845282528083208884529091529020555b505b6001600160a01b0385166000908152600160209081526040808320868452909152812080548492906120af908490615218565b90915550506001600160a01b0384166000908152600160209081526040808320868452909152812080548492906120e790849061522b565b9091555050604080513381526020810184905284916001600160a01b038088169290891691600080516020615e67833981519152910160405180910390a4506001949350505050565b60006301ffc9a760e01b6001600160e01b0319831614806107f95750506001600160e01b031916630f632fb360e01b1490565b3360009081526005602052604090205460ff1661219357604051630b094f2760e31b815260040160405180910390fd5b600a54600160a01b900460ff16156112a2576040516313d0ff5960e31b815260040160405180910390fd5b8051600090815260046020526040812060a083015181548392916001600160801b03908116916121f891600160801b8204811691166153e1565b6001600160801b031610156122205760405163bb55fd2760e01b815260040160405180910390fd5b60208401516060850151608086015160a087015160405163a34123a760e01b8152600293840b60048201529190920b60248201526001600160801b03909116604482015260009182916001600160a01b039091169063a34123a79060640160408051808303816000875af115801561229c573d6000803e3d6000fd5b505050506040513d601f19601f820116820180604052508101906122c0919061573d565b915091506122dc83876020015188606001518960800151612a37565b85602001516001600160a01b0316634f1eb3d88760e001518860600151896080015186866040518663ffffffff1660e01b8152600401612320959493929190615761565b60408051808303816000875af115801561233e573d6000803e3d6000fd5b505050506040513d601f19601f82011682018060405250810190612362919061579e565b505060a0860151835484906000906123849084906001600160801b03166153e1565b92506101000a8154816001600160801b0302191690836001600160801b031602179055506123c88660c0015187600001518860a001516001600160801b03166145e4565b7ff6712e9ab46ec463b822b25c7cd53a85bb9386675c5c5d547c78a4ebed1bd7816040518060a0016040528088602001516001600160a01b0316815260200188604001516001600160a01b03168152602001886060015160020b8152602001886080015160020b81526020018860a001516001600160801b03168152508760c00151848460405161245c9493929190615435565b60405180910390a1909590945092505050565b600080826001600160a01b0316633850c7bd6040518163ffffffff1660e01b815260040160e060405180830381865afa1580156124b0573d6000803e3d6000fd5b505050506040513d601f19601f820116820180604052508101906124d49190615658565b5094989397509295505050505050565b60008060008360020b126124fb578260020b612503565b8260020b6000035b9050620d89e8811115612529576040516315e4079d60e11b815260040160405180910390fd5b60008160011660000361254057600160801b612552565b6ffffcb933bd6fad37aa2d162d1a5940015b70ffffffffffffffffffffffffffffffffff1690506002821615612586576ffff97272373d413259a46990580e213a0260801c5b60048216156125a5576ffff2e50f5f656932ef12357cf3c7fdcc0260801c5b60088216156125c4576fffe5caca7e10e4e61c3624eaa0941cd00260801c5b60108216156125e3576fffcb9843d60f6159c9db58835c9266440260801c5b6020821615612602576fff973b41fa98c081472e6896dfb254c00260801c5b6040821615612621576fff2ea16466c96a3843ec78b326b528610260801c5b6080821615612640576ffe5dee046a99a2a811c461f1969c30530260801c5b610100821615612660576ffcbe86c7900a88aedcffc83b479aa3a40260801c5b610200821615612680576ff987a7253ac413176f2b074cf7815e540260801c5b6104008216156126a0576ff3392b0822b70005940c7a398e4b70f30260801c5b6108008216156126c0576fe7159475a2c29b7443b29c7fa6e889d90260801c5b6110008216156126e0576fd097f3bdfd2022b8845ad8f792aa58250260801c5b612000821615612700576fa9f746462d870fdf8a65dc1f90e061e50260801c5b614000821615612720576f70d869a156d2a1b890bb3df62baf32f70260801c5b618000821615612740576f31be135f97d08fd981231505542fcfa60260801c5b62010000821615612761576f09aa508b5b7a84e1c677de54f3e99bc90260801c5b62020000821615612781576e5d6af8dedb81196699c329225ee6040260801c5b620400008216156127a0576d2216e584f5fa1ea926041bedfe980260801c5b620800008216156127bd576b048a170391f7dc42444e8fa20260801c5b60008460020b13156127de5780600019816127da576127da6158e3565b0490505b6401000000008106156127f25760016127f5565b60005b60ff16602082901c0192505050919050565b600080836001600160a01b0316856001600160a01b03161115612828579293925b846001600160a01b0316866001600160a01b0316116128535761284c858585614659565b915061289a565b836001600160a01b0316866001600160a01b0316101561288c57612878868585614659565b91506128858587856146c8565b905061289a565b6128978585856146c8565b90505b94509492505050565b60008060008861293b5761292e6040518061014001604052808a60c001516001600160a01b031681526020018a60e001516001600160a01b031681526020018a610100015162ffffff168152602001306001600160a01b031681526020018960020b81526020018860020b8152602001878152602001868152602001878152602001868152506114ed565b5091945092509050612a2b565b306001600160a01b0316639981bb9b6040518061014001604052808b60c001516001600160a01b031681526020018b60e001516001600160a01b031681526020018b610100015162ffffff168152602001306001600160a01b031681526020018a60020b81526020018960020b8152602001888152602001878152602001888152602001878152506040518263ffffffff1660e01b81526004016129df91906158f9565b6080604051808303816000875af11580156129fe573d6000803e3d6000fd5b505050506040513d601f19601f82011682018060405250810190612a2291906159b4565b50919450925090505b96509650969350505050565b604080516bffffffffffffffffffffffff193060601b1660208083019190915260e885811b603484015284901b60378301528251808303601a018152603a830193849052805191012063514ea4bf60e01b909252603e810182905260009081906001600160a01b0387169063514ea4bf90605e0160a060405180830381865afa158015612ac8573d6000803e3d6000fd5b505050506040513d601f19601f82011682018060405250810190612aec91906159f5565b505060018a01548a5460068c0154939650919450612b3193508503916001600160801b03600160801b8084048216938216928216929092019290920390911690614713565b6003880180546001600160801b0380821690930183166fffffffffffffffffffffffffffffffff199091161790556002880154885460068a0154612b949392850392600160801b8084048216938216928216929092019290920390911690614713565b6003880180546001600160801b03600160801b808304821690940181169093029216919091179055600187019190915560029095019490945550505050565b6003546001600160a01b031633146112a25760405163118cdaa760e01b8152336004820152602401611fb7565b6040516001600160a01b038481166024830152838116604483015260648201839052612c679186918216906323b872dd906084015b604051602081830303815290604052915060e01b6020820180516001600160e01b0383818316178352505050506147c5565b50505050565b600380546001600160a01b038381166001600160a01b0319831681179093556040519116919082907f8be0079c531659141344cd1fd0a4f28419497f9722a3daafe3b4186f6b6457e090600090a35050565b6060806000612cd08486018661535d565b5090506000612ce2826000015161246f565b509050600080612d1683612cfc866040015160020b6124e4565b612d0c876060015160020b6124e4565b8760800151612807565b6040805160028082526060820183529395509193506000929060208301908036833701905050905084600001516001600160a01b0316630dfe16816040518163ffffffff1660e01b8152600401602060405180830381865afa158015612d80573d6000803e3d6000fd5b505050506040513d601f19601f82011682018060405250810190612da491906157cd565b81600081518110612db757612db761541f565b60200260200101906001600160a01b031690816001600160a01b03168152505084600001516001600160a01b031663d21220a76040518163ffffffff1660e01b8152600401602060405180830381865afa158015612e19573d6000803e3d6000fd5b505050506040513d601f19601f82011682018060405250810190612e3d91906157cd565b81600181518110612e5057612e5061541f565b6001600160a01b039290921660209283029190910182015260408051600280825260608201835260009391929091830190803683370190505090508381600081518110612e9f57612e9f61541f565b6020026020010181815250508281600181518110612ebf57612ebf61541f565b602090810291909101015290999098509650505050505050565b60208082015160009081526004918290526040812091820154909182918291906001600160a01b03166130a95784604001516001600160a01b0316630dfe16816040518163ffffffff1660e01b8152600401602060405180830381865afa158015612f48573d6000803e3d6000fd5b505050506040513d601f19601f82011682018060405250810190612f6c91906157cd565b8160040160006101000a8154816001600160a01b0302191690836001600160a01b0316021790555084604001516001600160a01b031663d21220a76040518163ffffffff1660e01b8152600401602060405180830381865afa158015612fd6573d6000803e3d6000fd5b505050506040513d601f19601f82011682018060405250810190612ffa91906157cd565b8160050160006101000a8154816001600160a01b0302191690836001600160a01b0316021790555084604001516001600160a01b031663ddca3f436040518163ffffffff1660e01b8152600401602060405180830381865afa158015613064573d6000803e3d6000fd5b505050506040513d601f19601f820116820180604052508101906130889190615a49565b8160050160146101000a81548162ffffff021916908362ffffff1602179055505b60006130b8866040015161246f565b50905085608001516001600160801b031660000361311357613104816130e48860e0015160020b6124e4565b6130f589610100015160020b6124e4565b8960a001518a60c00151613471565b6001600160801b031660808701525b60a0860151158015613127575060c0860151155b156131665761315b816131408860e0015160020b6124e4565b61315189610100015160020b6124e4565b8960800151612807565b60c088015260a08701525b8551604080516101408101825284546001600160801b038082168352600160801b9182900481166020840152600187015493830193909352600286015460608301526003860154808416608084015204821660a08083019190915260048601546001600160a01b0390811660c080850191909152600588015491821660e080860191909152600160a01b90920462ffffff16610100808601919091526006890154909516610120850152908b0151938b0151918b0151908b015161322d95949291906128a3565b60c089015260a08801526001600160801b03166080870152604086015160e08701516101008801516132629285929091612a37565b6080860151825483906000906132829084906001600160801b0316615400565b92506101000a8154816001600160801b0302191690836001600160801b031602179055506132c7866101200151876020015188608001516001600160801b0316614828565b7fe37ed9ef07c82bfef5e4b1503d49939505996bb0aea458cb274ba82e934f86e66040518060a0016040528088604001516001600160a01b0316815260200188606001516001600160a01b031681526020018860e0015160020b815260200188610100015160020b815260200188608001516001600160801b03168152508761012001518860a001518960c001516040516133659493929190615435565b60405180910390a150505050608082015160a083015160c0909301519093909150565b600081602001516001600160a01b031682600001516001600160a01b0316106133b057600080fd5b815160208084015160408086015181516001600160a01b0395861681860152949092168482015262ffffff90911660608085019190915281518085038201815260808501909252815191909201206001600160f81b031960a08401529085901b6bffffffffffffffffffffffff191660a183015260b58201527f000000000000000000000000000000000000000000000000000000000000000060d582015260f50160408051601f1981840301815291905280516020909101209392505050565b6000836001600160a01b0316856001600160a01b03161115613491579293925b846001600160a01b0316866001600160a01b0316116134bc576134b5858585614894565b905061352c565b836001600160a01b0316866001600160a01b0316101561351e5760006134e3878686614894565b905060006134f28789866148f7565b9050806001600160801b0316826001600160801b0316106135135780613515565b815b9250505061352c565b6135298585846148f7565b90505b95945050505050565b60405163a34123a760e01b8152600284810b600483015283900b60248201526001600160801b038216604482015260009081906001600160a01b0387169063a34123a79060640160408051808303816000875af115801561359a573d6000803e3d6000fd5b505050506040513d601f19601f820116820180604052508101906135be919061573d565b9097909650945050505050565b60006135d78383613388565b9050336001600160a01b038216146107f957600080fd5b306001600160a01b0384160361360e5761360984838361361a565b612c67565b612c6784848484612c00565b6040516001600160a01b0383811660248301526044820183905261364b91859182169063a9059cbb90606401612c35565b505050565b6000818060200190518101906136669190615a66565b905060003082600001518360200151846040015185606001516040516020016136939594939291906153ab565b60408051601f198184030181529181528151602092830120600081815260048452828120600685528382206001600160a01b038a1683529094529190912060a0850151919350901561383a576080840151815482906000906136ff9084906001600160801b0316615400565b82546101009290920a6001600160801b03818102199093169183160217909155825467ffffffffffffffff60801b1916600160801b426001600160401b03160217835560808601518454909250849160009161375d918591166153e1565b92506101000a8154816001600160801b0302191690836001600160801b0316021790555083608001518260060160008282829054906101000a90046001600160801b03166137ab9190615400565b92506101000a8154816001600160801b0302191690836001600160801b031602179055506137e7868486608001516001600160801b03166145e4565b80546040517f3de445284e77f1fdf8fefe5c00363b9c7da97f34e3e07617973d5b16adf756e89161382d9187918a91600160801b9091046001600160401b031690615b50565b60405180910390a1613b11565b6020808501516001600160a01b03166000908152600790915260409020548154429161387a916001600160401b0391821691600160801b90910416615b87565b6001600160401b031611156138a257604051635ff1b24b60e11b815260040160405180910390fd5b6080840151825460068401546001600160801b0392831692600160801b83048116926138d19282169116615400565b6138db91906153e1565b6001600160801b031610156139035760405163bb55fd2760e01b815260040160405180910390fd5b835160408086015160608701516080880151925163a34123a760e01b8152600292830b6004820152910b60248201526001600160801b03909116604482015260009182916001600160a01b039091169063a34123a79060640160408051808303816000875af115801561397a573d6000803e3d6000fd5b505050506040513d601f19601f8201168201806040525081019061399e919061573d565b87516040808a015160608b015191516309e3d67b60e31b81529496509294506001600160a01b0390911692634f1eb3d8926139e1928d9288908890600401615761565b60408051808303816000875af11580156139ff573d6000803e3d6000fd5b505050506040513d601f19601f82011682018060405250810190613a23919061579e565b5050613a3d84876000015188604001518960600151612a37565b6080860151600685018054600090613a5f9084906001600160801b03166153e1565b92506101000a8154816001600160801b0302191690836001600160801b0316021790555085608001518360000160008282829054906101000a90046001600160801b0316613aad91906153e1565b92506101000a8154816001600160801b0302191690836001600160801b031602179055507f6aa9934a1cc17e51db83b5b01a58a2331f4e98dd932a53ffa875e244a09d290186898384604051613b069493929190615ba6565b60405180910390a150505b505050505050565b60008060008084806020019051810190613b339190615bda565b935093509350935060003085858585604051602001613b569594939291906153ab565b60408051601f1981840301815291815281516020928301206000818152600490935290822090925090613b8e90879086908690613535565b5050613b9c81878686612a37565b600a5460038201546040516309e3d67b60e31b81526001600160a01b0389811693634f1eb3d893613bed939290911691899189916001600160801b0380831692600160801b90041690600401615761565b60408051808303816000875af1158015613c0b573d6000803e3d6000fd5b505050506040513d601f19601f82011682018060405250810190613c2f919061579e565b50506000600390910155505050505050565b600081806020019051810190613c579190615caf565b9050806060015160020b8160a00151600081518110613c7857613c7861541f565b602002602001015160020b141580613cc85750806080015160020b8160a0015160018360a0015151613caa9190615218565b81518110613cba57613cba61541f565b602002602001015160020b14155b15613ce657604051631434ed7f60e01b815260040160405180910390fd5b613d74604051806101e0016040528060006001600160a01b0316815260200160008152602001600081526020016000815260200160008152602001600060020b8152602001600060020b8152602001600060020b8152602001600060020b81526020016000815260200160008152602001600081526020016000815260200160008152602001600081525090565b613d81826020015161246f565b60020b60a08301526001600160a01b03908116825260408381015190911660009081526009602052205465010000000000900460ff16613dd457604051632a1b540760e01b815260040160405180910390fd5b6000308360200151846040015185606001518660800151604051602001613dff9594939291906153ab565b60408051601f19818403018152828252805160209182012061010084018352808452868201516001600160a01b039081168584015287840151811685850152606080890151600290810b918701919091526080808a015190910b908601528751811660009081526001845284812083825290935292909120546001600160801b031660a0840152855190911660c08301523060e08301529150613ea1906121be565b836020018460400182815250828152505050613eee6040518060a00160405280600081526020016000815260200160006001600160801b0316815260200160008152602001600081525090565b83602001516001600160a01b031663d0c93a7c6040518163ffffffff1660e01b8152600401602060405180830381865afa158015613f30573d6000803e3d6000fd5b505050506040513d601f19601f82011682018060405250810190613f549190615d79565b600290810b60c085015260a08401516000910b13613fa3578260c001518360a00151613f809190615d96565b8360c00151613f8f9190615db8565b8360a00151613f9e9190615ddd565b613fc6565b8260c001518360a00151613fb79190615d96565b8360a00151613fc69190615ddd565b60020b60e0840181905260c0840151613fde91615db8565b600290810b610100850152606085015160a085015160009291820b910b1380156140155750846080015160020b8460a0015160020b125b6020850151606086015260408501516080860152905080156142075761406d8460a001518660a0015160018860a00151516140509190615218565b815181106140605761406061541f565b6020026020010151614934565b846101200181815250506140968460a001518660a001516000815181106140605761406061541f565b61014085015260a08401516101008501516140b19190615ddd565b60020b61016085015260e084015160a08501516140ce9190615ddd565b60020b610180850152835160e085015161414991906140ec906124e4565b6140fa8761010001516124e4565b87610120015188610160015189602001516141159190615e02565b61411f9190615e19565b8861014001518961018001518a6040015161413a9190615e02565b6141449190615e19565b613471565b6001600160801b03166040830152835160e0850151614184919061416c906124e4565b61417a8761010001516124e4565b8560400151612807565b608084015260608301526101608401516101208501516141a49190615218565b826060015185602001516141b89190615218565b6141c29190615e19565b6101a08501526101808401516101408501516141de9190615218565b826080015185604001516141f29190615218565b6141fc9190615e19565b6101c085015261425a565b61421985608001518660600151614934565b6101408501819052610120850181905260208501516142389190615e19565b6101a085015261014084015160408501516142539190615e19565b6101c08501525b60005b60018660a001515161426f9190615218565b8110156144e15760008660a00151828151811061428e5761428e61541f565b6020026020010151905060008760a001518360016142ac919061522b565b815181106142bc576142bc61541f565b602002602001015190508060020b8260020b126142ec57604051631434ed7f60e01b815260040160405180910390fd5b8060020b8760a0015160020b138061430d57508160020b8760a0015160020b125b1561434f57600061431e8383614934565b905080886101a001516143319190615e02565b86526101c0880151614344908290615e02565b6020870152506143e3565b8660e0015160020b8260020b141580614373575086610100015160020b8160020b14155b1561439157604051631434ed7f60e01b815260040160405180910390fd5b86610120015187610160015188606001516143ac9190615e02565b6143b69190615e19565b855261014087015161018088015160808901516143d39190615e02565b6143dd9190615e19565b60208601525b61448e604051806101400160405280600115158152602001308b602001518c60400151878760405160200161441c9594939291906153ab565b60408051601f19818403018152918152815160209283012083528c8201516001600160a01b03908116848401528d82015181169184019190915260006060840152895160808401529089015160a0830152600286810b60c084015285900b60e08301528b511661010090910152612ed9565b6080880152606087018190526001600160801b0390911660408701526020880180516144bb908390615218565b90525060808501516040880180516144d4908390615218565b905250505060010161425d565b5060008381526004602081815260409283902083516101408101855281546001600160801b038082168352600160801b91829004811683860152600184015496830196909652600283015460608301526003830154808716608084015204851660a0820152928101546001600160a01b0390811660c0850152600582015490811660e0850152600160a01b900462ffffff166101008401526006015490921661012082015290850151156145b0578551602086015160c08301516145b0926001600160a01b039091169161361a565b6040850151156145db578551604086015160e08301516145db926001600160a01b039091169161361a565b50505050505050565b6001600160a01b038316600090815260016020908152604080832085845290915281208054839290614617908490615218565b9091555050604080513381526020810183905283916000916001600160a01b03871691600080516020615e6783398151915291015b60405180910390a4505050565b6000826001600160a01b0316846001600160a01b03161115614679579192915b836001600160a01b03166146b2606060ff16846001600160801b0316901b8686036001600160a01b0316866001600160a01b0316614713565b816146bf576146bf6158e3565b04949350505050565b6000826001600160a01b0316846001600160a01b031611156146e8579192915b61470b826001600160801b03168585036001600160a01b0316600160601b614713565b949350505050565b600080806000198587098587029250828110838203039150508060000361474c576000841161474157600080fd5b5082900490506108a2565b80841161475857600080fd5b6000848688096000868103871696879004966002600389028118808a02820302808a02820302808a02820302808a02820302808a02820302808a02909103029181900381900460010186841190950394909402919094039290920491909117919091029150509392505050565b60006147da6001600160a01b03841683614966565b905080516000141580156147ff5750808060200190518101906147fd9190615e2d565b155b1561364b57604051635274afe760e01b81526001600160a01b0384166004820152602401611fb7565b6001600160a01b03831660009081526001602090815260408083208584529091528120805483929061485b90849061522b565b9091555050604080513381526020810183905283916001600160a01b03861691600091600080516020615e67833981519152910161464c565b6000826001600160a01b0316846001600160a01b031611156148b4579192915b60006148d7856001600160a01b0316856001600160a01b0316600160601b614713565b905061352c6148f284838888036001600160a01b0316614713565b614974565b6000826001600160a01b0316846001600160a01b03161115614917579192915b61470b6148f283600160601b8787036001600160a01b0316614713565b60008160020b8360020b136149525761494d8383615ddd565b61495c565b61495c8284615ddd565b60020b9392505050565b60606108a28383600061498f565b806001600160801b038116811461498a57600080fd5b919050565b6060814710156149b45760405163cd78605960e01b8152306004820152602401611fb7565b600080856001600160a01b031684866040516149d09190615e4a565b60006040518083038185875af1925050503d8060008114614a0d576040519150601f19603f3d011682016040523d82523d6000602084013e614a12565b606091505b5091509150614a22868383614a2c565b9695505050505050565b606082614a4157614a3c82614a88565b6108a2565b8151158015614a5857506001600160a01b0384163b155b15614a8157604051639996b31560e01b81526001600160a01b0385166004820152602401611fb7565b50806108a2565b805115614a985780518082602001fd5b604051630a12f52160e11b815260040160405180910390fd5b6001600160a01b0381168114611fc957600080fd5b803561498a81614ab1565b60008060408385031215614ae457600080fd5b8235614aef81614ab1565b946020939093013593505050565b600060208284031215614b0f57600080fd5b81356001600160e01b0319811681146108a257600080fd5b600080600060608486031215614b3c57600080fd5b8335614b4781614ab1565b95602085013595506040909401359392505050565b60008083601f840112614b6e57600080fd5b5081356001600160401b03811115614b8557600080fd5b602083019150836020828501011115610e2157600080fd5b600080600060408486031215614bb257600080fd5b8335614bbd81614ab1565b925060208401356001600160401b03811115614bd857600080fd5b614be486828701614b5c565b9497909650939450505050565b60008060208385031215614c0457600080fd5b82356001600160401b03811115614c1a57600080fd5b614c2685828601614b5c565b90969095509350505050565b600081518084526020840193506020830160005b82811015614c64578151865260209586019590910190600101614c46565b5093949350505050565b604081526000614c816040830185614c32565b90508260208301529392505050565b8015158114611fc957600080fd5b60008060408385031215614cb157600080fd5b8235614cbc81614ab1565b91506020830135614ccc81614c90565b809150509250929050565b600080600060608486031215614cec57600080fd5b8335614cf781614ab1565b92506020840135614d0781614ab1565b929592945050506040919091013590565b60008060408385031215614d2b57600080fd5b823591506020830135614ccc81614ab1565b600081518084526020840193506020830160005b82811015614c645781516001600160a01b0316865260209586019590910190600101614d51565b604081526000614d8b6040830185614d3d565b828103602084015261352c8185614c32565b600080600080600060a08688031215614db557600080fd5b8535614dc081614ab1565b94506020860135614dd081614c90565b93506040860135614de081614ab1565b925060608601356001600160401b0381168114614dfc57600080fd5b91506080860135614e0c81614ab1565b809150509295509295909350565b600060208284031215614e2c57600080fd5b81356108a281614ab1565b634e487b7160e01b600052604160045260246000fd5b60405161014081016001600160401b0381118282101715614e7057614e70614e37565b60405290565b60405160c081016001600160401b0381118282101715614e7057614e70614e37565b604051606081016001600160401b0381118282101715614e7057614e70614e37565b604051601f8201601f191681016001600160401b0381118282101715614ee257614ee2614e37565b604052919050565b62ffffff81168114611fc957600080fd5b803561498a81614eea565b8060020b8114611fc957600080fd5b803561498a81614f06565b6000610140828403128015614f3457600080fd5b506000614f3f614e4d565b614f4884614ac6565b8152614f5660208501614ac6565b6020820152614f6760408501614efb565b6040820152614f7860608501614ac6565b6060820152614f8960808501614f15565b6080820152614f9a60a08501614f15565b60a082015260c0848101359082015260e0808501359082015261010080850135908201526101209384013593810193909352509092915050565b606081526000614fe76060830186614d3d565b8281036020840152614ff98186614c32565b915050826040830152949350505050565b6000806040838503121561501d57600080fd5b823561502881614ab1565b91506020830135614ccc81614ab1565b60008082840360e081121561504c57600080fd5b833561505781614ab1565b925060c0601f198201121561506b57600080fd5b50615074614e76565b602084013561508281614c90565b8152604084013561509281614c90565b602082015260608401356150a581614c90565b604082015260808401356150b881614c90565b606082015260a08401356150cb81614c90565b608082015260c08401356150de81614c90565b60a0820152919491935090915050565b6000806000806060858703121561510457600080fd5b843593506020850135925060408501356001600160401b0381111561512857600080fd5b61513487828801614b5c565b95989497509550505050565b60006020828403121561515257600080fd5b5035919050565b60005b8381101561517457818101518382015260200161515c565b50506000910152565b60008151808452615195816020860160208601615159565b601f01601f19169290920160200192915050565b6020815260006108a2602083018461517d565b600080600080608085870312156151d257600080fd5b84356151dd81614ab1565b935060208501356151ed81614ab1565b93969395505050506040820135916060013590565b634e487b7160e01b600052601160045260246000fd5b818103818111156107f9576107f9615202565b808201808211156107f9576107f9615202565b6001600160801b0381168114611fc957600080fd5b600060a0828403121561526557600080fd5b60405160a081016001600160401b038111828210171561528757615287614e37565b604052905080823561529881614ab1565b815260208301356152a881614ab1565b602082015260408301356152bb81614f06565b604082015260608301356152ce81614f06565b606082015260808301356152e18161523e565b6080919091015292915050565b600082601f8301126152ff57600080fd5b81356001600160401b0381111561531857615318614e37565b61532b601f8201601f1916602001614eba565b81815284602083860101111561534057600080fd5b816020850160208301376000918101602001919091529392505050565b60008060c0838503121561537057600080fd5b61537a8484615253565b915060a08301356001600160401b0381111561539557600080fd5b6153a1858286016152ee565b9150509250929050565b6001600160a01b0395861681529385166020850152919093166040830152600292830b606083015290910b608082015260a00190565b6001600160801b0382811682821603908111156107f9576107f9615202565b6001600160801b0381811683821601908111156107f9576107f9615202565b634e487b7160e01b600052603260045260246000fd5b610100810161548e828760018060a01b03815116825260018060a01b036020820151166020830152604081015160020b6040830152606081015160020b60608301526001600160801b0360808201511660808301525050565b6001600160a01b039490941660a082015260c081019290925260e090910152919050565b60008082840360e08112156154c657600080fd5b60c08112156154d457600080fd5b506154dd614e76565b83356154e881614ab1565b815260208401356154f881614ab1565b6020820152604084013561550b81614f06565b6040820152606084013561551e81614f06565b606082015260808401356155318161523e565b608082015260a08401356155448161523e565b60a0820152915060c08301356001600160401b0381111561539557600080fd5b600060e08201905060018060a01b03845116825260018060a01b036020850151166020830152604084015160020b6040830152606084015160020b60608301526001600160801b0360808501511660808301526001600160801b0360a08501511660a08301526108a260c08301846001600160a01b03169052565b600080600080608085870312156155f557600080fd5b843561560081614ab1565b9350602085013561561081614ab1565b9250604085013561562081614f06565b9150606085013561563081614f06565b939692955090935050565b805161498a81614f06565b805161ffff8116811461498a57600080fd5b600080600080600080600060e0888a03121561567357600080fd5b875161567e81614ab1565b602089015190975061568f81614f06565b955061569d60408901615646565b94506156ab60608901615646565b93506156b960808901615646565b925060a088015160ff811681146156cf57600080fd5b60c08901519092506156e081614c90565b8091505092959891949750929550565b60018060a01b03861681528460020b60208201528360020b60408201526001600160801b038316606082015260a06080820152600061573260a083018461517d565b979650505050505050565b6000806040838503121561575057600080fd5b505080516020909101519092909150565b6001600160a01b03959095168552600293840b60208601529190920b60408401526001600160801b03918216606084015216608082015260a00190565b600080604083850312156157b157600080fd5b82516157bc8161523e565b6020840151909250614ccc8161523e565b6000602082840312156157df57600080fd5b81516108a281614ab1565b60008183036080811280156157fe57600080fd5b50604080519081016001600160401b038111828210171561582157615821614e37565b604052606082121561583257600080fd5b61583a614e98565b9150833561584781614ab1565b8252602084013561585781614ab1565b6020830152604084013561586a81614eea565b604083015290815260608301359061588182614ab1565b60208101919091529392505050565b600080604083850312156158a357600080fd5b8235600381106158b257600080fd5b915060208301356001600160401b0381111561539557600080fd5b634e487b7160e01b600052602160045260246000fd5b634e487b7160e01b600052601260045260246000fd5b81516001600160a01b031681526101408101602083015161592560208401826001600160a01b03169052565b50604083015161593c604084018262ffffff169052565b50606083015161595760608401826001600160a01b03169052565b50608083015161596c608084018260020b9052565b5060a083015161598160a084018260020b9052565b5060c083015160c083015260e083015160e083015261010083015161010083015261012083015161012083015292915050565b600080600080608085870312156159ca57600080fd5b84516159d58161523e565b602086015160408701516060880151929650909450925061563081614ab1565b600080600080600060a08688031215615a0d57600080fd5b8551615a188161523e565b6020870151604088015160608901519297509095509350615a388161523e565b6080870151909250614e0c8161523e565b600060208284031215615a5b57600080fd5b81516108a281614eea565b600060c0828403128015615a7957600080fd5b50615a82614e76565b8251615a8d81614ab1565b81526020830151615a9d81614ab1565b60208201526040830151615ab081614f06565b60408201526060830151615ac381614f06565b60608201526080830151615ad68161523e565b608082015260a0830151615ae981614c90565b60a08201529392505050565b60018060a01b03815116825260018060a01b036020820151166020830152604081015160020b6040830152606081015160020b60608301526001600160801b03608082015116608083015260a0810151151560a08301525050565b6101008101615b5f8286615af5565b6001600160a01b039390931660c08201526001600160401b039190911660e090910152919050565b6001600160401b0381811683821601908111156107f9576107f9615202565b6101208101615bb58287615af5565b6001600160a01b039490941660c082015260e081019290925261010090910152919050565b60008060008060808587031215615bf057600080fd5b8451615bfb81614ab1565b6020860151909450615c0c81614ab1565b6040860151909350615c1d81614f06565b606086015190925061563081614f06565b600082601f830112615c3f57600080fd5b81516001600160401b03811115615c5857615c58614e37565b8060051b615c6860208201614eba565b91825260208185018101929081019086841115615c8457600080fd5b6020860192505b83831015614a22578251615c9e81614f06565b825260209283019290910190615c8b565b600060208284031215615cc157600080fd5b81516001600160401b03811115615cd757600080fd5b820160c08185031215615ce957600080fd5b615cf1614e76565b8151615cfc81614ab1565b81526020820151615d0c81614ab1565b60208201526040820151615d1f81614ab1565b6040820152615d306060830161563b565b6060820152615d416080830161563b565b608082015260a08201516001600160401b03811115615d5f57600080fd5b615d6b86828501615c2e565b60a083015250949350505050565b600060208284031215615d8b57600080fd5b81516108a281614f06565b60008260020b80615da957615da96158e3565b808360020b0791505092915050565b600281810b9083900b01627fffff8113627fffff19821217156107f9576107f9615202565b600282810b9082900b03627fffff198112627fffff821317156107f9576107f9615202565b80820281158282048414176107f9576107f9615202565b600082615e2857615e286158e3565b500490565b600060208284031215615e3f57600080fd5b81516108a281614c90565b60008251615e5c818460208701615159565b919091019291505056fe1b3d7edb2e9c0b0e7c525b20aaaef0f5940d2ed71663c7d39266ecafac728859a264697066735822122096fa19e5fe7685becc1acda9df6435944aae002fd7d6a545ab335031563b32e764736f6c634300081a0033","linkReferences":{}},"methodIdentifiers":{"POOL_INIT_CODE_HASH()":"dc6fd8ab","addLiquidity((address,address,uint24,address,int24,int24,uint256,uint256,uint256,uint256))":"9981bb9b","allowance(address,address,uint256)":"598af9e7","approve(address,uint256,uint256)":"426a8493","balanceOf(address,uint256)":"00fdd58e","burnPositionHandler(address,bytes)":"1575e948","donateToPosition(bytes)":"4d0b1de3","emergencyPause()":"51858e27","emergencyUnpause()":"4a4e3bd5","factory()":"c45a0155","feeReceiver()":"b3f00674","getHandlerIdentifier(bytes)":"63f558c8","hookPerms(address)":"e1b130d6","hookRegistered(address)":"9f1c8473","isOperator(address,address)":"b6363cf2","mintPositionHandler(address,bytes)":"7b3fd965","owner()":"8da5cb5b","registerHook(address,(bool,bool,bool,bool,bool,bool))":"bdab027b","renounceOwnership()":"715018a6","reserveCooldownHook(address)":"d9843c11","reservedLiquidityPerUser(uint256,address)":"5bbc4068","setOperator(address,bool)":"558a7297","supportsInterface(bytes4)":"01ffc9a7","sweepTokens(address,uint256)":"dec66036","tokenIds(uint256)":"d58778d6","tokensToPullForDonate(bytes)":"b8ea4a84","tokensToPullForMint(bytes)":"742b5fdd","tokensToPullForUnUse(bytes)":"e0f19adf","tokensToPullForWildcard(bytes)":"e88c9ffd","transfer(address,uint256,uint256)":"095bcdb6","transferFrom(address,address,uint256,uint256)":"fe99049a","transferOwnership(address)":"f2fde38b","uniswapV3MintCallback(uint256,uint256,bytes)":"d3487997","unusePositionHandler(bytes)":"2b4d93ea","updateHandlerSettings(address,bool,address,uint64,address)":"893e81ec","usePositionHandler(bytes)":"b220e470","whitelistedApps(address)":"8cf69998","wildcardHandler(address,bytes)":"eb148be4"},"id":71}