{"abi":[{"type":"constructor","inputs":[{"name":"_token0","type":"address","internalType":"address"},{"name":"_token1","type":"address","internalType":"address"},{"name":"_positionManager","type":"address","internalType":"address"},{"name":"_feeReceiver","type":"address","internalType":"address"}],"stateMutability":"nonpayable"},{"type":"function","name":"balances","inputs":[{"name":"","type":"address","internalType":"address"}],"outputs":[{"name":"","type":"uint256","internalType":"uint256"}],"stateMutability":"view"},{"type":"function","name":"burnPositionHandler","inputs":[{"name":"user","type":"address","internalType":"address"},{"name":"data","type":"bytes","internalType":"bytes"}],"outputs":[{"name":"","type":"uint256","internalType":"uint256"}],"stateMutability":"nonpayable"},{"type":"function","name":"donateToPosition","inputs":[{"name":"data","type":"bytes","internalType":"bytes"}],"outputs":[{"name":"amounts","type":"uint256[]","internalType":"uint256[]"},{"name":"liquidity","type":"uint256","internalType":"uint256"}],"stateMutability":"nonpayable"},{"type":"function","name":"feeReceiver","inputs":[],"outputs":[{"name":"","type":"address","internalType":"address"}],"stateMutability":"view"},{"type":"function","name":"getHandlerIdentifier","inputs":[{"name":"data","type":"bytes","internalType":"bytes"}],"outputs":[{"name":"","type":"uint256","internalType":"uint256"}],"stateMutability":"pure"},{"type":"function","name":"mintPositionHandler","inputs":[{"name":"user","type":"address","internalType":"address"},{"name":"data","type":"bytes","internalType":"bytes"}],"outputs":[{"name":"","type":"uint256","internalType":"uint256"}],"stateMutability":"nonpayable"},{"type":"function","name":"positionManager","inputs":[],"outputs":[{"name":"","type":"address","internalType":"address"}],"stateMutability":"view"},{"type":"function","name":"token0","inputs":[],"outputs":[{"name":"","type":"address","internalType":"address"}],"stateMutability":"view"},{"type":"function","name":"token1","inputs":[],"outputs":[{"name":"","type":"address","internalType":"address"}],"stateMutability":"view"},{"type":"function","name":"tokensToPullForDonate","inputs":[{"name":"data","type":"bytes","internalType":"bytes"}],"outputs":[{"name":"tokens","type":"address[]","internalType":"address[]"},{"name":"amounts","type":"uint256[]","internalType":"uint256[]"}],"stateMutability":"view"},{"type":"function","name":"tokensToPullForMint","inputs":[{"name":"data","type":"bytes","internalType":"bytes"}],"outputs":[{"name":"tokens","type":"address[]","internalType":"address[]"},{"name":"amounts","type":"uint256[]","internalType":"uint256[]"}],"stateMutability":"view"},{"type":"function","name":"tokensToPullForUnUse","inputs":[{"name":"data","type":"bytes","internalType":"bytes"}],"outputs":[{"name":"tokens","type":"address[]","internalType":"address[]"},{"name":"amounts","type":"uint256[]","internalType":"uint256[]"}],"stateMutability":"view"},{"type":"function","name":"tokensToPullForWildcard","inputs":[{"name":"","type":"bytes","internalType":"bytes"}],"outputs":[{"name":"tokens","type":"address[]","internalType":"address[]"},{"name":"amounts","type":"uint256[]","internalType":"uint256[]"}],"stateMutability":"view"},{"type":"function","name":"unusePositionHandler","inputs":[{"name":"data","type":"bytes","internalType":"bytes"}],"outputs":[{"name":"amounts","type":"uint256[]","internalType":"uint256[]"},{"name":"liquidity","type":"uint256","internalType":"uint256"}],"stateMutability":"nonpayable"},{"type":"function","name":"usePositionHandler","inputs":[{"name":"data","type":"bytes","internalType":"bytes"}],"outputs":[{"name":"tokens","type":"address[]","internalType":"address[]"},{"name":"amounts","type":"uint256[]","internalType":"uint256[]"},{"name":"liquidityUsed","type":"uint256","internalType":"uint256"}],"stateMutability":"nonpayable"},{"type":"function","name":"wildcardHandler","inputs":[{"name":"","type":"address","internalType":"address"},{"name":"data","type":"bytes","internalType":"bytes"}],"outputs":[{"name":"","type":"bytes","internalType":"bytes"}],"stateMutability":"pure"}],"bytecode":{"object":"0x608060405234801561001057600080fd5b5060405161167838038061167883398101604081905261002f9161009e565b600080546001600160a01b039586166001600160a01b03199182161790915560018054948616948216949094179093556002805492851692841692909217909155600380549190931691161790556100f2565b80516001600160a01b038116811461009957600080fd5b919050565b600080600080608085870312156100b457600080fd5b6100bd85610082565b93506100cb60208601610082565b92506100d960408601610082565b91506100e760608601610082565b905092959194509250565b611577806101016000396000f3fe608060405234801561001057600080fd5b50600436106101005760003560e01c80637b3fd96511610097578063d21220a711610066578063d21220a714610239578063e0f19adf1461024c578063e88c9ffd1461025f578063eb148be41461028857600080fd5b80637b3fd965146101f1578063b220e47014610204578063b3f0067414610226578063b8ea4a84146101bd57600080fd5b80634d0b1de3116100d35780634d0b1de31461019757806363f558c8146101aa578063742b5fdd146101bd578063791b98bc146101de57600080fd5b80630dfe1681146101055780631575e9481461013557806327e235e3146101565780632b4d93ea14610176575b600080fd5b600054610118906001600160a01b031681565b6040516001600160a01b0390911681526020015b60405180910390f35b6101486101433660046111ab565b6102a8565b60405190815260200161012c565b6101486101643660046111fe565b60046020526000908152604090205481565b610189610184366004611220565b61054d565b60405161012c92919061129e565b6101896101a5366004611220565b61075e565b6101486101b8366004611220565b6109a3565b6101d06101cb366004611220565b6109c7565b60405161012c9291906112fb565b600254610118906001600160a01b031681565b6101486101ff3660046111ab565b610ad8565b610217610212366004611220565b610c8c565b60405161012c93929190611329565b600354610118906001600160a01b031681565b600154610118906001600160a01b031681565b6101d061025a366004611220565b610ffb565b6101d061026d366004611220565b50506040805160008082526020820190815281830190925291565b61029b6102963660046111ab565b611105565b60405161012c919061135f565b600080806102b8848601866113ad565b600080546001600160a01b0316815260046020526040902054919350915082111561032a5760405162461bcd60e51b815260206004820152601b60248201527f496e73756666696369656e7420746f6b656e302062616c616e6365000000000060448201526064015b60405180910390fd5b6001546001600160a01b03166000908152600460205260409020548111156103945760405162461bcd60e51b815260206004820152601b60248201527f496e73756666696369656e7420746f6b656e312062616c616e636500000000006044820152606401610321565b600080546001600160a01b0316815260046020526040812080548492906103bc9084906113e5565b90915550506001546001600160a01b0316600090815260046020526040812080548392906103eb9084906113e5565b909155505060005460405163a9059cbb60e01b81526001600160a01b038881166004830152602482018590529091169063a9059cbb906044016020604051808303816000875af1158015610443573d6000803e3d6000fd5b505050506040513d601f19601f8201168201806040525081019061046791906113f8565b6104835760405162461bcd60e51b81526004016103219061141a565b60015460405163a9059cbb60e01b81526001600160a01b038881166004830152602482018490529091169063a9059cbb906044016020604051808303816000875af11580156104d6573d6000803e3d6000fd5b505050506040513d601f19601f820116820180604052508101906104fa91906113f8565b6105165760405162461bcd60e51b815260040161032190611451565b85858560405160200161052b93929190611488565b60408051601f1981840301815291905280516020909101209695505050505050565b606060008061055e848601866114b4565b6000546002546040516323b872dd60e01b81529293506001600160a01b03918216926323b872dd92610598921690309086906004016114cd565b6020604051808303816000875af11580156105b7573d6000803e3d6000fd5b505050506040513d601f19601f820116820180604052508101906105db91906113f8565b6105f75760405162461bcd60e51b81526004016103219061141a565b6001546002546040516323b872dd60e01b81526001600160a01b03928316926323b872dd9261062f92911690309086906004016114cd565b6020604051808303816000875af115801561064e573d6000803e3d6000fd5b505050506040513d601f19601f8201168201806040525081019061067291906113f8565b61068e5760405162461bcd60e51b815260040161032190611451565b600080546001600160a01b0316815260046020526040812080548392906106b69084906114f1565b90915550506001546001600160a01b0316600090815260046020526040812080548392906106e59084906114f1565b90915550506040805160028082526060820183529091602083019080368337019050509250808360008151811061071e5761071e611504565b602002602001018181525050808360018151811061073e5761073e611504565b602090810291909101015261075481600261151a565b9150509250929050565b606060008080610770858701876113ad565b6000546002546003546040516323b872dd60e01b81529496509294506001600160a01b03918216936323b872dd936107b29392831692169087906004016114cd565b6020604051808303816000875af11580156107d1573d6000803e3d6000fd5b505050506040513d601f19601f820116820180604052508101906107f591906113f8565b6108525760405162461bcd60e51b815260206004820152602860248201527f5472616e73666572206f6620746f6b656e3020746f20666565526563656976656044820152671c8819985a5b195960c21b6064820152608401610321565b6001546002546003546040516323b872dd60e01b81526001600160a01b03938416936323b872dd9361088f939082169291169086906004016114cd565b6020604051808303816000875af11580156108ae573d6000803e3d6000fd5b505050506040513d601f19601f820116820180604052508101906108d291906113f8565b61092f5760405162461bcd60e51b815260206004820152602860248201527f5472616e73666572206f6620746f6b656e3120746f20666565526563656976656044820152671c8819985a5b195960c21b6064820152608401610321565b6040805160028082526060820183529091602083019080368337019050509350818460008151811061096357610963611504565b602002602001018181525050808460018151811061098357610983611504565b602090810291909101015261099881836114f1565b925050509250929050565b600082826040516109b5929190611531565b60405190819003902090505b92915050565b6060806000806109d9858701876113ad565b60408051600280825260608201909252929450909250816020016020820280368337505060408051600280825260608201835293975092915060208301908036833750506000805487519396506001600160a01b031692879250610a3f57610a3f611504565b6001600160a01b0392831660209182029290920101526001805486519216918691908110610a6f57610a6f611504565b60200260200101906001600160a01b031690816001600160a01b0316815250508183600081518110610aa357610aa3611504565b6020026020010181815250508083600181518110610ac357610ac3611504565b60200260200101818152505050509250929050565b60008080610ae8848601866113ad565b6000546002546040516323b872dd60e01b81529395509193506001600160a01b03908116926323b872dd92610b25921690309087906004016114cd565b6020604051808303816000875af1158015610b44573d6000803e3d6000fd5b505050506040513d601f19601f82011682018060405250810190610b6891906113f8565b610b845760405162461bcd60e51b81526004016103219061141a565b6001546002546040516323b872dd60e01b81526001600160a01b03928316926323b872dd92610bbc92911690309086906004016114cd565b6020604051808303816000875af1158015610bdb573d6000803e3d6000fd5b505050506040513d601f19601f82011682018060405250810190610bff91906113f8565b610c1b5760405162461bcd60e51b815260040161032190611451565b600080546001600160a01b031681526004602052604081208054849290610c439084906114f1565b90915550506001546001600160a01b031660009081526004602052604081208054839290610c729084906114f1565b909155505060405161052b90879087908790602001611488565b606080600080610c9e858701876114b4565b600080546001600160a01b0316815260046020526040902054909150811115610d095760405162461bcd60e51b815260206004820152601b60248201527f496e73756666696369656e7420746f6b656e302062616c616e636500000000006044820152606401610321565b6001546001600160a01b0316600090815260046020526040902054811115610d735760405162461bcd60e51b815260206004820152601b60248201527f496e73756666696369656e7420746f6b656e312062616c616e636500000000006044820152606401610321565b600080546001600160a01b031681526004602052604081208054839290610d9b9084906113e5565b90915550506001546001600160a01b031660009081526004602052604081208054839290610dca9084906113e5565b909155505060005460025460405163a9059cbb60e01b81526001600160a01b0391821660048201526024810184905291169063a9059cbb906044016020604051808303816000875af1158015610e24573d6000803e3d6000fd5b505050506040513d601f19601f82011682018060405250810190610e4891906113f8565b610e645760405162461bcd60e51b81526004016103219061141a565b60015460025460405163a9059cbb60e01b81526001600160a01b0391821660048201526024810184905291169063a9059cbb906044016020604051808303816000875af1158015610eb9573d6000803e3d6000fd5b505050506040513d601f19601f82011682018060405250810190610edd91906113f8565b610ef95760405162461bcd60e51b815260040161032190611451565b6040805160028082526060820183529091602083019080368337505060408051600280825260608201835293975092915060208301908036833750506000805487519396506001600160a01b031692879250610f5757610f57611504565b6001600160a01b0392831660209182029290920101526001805486519216918691908110610f8757610f87611504565b60200260200101906001600160a01b031690816001600160a01b0316815250508083600081518110610fbb57610fbb611504565b6020026020010181815250508083600181518110610fdb57610fdb611504565b6020908102919091010152610ff181600261151a565b9150509250925092565b606080600061100c848601866114b4565b6040805160028082526060820183529293509190602083019080368337505060408051600280825260608201835293965092915060208301908036833750506000805486519395506001600160a01b03169286925061106d5761106d611504565b6001600160a01b039283166020918202929092010152600180548551921691859190811061109d5761109d611504565b60200260200101906001600160a01b031690816001600160a01b03168152505080826000815181106110d1576110d1611504565b60200260200101818152505080826001815181106110f1576110f1611504565b602002602001018181525050509250929050565b606082828080601f01602080910402602001604051908101604052809392919081815260200183838082843760009201919091525092979650505050505050565b80356001600160a01b038116811461115d57600080fd5b919050565b60008083601f84011261117457600080fd5b50813567ffffffffffffffff81111561118c57600080fd5b6020830191508360208285010111156111a457600080fd5b9250929050565b6000806000604084860312156111c057600080fd5b6111c984611146565b9250602084013567ffffffffffffffff8111156111e557600080fd5b6111f186828701611162565b9497909650939450505050565b60006020828403121561121057600080fd5b61121982611146565b9392505050565b6000806020838503121561123357600080fd5b823567ffffffffffffffff81111561124a57600080fd5b61125685828601611162565b90969095509350505050565b600081518084526020840193506020830160005b82811015611294578151865260209586019590910190600101611276565b5093949350505050565b6040815260006112b16040830185611262565b90508260208301529392505050565b600081518084526020840193506020830160005b828110156112945781516001600160a01b03168652602095860195909101906001016112d4565b60408152600061130e60408301856112c0565b82810360208401526113208185611262565b95945050505050565b60608152600061133c60608301866112c0565b828103602084015261134e8186611262565b915050826040830152949350505050565b602081526000825180602084015260005b8181101561138d5760208186018101516040868401015201611370565b506000604082850101526040601f19601f83011684010191505092915050565b600080604083850312156113c057600080fd5b50508035926020909101359150565b634e487b7160e01b600052601160045260246000fd5b818103818111156109c1576109c16113cf565b60006020828403121561140a57600080fd5b8151801515811461121957600080fd5b60208082526019908201527f5472616e73666572206f6620746f6b656e30206661696c656400000000000000604082015260600190565b60208082526019908201527f5472616e73666572206f6620746f6b656e31206661696c656400000000000000604082015260600190565b6bffffffffffffffffffffffff198460601b168152818360148301376000910160140190815292915050565b6000602082840312156114c657600080fd5b5035919050565b6001600160a01b039384168152919092166020820152604081019190915260600190565b808201808211156109c1576109c16113cf565b634e487b7160e01b600052603260045260246000fd5b80820281158282048414176109c1576109c16113cf565b818382376000910190815291905056fea2646970667358221220ec0bf080d81c932730bc711aca1e7c12f859b3697cc7298d566792673deae7f264736f6c634300081a0033","linkReferences":{}},"methodIdentifiers":{"balances(address)":"27e235e3","burnPositionHandler(address,bytes)":"1575e948","donateToPosition(bytes)":"4d0b1de3","feeReceiver()":"b3f00674","getHandlerIdentifier(bytes)":"63f558c8","mintPositionHandler(address,bytes)":"7b3fd965","positionManager()":"791b98bc","token0()":"0dfe1681","token1()":"d21220a7","tokensToPullForDonate(bytes)":"b8ea4a84","tokensToPullForMint(bytes)":"742b5fdd","tokensToPullForUnUse(bytes)":"e0f19adf","tokensToPullForWildcard(bytes)":"e88c9ffd","unusePositionHandler(bytes)":"2b4d93ea","usePositionHandler(bytes)":"b220e470","wildcardHandler(address,bytes)":"eb148be4"},"id":81}