{"abi":[{"type":"constructor","inputs":[{"name":"_sr","type":"address","internalType":"address"}],"stateMutability":"nonpayable"},{"type":"function","name":"onSwapReceived","inputs":[{"name":"_tokenIn","type":"address","internalType":"address"},{"name":"_tokenOut","type":"address","internalType":"address"},{"name":"_amountIn","type":"uint256","internalType":"uint256"},{"name":"_swapData","type":"bytes","internalType":"bytes"}],"outputs":[{"name":"amountOut","type":"uint256","internalType":"uint256"}],"stateMutability":"nonpayable"},{"type":"function","name":"sr","inputs":[],"outputs":[{"name":"","type":"address","internalType":"contract ISwapRouter"}],"stateMutability":"view"},{"type":"error","name":"AddressEmptyCode","inputs":[{"name":"target","type":"address","internalType":"address"}]},{"type":"error","name":"AddressInsufficientBalance","inputs":[{"name":"account","type":"address","internalType":"address"}]},{"type":"error","name":"FailedInnerCall","inputs":[]},{"type":"error","name":"SafeERC20FailedOperation","inputs":[{"name":"token","type":"address","internalType":"address"}]}],"bytecode":{"object":"0x60a0604052348015600f57600080fd5b5060405161087b38038061087b833981016040819052602c91603c565b6001600160a01b0316608052606a565b600060208284031215604d57600080fd5b81516001600160a01b0381168114606357600080fd5b9392505050565b6080516107ea6100916000396000818160400152818160cd015261014b01526107ea6000f3fe608060405234801561001057600080fd5b50600436106100365760003560e01c8063df791d801461003b578063f3be6fc21461007f575b600080fd5b6100627f000000000000000000000000000000000000000000000000000000000000000081565b6040516001600160a01b0390911681526020015b60405180910390f35b61009261008d366004610592565b6100a0565b604051908152602001610076565b6000806000838060200190518101906100b99190610676565b90925090506100f26001600160a01b0388167f0000000000000000000000000000000000000000000000000000000000000000876101ce565b60408051610100810182526001600160a01b038981168252888116602083015262ffffff85168284015233606083015242608083015260a0820188905260c08201849052600060e0830152915163414bf38960e01b81527f00000000000000000000000000000000000000000000000000000000000000009092169163414bf38991610180916004016106ac565b6020604051808303816000875af115801561019f573d6000803e3d6000fd5b505050506040513d601f19601f820116820180604052508101906101c39190610729565b979650505050505050565b604051636eb1769f60e11b81523060048201526001600160a01b0383811660248301526000919085169063dd62ed3e90604401602060405180830381865afa15801561021e573d6000803e3d6000fd5b505050506040513d601f19601f820116820180604052508101906102429190610729565b905061025884846102538585610742565b61025e565b50505050565b604080516001600160a01b038416602482015260448082018490528251808303909101815260649091019091526020810180516001600160e01b031663095ea7b360e01b1790526102af8482610312565b61025857604080516001600160a01b038516602482015260006044808301919091528251808303909101815260649091019091526020810180516001600160e01b031663095ea7b360e01b1790526103089085906103bc565b61025884826103bc565b6000806000846001600160a01b03168460405161032f9190610763565b6000604051808303816000865af19150503d806000811461036c576040519150601f19603f3d011682016040523d82523d6000602084013e610371565b606091505b509150915081801561039b57508051158061039b57508080602001905181019061039b9190610792565b80156103b157506000856001600160a01b03163b115b925050505b92915050565b60006103d16001600160a01b03841683610429565b905080516000141580156103f65750808060200190518101906103f49190610792565b155b1561042457604051635274afe760e01b81526001600160a01b03841660048201526024015b60405180910390fd5b505050565b60606104378383600061043e565b9392505050565b6060814710156104635760405163cd78605960e01b815230600482015260240161041b565b600080856001600160a01b0316848660405161047f9190610763565b60006040518083038185875af1925050503d80600081146104bc576040519150601f19603f3d011682016040523d82523d6000602084013e6104c1565b606091505b50915091506104d18683836104db565b9695505050505050565b6060826104f0576104eb82610537565b610437565b815115801561050757506001600160a01b0384163b155b1561053057604051639996b31560e01b81526001600160a01b038516600482015260240161041b565b5080610437565b8051156105475780518082602001fd5b604051630a12f52160e11b815260040160405180910390fd5b80356001600160a01b038116811461057757600080fd5b919050565b634e487b7160e01b600052604160045260246000fd5b600080600080608085870312156105a857600080fd5b6105b185610560565b93506105bf60208601610560565b925060408501359150606085013567ffffffffffffffff8111156105e257600080fd5b8501601f810187136105f357600080fd5b803567ffffffffffffffff81111561060d5761060d61057c565b604051601f8201601f19908116603f0116810167ffffffffffffffff8111828210171561063c5761063c61057c565b60405281815282820160200189101561065457600080fd5b8160208401602083013760006020838301015280935050505092959194509250565b6000806040838503121561068957600080fd5b825162ffffff8116811461069c57600080fd5b6020939093015192949293505050565b81516001600160a01b03908116825260208084015182169083015260408084015162ffffff169083015260608084015191821690830152610100820190506080830151608083015260a083015160a083015260c083015160c083015260e083015161072260e08401826001600160a01b03169052565b5092915050565b60006020828403121561073b57600080fd5b5051919050565b808201808211156103b657634e487b7160e01b600052601160045260246000fd5b6000825160005b81811015610784576020818601810151858301520161076a565b506000920191825250919050565b6000602082840312156107a457600080fd5b8151801515811461043757600080fdfea264697066735822122056bdc0f412806813bf56228f84d1c8ca82ab1f81b60e348d0fa7e988830a181064736f6c634300081a0033","linkReferences":{}},"methodIdentifiers":{"onSwapReceived(address,address,uint256,bytes)":"f3be6fc2","sr()":"df791d80"},"id":91}