{"abi":[{"type":"constructor","inputs":[{"name":"owner","type":"address","internalType":"address"}],"stateMutability":"nonpayable"},{"type":"function","name":"burnPosition","inputs":[{"name":"_handler","type":"address","internalType":"contract IHandler"},{"name":"_burnPositionData","type":"bytes","internalType":"bytes"}],"outputs":[{"name":"sharesBurned","type":"uint256","internalType":"uint256"}],"stateMutability":"nonpayable"},{"type":"function","name":"donateToPosition","inputs":[{"name":"_handler","type":"address","internalType":"contract IHandler"},{"name":"_donatePosition","type":"bytes","internalType":"bytes"}],"outputs":[{"name":"amounts","type":"uint256[]","internalType":"uint256[]"},{"name":"liquidity","type":"uint256","internalType":"uint256"}],"stateMutability":"nonpayable"},{"type":"function","name":"mintPosition","inputs":[{"name":"_handler","type":"address","internalType":"contract IHandler"},{"name":"_mintPositionData","type":"bytes","internalType":"bytes"}],"outputs":[{"name":"sharesMinted","type":"uint256","internalType":"uint256"}],"stateMutability":"nonpayable"},{"type":"function","name":"multicall","inputs":[{"name":"data","type":"bytes[]","internalType":"bytes[]"}],"outputs":[{"name":"results","type":"bytes[]","internalType":"bytes[]"}],"stateMutability":"nonpayable"},{"type":"function","name":"owner","inputs":[],"outputs":[{"name":"","type":"address","internalType":"address"}],"stateMutability":"view"},{"type":"function","name":"renounceOwnership","inputs":[],"outputs":[],"stateMutability":"nonpayable"},{"type":"function","name":"sweepTokens","inputs":[{"name":"_token","type":"address","internalType":"address"},{"name":"_amount","type":"uint256","internalType":"uint256"}],"outputs":[],"stateMutability":"nonpayable"},{"type":"function","name":"transferOwnership","inputs":[{"name":"newOwner","type":"address","internalType":"address"}],"outputs":[],"stateMutability":"nonpayable"},{"type":"function","name":"unusePosition","inputs":[{"name":"_handler","type":"address","internalType":"contract IHandler"},{"name":"_unusePositionData","type":"bytes","internalType":"bytes"}],"outputs":[{"name":"amounts","type":"uint256[]","internalType":"uint256[]"},{"name":"liquidity","type":"uint256","internalType":"uint256"}],"stateMutability":"nonpayable"},{"type":"function","name":"updateWhitelistHandler","inputs":[{"name":"_handler","type":"address","internalType":"address"},{"name":"_status","type":"bool","internalType":"bool"}],"outputs":[],"stateMutability":"nonpayable"},{"type":"function","name":"updateWhitelistHandlerWithApp","inputs":[{"name":"_handler","type":"address","internalType":"address"},{"name":"_app","type":"address","internalType":"address"},{"name":"_status","type":"bool","internalType":"bool"}],"outputs":[],"stateMutability":"nonpayable"},{"type":"function","name":"usePosition","inputs":[{"name":"_handler","type":"address","internalType":"contract IHandler"},{"name":"_usePositionData","type":"bytes","internalType":"bytes"}],"outputs":[{"name":"tokens","type":"address[]","internalType":"address[]"},{"name":"amounts","type":"uint256[]","internalType":"uint256[]"},{"name":"liquidityUsed","type":"uint256","internalType":"uint256"}],"stateMutability":"nonpayable"},{"type":"function","name":"whitelistedHandlers","inputs":[{"name":"","type":"address","internalType":"address"}],"outputs":[{"name":"","type":"bool","internalType":"bool"}],"stateMutability":"view"},{"type":"function","name":"whitelistedHandlersWithApp","inputs":[{"name":"","type":"bytes32","internalType":"bytes32"}],"outputs":[{"name":"","type":"bool","internalType":"bool"}],"stateMutability":"view"},{"type":"function","name":"wildcard","inputs":[{"name":"_handler","type":"address","internalType":"contract IHandler"},{"name":"_wildcardData","type":"bytes","internalType":"bytes"}],"outputs":[{"name":"wildcardRetData","type":"bytes","internalType":"bytes"}],"stateMutability":"nonpayable"},{"type":"event","name":"LogBurnPosition","inputs":[{"name":"_handler","type":"address","indexed":false,"internalType":"contract IHandler"},{"name":"tokenId","type":"uint256","indexed":false,"internalType":"uint256"},{"name":"user","type":"address","indexed":false,"internalType":"address"},{"name":"sharesBurned","type":"uint256","indexed":false,"internalType":"uint256"}],"anonymous":false},{"type":"event","name":"LogDonation","inputs":[{"name":"_handler","type":"address","indexed":false,"internalType":"contract IHandler"},{"name":"liquidityDonated","type":"uint256","indexed":false,"internalType":"uint256"}],"anonymous":false},{"type":"event","name":"LogMintPosition","inputs":[{"name":"_handler","type":"address","indexed":false,"internalType":"contract IHandler"},{"name":"tokenId","type":"uint256","indexed":false,"internalType":"uint256"},{"name":"user","type":"address","indexed":false,"internalType":"address"},{"name":"sharesMinted","type":"uint256","indexed":false,"internalType":"uint256"}],"anonymous":false},{"type":"event","name":"LogUnusePosition","inputs":[{"name":"_handler","type":"address","indexed":false,"internalType":"contract IHandler"},{"name":"liquidityUnused","type":"uint256","indexed":false,"internalType":"uint256"}],"anonymous":false},{"type":"event","name":"LogUpdateWhitelistHandler","inputs":[{"name":"_handler","type":"address","indexed":false,"internalType":"address"},{"name":"_status","type":"bool","indexed":false,"internalType":"bool"}],"anonymous":false},{"type":"event","name":"LogUpdateWhitelistHandlerWithApp","inputs":[{"name":"_handler","type":"address","indexed":false,"internalType":"address"},{"name":"_app","type":"address","indexed":false,"internalType":"address"},{"name":"_status","type":"bool","indexed":false,"internalType":"bool"}],"anonymous":false},{"type":"event","name":"LogUsePosition","inputs":[{"name":"_handler","type":"address","indexed":false,"internalType":"contract IHandler"},{"name":"liquidityUsed","type":"uint256","indexed":false,"internalType":"uint256"}],"anonymous":false},{"type":"event","name":"LogWildcard","inputs":[{"name":"_handler","type":"address","indexed":false,"internalType":"contract IHandler"}],"anonymous":false},{"type":"event","name":"OwnershipTransferred","inputs":[{"name":"previousOwner","type":"address","indexed":true,"internalType":"address"},{"name":"newOwner","type":"address","indexed":true,"internalType":"address"}],"anonymous":false},{"type":"error","name":"AddressEmptyCode","inputs":[{"name":"target","type":"address","internalType":"address"}]},{"type":"error","name":"AddressInsufficientBalance","inputs":[{"name":"account","type":"address","internalType":"address"}]},{"type":"error","name":"FailedInnerCall","inputs":[]},{"type":"error","name":"OwnableInvalidOwner","inputs":[{"name":"owner","type":"address","internalType":"address"}]},{"type":"error","name":"OwnableUnauthorizedAccount","inputs":[{"name":"account","type":"address","internalType":"address"}]},{"type":"error","name":"PositionManager__NotWhitelistedApp","inputs":[]},{"type":"error","name":"PositionManager__NotWhitelistedHandler","inputs":[]},{"type":"error","name":"ReentrancyGuardReentrantCall","inputs":[]},{"type":"error","name":"SafeERC20FailedOperation","inputs":[{"name":"token","type":"address","internalType":"address"}]}],"bytecode":{"object":"0x608060405234801561001057600080fd5b50604051611f87380380611f8783398101604081905261002f916100c2565b806001600160a01b03811661005e57604051631e4fbdf760e01b81526000600482015260240160405180910390fd5b61006781610072565b5050600180556100f2565b600080546001600160a01b038381166001600160a01b0319831681178455604051919092169283917f8be0079c531659141344cd1fd0a4f28419497f9722a3daafe3b4186f6b6457e09190a35050565b6000602082840312156100d457600080fd5b81516001600160a01b03811681146100eb57600080fd5b9392505050565b611e86806101016000396000f3fe608060405234801561001057600080fd5b50600436106100f55760003560e01c8063ac9650d811610097578063e54b89b311610066578063e54b89b314610227578063e7bcda4c14610248578063f2fde38b1461026a578063f960226c1461027d57600080fd5b8063ac9650d8146101c1578063b89497fa146101e1578063d5256ca314610201578063dec660361461021457600080fd5b8063715018a6116100d3578063715018a61461015a5780637f541a7e146101625780638da5cb5b146101855780639d297b60146101a057600080fd5b806305d293e9146100fa578063363000511461010f5780635ab70f5614610147575b600080fd5b61010d61010836600461168a565b610290565b005b61013261011d3660046116c3565b60036020526000908152604090205460ff1681565b60405190151581526020015b60405180910390f35b61010d6101553660046116e0565b6102fb565b61010d6103b8565b61013261017036600461172b565b60026020526000908152604090205460ff1681565b6000546040516001600160a01b03909116815260200161013e565b6101b36101ae366004611744565b6103cc565b60405161013e929190611805565b6101d46101cf366004611827565b610642565b60405161013e91906118ec565b6101f46101ef366004611744565b61072a565b60405161013e9190611951565b6101b361020f366004611744565b61091d565b61010d610222366004611964565b610b39565b61023a610235366004611744565b610b59565b60405190815260200161013e565b61025b610256366004611744565b610ce1565b60405161013e93929190611990565b61010d6102783660046116c3565b610ea4565b61023a61028b366004611744565b610ee7565b610298611154565b6001600160a01b038216600081815260036020908152604091829020805460ff19168515159081179091558251938452908301527f48fd1bb994f7f5d40a6f2e8e4b9d8060239dc6e26f0ad2be628f9ac597e07b71910160405180910390a15050565b610303611154565b806002600085856040516020016103309291906001600160a01b0392831681529116602082015260400190565b60408051808303601f190181529181528151602092830120835282820193909352908201600020805460ff19169315159390931790925580516001600160a01b038681168252851692810192909252821515908201527fdb7869e7b3ce14388c8d68c7590a2ec6f7cc0a26d12c7c3c58e1927c7520e2649060600160405180910390a1505050565b6103c0611154565b6103ca6000611181565b565b60606000846002600082336040516020016103fd9291906001600160a01b0392831681529116602082015260400190565b60408051601f198184030181529181528151602092830120835290820192909252016000205460ff16610443576040516316cbe78760e11b815260040160405180910390fd5b61044b6111d1565b600080876001600160a01b031663b8ea4a8488886040518363ffffffff1660e01b815260040161047c929190611a22565b600060405180830381865afa158015610499573d6000803e3d6000fd5b505050506040513d6000823e601f3d908101601f191682016040526104c19190810190611b7b565b915091506000805b835181101561056e578281815181106104e4576104e4611be2565b60200260200101519150816000146105665761052f33308487858151811061050e5761050e611be2565b60200260200101516001600160a01b03166111fb909392919063ffffffff16565b6105668a8386848151811061054657610546611be2565b60200260200101516001600160a01b03166112689092919063ffffffff16565b6001016104c9565b50604051634d0b1de360e01b81526001600160a01b038a1690634d0b1de39061059d908b908b90600401611a22565b6000604051808303816000875af11580156105bc573d6000803e3d6000fd5b505050506040513d6000823e601f3d908101601f191682016040526105e49190810190611bf8565b604080516001600160a01b038d168152602081018390529298509096507f615b82d09530cb171fb9954512b751ee6d5197d08431b056ca6e8c3d8aca681191015b60405180910390a150505061063960018055565b50935093915050565b604080516000815260208101909152606090826001600160401b0381111561066c5761066c611a3e565b60405190808252806020026020018201604052801561069f57816020015b606081526020019060019003908161068a5790505b50915060005b83811015610721576106fc308686848181106106c3576106c3611be2565b90506020028101906106d59190611c54565b856040516020016106e893929190611ca1565b6040516020818303038152906040526112f2565b83828151811061070e5761070e611be2565b60209081029190910101526001016106a5565b50505b92915050565b6001600160a01b038316600090815260036020526040902054606090849060ff166107685760405163731aec8960e11b815260040160405180910390fd5b6107706111d1565b600080866001600160a01b031663e88c9ffd87876040518363ffffffff1660e01b81526004016107a1929190611a22565b600060405180830381865afa1580156107be573d6000803e3d6000fd5b505050506040513d6000823e601f3d908101601f191682016040526107e69190810190611b7b565b915091506000805b83518110156108525782818151811061080957610809611be2565b602002602001015191508160001461084a5761083333308487858151811061050e5761050e611be2565b61084a898386848151811061054657610546611be2565b6001016107ee565b50604051633ac522f960e21b81526001600160a01b0389169063eb148be4906108839033908b908b90600401611cc8565b6000604051808303816000875af11580156108a2573d6000803e3d6000fd5b505050506040513d6000823e601f3d908101601f191682016040526108ca9190810190611ced565b6040516001600160a01b038a1681529095507f8559e2e13212c0eceff1931d9e2f9c9a9401370a4dc1239e95439945cd775ac79060200160405180910390a150505061091560018055565b509392505050565b606060008460026000823360405160200161094e9291906001600160a01b0392831681529116602082015260400190565b60408051601f198184030181529181528151602092830120835290820192909252016000205460ff16610994576040516316cbe78760e11b815260040160405180910390fd5b61099c6111d1565b600080876001600160a01b031663e0f19adf88886040518363ffffffff1660e01b81526004016109cd929190611a22565b600060405180830381865afa1580156109ea573d6000803e3d6000fd5b505050506040513d6000823e601f3d908101601f19168201604052610a129190810190611b7b565b915091506000805b8351811015610a7e57828181518110610a3557610a35611be2565b6020026020010151915081600014610a7657610a5f33308487858151811061050e5761050e611be2565b610a768a8386848151811061054657610546611be2565b600101610a1a565b506040516315a6c9f560e11b81526001600160a01b038a1690632b4d93ea90610aad908b908b90600401611a22565b6000604051808303816000875af1158015610acc573d6000803e3d6000fd5b505050506040513d6000823e601f3d908101601f19168201604052610af49190810190611bf8565b604080516001600160a01b038d168152602081018390529298509096507fa904e206451b4cf70118a8d8de5262c854b7f410c531a11d1b9cae3963df4c729101610625565b610b41611154565b610b556001600160a01b0383163383611368565b5050565b6001600160a01b038316600090815260036020526040812054849060ff16610b945760405163731aec8960e11b815260040160405180910390fd5b610b9c6111d1565b604051630c7eab1960e31b81526000906001600160a01b038716906363f558c890610bcd9088908890600401611a22565b602060405180830381865afa158015610bea573d6000803e3d6000fd5b505050506040513d601f19601f82011682018060405250810190610c0e9190611d78565b6040516302aebd2960e31b81529091506001600160a01b03871690631575e94890610c4190339089908990600401611cc8565b6020604051808303816000875af1158015610c60573d6000803e3d6000fd5b505050506040513d601f19601f82011682018060405250810190610c849190611d78565b604080516001600160a01b03891681526020810184905233818301526060810183905290519194507f8577627db3a9f2f61b18276503ba52e3c40082e7961f7b2dbd8ee51dac2d0458919081900360800190a15061091560018055565b606080600085600260008233604051602001610d139291906001600160a01b0392831681529116602082015260400190565b60408051601f198184030181529181528151602092830120835290820192909252016000205460ff16610d59576040516316cbe78760e11b815260040160405180910390fd5b610d616111d1565b604051630b220e4760e41b81526001600160a01b0388169063b220e47090610d8f9089908990600401611a22565b6000604051808303816000875af1158015610dae573d6000803e3d6000fd5b505050506040513d6000823e601f3d908101601f19168201604052610dd69190810190611d91565b919550935091506000805b8551811015610e4d57848181518110610dfc57610dfc611be2565b6020026020010151915081600014610e4557610e453383888481518110610e2557610e25611be2565b60200260200101516001600160a01b03166113689092919063ffffffff16565b600101610de1565b50604080516001600160a01b038a168152602081018590527f44ae980d119b4b6cb308fd614f06a80a2e8c8b52c574d28ea5f3590611d19c48910160405180910390a150610e9a60018055565b5093509350939050565b610eac611154565b6001600160a01b038116610edb57604051631e4fbdf760e01b8152600060048201526024015b60405180910390fd5b610ee481611181565b50565b6001600160a01b038316600090815260036020526040812054849060ff16610f225760405163731aec8960e11b815260040160405180910390fd5b610f2a6111d1565b604051630c7eab1960e31b81526000906001600160a01b038716906363f558c890610f5b9088908890600401611a22565b602060405180830381865afa158015610f78573d6000803e3d6000fd5b505050506040513d601f19601f82011682018060405250810190610f9c9190611d78565b9050600080876001600160a01b031663742b5fdd88886040518363ffffffff1660e01b8152600401610fcf929190611a22565b600060405180830381865afa158015610fec573d6000803e3d6000fd5b505050506040513d6000823e601f3d908101601f191682016040526110149190810190611b7b565b915091506000805b83518110156110805782818151811061103757611037611be2565b60200260200101519150816000146110785761106133308487858151811061050e5761050e611be2565b6110788a8386848151811061054657610546611be2565b60010161101c565b50604051637b3fd96560e01b81526001600160a01b038a1690637b3fd965906110b19033908c908c90600401611cc8565b6020604051808303816000875af11580156110d0573d6000803e3d6000fd5b505050506040513d601f19601f820116820180604052508101906110f49190611d78565b604080516001600160a01b038c1681526020810187905233818301526060810183905290519197507f7d382e6b0706c98d28b2e81b67286e0fea9b2af3ea216ea9917f2aa2814ac38b919081900360800190a15050505061091560018055565b6000546001600160a01b031633146103ca5760405163118cdaa760e01b8152336004820152602401610ed2565b600080546001600160a01b038381166001600160a01b0319831681178455604051919092169283917f8be0079c531659141344cd1fd0a4f28419497f9722a3daafe3b4186f6b6457e09190a35050565b6002600154036111f457604051633ee5aeb560e01b815260040160405180910390fd5b6002600155565b6040516001600160a01b0384811660248301528381166044830152606482018390526112629186918216906323b872dd906084015b604051602081830303815290604052915060e01b6020820180516001600160e01b03838183161783525050505061139e565b50505050565b604051636eb1769f60e11b81523060048201526001600160a01b0383811660248301526000919085169063dd62ed3e90604401602060405180830381865afa1580156112b8573d6000803e3d6000fd5b505050506040513d601f19601f820116820180604052508101906112dc9190611d78565b905061126284846112ed8585611e04565b611401565b6060600080846001600160a01b03168460405161130f9190611e17565b600060405180830381855af49150503d806000811461134a576040519150601f19603f3d011682016040523d82523d6000602084013e61134f565b606091505b509150915061135f858383611491565b95945050505050565b6040516001600160a01b0383811660248301526044820183905261139991859182169063a9059cbb90606401611230565b505050565b60006113b36001600160a01b038416836114f0565b905080516000141580156113d85750808060200190518101906113d69190611e33565b155b1561139957604051635274afe760e01b81526001600160a01b0384166004820152602401610ed2565b604080516001600160a01b038416602482015260448082018490528251808303909101815260649091019091526020810180516001600160e01b031663095ea7b360e01b17905261145284826114fe565b611262576040516001600160a01b0384811660248301526000604483015261148791869182169063095ea7b390606401611230565b611262848261139e565b6060826114a6576114a1826115a1565b6114e9565b81511580156114bd57506001600160a01b0384163b155b156114e657604051639996b31560e01b81526001600160a01b0385166004820152602401610ed2565b50805b9392505050565b60606114e9838360006115ca565b6000806000846001600160a01b03168460405161151b9190611e17565b6000604051808303816000865af19150503d8060008114611558576040519150601f19603f3d011682016040523d82523d6000602084013e61155d565b606091505b50915091508180156115875750805115806115875750808060200190518101906115879190611e33565b801561135f5750505050506001600160a01b03163b151590565b8051156115b15780518082602001fd5b604051630a12f52160e11b815260040160405180910390fd5b6060814710156115ef5760405163cd78605960e01b8152306004820152602401610ed2565b600080856001600160a01b0316848660405161160b9190611e17565b60006040518083038185875af1925050503d8060008114611648576040519150601f19603f3d011682016040523d82523d6000602084013e61164d565b606091505b509150915061165d868383611491565b9695505050505050565b6001600160a01b0381168114610ee457600080fd5b8015158114610ee457600080fd5b6000806040838503121561169d57600080fd5b82356116a881611667565b915060208301356116b88161167c565b809150509250929050565b6000602082840312156116d557600080fd5b81356114e981611667565b6000806000606084860312156116f557600080fd5b833561170081611667565b9250602084013561171081611667565b915060408401356117208161167c565b809150509250925092565b60006020828403121561173d57600080fd5b5035919050565b60008060006040848603121561175957600080fd5b833561176481611667565b925060208401356001600160401b0381111561177f57600080fd5b8401601f8101861361179057600080fd5b80356001600160401b038111156117a657600080fd5b8660208284010111156117b857600080fd5b939660209190910195509293505050565b600081518084526020840193506020830160005b828110156117fb5781518652602095860195909101906001016117dd565b5093949350505050565b60408152600061181860408301856117c9565b90508260208301529392505050565b6000806020838503121561183a57600080fd5b82356001600160401b0381111561185057600080fd5b8301601f8101851361186157600080fd5b80356001600160401b0381111561187757600080fd5b8560208260051b840101111561188c57600080fd5b6020919091019590945092505050565b60005b838110156118b757818101518382015260200161189f565b50506000910152565b600081518084526118d881602086016020860161189c565b601f01601f19169290920160200192915050565b6000602082016020835280845180835260408501915060408160051b86010192506020860160005b8281101561194557603f198786030184526119308583516118c0565b94506020938401939190910190600101611914565b50929695505050505050565b6020815260006114e960208301846118c0565b6000806040838503121561197757600080fd5b823561198281611667565b946020939093013593505050565b6060808252845190820181905260009060208601906080840190835b818110156119d35783516001600160a01b03168352602093840193909201916001016119ac565b505083810360208501526119e781876117c9565b92505050826040830152949350505050565b81835281816020850137506000828201602090810191909152601f909101601f19169091010190565b602081526000611a366020830184866119f9565b949350505050565b634e487b7160e01b600052604160045260246000fd5b604051601f8201601f191681016001600160401b0381118282101715611a7c57611a7c611a3e565b604052919050565b60006001600160401b03821115611a9d57611a9d611a3e565b5060051b60200190565b600082601f830112611ab857600080fd5b8151611acb611ac682611a84565b611a54565b8082825260208201915060208360051b860101925085831115611aed57600080fd5b602085015b83811015611b13578051611b0581611667565b835260209283019201611af2565b5095945050505050565b600082601f830112611b2e57600080fd5b8151611b3c611ac682611a84565b8082825260208201915060208360051b860101925085831115611b5e57600080fd5b602085015b83811015611b13578051835260209283019201611b63565b60008060408385031215611b8e57600080fd5b82516001600160401b03811115611ba457600080fd5b611bb085828601611aa7565b92505060208301516001600160401b03811115611bcc57600080fd5b611bd885828601611b1d565b9150509250929050565b634e487b7160e01b600052603260045260246000fd5b60008060408385031215611c0b57600080fd5b82516001600160401b03811115611c2157600080fd5b611c2d85828601611b1d565b602094909401519395939450505050565b634e487b7160e01b600052601160045260246000fd5b6000808335601e19843603018112611c6b57600080fd5b8301803591506001600160401b03821115611c8557600080fd5b602001915036819003821315611c9a57600080fd5b9250929050565b828482376000838201600081528351611cbe81836020880161189c565b0195945050505050565b6001600160a01b038416815260406020820181905260009061135f90830184866119f9565b600060208284031215611cff57600080fd5b81516001600160401b03811115611d1557600080fd5b8201601f81018413611d2657600080fd5b80516001600160401b03811115611d3f57611d3f611a3e565b611d52601f8201601f1916602001611a54565b818152856020838501011115611d6757600080fd5b61135f82602083016020860161189c565b600060208284031215611d8a57600080fd5b5051919050565b600080600060608486031215611da657600080fd5b83516001600160401b03811115611dbc57600080fd5b611dc886828701611aa7565b93505060208401516001600160401b03811115611de457600080fd5b611df086828701611b1d565b604095909501519396949550929392505050565b8082018082111561072457610724611c3e565b60008251611e2981846020870161189c565b9190910192915050565b600060208284031215611e4557600080fd5b81516114e98161167c56fea264697066735822122079fc996975fd97b5dc8c61fc7d3d42796cbcc5612972d1ad5b626c452e14903a64736f6c634300081a0033","linkReferences":{}},"methodIdentifiers":{"burnPosition(address,bytes)":"e54b89b3","donateToPosition(address,bytes)":"9d297b60","mintPosition(address,bytes)":"f960226c","multicall(bytes[])":"ac9650d8","owner()":"8da5cb5b","renounceOwnership()":"715018a6","sweepTokens(address,uint256)":"dec66036","transferOwnership(address)":"f2fde38b","unusePosition(address,bytes)":"d5256ca3","updateWhitelistHandler(address,bool)":"05d293e9","updateWhitelistHandlerWithApp(address,address,bool)":"5ab70f56","usePosition(address,bytes)":"e7bcda4c","whitelistedHandlers(address)":"36300051","whitelistedHandlersWithApp(bytes32)":"7f541a7e","wildcard(address,bytes)":"b89497fa"},"id":58}