{"abi":[{"type":"constructor","inputs":[],"stateMutability":"nonpayable"},{"type":"function","name":"FEE_PERCENT_PRECISION","inputs":[],"outputs":[{"name":"","type":"uint256","internalType":"uint256"}],"stateMutability":"view"},{"type":"function","name":"feePercentages","inputs":[{"name":"","type":"address","internalType":"address"}],"outputs":[{"name":"","type":"uint256","internalType":"uint256"}],"stateMutability":"view"},{"type":"function","name":"onFeeReqReceive","inputs":[{"name":"_optionMarket","type":"address","internalType":"address"},{"name":"","type":"uint256","internalType":"uint256"},{"name":"_premium","type":"uint256","internalType":"uint256"}],"outputs":[{"name":"fee","type":"uint256","internalType":"uint256"}],"stateMutability":"view"},{"type":"function","name":"owner","inputs":[],"outputs":[{"name":"","type":"address","internalType":"address"}],"stateMutability":"view"},{"type":"function","name":"registerOptionMarket","inputs":[{"name":"_optionMarket","type":"address","internalType":"address"},{"name":"_feePercentage","type":"uint256","internalType":"uint256"}],"outputs":[],"stateMutability":"nonpayable"},{"type":"function","name":"registeredOptionMarkets","inputs":[{"name":"","type":"address","internalType":"address"}],"outputs":[{"name":"","type":"bool","internalType":"bool"}],"stateMutability":"view"},{"type":"function","name":"renounceOwnership","inputs":[],"outputs":[],"stateMutability":"nonpayable"},{"type":"function","name":"transferOwnership","inputs":[{"name":"newOwner","type":"address","internalType":"address"}],"outputs":[],"stateMutability":"nonpayable"},{"type":"function","name":"updateFees","inputs":[{"name":"_optionMarket","type":"address","internalType":"address"},{"name":"_feePercentage","type":"uint256","internalType":"uint256"}],"outputs":[],"stateMutability":"nonpayable"},{"type":"event","name":"FeeUpdate","inputs":[{"name":"optionMarket","type":"address","indexed":false,"internalType":"address"},{"name":"feePercentages","type":"uint256","indexed":false,"internalType":"uint256"}],"anonymous":false},{"type":"event","name":"OptionMarketRegistered","inputs":[{"name":"optionMarket","type":"address","indexed":false,"internalType":"address"}],"anonymous":false},{"type":"event","name":"OwnershipTransferred","inputs":[{"name":"previousOwner","type":"address","indexed":true,"internalType":"address"},{"name":"newOwner","type":"address","indexed":true,"internalType":"address"}],"anonymous":false},{"type":"error","name":"OptionMarketNotRegistered","inputs":[{"name":"optionMarket","type":"address","internalType":"address"}]},{"type":"error","name":"OwnableInvalidOwner","inputs":[{"name":"owner","type":"address","internalType":"address"}]},{"type":"error","name":"OwnableUnauthorizedAccount","inputs":[{"name":"account","type":"address","internalType":"address"}]}],"bytecode":{"object":"0x6080604052348015600f57600080fd5b503380603557604051631e4fbdf760e01b81526000600482015260240160405180910390fd5b603c816041565b506091565b600080546001600160a01b038381166001600160a01b0319831681178455604051919092169283917f8be0079c531659141344cd1fd0a4f28419497f9722a3daafe3b4186f6b6457e09190a35050565b61051e806100a06000396000f3fe608060405234801561001057600080fd5b50600436106100935760003560e01c80637669909511610066578063766990951461011b5780638da5cb5b1461012e57806395958ab514610149578063a7fa088b1461015c578063f2fde38b1461016557600080fd5b80630b964988146100985780634328ea43146100cb57806356c2d309146100fe578063715018a614610113575b600080fd5b6100b86100a636600461041c565b60026020526000908152604090205481565b6040519081526020015b60405180910390f35b6100ee6100d936600461041c565b60016020526000908152604090205460ff1681565b60405190151581526020016100c2565b61011161010c36600461043e565b610178565b005b6101116101f1565b6100b8610129366004610468565b610205565b6000546040516001600160a01b0390911681526020016100c2565b61011161015736600461043e565b610283565b6100b861271081565b61011161017336600461041c565b610345565b610180610383565b6001600160a01b0382166000908152600160208190526040909120805460ff191690911790556101b08282610283565b6040516001600160a01b03831681527f969cf6acb76f10dc15d6ac6a3d7e9ef65e8680dcfe5f4fb9b73624067dc49543906020015b60405180910390a15050565b6101f9610383565b61020360006103b0565b565b6001600160a01b038316600090815260026020908152604080832054600190925282205460ff166102595760405163010e87b960e51b81526001600160a01b03861660048201526024015b60405180910390fd5b610266612710606461049b565b610270848361049b565b61027a91906104c6565b95945050505050565b61028b610383565b610298612710606461049b565b81106102f45760405162461bcd60e51b815260206004820152602560248201527f4665652070657263656e746167652063616e6e6f742062652031303025206f72604482015264206d6f726560d81b6064820152608401610250565b6001600160a01b038216600081815260026020908152604091829020849055815192835282018390527fa12973bd1c09e4ec46288dc2a7ccb9b337e197c7ffad7a179ecae62a90830afd91016101e5565b61034d610383565b6001600160a01b03811661037757604051631e4fbdf760e01b815260006004820152602401610250565b610380816103b0565b50565b6000546001600160a01b031633146102035760405163118cdaa760e01b8152336004820152602401610250565b600080546001600160a01b038381166001600160a01b0319831681178455604051919092169283917f8be0079c531659141344cd1fd0a4f28419497f9722a3daafe3b4186f6b6457e09190a35050565b80356001600160a01b038116811461041757600080fd5b919050565b60006020828403121561042e57600080fd5b61043782610400565b9392505050565b6000806040838503121561045157600080fd5b61045a83610400565b946020939093013593505050565b60008060006060848603121561047d57600080fd5b61048684610400565b95602085013595506040909401359392505050565b80820281158282048414176104c057634e487b7160e01b600052601160045260246000fd5b92915050565b6000826104e357634e487b7160e01b600052601260045260246000fd5b50049056fea264697066735822122033b5432f7d921df0196c701c62dfe8aece5b2209d99d78ab3fb504e40c2a53bc64736f6c634300081a0033","linkReferences":{}},"methodIdentifiers":{"FEE_PERCENT_PRECISION()":"a7fa088b","feePercentages(address)":"0b964988","onFeeReqReceive(address,uint256,uint256)":"76699095","owner()":"8da5cb5b","registerOptionMarket(address,uint256)":"56c2d309","registeredOptionMarkets(address)":"4328ea43","renounceOwnership()":"715018a6","transferOwnership(address)":"f2fde38b","updateFees(address,uint256)":"95958ab5"},"id":71}