{"abi":[{"type":"constructor","inputs":[{"name":"_positionManager","type":"address","internalType":"address"},{"name":"_primePool","type":"address","internalType":"address"},{"name":"_pricing","type":"address","internalType":"address"},{"name":"_baseAsset","type":"address","internalType":"address"},{"name":"_quoteAsset","type":"address","internalType":"address"}],"stateMutability":"nonpayable"},{"type":"function","name":"accrueFees","inputs":[{"name":"positionId","type":"uint256","internalType":"uint256"}],"outputs":[{"name":"","type":"uint256","internalType":"uint256"},{"name":"","type":"uint256","internalType":"uint256"}],"stateMutability":"nonpayable"},{"type":"function","name":"amountsInQuotePerPerpTickMap","inputs":[{"name":"","type":"uint256","internalType":"uint256"},{"name":"","type":"uint256","internalType":"uint256"}],"outputs":[{"name":"","type":"uint256","internalType":"uint256"}],"stateMutability":"view"},{"type":"function","name":"approve","inputs":[{"name":"account","type":"address","internalType":"address"},{"name":"id","type":"uint256","internalType":"uint256"}],"outputs":[],"stateMutability":"payable"},{"type":"function","name":"approvedPools","inputs":[{"name":"","type":"address","internalType":"address"}],"outputs":[{"name":"","type":"bool","internalType":"bool"}],"stateMutability":"view"},{"type":"function","name":"balanceOf","inputs":[{"name":"owner","type":"address","internalType":"address"}],"outputs":[{"name":"result","type":"uint256","internalType":"uint256"}],"stateMutability":"view"},{"type":"function","name":"baseAsset","inputs":[],"outputs":[{"name":"","type":"address","internalType":"address"}],"stateMutability":"view"},{"type":"function","name":"baseAssetDecimals","inputs":[],"outputs":[{"name":"","type":"uint8","internalType":"uint8"}],"stateMutability":"view"},{"type":"function","name":"calculateFeesAccruedSinceLastUpdate","inputs":[{"name":"totalAmountWithdrawnInQuote","type":"uint256","internalType":"uint256"},{"name":"isLong","type":"bool","internalType":"bool"},{"name":"lastFeeAccrued","type":"uint64","internalType":"uint64"}],"outputs":[{"name":"","type":"uint256","internalType":"uint256"}],"stateMutability":"view"},{"type":"function","name":"emergencyWithdraw","inputs":[{"name":"token","type":"address","internalType":"address"}],"outputs":[],"stateMutability":"nonpayable"},{"type":"function","name":"exercise","inputs":[{"name":"_params","type":"tuple","internalType":"struct PerpOTM.ExerciseOptionParams","components":[{"name":"positionId","type":"uint256","internalType":"uint256"},{"name":"swapper","type":"address[]","internalType":"contract ISwapper[]"},{"name":"swapData","type":"bytes[]","internalType":"bytes[]"},{"name":"liquidityToExercise","type":"uint256[]","internalType":"uint256[]"}]}],"outputs":[],"stateMutability":"nonpayable"},{"type":"function","name":"getApproved","inputs":[{"name":"id","type":"uint256","internalType":"uint256"}],"outputs":[{"name":"result","type":"address","internalType":"address"}],"stateMutability":"view"},{"type":"function","name":"isApprovedForAll","inputs":[{"name":"owner","type":"address","internalType":"address"},{"name":"operator","type":"address","internalType":"address"}],"outputs":[{"name":"result","type":"bool","internalType":"bool"}],"stateMutability":"view"},{"type":"function","name":"liquidate","inputs":[{"name":"_params","type":"tuple","internalType":"struct PerpOTM.LiquidateParams","components":[{"name":"positionId","type":"uint256","internalType":"uint256"},{"name":"swapper","type":"address[]","internalType":"contract ISwapper[]"},{"name":"swapData","type":"bytes[]","internalType":"bytes[]"},{"name":"liquidityToExercise","type":"uint256[]","internalType":"uint256[]"}]}],"outputs":[],"stateMutability":"nonpayable"},{"type":"function","name":"mint","inputs":[{"name":"_params","type":"tuple","internalType":"struct PerpOTM.MintParams","components":[{"name":"perpTicks","type":"tuple[]","internalType":"struct PerpOTM.PerpTicks[]","components":[{"name":"_handler","type":"address","internalType":"contract IHandler"},{"name":"pool","type":"address","internalType":"contract IUniswapV3Pool"},{"name":"hook","type":"address","internalType":"address"},{"name":"tickLower","type":"int24","internalType":"int24"},{"name":"tickUpper","type":"int24","internalType":"int24"},{"name":"liquidityToUse","type":"uint256","internalType":"uint256"}]},{"name":"tickLower","type":"int24","internalType":"int24"},{"name":"tickUpper","type":"int24","internalType":"int24"},{"name":"isLong","type":"bool","internalType":"bool"},{"name":"initialFee","type":"uint128","internalType":"uint128"},{"name":"maxCostAllowance","type":"uint128","internalType":"uint128"}]}],"outputs":[],"stateMutability":"nonpayable"},{"type":"function","name":"multicall","inputs":[{"name":"data","type":"bytes[]","internalType":"bytes[]"}],"outputs":[{"name":"results","type":"bytes[]","internalType":"bytes[]"}],"stateMutability":"nonpayable"},{"type":"function","name":"name","inputs":[],"outputs":[{"name":"","type":"string","internalType":"string"}],"stateMutability":"view"},{"type":"function","name":"owner","inputs":[],"outputs":[{"name":"","type":"address","internalType":"address"}],"stateMutability":"view"},{"type":"function","name":"ownerOf","inputs":[{"name":"id","type":"uint256","internalType":"uint256"}],"outputs":[{"name":"result","type":"address","internalType":"address"}],"stateMutability":"view"},{"type":"function","name":"perpData","inputs":[{"name":"","type":"uint256","internalType":"uint256"}],"outputs":[{"name":"perpTickArrayLen","type":"uint128","internalType":"uint128"},{"name":"tickLower","type":"int24","internalType":"int24"},{"name":"tickUpper","type":"int24","internalType":"int24"},{"name":"isLong","type":"bool","internalType":"bool"},{"name":"remainingFees","type":"uint128","internalType":"uint128"},{"name":"lastFeeAccrued","type":"uint64","internalType":"uint64"}],"stateMutability":"view"},{"type":"function","name":"perpTickMap","inputs":[{"name":"","type":"uint256","internalType":"uint256"},{"name":"","type":"uint256","internalType":"uint256"}],"outputs":[{"name":"_handler","type":"address","internalType":"contract IHandler"},{"name":"pool","type":"address","internalType":"contract IUniswapV3Pool"},{"name":"hook","type":"address","internalType":"address"},{"name":"tickLower","type":"int24","internalType":"int24"},{"name":"tickUpper","type":"int24","internalType":"int24"},{"name":"liquidityToUse","type":"uint256","internalType":"uint256"}],"stateMutability":"view"},{"type":"function","name":"positionIds","inputs":[],"outputs":[{"name":"","type":"uint256","internalType":"uint256"}],"stateMutability":"view"},{"type":"function","name":"positionManager","inputs":[],"outputs":[{"name":"","type":"address","internalType":"contract IPositionManager"}],"stateMutability":"view"},{"type":"function","name":"pricing","inputs":[],"outputs":[{"name":"","type":"address","internalType":"contract IPerpOTMPricing"}],"stateMutability":"view"},{"type":"function","name":"primePool","inputs":[],"outputs":[{"name":"","type":"address","internalType":"contract IUniswapV3Pool"}],"stateMutability":"view"},{"type":"function","name":"quoteAsset","inputs":[],"outputs":[{"name":"","type":"address","internalType":"address"}],"stateMutability":"view"},{"type":"function","name":"quoteAssetDecimals","inputs":[],"outputs":[{"name":"","type":"uint8","internalType":"uint8"}],"stateMutability":"view"},{"type":"function","name":"renounceOwnership","inputs":[],"outputs":[],"stateMutability":"nonpayable"},{"type":"function","name":"safeTransferFrom","inputs":[{"name":"from","type":"address","internalType":"address"},{"name":"to","type":"address","internalType":"address"},{"name":"id","type":"uint256","internalType":"uint256"}],"outputs":[],"stateMutability":"payable"},{"type":"function","name":"safeTransferFrom","inputs":[{"name":"from","type":"address","internalType":"address"},{"name":"to","type":"address","internalType":"address"},{"name":"id","type":"uint256","internalType":"uint256"},{"name":"data","type":"bytes","internalType":"bytes"}],"outputs":[],"stateMutability":"payable"},{"type":"function","name":"setApprovalForAll","inputs":[{"name":"operator","type":"address","internalType":"address"},{"name":"isApproved","type":"bool","internalType":"bool"}],"outputs":[],"stateMutability":"nonpayable"},{"type":"function","name":"supportsInterface","inputs":[{"name":"interfaceId","type":"bytes4","internalType":"bytes4"}],"outputs":[{"name":"result","type":"bool","internalType":"bool"}],"stateMutability":"view"},{"type":"function","name":"symbol","inputs":[],"outputs":[{"name":"","type":"string","internalType":"string"}],"stateMutability":"view"},{"type":"function","name":"tokenURI","inputs":[{"name":"id","type":"uint256","internalType":"uint256"}],"outputs":[{"name":"","type":"string","internalType":"string"}],"stateMutability":"view"},{"type":"function","name":"totalAmountWithdrawnInQuoteMap","inputs":[{"name":"","type":"uint256","internalType":"uint256"}],"outputs":[{"name":"","type":"uint256","internalType":"uint256"}],"stateMutability":"view"},{"type":"function","name":"transferFrom","inputs":[{"name":"from","type":"address","internalType":"address"},{"name":"to","type":"address","internalType":"address"},{"name":"id","type":"uint256","internalType":"uint256"}],"outputs":[],"stateMutability":"payable"},{"type":"function","name":"transferOwnership","inputs":[{"name":"newOwner","type":"address","internalType":"address"}],"outputs":[],"stateMutability":"nonpayable"},{"type":"function","name":"updateFees","inputs":[{"name":"positionId","type":"uint256","internalType":"uint256"},{"name":"feesDelta","type":"int128","internalType":"int128"}],"outputs":[],"stateMutability":"nonpayable"},{"type":"event","name":"Approval","inputs":[{"name":"owner","type":"address","indexed":true,"internalType":"address"},{"name":"account","type":"address","indexed":true,"internalType":"address"},{"name":"id","type":"uint256","indexed":true,"internalType":"uint256"}],"anonymous":false},{"type":"event","name":"ApprovalForAll","inputs":[{"name":"owner","type":"address","indexed":true,"internalType":"address"},{"name":"operator","type":"address","indexed":true,"internalType":"address"},{"name":"isApproved","type":"bool","indexed":false,"internalType":"bool"}],"anonymous":false},{"type":"event","name":"LogExercise","inputs":[{"name":"params","type":"tuple","indexed":false,"internalType":"struct PerpOTM.ExerciseOptionParams","components":[{"name":"positionId","type":"uint256","internalType":"uint256"},{"name":"swapper","type":"address[]","internalType":"contract ISwapper[]"},{"name":"swapData","type":"bytes[]","internalType":"bytes[]"},{"name":"liquidityToExercise","type":"uint256[]","internalType":"uint256[]"}]},{"name":"context","type":"address","indexed":false,"internalType":"address"},{"name":"totalProfit","type":"uint256","indexed":false,"internalType":"uint256"},{"name":"amountReduced","type":"uint256","indexed":false,"internalType":"uint256"}],"anonymous":false},{"type":"event","name":"LogFeesAccured","inputs":[{"name":"positionId","type":"uint256","indexed":false,"internalType":"uint256"},{"name":"feesAccrued","type":"uint256","indexed":false,"internalType":"uint256"},{"name":"lastAccrued","type":"uint256","indexed":false,"internalType":"uint256"},{"name":"feesRemaining","type":"uint256","indexed":false,"internalType":"uint256"}],"anonymous":false},{"type":"event","name":"LogLiquidate","inputs":[{"name":"params","type":"tuple","indexed":false,"internalType":"struct PerpOTM.LiquidateParams","components":[{"name":"positionId","type":"uint256","internalType":"uint256"},{"name":"swapper","type":"address[]","internalType":"contract ISwapper[]"},{"name":"swapData","type":"bytes[]","internalType":"bytes[]"},{"name":"liquidityToExercise","type":"uint256[]","internalType":"uint256[]"}]}],"anonymous":false},{"type":"event","name":"LogMint","inputs":[{"name":"params","type":"tuple","indexed":false,"internalType":"struct PerpOTM.MintParams","components":[{"name":"perpTicks","type":"tuple[]","internalType":"struct PerpOTM.PerpTicks[]","components":[{"name":"_handler","type":"address","internalType":"contract IHandler"},{"name":"pool","type":"address","internalType":"contract IUniswapV3Pool"},{"name":"hook","type":"address","internalType":"address"},{"name":"tickLower","type":"int24","internalType":"int24"},{"name":"tickUpper","type":"int24","internalType":"int24"},{"name":"liquidityToUse","type":"uint256","internalType":"uint256"}]},{"name":"tickLower","type":"int24","internalType":"int24"},{"name":"tickUpper","type":"int24","internalType":"int24"},{"name":"isLong","type":"bool","internalType":"bool"},{"name":"initialFee","type":"uint128","internalType":"uint128"},{"name":"maxCostAllowance","type":"uint128","internalType":"uint128"}]},{"name":"positionId","type":"uint256","indexed":false,"internalType":"uint256"},{"name":"openFees","type":"uint256","indexed":false,"internalType":"uint256"},{"name":"context","type":"address","indexed":false,"internalType":"address"},{"name":"assetsWithdrawnInQuote","type":"uint256","indexed":false,"internalType":"uint256"},{"name":"lastfeeAccrued","type":"uint256","indexed":false,"internalType":"uint256"}],"anonymous":false},{"type":"event","name":"LogUpdateFees","inputs":[{"name":"positionId","type":"uint256","indexed":false,"internalType":"uint256"},{"name":"context","type":"address","indexed":false,"internalType":"address"},{"name":"feeDelta","type":"int128","indexed":false,"internalType":"int128"}],"anonymous":false},{"type":"event","name":"OwnershipTransferred","inputs":[{"name":"previousOwner","type":"address","indexed":true,"internalType":"address"},{"name":"newOwner","type":"address","indexed":true,"internalType":"address"}],"anonymous":false},{"type":"event","name":"Transfer","inputs":[{"name":"from","type":"address","indexed":true,"internalType":"address"},{"name":"to","type":"address","indexed":true,"internalType":"address"},{"name":"id","type":"uint256","indexed":true,"internalType":"uint256"}],"anonymous":false},{"type":"error","name":"AccountBalanceOverflow","inputs":[]},{"type":"error","name":"AddressEmptyCode","inputs":[{"name":"target","type":"address","internalType":"address"}]},{"type":"error","name":"BalanceQueryForZeroAddress","inputs":[]},{"type":"error","name":"FailedInnerCall","inputs":[]},{"type":"error","name":"InvalidStrikeTick","inputs":[]},{"type":"error","name":"InvalidTickLength","inputs":[]},{"type":"error","name":"MaxCostAllowanceExceeded","inputs":[]},{"type":"error","name":"NotEnoughAfterSwap","inputs":[]},{"type":"error","name":"NotEnoughFees","inputs":[]},{"type":"error","name":"NotOwnerNorApproved","inputs":[]},{"type":"error","name":"NotOwnerOrDelegate","inputs":[]},{"type":"error","name":"OwnableInvalidOwner","inputs":[{"name":"owner","type":"address","internalType":"address"}]},{"type":"error","name":"OwnableUnauthorizedAccount","inputs":[{"name":"account","type":"address","internalType":"address"}]},{"type":"error","name":"PoolNotApproved","inputs":[]},{"type":"error","name":"ReentrancyGuardReentrantCall","inputs":[]},{"type":"error","name":"RemainingFeesNotZero","inputs":[]},{"type":"error","name":"T","inputs":[]},{"type":"error","name":"TokenAlreadyExists","inputs":[]},{"type":"error","name":"TokenDoesNotExist","inputs":[]},{"type":"error","name":"TransferFromIncorrectOwner","inputs":[]},{"type":"error","name":"TransferToNonERC721ReceiverImplementer","inputs":[]},{"type":"error","name":"TransferToZeroAddress","inputs":[]}],"bytecode":{"object":"0x61016060405234801561001157600080fd5b50604051615cf9380380615cf9833981016040819052610030916101da565b338061005657604051631e4fbdf760e01b81526000600482015260240160405180910390fd5b61005f8161016e565b50600180556001600160a01b0380861660805284811660a05283811660c05282811660e0819052908216610100526040805163313ce56760e01b8152905163313ce567916004808201926020929091908290030181865afa1580156100c8573d6000803e3d6000fd5b505050506040513d601f19601f820116820180604052508101906100ec919061023f565b60ff166101208160ff1681525050806001600160a01b031663313ce5676040518163ffffffff1660e01b8152600401602060405180830381865afa158015610138573d6000803e3d6000fd5b505050506040513d601f19601f8201168201806040525081019061015c919061023f565b60ff1661014052506102699350505050565b600080546001600160a01b038381166001600160a01b0319831681178455604051919092169283917f8be0079c531659141344cd1fd0a4f28419497f9722a3daafe3b4186f6b6457e09190a35050565b80516001600160a01b03811681146101d557600080fd5b919050565b600080600080600060a086880312156101f257600080fd5b6101fb866101be565b9450610209602087016101be565b9350610217604087016101be565b9250610225606087016101be565b9150610233608087016101be565b90509295509295909350565b60006020828403121561025157600080fd5b815160ff8116811461026257600080fd5b9392505050565b60805160a05160c05160e0516101005161012051610140516159026103f76000396000610633015260006104570152600081816108c401528181610a1001528181610b9101528181610c6501528181610cea0152818161179401528181611915015281816119e901528181611a6e015281816125760152818161265201528181612d8201528181612efa015281816130cf015281816135b501528181613a200152613afa0152600081816106d501528181610acb01528181610c8b01528181610cc40152818161184f01528181611a0f01528181611a48015261355f01526000818161058a0152818161391c0152613f160152600081816103bb01528181610a3a01528181610af501528181610bbb015281816117be015281816118790152818161193f015281816125a001526130f901526000818161055601528181610e6301528181610f120152818161130b015281816114c001528181611f17015281816120550152818161267f0152818161289a015281816134dc01528181613b270152613cab01526159026000f3fe60806040526004361061021a5760003560e01c8063791b98bc11610123578063cdf456e1116100ab578063e9ee187d1161006f578063e9ee187d14610822578063f0bbcec414610842578063f29e670c14610872578063f2fde38b14610892578063fdf262b7146108b257600080fd5b8063cdf456e1146106c3578063d2d00b51146106f7578063de56b9bb146107b6578063e8850eeb146107d6578063e985e9c5146107ec57600080fd5b8063a22cb465116100f2578063a22cb46514610601578063abe43ec014610621578063ac9650d814610655578063b88d4fde14610682578063c87b56dd1461069557600080fd5b8063791b98bc146105445780637ce91411146105785780638da5cb5b146105ac57806395d89b41146105ca57600080fd5b8063271ab517116101a657806368a3acfa1161017557806368a3acfa146104455780636c1c94301461048b5780636ff1c9bc146104ef57806370a082311461050f578063715018a61461052f57600080fd5b8063271ab517146103a957806342842e0e146103dd578063577d3344146103f05780636352211e1461042557600080fd5b806309571646116101ed5780630957164614610308578063095ea7b3146103365780631a0cf4da146103495780632177e3931461037657806323b872dd1461039657600080fd5b806301ffc9a71461021f57806302aca0f91461027157806306fdde0314610293578063081812fc146102d0575b600080fd5b34801561022b57600080fd5b5061025c61023a3660046149a6565b6301ffc9a760e09190911c9081146380ac58cd821417635b5e139f9091141790565b60405190151581526020015b60405180910390f35b34801561027d57600080fd5b5061029161028c3660046149e8565b6108e6565b005b34801561029f57600080fd5b5060408051808201909152600b81526a4d5a2050657270204f544d60a81b60208201525b6040516102689190614a74565b3480156102dc57600080fd5b506102f06102eb366004614a87565b6115dc565b6040516001600160a01b039091168152602001610268565b34801561031457600080fd5b50610328610323366004614aa0565b61161b565b604051908152602001610268565b610291610344366004614ad7565b61164c565b34801561035557600080fd5b50610328610364366004614a87565b60056020526000908152604090205481565b34801561038257600080fd5b506102916103913660046149e8565b61165b565b6102916103a4366004614b03565b612330565b3480156103b557600080fd5b506102f07f000000000000000000000000000000000000000000000000000000000000000081565b6102916103eb366004614b03565b612447565b3480156103fc57600080fd5b5061041061040b366004614a87565b612474565b60408051928352602083019190915201610268565b34801561043157600080fd5b506102f0610440366004614a87565b612998565b34801561045157600080fd5b506104797f000000000000000000000000000000000000000000000000000000000000000081565b60405160ff9091168152602001610268565b34801561049757600080fd5b506104ab6104a6366004614aa0565b6129d6565b604080516001600160a01b03978816815295871660208701529390951692840192909252600290810b60608401520b608082015260a081019190915260c001610268565b3480156104fb57600080fd5b5061029161050a366004614b44565b612a43565b34801561051b57600080fd5b5061032861052a366004614b44565b612b1d565b34801561053b57600080fd5b50610291612b58565b34801561055057600080fd5b506102f07f000000000000000000000000000000000000000000000000000000000000000081565b34801561058457600080fd5b506102f07f000000000000000000000000000000000000000000000000000000000000000081565b3480156105b857600080fd5b506000546001600160a01b03166102f0565b3480156105d657600080fd5b5060408051808201909152600e81526d4d5a2d504552502d4f544d2d563160901b60208201526102c3565b34801561060d57600080fd5b5061029161061c366004614b7a565b612b6c565b34801561062d57600080fd5b506104797f000000000000000000000000000000000000000000000000000000000000000081565b34801561066157600080fd5b50610675610670366004614bb3565b612bc2565b6040516102689190614c28565b610291610690366004614c8d565b612caa565b3480156106a157600080fd5b506102c36106b0366004614a87565b5060408051602081019091526000815290565b3480156106cf57600080fd5b506102f07f000000000000000000000000000000000000000000000000000000000000000081565b34801561070357600080fd5b5061076a610712366004614a87565b600360205260009081526040902080546001909101546001600160801b0380831692600160801b808204600290810b94600160981b840490910b93600160b01b90930460ff169281169190046001600160401b031686565b604080516001600160801b039788168152600296870b60208201529490950b94840194909452901515606083015290921660808301526001600160401b031660a082015260c001610268565b3480156107c257600080fd5b506102916107d1366004614d2c565b612d05565b3480156107e257600080fd5b5061032860025481565b3480156107f857600080fd5b5061025c610807366004614d58565b601c52670a5a2e7a000000006008526000526030600c205490565b34801561082e57600080fd5b5061029161083d366004614d86565b613017565b34801561084e57600080fd5b5061025c61085d366004614b44565b60076020526000908152604090205460ff1681565b34801561087e57600080fd5b5061032861088d366004614dc0565b613ee6565b34801561089e57600080fd5b506102916108ad366004614b44565b613f93565b3480156108be57600080fd5b506102f07f000000000000000000000000000000000000000000000000000000000000000081565b6108ee613fd3565b6108f88135612474565b50508035600090815260036020908152604091829020825160c08101845281546001600160801b038082168352600160801b808304600290810b96850196909652600160981b830490950b95830195909552600160b01b900460ff161515606082015260019091015492831660808201819052919092046001600160401b031660a08301521561099b57604051633d1d5add60e21b815260040160405180910390fd5b80516001600160801b03166109b36060840184614e0e565b9050146109d357604051632f8e01e960e21b815260040160405180910390fd5b6040805160c081018252600080825260208201819052918101829052606081018290526080810182905260a08101919091528160600151610ac9577f00000000000000000000000000000000000000000000000000000000000000006001600160a01b03167f00000000000000000000000000000000000000000000000000000000000000006001600160a01b0316630dfe16816040518163ffffffff1660e01b8152600401602060405180830381865afa158015610a96573d6000803e3d6000fd5b505050506040513d601f19601f82011682018060405250810190610aba9190614e5e565b6001600160a01b031614610b80565b7f00000000000000000000000000000000000000000000000000000000000000006001600160a01b03167f00000000000000000000000000000000000000000000000000000000000000006001600160a01b0316630dfe16816040518163ffffffff1660e01b8152600401602060405180830381865afa158015610b51573d6000803e3d6000fd5b505050506040513d601f19601f82011682018060405250810190610b759190614e5e565b6001600160a01b0316145b8160000190151590811515815250507f00000000000000000000000000000000000000000000000000000000000000006001600160a01b03167f00000000000000000000000000000000000000000000000000000000000000006001600160a01b0316630dfe16816040518163ffffffff1660e01b8152600401602060405180830381865afa158015610c17573d6000803e3d6000fd5b505050506040513d601f19601f82011682018060405250810190610c3b9190614e5e565b6001600160a01b031614610c50576000610c53565b60015b151560208201526060820151610c89577f0000000000000000000000000000000000000000000000000000000000000000610cab565b7f00000000000000000000000000000000000000000000000000000000000000005b6001600160a01b031660408201526060820151610ce8577f0000000000000000000000000000000000000000000000000000000000000000610d0a565b7f00000000000000000000000000000000000000000000000000000000000000005b6001600160a01b0316606082015260005b82516001600160801b031681101561159657610d3a6060850185614e0e565b82818110610d4a57610d4a614e7b565b905060200201356000031561158e5783356000908152600460205260408120805483908110610d7b57610d7b614e7b565b6000918252602082206004909102019150610d996060870187614e0e565b84818110610da957610da9614e7b565b905060200201359050600080610e10610dd88560010160009054906101000a90046001600160a01b0316613ffd565b600280870154610df191600160a01b909104900b614098565b600280880154610e0a91600160b81b909104900b614098565b866143bb565b91509150600082118015610e22575080155b80610e365750600081118015610e36575081155b156114235785518015610e495750600082115b15610ee95785604001516001600160a01b031663095ea7b37f0000000000000000000000000000000000000000000000000000000000000000846040518363ffffffff1660e01b8152600401610ea0929190614e91565b6020604051808303816000875af1158015610ebf573d6000803e3d6000fd5b505050506040513d601f19601f82011682018060405250810190610ee39190614eaa565b50611423565b8551158015610ef85750600081115b15610f4f5785604001516001600160a01b031663095ea7b37f0000000000000000000000000000000000000000000000000000000000000000836040518363ffffffff1660e01b8152600401610ea0929190614e91565b8551600090610f9857600280860154610f9391610f7491600160a01b9004900b614098565b600280880154610f8d91600160b81b909104900b614098565b86614457565b610fd3565b600280860154610fd391610fb491600160a01b9004900b614098565b600280880154610fcd91600160b81b909104900b614098565b8661449a565b60608801516040516370a0823160e01b81523060048201529192506000916001600160a01b03909116906370a0823190602401602060405180830381865afa158015611023573d6000803e3d6000fd5b505050506040513d601f19601f820116820180604052508101906110479190614ec7565b60408901519091506001600160a01b031663a9059cbb61106a60208d018d614e0e565b8a81811061107a5761107a614e7b565b905060200201602081019061108f9190614b44565b846040518363ffffffff1660e01b81526004016110ad929190614e91565b6020604051808303816000875af11580156110cc573d6000803e3d6000fd5b505050506040513d601f19601f820116820180604052508101906110f09190614eaa565b506110fe60208b018b614e0e565b8881811061110e5761110e614e7b565b90506020020160208101906111239190614b44565b6001600160a01b031663f3be6fc289604001518a60600151858e806040019061114c9190614e0e565b8d81811061115c5761115c614e7b565b905060200281019061116e9190614ee0565b6040518663ffffffff1660e01b815260040161118e959493929190614f4f565b6020604051808303816000875af11580156111ad573d6000803e3d6000fd5b505050506040513d601f19601f820116820180604052508101906111d19190614ec7565b50875160009061121b57600280880154611216916111f791600160a01b9004900b614098565b6002808a015461121091600160b81b909104900b614098565b8861449a565b611256565b6002808801546112569161123791600160a01b9004900b614098565b6002808a015461125091600160b81b909104900b614098565b88614457565b60608a01516040516370a0823160e01b81523060048201529192506000916001600160a01b03909116906370a0823190602401602060405180830381865afa1580156112a6573d6000803e3d6000fd5b505050506040513d601f19601f820116820180604052508101906112ca9190614ec7565b90506112d68284614fa4565b8110156112f6576040516360e710f160e01b815260040160405180910390fd5b89606001516001600160a01b031663095ea7b37f0000000000000000000000000000000000000000000000000000000000000000846040518363ffffffff1660e01b8152600401611348929190614e91565b6020604051808303816000875af1158015611367573d6000803e3d6000fd5b505050506040513d601f19601f8201168201806040525081019061138b9190614eaa565b5060608a01516001600160a01b031663a9059cbb6113a98e35612998565b6113b38587614fa4565b6113bd9085614fb7565b6040518363ffffffff1660e01b81526004016113da929190614e91565b6020604051808303816000875af11580156113f9573d6000803e3d6000fd5b505050506040513d601f19601f8201168201806040525081019061141d9190614eaa565b50505050505b60018401546002808601546040516000936001600160a01b039081169390831692600160a01b8104820b92600160b81b90910490910b90889061147490602001602080825260009082015260400190565b60408051601f1981840301815290829052611496969594939291602001614fca565b60408051601f1981840301815290829052865463d5256ca360e01b83529092506001600160a01b037f000000000000000000000000000000000000000000000000000000000000000081169263d5256ca3926114f8921690859060040161501b565b6000604051808303816000875af1158015611517573d6000803e3d6000fd5b505050506040513d6000823e601f3d908101601f1916820160405261153f9190810190615115565b50506000600386018190558935815260066020526040812080548890811061156957611569614e7b565b60009182526020808320909101929092558a3581526005909152604081205550505050505b600101610d1b565b507f747bb94c0553cf28f5dc48e975ebf8a1ef22f61dd82c12881c49b437d250f8f7836040516115c6919061531d565b60405180910390a150506115d960018055565b50565b600081600052673ec412a9852d173d60c11b601c52602060002082018201805460601b6116115763ceea21b66000526004601cfd5b6001015492915050565b6006602052816000526040600020818154811061163757600080fd5b90600052602060002001600091509150505481565b611657338383614509565b5050565b611663613fd3565b3361166e8235612998565b6001600160a01b031614611695576040516307a0abe160e31b815260040160405180910390fd5b61169f8135612474565b50508035600090815260036020908152604091829020825160c08101845281546001600160801b03808216808452600160801b808404600290810b97860197909752600160981b840490960b96840196909652600160b01b90910460ff1615156060808401919091526001909301549081166080830152929092046001600160401b031660a083015290919061173790840184614e0e565b90501461175757604051632f8e01e960e21b815260040160405180910390fd5b6040805160c081018252600080825260208201819052918101829052606081018290526080810182905260a0810191909152816060015161184d577f00000000000000000000000000000000000000000000000000000000000000006001600160a01b03167f00000000000000000000000000000000000000000000000000000000000000006001600160a01b0316630dfe16816040518163ffffffff1660e01b8152600401602060405180830381865afa15801561181a573d6000803e3d6000fd5b505050506040513d601f19601f8201168201806040525081019061183e9190614e5e565b6001600160a01b031614611904565b7f00000000000000000000000000000000000000000000000000000000000000006001600160a01b03167f00000000000000000000000000000000000000000000000000000000000000006001600160a01b0316630dfe16816040518163ffffffff1660e01b8152600401602060405180830381865afa1580156118d5573d6000803e3d6000fd5b505050506040513d601f19601f820116820180604052508101906118f99190614e5e565b6001600160a01b0316145b8160000190151590811515815250507f00000000000000000000000000000000000000000000000000000000000000006001600160a01b03167f00000000000000000000000000000000000000000000000000000000000000006001600160a01b0316630dfe16816040518163ffffffff1660e01b8152600401602060405180830381865afa15801561199b573d6000803e3d6000fd5b505050506040513d601f19601f820116820180604052508101906119bf9190614e5e565b6001600160a01b0316146119d45760006119d7565b60015b151560208201526060820151611a0d577f0000000000000000000000000000000000000000000000000000000000000000611a2f565b7f00000000000000000000000000000000000000000000000000000000000000005b6001600160a01b031660408201526060820151611a6c577f0000000000000000000000000000000000000000000000000000000000000000611a8e565b7f00000000000000000000000000000000000000000000000000000000000000005b6001600160a01b0316606082015260005b82516001600160801b031681101561227857611abe6060850185614e0e565b82818110611ace57611ace614e7b565b90506020020135600003156122705783356000908152600460205260408120805483908110611aff57611aff614e7b565b60009182526020822085516004909202019250611b5a57600280830154611b5591611b3291600160a01b9004900b614098565b600280850154611b4b91600160b81b909104900b614098565b8460030154614457565b611b99565b600280830154611b9991611b7691600160a01b9004900b614098565b600280850154611b8f91600160b81b909104900b614098565b846003015461449a565b60608501516040516370a0823160e01b81523060048201529192506000916001600160a01b03909116906370a0823190602401602060405180830381865afa158015611be9573d6000803e3d6000fd5b505050506040513d601f19601f82011682018060405250810190611c0d9190614ec7565b60408601519091506001600160a01b031663a9059cbb611c3060208a018a614e0e565b87818110611c4057611c40614e7b565b9050602002016020810190611c559190614b44565b846040518363ffffffff1660e01b8152600401611c73929190614e91565b6020604051808303816000875af1158015611c92573d6000803e3d6000fd5b505050506040513d601f19601f82011682018060405250810190611cb69190614eaa565b50611cc46020880188614e0e565b85818110611cd457611cd4614e7b565b9050602002016020810190611ce99190614b44565b6001600160a01b031663f3be6fc286604001518760600151858b8060400190611d129190614e0e565b8a818110611d2257611d22614e7b565b9050602002810190611d349190614ee0565b6040518663ffffffff1660e01b8152600401611d54959493929190614f4f565b6020604051808303816000875af1158015611d73573d6000803e3d6000fd5b505050506040513d601f19601f82011682018060405250810190611d979190614ec7565b508451600090611e0457600280850154611dff91611dbd91600160a01b9004900b614098565b600280870154611dd691600160b81b909104900b614098565b611de360608c018c614e0e565b89818110611df357611df3614e7b565b9050602002013561449a565b611e62565b600280850154611e6291611e2091600160a01b9004900b614098565b600280870154611e3991600160b81b909104900b614098565b611e4660608c018c614e0e565b89818110611e5657611e56614e7b565b90506020020135614457565b60608701516040516370a0823160e01b81523060048201529192506000916001600160a01b03909116906370a0823190602401602060405180830381865afa158015611eb2573d6000803e3d6000fd5b505050506040513d601f19601f82011682018060405250810190611ed69190614ec7565b9050611ee28284614fa4565b811015611f02576040516360e710f160e01b815260040160405180910390fd5b86606001516001600160a01b031663095ea7b37f0000000000000000000000000000000000000000000000000000000000000000846040518363ffffffff1660e01b8152600401611f54929190614e91565b6020604051808303816000875af1158015611f73573d6000803e3d6000fd5b505050506040513d601f19601f82011682018060405250810190611f979190614eaa565b5060018501546002808701546000926001600160a01b039081169290821691600160a01b8104820b91600160b81b909104900b611fd760608f018f614e0e565b8c818110611fe757611fe7614e7b565b9050602002013560405160200161200990602080825260009082015260400190565b60408051601f198184030181529082905261202b969594939291602001614fca565b60408051601f1981840301815290829052875463d5256ca360e01b83529092506001600160a01b037f000000000000000000000000000000000000000000000000000000000000000081169263d5256ca39261208d921690859060040161501b565b6000604051808303816000875af11580156120ac573d6000803e3d6000fd5b505050506040513d6000823e601f3d908101601f191682016040526120d49190810190615115565b506120e4905060608b018b614e0e565b888181106120f4576120f4614e7b565b9050602002013586600301600082825461210e9190614fb7565b90915550506020880151156121795760028087015461216f9161213991600160a01b9004900b614098565b60028089015461215291600160b81b909104900b614098565b61215f60608e018e614e0e565b8b818110611df357611df3614e7b565b60808901526121d1565b6002808701546121cb9161219591600160a01b9004900b614098565b6002808901546121ae91600160b81b909104900b614098565b6121bb60608e018e614e0e565b8b818110611e5657611e56614e7b565b60808901525b60808801518a3560009081526006602052604090208054899081106121f8576121f8614e7b565b9060005260206000200160008282546122119190614fb7565b909155505060808801518a356000908152600560205260408120805490919061223b908490614fb7565b9091555061224b90508385614fa4565b6122559083614fb7565b8860a0018181516122669190614fa4565b9052505050505050505b600101611a9f565b5080606001516001600160a01b031663a9059cbb338360a001516040518363ffffffff1660e01b81526004016122af929190614e91565b6020604051808303816000875af11580156122ce573d6000803e3d6000fd5b505050506040513d601f19601f820116820180604052508101906122f29190614eaa565b507f5f1d9e073eead6cfa95360e29d214701ea5b816fddc91fc4c5705cf25d37040283338360a0015184608001516040516115c69493929190615330565b6000818152673ec412a9852d173d60c11b3317601c52602090208101810180546001600160a01b03948516949384169381169190828614830261238e57826123805763ceea21b66000526004601cfd5b63a11481006000526004601cfd5b846123a15763ea553b346000526004601cfd5b8560005281600101549250823314863314176123cf576030600c20546123cf57634b6e7f186000526004601cfd5b82156123dd57600082600101555b85851818905550601c600c8181208054600019019055600084905220805460010163ffffffff8116612417576301336cea6000526004601cfd5b90558082847fddf252ad1be2c89b69c2b068fc378daa952ba7f163c4a11628f55a4df523b3ef600038a45b505050565b612452838383612330565b813b1561244257612442838383604051806020016040528060008152506145aa565b60008181526003602090815260408083206005909252822054815460018301548493929184916124c1918491600160b01b90910460ff1690600160801b90046001600160401b0316613ee6565b60018401549091506001600160801b03168111612521576001830180548291906000906124f89084906001600160801b0316615368565b92506101000a8154816001600160801b0302191690836001600160801b03160217905550612549565b506001820180546fffffffffffffffffffffffffffffffff1981169091556001600160801b03165b428360010160106101000a8154816001600160401b0302191690836001600160401b0316021790555060007f00000000000000000000000000000000000000000000000000000000000000006001600160a01b03167f00000000000000000000000000000000000000000000000000000000000000006001600160a01b0316630dfe16816040518163ffffffff1660e01b8152600401602060405180830381865afa1580156125fc573d6000803e3d6000fd5b505050506040513d601f19601f820116820180604052508101906126209190614e5e565b6001600160a01b031614612635576000612638565b60015b60405163095ea7b360e01b81529091506001600160a01b037f0000000000000000000000000000000000000000000000000000000000000000169063095ea7b3906126a9907f0000000000000000000000000000000000000000000000000000000000000000908690600401614e91565b6020604051808303816000875af11580156126c8573d6000803e3d6000fd5b505050506040513d601f19601f820116820180604052508101906126ec9190614eaa565b506040805160c081018252600080825260208201819052918101829052606081018290526080810182905260a08101829052905b85546001600160801b031681101561292657600089815260046020526040902080548290811061275257612752614e7b565b600091825260208083206040805160c081018252600490940290910180546001600160a01b039081168552600182015481168585015260028083015491821686850152600160a01b8204810b6060870152600160b81b909104900b60808501526003015460a08401528c84526006909152822080549194508791879190859081106127df576127df614e7b565b90600052602060002001546127f49190615387565b6127fe91906153b4565b90506000836020015184604001518560600151866080015188612822576000612824565b855b8961282f5786612832565b60005b60405160200161284d90602080825260009082015260400190565b60408051601f1981840301815290829052612870979695949392916020016153d6565b60408051601f198184030181529082905285516304e94bdb60e51b83529092506001600160a01b037f00000000000000000000000000000000000000000000000000000000000000001691639d297b60916128cf91859060040161501b565b6000604051808303816000875af11580156128ee573d6000803e3d6000fd5b505050506040513d6000823e601f3d908101601f191682016040526129169190810190615115565b5050600190920191506127209050565b506001850154604080518a81526020810186905242818301526001600160801b039092166060830152517f7bc2ed55c28f912605bff8cffcfbd75de5361fd51a313e0b9f37272d1ccb990c9181900360800190a1505060019092015491956001600160801b0390921694509092505050565b6000818152673ec412a9852d173d60c11b601c526020902081018101546001600160a01b0316806129d15763ceea21b66000526004601cfd5b919050565b600460205281600052604060002081815481106129f257600080fd5b60009182526020909120600490910201805460018201546002808401546003909401546001600160a01b039384169650918316945091831692600160a01b8104830b92600160b81b909104900b9086565b612a4b614636565b6040516370a0823160e01b81523060048201526001600160a01b0382169063a9059cbb90339083906370a0823190602401602060405180830381865afa158015612a99573d6000803e3d6000fd5b505050506040513d601f19601f82011682018060405250810190612abd9190614ec7565b6040518363ffffffff1660e01b8152600401612ada929190614e91565b6020604051808303816000875af1158015612af9573d6000803e3d6000fd5b505050506040513d601f19601f820116820180604052508101906116579190614eaa565b600081612b3257638f4eb6046000526004601cfd5b673ec412a9852d173d60c11b601c528160005263ffffffff601c600c2054169050919050565b612b60614636565b612b6a6000614663565b565b801515905081601c52670a5a2e7a0000000060085233600052806030600c2055806000528160601b60601c337f17307eab39ab6107e8899845ad3d59bd9653f200f220920489ca2b5937696c3160206000a35050565b604080516000815260208101909152606090826001600160401b03811115612bec57612bec61503f565b604051908082528060200260200182016040528015612c1f57816020015b6060815260200190600190039081612c0a5790505b50915060005b83811015612ca157612c7c30868684818110612c4357612c43614e7b565b9050602002810190612c559190614ee0565b85604051602001612c689392919061542f565b6040516020818303038152906040526146b3565b838281518110612c8e57612c8e614e7b565b6020908102919091010152600101612c25565b50505b92915050565b612cb5858585612330565b833b15612cfe57612cfe85858585858080601f0160208091040260200160405190810160405280939291908181526020018383808284376000920191909152506145aa92505050565b5050505050565b612d0d613fd3565b33612d1783612998565b6001600160a01b031614612d3e576040516307a0abe160e31b815260040160405180910390fd5b600082815260036020526040812090600f83900b1315612e41576040516323b872dd60e01b81523360048201523060248201526001600160801b03831660448201527f00000000000000000000000000000000000000000000000000000000000000006001600160a01b0316906323b872dd906064016020604051808303816000875af1158015612dd3573d6000803e3d6000fd5b505050506040513d601f19601f82011682018060405250810190612df79190614eaa565b50600181018054839190600090612e189084906001600160801b0316615456565b92506101000a8154816001600160801b0302191690836001600160801b03160217905550612fcb565b60008381526005602052604081205482546001840154612e7c9291600160b01b900460ff1690600160801b90046001600160401b0316613ee6565b9050612e8783615475565b612e9a906001600160801b031682614fa4565b60018301546001600160801b03161115612fb057612eb783615475565b600183018054600090612ed49084906001600160801b0316615368565b92506101000a8154816001600160801b0302191690836001600160801b031602179055507f00000000000000000000000000000000000000000000000000000000000000006001600160a01b031663a9059cbb3385612f3290615475565b6040516001600160e01b031960e085901b1681526001600160a01b0390921660048301526001600160801b031660248201526044016020604051808303816000875af1158015612f86573d6000803e3d6000fd5b505050506040513d601f19601f82011682018060405250810190612faa9190614eaa565b50612fc9565b60405163156bbc5b60e01b815260040160405180910390fd5b505b60408051848152336020820152600f84900b8183015290517f388384f2d47b504455b294d5f7df074d03ebb53cfe4bd9d3a7f3f534639d8a319181900360600190a15061165760018055565b61301f613fd3565b6001600260008282546130329190614fa4565b90915550613042905081806154a4565b1590508061305b5750601461305782806154a4565b9050115b1561307957604051632f8e01e960e21b815260040160405180910390fd5b600061308582806154a4565b90506001600160401b0381111561309e5761309e61503f565b6040519080825280602002602001820160405280156130c7578160200160208202803683370190505b5090506000807f00000000000000000000000000000000000000000000000000000000000000006001600160a01b03167f00000000000000000000000000000000000000000000000000000000000000006001600160a01b0316630dfe16816040518163ffffffff1660e01b8152600401602060405180830381865afa158015613155573d6000803e3d6000fd5b505050506040513d601f19601f820116820180604052508101906131799190614e5e565b6001600160a01b03161461318e576000613191565b60015b90506131cb6040805160c081018252600080825260208201819052918101829052606081018290526080810182905260a081019190915290565b60005b6131d886806154a4565b90508110156138dd576131eb86806154a4565b828181106131fb576131fb614e7b565b905060c0020180360381019061321191906154fe565b9150613223608087016060880161559f565b61324957606082015160020b61323f60408801602089016155bc565b60020b1415613267565b608082015160020b61326160608801604089016155bc565b60020b14155b156132855760405163ad4a97e960e01b815260040160405180910390fd5b6004600060025481526020019081526020016000206040518060c0016040528084600001516001600160a01b0316815260200184602001516001600160a01b0316815260200184604001516001600160a01b03168152602001846060015160020b8152602001846080015160020b81526020018460a00151815250908060018154018082558091505060019003906000526020600020906004020160009091909190915060008201518160000160006101000a8154816001600160a01b0302191690836001600160a01b0316021790555060208201518160010160006101000a8154816001600160a01b0302191690836001600160a01b0316021790555060408201518160020160006101000a8154816001600160a01b0302191690836001600160a01b0316021790555060608201518160020160146101000a81548162ffffff021916908360020b62ffffff16021790555060808201518160020160176101000a81548162ffffff021916908360020b62ffffff16021790555060a082015181600301555050600082602001518360400151846060015185608001518660a00151308c606001602081019061343b919061559f565b6020808b015160608c015160808d015160405161348b969594016001600160a01b0395861681529315156020850152919093166040830152600292830b606083015290910b608082015260a00190565b60408051601f19818403018152908290526134ad969594939291602001614fca565b60408051601f198184030181529082905284516339ef369360e21b835290925060009182916001600160a01b037f0000000000000000000000000000000000000000000000000000000000000000169163e7bcda4c9161351191879060040161501b565b6000604051808303816000875af1158015613530573d6000803e3d6000fd5b505050506040513d6000823e601f3d908101601f1916820160405261355891908101906155d7565b50915091507f00000000000000000000000000000000000000000000000000000000000000006001600160a01b03168260008151811061359a5761359a614e7b565b60200260200101516001600160a01b031614801561360357507f00000000000000000000000000000000000000000000000000000000000000006001600160a01b0316826001815181106135f0576135f0614e7b565b60200260200101516001600160a01b0316145b156137945761361860808a0160608b0161559f565b156136e15760008160008151811061363257613632614e7b565b602002602001015111801561366157508060018151811061365557613655614e7b565b60200260200101516000145b61366a57600080fd5b61369761367d866060015160020b614098565b61368d876080015160020b614098565b8760a00151614457565b8885815181106136a9576136a9614e7b565b6020026020010181815250508784815181106136c7576136c7614e7b565b6020026020010151876136da9190614fa4565b96506138d2565b806000815181106136f4576136f4614e7b565b60200260200101516000148015613725575060008160018151811061371b5761371b614e7b565b6020026020010151115b61372e57600080fd5b8060018151811061374157613741614e7b565b6020026020010151876137549190614fa4565b96508060018151811061376957613769614e7b565b602002602001015188858151811061378357613783614e7b565b6020026020010181815250506138d2565b6137a460808a0160608b0161559f565b1561382357806000815181106137bc576137bc614e7b565b602002602001015160001480156137ed57506000816001815181106137e3576137e3614e7b565b6020026020010151115b6137f657600080fd5b613697613809866060015160020b614098565b613819876080015160020b614098565b8760a0015161449a565b60008160008151811061383857613838614e7b565b602002602001015111801561386757508060018151811061385b5761385b614e7b565b60200260200101516000145b61387057600080fd5b8060008151811061388357613883614e7b565b6020026020010151876138969190614fa4565b9650806000815181106138ab576138ab614e7b565b60200260200101518885815181106138c5576138c5614e7b565b6020026020010181815250505b5050506001016131ce565b506002805460009081526005602090815260408083208790559254825260068152919020855161390f92870190614946565b5060006001600160a01b037f0000000000000000000000000000000000000000000000000000000000000000166370dd99e78561395260808a0160608b0161559f565b6040516001600160e01b031960e085901b168152600481019290925215156024820152604401602060405180830381865afa158015613995573d6000803e3d6000fd5b505050506040513d601f19601f820116820180604052508101906139b99190614ec7565b90506139cb60c0870160a088016156c5565b6001600160801b03166139e460a08801608089016156c5565b6139f7906001600160801b031683614fa4565b1115613a1657604051630bea79f960e11b815260040160405180910390fd5b6001600160a01b037f0000000000000000000000000000000000000000000000000000000000000000166323b872dd3330613a5760a08b0160808c016156c5565b613a6a906001600160801b031686614fa4565b6040516001600160e01b031960e086901b1681526001600160a01b03938416600482015292909116602483015260448201526064016020604051808303816000875af1158015613abe573d6000803e3d6000fd5b505050506040513d601f19601f82011682018060405250810190613ae29190614eaa565b5060405163095ea7b360e01b81526001600160a01b037f0000000000000000000000000000000000000000000000000000000000000000169063095ea7b390613b51907f0000000000000000000000000000000000000000000000000000000000000000908590600401614e91565b6020604051808303816000875af1158015613b70573d6000803e3d6000fd5b505050506040513d601f19601f82011682018060405250810190613b949190614eaa565b5060005b613ba287806154a4565b9050811015613d3757613bb587806154a4565b82818110613bc557613bc5614e7b565b905060c00201803603810190613bdb91906154fe565b925060008583888481518110613bf357613bf3614e7b565b6020026020010151613c059190615387565b613c0f91906153b4565b90506000846020015185604001518660600151876080015189613c33576000613c35565b855b8a613c405786613c43565b60005b604051602001613c5e90602080825260009082015260400190565b60408051601f1981840301815290829052613c81979695949392916020016153d6565b60408051601f198184030181529082905286516304e94bdb60e51b83529092506001600160a01b037f00000000000000000000000000000000000000000000000000000000000000001691639d297b6091613ce091859060040161501b565b6000604051808303816000875af1158015613cff573d6000803e3d6000fd5b505050506040513d6000823e601f3d908101601f19168201604052613d279190810190615115565b505060019092019150613b989050565b506040805160c0810190915280613d4e88806154a4565b90506001600160801b03168152602001876020016020810190613d7191906155bc565b60020b8152602001613d896060890160408a016155bc565b60020b8152602001613da16080890160608a0161559f565b15158152602001613db860a0890160808a016156c5565b6001600160801b0390811682526001600160401b034281166020938401526002805460009081526003855260409081902086518154968801519288015160608901511515600160b01b0260ff60b01b1962ffffff928316600160981b021663ffffffff60981b1992909516600160801b90810272ffffffffffffffffffffffffffffffffffffff19909a169389169390931798909817169290921795909517855560808601516001909501805460a090970151909316026001600160c01b0319909516939092169290921792909217905554613e95903390614729565b7fffcd0a9abb117547ff4cab1ba33f97ba1e83d2bd5d653b5d22450a2920ffca438660025483338842604051613ed09695949392919061579b565b60405180910390a150505050506115d960018055565b60405163fae59e1b60e01b81526004810184905282151560248201526001600160401b03821660448201526000907f00000000000000000000000000000000000000000000000000000000000000006001600160a01b03169063fae59e1b90606401602060405180830381865afa158015613f65573d6000803e3d6000fd5b505050506040513d601f19601f82011682018060405250810190613f899190614ec7565b90505b9392505050565b613f9b614636565b6001600160a01b038116613fca57604051631e4fbdf760e01b8152600060048201526024015b60405180910390fd5b6115d981614663565b600260015403613ff657604051633ee5aeb560e01b815260040160405180910390fd5b6002600155565b60408051600481526024810182526020810180516001600160e01b0316633850c7bd60e01b179052905160009182916001600160a01b03851691614040916158b0565b600060405180830381855afa9150503d806000811461407b576040519150601f19603f3d011682016040523d82523d6000602084013e614080565b606091505b5091505080806020019051810190613f8c9190614e5e565b60008060008360020b126140af578260020b6140b7565b8260020b6000035b9050620d89e88111156140dd576040516315e4079d60e11b815260040160405180910390fd5b6000816001166000036140f457600160801b614106565b6ffffcb933bd6fad37aa2d162d1a5940015b70ffffffffffffffffffffffffffffffffff169050600282161561413a576ffff97272373d413259a46990580e213a0260801c5b6004821615614159576ffff2e50f5f656932ef12357cf3c7fdcc0260801c5b6008821615614178576fffe5caca7e10e4e61c3624eaa0941cd00260801c5b6010821615614197576fffcb9843d60f6159c9db58835c9266440260801c5b60208216156141b6576fff973b41fa98c081472e6896dfb254c00260801c5b60408216156141d5576fff2ea16466c96a3843ec78b326b528610260801c5b60808216156141f4576ffe5dee046a99a2a811c461f1969c30530260801c5b610100821615614214576ffcbe86c7900a88aedcffc83b479aa3a40260801c5b610200821615614234576ff987a7253ac413176f2b074cf7815e540260801c5b610400821615614254576ff3392b0822b70005940c7a398e4b70f30260801c5b610800821615614274576fe7159475a2c29b7443b29c7fa6e889d90260801c5b611000821615614294576fd097f3bdfd2022b8845ad8f792aa58250260801c5b6120008216156142b4576fa9f746462d870fdf8a65dc1f90e061e50260801c5b6140008216156142d4576f70d869a156d2a1b890bb3df62baf32f70260801c5b6180008216156142f4576f31be135f97d08fd981231505542fcfa60260801c5b62010000821615614315576f09aa508b5b7a84e1c677de54f3e99bc90260801c5b62020000821615614335576e5d6af8dedb81196699c329225ee6040260801c5b62040000821615614354576d2216e584f5fa1ea926041bedfe980260801c5b62080000821615614371576b048a170391f7dc42444e8fa20260801c5b60008460020b131561439257806000198161438e5761438e61539e565b0490505b6401000000008106156143a65760016143a9565b60005b60ff16602082901c0192505050919050565b600080836001600160a01b0316856001600160a01b031611156143dc579293925b846001600160a01b0316866001600160a01b0316116144075761440085858561449a565b915061444e565b836001600160a01b0316866001600160a01b031610156144405761442c86858561449a565b9150614439858785614457565b905061444e565b61444b858585614457565b90505b94509492505050565b6000826001600160a01b0316846001600160a01b03161115614477579192915b613f89826001600160801b03168585036001600160a01b0316600160601b614743565b6000826001600160a01b0316846001600160a01b031611156144ba579192915b836001600160a01b03166144f3606060ff16846001600160801b0316901b8686036001600160a01b0316866001600160a01b0316614743565b816145005761450061539e565b04949350505050565b60001960601c828116925083811693508160005283673ec412a9852d173d60c11b17601c52602060002082018201805482169150816145505763ceea21b66000526004601cfd5b81851485151761457657816000526030600c205461457657634b6e7f186000526004601cfd5b6001018390558183827f8c5be1e5ebec7d5bd14f71427d1e84f3dd0314c0f7b2291e5b200ac8c7c3b925600038a450505050565b60405163150b7a028082523360208301528560601b60601c604083015283606083015260808083015282518060a084015280156145f1578060c08401826020870160045afa505b60208360a48301601c860160008a5af1614614573d15614614573d6000843e3d83fd5b508060e01b82511461462e5763d1a57ed66000526004601cfd5b505050505050565b6000546001600160a01b03163314612b6a5760405163118cdaa760e01b8152336004820152602401613fc1565b600080546001600160a01b038381166001600160a01b0319831681178455604051919092169283917f8be0079c531659141344cd1fd0a4f28419497f9722a3daafe3b4186f6b6457e09190a35050565b6060600080846001600160a01b0316846040516146d091906158b0565b600060405180830381855af49150503d806000811461470b576040519150601f19603f3d011682016040523d82523d6000602084013e614710565b606091505b50915091506147208583836147f5565b95945050505050565b611657828260405180602001604052806000815250614851565b600080806000198587098587029250828110838203039150508060000361477c576000841161477157600080fd5b508290049050613f8c565b80841161478857600080fd5b6000848688096000868103871696879004966002600389028118808a02820302808a02820302808a02820302808a02820302808a02820302808a02909103029181900381900460010186841190950394909402919094039290920491909117919091029150509392505050565b60608261480a576148058261486f565b613f8c565b815115801561482157506001600160a01b0384163b155b1561484a57604051639996b31560e01b81526001600160a01b0385166004820152602401613fc1565b5080613f8c565b61485b8383614898565b823b156124425761244260008484846145aa565b80511561487f5780518082602001fd5b604051630a12f52160e11b815260040160405180910390fd5b6001600160a01b0390911690816148b75763ea553b346000526004601cfd5b80600052673ec412a9852d173d60c11b601c5260206000208101810180548060601b156148ec5763c991cbb16000526004601cfd5b831790556000829052601c600c20805460010163ffffffff8116614918576301336cea6000526004601cfd5b9055808260007fddf252ad1be2c89b69c2b068fc378daa952ba7f163c4a11628f55a4df523b3ef8138a45050565b828054828255906000526020600020908101928215614981579160200282015b82811115614981578251825591602001919060010190614966565b5061498d929150614991565b5090565b5b8082111561498d5760008155600101614992565b6000602082840312156149b857600080fd5b81356001600160e01b031981168114613f8c57600080fd5b6000608082840312156149e257600080fd5b50919050565b6000602082840312156149fa57600080fd5b81356001600160401b03811115614a1057600080fd5b614a1c848285016149d0565b949350505050565b60005b83811015614a3f578181015183820152602001614a27565b50506000910152565b60008151808452614a60816020860160208601614a24565b601f01601f19169290920160200192915050565b602081526000613f8c6020830184614a48565b600060208284031215614a9957600080fd5b5035919050565b60008060408385031215614ab357600080fd5b50508035926020909101359150565b6001600160a01b03811681146115d957600080fd5b60008060408385031215614aea57600080fd5b8235614af581614ac2565b946020939093013593505050565b600080600060608486031215614b1857600080fd5b8335614b2381614ac2565b92506020840135614b3381614ac2565b929592945050506040919091013590565b600060208284031215614b5657600080fd5b8135613f8c81614ac2565b80151581146115d957600080fd5b80356129d181614b61565b60008060408385031215614b8d57600080fd5b8235614b9881614ac2565b91506020830135614ba881614b61565b809150509250929050565b60008060208385031215614bc657600080fd5b82356001600160401b03811115614bdc57600080fd5b8301601f81018513614bed57600080fd5b80356001600160401b03811115614c0357600080fd5b8560208260051b8401011115614c1857600080fd5b6020919091019590945092505050565b6000602082016020835280845180835260408501915060408160051b86010192506020860160005b82811015614c8157603f19878603018452614c6c858351614a48565b94506020938401939190910190600101614c50565b50929695505050505050565b600080600080600060808688031215614ca557600080fd5b8535614cb081614ac2565b94506020860135614cc081614ac2565b93506040860135925060608601356001600160401b03811115614ce257600080fd5b8601601f81018813614cf357600080fd5b80356001600160401b03811115614d0957600080fd5b886020828401011115614d1b57600080fd5b959894975092955050506020019190565b60008060408385031215614d3f57600080fd5b823591506020830135600f81900b8114614ba857600080fd5b60008060408385031215614d6b57600080fd5b8235614d7681614ac2565b91506020830135614ba881614ac2565b600060208284031215614d9857600080fd5b81356001600160401b03811115614dae57600080fd5b820160c08185031215613f8c57600080fd5b600080600060608486031215614dd557600080fd5b833592506020840135614de781614b61565b915060408401356001600160401b0381168114614e0357600080fd5b809150509250925092565b6000808335601e19843603018112614e2557600080fd5b8301803591506001600160401b03821115614e3f57600080fd5b6020019150600581901b3603821315614e5757600080fd5b9250929050565b600060208284031215614e7057600080fd5b8151613f8c81614ac2565b634e487b7160e01b600052603260045260246000fd5b6001600160a01b03929092168252602082015260400190565b600060208284031215614ebc57600080fd5b8151613f8c81614b61565b600060208284031215614ed957600080fd5b5051919050565b6000808335601e19843603018112614ef757600080fd5b8301803591506001600160401b03821115614f1157600080fd5b602001915036819003821315614e5757600080fd5b81835281816020850137506000828201602090810191909152601f909101601f19169091010190565b6001600160a01b0386811682528516602082015260408101849052608060608201819052600090614f839083018486614f26565b979650505050505050565b634e487b7160e01b600052601160045260246000fd5b80820180821115612ca457612ca4614f8e565b81810381811115612ca457612ca4614f8e565b6001600160a01b03878116825286166020820152600285810b604083015284900b60608201526080810183905260c060a0820181905260009061500f90830184614a48565b98975050505050505050565b6001600160a01b0383168152604060208201819052600090613f8990830184614a48565b634e487b7160e01b600052604160045260246000fd5b604051601f8201601f191681016001600160401b038111828210171561507d5761507d61503f565b604052919050565b60006001600160401b0382111561509e5761509e61503f565b5060051b60200190565b600082601f8301126150b957600080fd5b81516150cc6150c782615085565b615055565b8082825260208201915060208360051b8601019250858311156150ee57600080fd5b602085015b8381101561510b5780518352602092830192016150f3565b5095945050505050565b6000806040838503121561512857600080fd5b82516001600160401b0381111561513e57600080fd5b61514a858286016150a8565b602094909401519395939450505050565b6000808335601e1984360301811261517257600080fd5b83016020810192503590506001600160401b0381111561519157600080fd5b8060051b3603821315614e5757600080fd5b60008383855260208501945060208460051b8201018360005b8681101561523057838303601f19018852813536879003601e190181126151e257600080fd5b86016020810190356001600160401b038111156151fe57600080fd5b80360382131561520d57600080fd5b615218858284614f26565b60209a8b019a909550939093019250506001016151bc565b50909695505050505050565b81835260006001600160fb1b0383111561525557600080fd5b8260051b80836020870137939093016020019392505050565b80358252600060808301615285602084018461515b565b60806020870152918290529060009060a086015b818310156152ca5783356152ac81614ac2565b6001600160a01b031681526020938401936001939093019201615299565b6152d7604087018761515b565b9450925086810360408801526152ee8185856151a3565b9350505050615300606084018461515b565b858303606087015261531383828461523c565b9695505050505050565b602081526000613f8c602083018461526e565b608081526000615343608083018761526e565b6001600160a01b03959095166020830152506040810192909252606090910152919050565b6001600160801b038281168282160390811115612ca457612ca4614f8e565b8082028115828204841417612ca457612ca4614f8e565b634e487b7160e01b600052601260045260246000fd5b6000826153d157634e487b7160e01b600052601260045260246000fd5b500490565b6001600160a01b03888116825287166020820152600286810b604083015285900b60608201526080810184905260a0810183905260e060c0820181905260009061542290830184614a48565b9998505050505050505050565b82848237600083820160008152835161544c818360208801614a24565b0195945050505050565b6001600160801b038181168382160190811115612ca457612ca4614f8e565b600081600f0b6f7fffffffffffffffffffffffffffffff19810361549b5761549b614f8e565b60000392915050565b6000808335601e198436030181126154bb57600080fd5b8301803591506001600160401b038211156154d557600080fd5b602001915060c081023603821315614e5757600080fd5b8035600281900b81146129d157600080fd5b600060c082840312801561551157600080fd5b5060405160c081016001600160401b03811182821017156155345761553461503f565b604052823561554281614ac2565b8152602083013561555281614ac2565b6020820152604083013561556581614ac2565b6040820152615576606084016154ec565b6060820152615587608084016154ec565b608082015260a0928301359281019290925250919050565b6000602082840312156155b157600080fd5b8135613f8c81614b61565b6000602082840312156155ce57600080fd5b613f8c826154ec565b6000806000606084860312156155ec57600080fd5b83516001600160401b0381111561560257600080fd5b8401601f8101861361561357600080fd5b80516156216150c782615085565b8082825260208201915060208360051b85010192508883111561564357600080fd5b6020840193505b8284101561566e57835161565d81614ac2565b82526020938401939091019061564a565b8096505050505060208401516001600160401b0381111561568e57600080fd5b61569a868287016150a8565b604095909501519396949550929392505050565b80356001600160801b03811681146129d157600080fd5b6000602082840312156156d757600080fd5b613f8c826156ae565b81835260208301925060008160005b8481101561579157813561570281614ac2565b6001600160a01b03168652602082013561571b81614ac2565b6001600160a01b03166020870152604082013561573781614ac2565b6001600160a01b03166040870152615751606083016154ec565b60020b6060870152615765608083016154ec565b615774608088018260020b9052565b5060a0828101359087015260c095860195909101906001016156ef565b5093949350505050565b60c0815260008735601e198936030181126157b557600080fd5b88016020810190356001600160401b038111156157d157600080fd5b60c0810236038213156157e357600080fd5b60c0808501526157f8610180850182846156e0565b91505061580760208a016154ec565b61581660e085018260020b9052565b5061582360408a016154ec565b61583361010085018260020b9052565b5061584060608a01614b6f565b151561012084015261585460808a016156ae565b6001600160801b031661014084015261586f60a08a016156ae565b6001600160801b031661016084015260208301979097525060408101949094526001600160a01b03929092166060840152608083015260a090910152919050565b600082516158c2818460208701614a24565b919091019291505056fea26469706673582212201b173c0d9ee874e1818299b0775880c5dc82ce34e6d1be3e95b56f1790f2a9e064736f6c634300081a0033","linkReferences":{}},"methodIdentifiers":{"accrueFees(uint256)":"577d3344","amountsInQuotePerPerpTickMap(uint256,uint256)":"09571646","approve(address,uint256)":"095ea7b3","approvedPools(address)":"f0bbcec4","balanceOf(address)":"70a08231","baseAsset()":"cdf456e1","baseAssetDecimals()":"68a3acfa","calculateFeesAccruedSinceLastUpdate(uint256,bool,uint64)":"f29e670c","emergencyWithdraw(address)":"6ff1c9bc","exercise((uint256,address[],bytes[],uint256[]))":"2177e393","getApproved(uint256)":"081812fc","isApprovedForAll(address,address)":"e985e9c5","liquidate((uint256,address[],bytes[],uint256[]))":"02aca0f9","mint(((address,address,address,int24,int24,uint256)[],int24,int24,bool,uint128,uint128))":"e9ee187d","multicall(bytes[])":"ac9650d8","name()":"06fdde03","owner()":"8da5cb5b","ownerOf(uint256)":"6352211e","perpData(uint256)":"d2d00b51","perpTickMap(uint256,uint256)":"6c1c9430","positionIds()":"e8850eeb","positionManager()":"791b98bc","pricing()":"7ce91411","primePool()":"271ab517","quoteAsset()":"fdf262b7","quoteAssetDecimals()":"abe43ec0","renounceOwnership()":"715018a6","safeTransferFrom(address,address,uint256)":"42842e0e","safeTransferFrom(address,address,uint256,bytes)":"b88d4fde","setApprovalForAll(address,bool)":"a22cb465","supportsInterface(bytes4)":"01ffc9a7","symbol()":"95d89b41","tokenURI(uint256)":"c87b56dd","totalAmountWithdrawnInQuoteMap(uint256)":"1a0cf4da","transferFrom(address,address,uint256)":"23b872dd","transferOwnership(address)":"f2fde38b","updateFees(uint256,int128)":"de56b9bb"},"id":65}