{"abi":[{"type":"constructor","inputs":[{"name":"_feeReceiver","type":"address","internalType":"address"},{"name":"_factory","type":"address","internalType":"address"},{"name":"_pool_init_code_hash","type":"bytes32","internalType":"bytes32"}],"stateMutability":"nonpayable"},{"type":"function","name":"DEFAULT_ADMIN_ROLE","inputs":[],"outputs":[{"name":"","type":"bytes32","internalType":"bytes32"}],"stateMutability":"view"},{"type":"function","name":"POOL_INIT_CODE_HASH","inputs":[],"outputs":[{"name":"","type":"bytes32","internalType":"bytes32"}],"stateMutability":"view"},{"type":"function","name":"addLiquidity","inputs":[{"name":"params","type":"tuple","internalType":"struct LiquidityManager.AddLiquidityParams","components":[{"name":"token0","type":"address","internalType":"address"},{"name":"token1","type":"address","internalType":"address"},{"name":"fee","type":"uint24","internalType":"uint24"},{"name":"recipient","type":"address","internalType":"address"},{"name":"tickLower","type":"int24","internalType":"int24"},{"name":"tickUpper","type":"int24","internalType":"int24"},{"name":"amount0Desired","type":"uint256","internalType":"uint256"},{"name":"amount1Desired","type":"uint256","internalType":"uint256"},{"name":"amount0Min","type":"uint256","internalType":"uint256"},{"name":"amount1Min","type":"uint256","internalType":"uint256"}]}],"outputs":[{"name":"liquidity","type":"uint128","internalType":"uint128"},{"name":"amount0","type":"uint256","internalType":"uint256"},{"name":"amount1","type":"uint256","internalType":"uint256"},{"name":"pool","type":"address","internalType":"contract IUniswapV3Pool"}],"stateMutability":"nonpayable"},{"type":"function","name":"allowance","inputs":[{"name":"","type":"address","internalType":"address"},{"name":"","type":"address","internalType":"address"},{"name":"","type":"uint256","internalType":"uint256"}],"outputs":[{"name":"","type":"uint256","internalType":"uint256"}],"stateMutability":"view"},{"type":"function","name":"approve","inputs":[{"name":"spender","type":"address","internalType":"address"},{"name":"id","type":"uint256","internalType":"uint256"},{"name":"amount","type":"uint256","internalType":"uint256"}],"outputs":[{"name":"","type":"bool","internalType":"bool"}],"stateMutability":"nonpayable"},{"type":"function","name":"balanceOf","inputs":[{"name":"","type":"address","internalType":"address"},{"name":"","type":"uint256","internalType":"uint256"}],"outputs":[{"name":"","type":"uint256","internalType":"uint256"}],"stateMutability":"view"},{"type":"function","name":"burnPositionHandler","inputs":[{"name":"context","type":"address","internalType":"address"},{"name":"_burnPositionData","type":"bytes","internalType":"bytes"}],"outputs":[{"name":"","type":"uint256","internalType":"uint256"}],"stateMutability":"nonpayable"},{"type":"function","name":"donateToPosition","inputs":[{"name":"_donateData","type":"bytes","internalType":"bytes"}],"outputs":[{"name":"","type":"uint256[]","internalType":"uint256[]"},{"name":"","type":"uint256","internalType":"uint256"}],"stateMutability":"nonpayable"},{"type":"function","name":"emergencyPause","inputs":[],"outputs":[],"stateMutability":"nonpayable"},{"type":"function","name":"emergencyUnpause","inputs":[],"outputs":[],"stateMutability":"nonpayable"},{"type":"function","name":"factory","inputs":[],"outputs":[{"name":"","type":"address","internalType":"address"}],"stateMutability":"view"},{"type":"function","name":"feeReceiver","inputs":[],"outputs":[{"name":"","type":"address","internalType":"address"}],"stateMutability":"view"},{"type":"function","name":"forceWithdrawUniswapV3LiquidityAndToken","inputs":[{"name":"pool","type":"address","internalType":"contract IV3Pool"},{"name":"tickLower","type":"int24","internalType":"int24"},{"name":"tickUpper","type":"int24","internalType":"int24"},{"name":"liquidity","type":"uint128","internalType":"uint128"},{"name":"token","type":"address","internalType":"address"}],"outputs":[],"stateMutability":"nonpayable"},{"type":"function","name":"getHandlerIdentifier","inputs":[{"name":"_data","type":"bytes","internalType":"bytes"}],"outputs":[{"name":"handlerIdentifierId","type":"uint256","internalType":"uint256"}],"stateMutability":"view"},{"type":"function","name":"getRoleAdmin","inputs":[{"name":"role","type":"bytes32","internalType":"bytes32"}],"outputs":[{"name":"","type":"bytes32","internalType":"bytes32"}],"stateMutability":"view"},{"type":"function","name":"grantRole","inputs":[{"name":"role","type":"bytes32","internalType":"bytes32"},{"name":"account","type":"address","internalType":"address"}],"outputs":[],"stateMutability":"nonpayable"},{"type":"function","name":"hasRole","inputs":[{"name":"role","type":"bytes32","internalType":"bytes32"},{"name":"account","type":"address","internalType":"address"}],"outputs":[{"name":"","type":"bool","internalType":"bool"}],"stateMutability":"view"},{"type":"function","name":"hookPerms","inputs":[{"name":"","type":"address","internalType":"address"}],"outputs":[{"name":"onMint","type":"bool","internalType":"bool"},{"name":"onBurn","type":"bool","internalType":"bool"},{"name":"onUse","type":"bool","internalType":"bool"},{"name":"onUnuse","type":"bool","internalType":"bool"},{"name":"onDonate","type":"bool","internalType":"bool"},{"name":"allowSplit","type":"bool","internalType":"bool"}],"stateMutability":"view"},{"type":"function","name":"hookRegistered","inputs":[{"name":"","type":"address","internalType":"address"}],"outputs":[{"name":"","type":"bool","internalType":"bool"}],"stateMutability":"view"},{"type":"function","name":"isOperator","inputs":[{"name":"","type":"address","internalType":"address"},{"name":"","type":"address","internalType":"address"}],"outputs":[{"name":"","type":"bool","internalType":"bool"}],"stateMutability":"view"},{"type":"function","name":"mintPositionHandler","inputs":[{"name":"context","type":"address","internalType":"address"},{"name":"_mintPositionData","type":"bytes","internalType":"bytes"}],"outputs":[{"name":"sharesMinted","type":"uint256","internalType":"uint256"}],"stateMutability":"nonpayable"},{"type":"function","name":"pause","inputs":[],"outputs":[{"name":"","type":"bool","internalType":"bool"}],"stateMutability":"view"},{"type":"function","name":"registerHook","inputs":[{"name":"_hook","type":"address","internalType":"address"},{"name":"_info","type":"tuple","internalType":"struct V3BaseHandler.HookPermInfo","components":[{"name":"onMint","type":"bool","internalType":"bool"},{"name":"onBurn","type":"bool","internalType":"bool"},{"name":"onUse","type":"bool","internalType":"bool"},{"name":"onUnuse","type":"bool","internalType":"bool"},{"name":"onDonate","type":"bool","internalType":"bool"},{"name":"allowSplit","type":"bool","internalType":"bool"}]}],"outputs":[],"stateMutability":"nonpayable"},{"type":"function","name":"renounceRole","inputs":[{"name":"role","type":"bytes32","internalType":"bytes32"},{"name":"callerConfirmation","type":"address","internalType":"address"}],"outputs":[],"stateMutability":"nonpayable"},{"type":"function","name":"reserveCooldownHook","inputs":[{"name":"","type":"address","internalType":"address"}],"outputs":[{"name":"","type":"uint64","internalType":"uint64"}],"stateMutability":"view"},{"type":"function","name":"reservedLiquidityPerUser","inputs":[{"name":"","type":"uint256","internalType":"uint256"},{"name":"","type":"address","internalType":"address"}],"outputs":[{"name":"liquidity","type":"uint128","internalType":"uint128"},{"name":"lastReserve","type":"uint64","internalType":"uint64"}],"stateMutability":"view"},{"type":"function","name":"revokeRole","inputs":[{"name":"role","type":"bytes32","internalType":"bytes32"},{"name":"account","type":"address","internalType":"address"}],"outputs":[],"stateMutability":"nonpayable"},{"type":"function","name":"setOperator","inputs":[{"name":"operator","type":"address","internalType":"address"},{"name":"approved","type":"bool","internalType":"bool"}],"outputs":[{"name":"","type":"bool","internalType":"bool"}],"stateMutability":"nonpayable"},{"type":"function","name":"supportsInterface","inputs":[{"name":"interfaceId","type":"bytes4","internalType":"bytes4"}],"outputs":[{"name":"","type":"bool","internalType":"bool"}],"stateMutability":"view"},{"type":"function","name":"tokenIds","inputs":[{"name":"","type":"uint256","internalType":"uint256"}],"outputs":[{"name":"totalLiquidity","type":"uint128","internalType":"uint128"},{"name":"liquidityUsed","type":"uint128","internalType":"uint128"},{"name":"feeGrowthInside0LastX128","type":"uint256","internalType":"uint256"},{"name":"feeGrowthInside1LastX128","type":"uint256","internalType":"uint256"},{"name":"tokensOwed0","type":"uint128","internalType":"uint128"},{"name":"tokensOwed1","type":"uint128","internalType":"uint128"},{"name":"token0","type":"address","internalType":"address"},{"name":"token1","type":"address","internalType":"address"},{"name":"fee","type":"uint24","internalType":"uint24"},{"name":"reservedLiquidity","type":"uint128","internalType":"uint128"}],"stateMutability":"view"},{"type":"function","name":"tokensToPullForDonate","inputs":[{"name":"_donatePosition","type":"bytes","internalType":"bytes"}],"outputs":[{"name":"","type":"address[]","internalType":"address[]"},{"name":"","type":"uint256[]","internalType":"uint256[]"}],"stateMutability":"view"},{"type":"function","name":"tokensToPullForMint","inputs":[{"name":"_mintPositionData","type":"bytes","internalType":"bytes"}],"outputs":[{"name":"tokens","type":"address[]","internalType":"address[]"},{"name":"amounts","type":"uint256[]","internalType":"uint256[]"}],"stateMutability":"view"},{"type":"function","name":"tokensToPullForUnUse","inputs":[{"name":"_unusePositionData","type":"bytes","internalType":"bytes"}],"outputs":[{"name":"tokens","type":"address[]","internalType":"address[]"},{"name":"amounts","type":"uint256[]","internalType":"uint256[]"}],"stateMutability":"view"},{"type":"function","name":"tokensToPullForWildcard","inputs":[{"name":"","type":"bytes","internalType":"bytes"}],"outputs":[{"name":"","type":"address[]","internalType":"address[]"},{"name":"","type":"uint256[]","internalType":"uint256[]"}],"stateMutability":"view"},{"type":"function","name":"transfer","inputs":[{"name":"receiver","type":"address","internalType":"address"},{"name":"id","type":"uint256","internalType":"uint256"},{"name":"amount","type":"uint256","internalType":"uint256"}],"outputs":[{"name":"","type":"bool","internalType":"bool"}],"stateMutability":"nonpayable"},{"type":"function","name":"transferFrom","inputs":[{"name":"sender","type":"address","internalType":"address"},{"name":"receiver","type":"address","internalType":"address"},{"name":"id","type":"uint256","internalType":"uint256"},{"name":"amount","type":"uint256","internalType":"uint256"}],"outputs":[{"name":"","type":"bool","internalType":"bool"}],"stateMutability":"nonpayable"},{"type":"function","name":"uniswapV3MintCallback","inputs":[{"name":"amount0Owed","type":"uint256","internalType":"uint256"},{"name":"amount1Owed","type":"uint256","internalType":"uint256"},{"name":"data","type":"bytes","internalType":"bytes"}],"outputs":[],"stateMutability":"nonpayable"},{"type":"function","name":"unusePositionHandler","inputs":[{"name":"_unusePositionData","type":"bytes","internalType":"bytes"}],"outputs":[{"name":"","type":"uint256[]","internalType":"uint256[]"},{"name":"","type":"uint256","internalType":"uint256"}],"stateMutability":"nonpayable"},{"type":"function","name":"updateHandlerSettings","inputs":[{"name":"_app","type":"address","internalType":"address"},{"name":"_status","type":"bool","internalType":"bool"},{"name":"_hook","type":"address","internalType":"address"},{"name":"_newReserveCooldown","type":"uint64","internalType":"uint64"},{"name":"_newFeeReceiver","type":"address","internalType":"address"}],"outputs":[],"stateMutability":"nonpayable"},{"type":"function","name":"usePositionHandler","inputs":[{"name":"_usePositionData","type":"bytes","internalType":"bytes"}],"outputs":[{"name":"","type":"address[]","internalType":"address[]"},{"name":"","type":"uint256[]","internalType":"uint256[]"},{"name":"","type":"uint256","internalType":"uint256"}],"stateMutability":"nonpayable"},{"type":"function","name":"whitelistedApps","inputs":[{"name":"","type":"address","internalType":"address"}],"outputs":[{"name":"","type":"bool","internalType":"bool"}],"stateMutability":"view"},{"type":"function","name":"wildcardHandler","inputs":[{"name":"context","type":"address","internalType":"address"},{"name":"_wildcardData","type":"bytes","internalType":"bytes"}],"outputs":[{"name":"","type":"bytes","internalType":"bytes"}],"stateMutability":"nonpayable"},{"type":"event","name":"Approval","inputs":[{"name":"owner","type":"address","indexed":true,"internalType":"address"},{"name":"spender","type":"address","indexed":true,"internalType":"address"},{"name":"id","type":"uint256","indexed":true,"internalType":"uint256"},{"name":"amount","type":"uint256","indexed":false,"internalType":"uint256"}],"anonymous":false},{"type":"event","name":"LogBurnPositionHandler","inputs":[{"name":"params","type":"tuple","indexed":false,"internalType":"struct V3BaseHandler.BurnPositionParams","components":[{"name":"pool","type":"address","internalType":"contract IV3Pool"},{"name":"hook","type":"address","internalType":"address"},{"name":"tickLower","type":"int24","internalType":"int24"},{"name":"tickUpper","type":"int24","internalType":"int24"},{"name":"liquidity","type":"uint128","internalType":"uint128"}]},{"name":"context","type":"address","indexed":false,"internalType":"address"},{"name":"amount0","type":"uint256","indexed":false,"internalType":"uint256"},{"name":"amount1","type":"uint256","indexed":false,"internalType":"uint256"}],"anonymous":false},{"type":"event","name":"LogDonateToPosition","inputs":[{"name":"_params","type":"tuple","indexed":false,"internalType":"struct V3BaseHandler.DonateParams","components":[{"name":"pool","type":"address","internalType":"contract IV3Pool"},{"name":"hook","type":"address","internalType":"address"},{"name":"tickLower","type":"int24","internalType":"int24"},{"name":"tickUpper","type":"int24","internalType":"int24"},{"name":"amount0","type":"uint128","internalType":"uint128"},{"name":"amount1","type":"uint128","internalType":"uint128"}]},{"name":"context","type":"address","indexed":false,"internalType":"address"}],"anonymous":false},{"type":"event","name":"LogHookRegistered","inputs":[{"name":"_hook","type":"address","indexed":false,"internalType":"address"},{"name":"_info","type":"tuple","indexed":false,"internalType":"struct V3BaseHandler.HookPermInfo","components":[{"name":"onMint","type":"bool","internalType":"bool"},{"name":"onBurn","type":"bool","internalType":"bool"},{"name":"onUse","type":"bool","internalType":"bool"},{"name":"onUnuse","type":"bool","internalType":"bool"},{"name":"onDonate","type":"bool","internalType":"bool"},{"name":"allowSplit","type":"bool","internalType":"bool"}]}],"anonymous":false},{"type":"event","name":"LogMintPositionHandler","inputs":[{"name":"params","type":"tuple","indexed":false,"internalType":"struct V3BaseHandler.MintPositionParams","components":[{"name":"pool","type":"address","internalType":"contract IV3Pool"},{"name":"hook","type":"address","internalType":"address"},{"name":"tickLower","type":"int24","internalType":"int24"},{"name":"tickUpper","type":"int24","internalType":"int24"},{"name":"liquidity","type":"uint128","internalType":"uint128"}]},{"name":"context","type":"address","indexed":false,"internalType":"address"},{"name":"amount0","type":"uint256","indexed":false,"internalType":"uint256"},{"name":"amount1","type":"uint256","indexed":false,"internalType":"uint256"}],"anonymous":false},{"type":"event","name":"LogReservedLiquidity","inputs":[{"name":"params","type":"tuple","indexed":false,"internalType":"struct V3BaseHandler.BurnPositionParams","components":[{"name":"pool","type":"address","internalType":"contract IV3Pool"},{"name":"hook","type":"address","internalType":"address"},{"name":"tickLower","type":"int24","internalType":"int24"},{"name":"tickUpper","type":"int24","internalType":"int24"},{"name":"liquidity","type":"uint128","internalType":"uint128"}]},{"name":"context","type":"address","indexed":false,"internalType":"address"},{"name":"lastReserve","type":"uint256","indexed":false,"internalType":"uint256"}],"anonymous":false},{"type":"event","name":"LogUnusePositionHandler","inputs":[{"name":"_params","type":"tuple","indexed":false,"internalType":"struct V3BaseHandler.UnusePositionParams","components":[{"name":"pool","type":"address","internalType":"contract IV3Pool"},{"name":"hook","type":"address","internalType":"address"},{"name":"tickLower","type":"int24","internalType":"int24"},{"name":"tickUpper","type":"int24","internalType":"int24"},{"name":"liquidityToUnuse","type":"uint128","internalType":"uint128"}]},{"name":"context","type":"address","indexed":false,"internalType":"address"},{"name":"amount0","type":"uint256","indexed":false,"internalType":"uint256"},{"name":"amount1","type":"uint256","indexed":false,"internalType":"uint256"}],"anonymous":false},{"type":"event","name":"LogUsePositionHandler","inputs":[{"name":"params","type":"tuple","indexed":false,"internalType":"struct V3BaseHandler.UsePositionParams","components":[{"name":"pool","type":"address","internalType":"contract IV3Pool"},{"name":"hook","type":"address","internalType":"address"},{"name":"tickLower","type":"int24","internalType":"int24"},{"name":"tickUpper","type":"int24","internalType":"int24"},{"name":"liquidityToUse","type":"uint128","internalType":"uint128"}]},{"name":"context","type":"address","indexed":false,"internalType":"address"},{"name":"amount0","type":"uint256","indexed":false,"internalType":"uint256"},{"name":"amount1","type":"uint256","indexed":false,"internalType":"uint256"}],"anonymous":false},{"type":"event","name":"LogWithdrawReserveLiquidity","inputs":[{"name":"params","type":"tuple","indexed":false,"internalType":"struct V3BaseHandler.BurnPositionParams","components":[{"name":"pool","type":"address","internalType":"contract IV3Pool"},{"name":"hook","type":"address","internalType":"address"},{"name":"tickLower","type":"int24","internalType":"int24"},{"name":"tickUpper","type":"int24","internalType":"int24"},{"name":"liquidity","type":"uint128","internalType":"uint128"}]},{"name":"context","type":"address","indexed":false,"internalType":"address"},{"name":"amount0","type":"uint256","indexed":false,"internalType":"uint256"},{"name":"amount1","type":"uint256","indexed":false,"internalType":"uint256"}],"anonymous":false},{"type":"event","name":"OperatorSet","inputs":[{"name":"owner","type":"address","indexed":true,"internalType":"address"},{"name":"operator","type":"address","indexed":true,"internalType":"address"},{"name":"approved","type":"bool","indexed":false,"internalType":"bool"}],"anonymous":false},{"type":"event","name":"RoleAdminChanged","inputs":[{"name":"role","type":"bytes32","indexed":true,"internalType":"bytes32"},{"name":"previousAdminRole","type":"bytes32","indexed":true,"internalType":"bytes32"},{"name":"newAdminRole","type":"bytes32","indexed":true,"internalType":"bytes32"}],"anonymous":false},{"type":"event","name":"RoleGranted","inputs":[{"name":"role","type":"bytes32","indexed":true,"internalType":"bytes32"},{"name":"account","type":"address","indexed":true,"internalType":"address"},{"name":"sender","type":"address","indexed":true,"internalType":"address"}],"anonymous":false},{"type":"event","name":"RoleRevoked","inputs":[{"name":"role","type":"bytes32","indexed":true,"internalType":"bytes32"},{"name":"account","type":"address","indexed":true,"internalType":"address"},{"name":"sender","type":"address","indexed":true,"internalType":"address"}],"anonymous":false},{"type":"event","name":"Transfer","inputs":[{"name":"caller","type":"address","indexed":false,"internalType":"address"},{"name":"from","type":"address","indexed":true,"internalType":"address"},{"name":"to","type":"address","indexed":true,"internalType":"address"},{"name":"id","type":"uint256","indexed":true,"internalType":"uint256"},{"name":"amount","type":"uint256","indexed":false,"internalType":"uint256"}],"anonymous":false},{"type":"error","name":"AccessControlBadConfirmation","inputs":[]},{"type":"error","name":"AccessControlUnauthorizedAccount","inputs":[{"name":"account","type":"address","internalType":"address"},{"name":"neededRole","type":"bytes32","internalType":"bytes32"}]},{"type":"error","name":"AddressEmptyCode","inputs":[{"name":"target","type":"address","internalType":"address"}]},{"type":"error","name":"AddressInsufficientBalance","inputs":[{"name":"account","type":"address","internalType":"address"}]},{"type":"error","name":"BeforeReserveCooldown","inputs":[]},{"type":"error","name":"FailedInnerCall","inputs":[]},{"type":"error","name":"HookAlreadyRegistered","inputs":[]},{"type":"error","name":"HookNotRegistered","inputs":[]},{"type":"error","name":"InsufficientLiquidity","inputs":[]},{"type":"error","name":"InvalidTicks","inputs":[]},{"type":"error","name":"NotWhitelisted","inputs":[]},{"type":"error","name":"Paused","inputs":[]},{"type":"error","name":"SafeERC20FailedOperation","inputs":[{"name":"token","type":"address","internalType":"address"}]},{"type":"error","name":"T","inputs":[]}],"bytecode":{"object":"0x60c060405234801561001057600080fd5b5060405161616438038061616483398101604081905261002f91610140565b600a80546001600160a01b0319166001600160a01b038516179055818184610058600033610074565b50506001600160a01b0390911660805260a0525061017c915050565b60008281526003602090815260408083206001600160a01b038516845290915281205460ff1661011a5760008381526003602090815260408083206001600160a01b03861684529091529020805460ff191660011790556100d23390565b6001600160a01b0316826001600160a01b0316847f2f8788117e7eff1d82e926ec794901d17c78024a50270940304540a733656f0d60405160405180910390a450600161011e565b5060005b92915050565b80516001600160a01b038116811461013b57600080fd5b919050565b60008060006060848603121561015557600080fd5b61015e84610124565b925061016c60208501610124565b9150604084015190509250925092565b60805160a051615fae6101b660003960008181610786015261378001526000818161060701528181611d8601526127600152615fae6000f3fe608060405234801561001057600080fd5b506004361061025d5760003560e01c80638cf6999811610146578063c45a0155116100c3578063dc6fd8ab11610087578063dc6fd8ab14610781578063e0f19adf14610462578063e1b130d6146107a8578063e88c9ffd14610837578063eb148be41461084a578063fe99049a1461086a57600080fd5b8063c45a015514610602578063d348799714610629578063d547741f1461063c578063d58778d61461064f578063d9843c111461074057600080fd5b8063b220e4701161010a578063b220e47014610564578063b3f0067414610586578063b6363cf2146105b1578063b8ea4a84146105dc578063bdab027b146105ef57600080fd5b80638cf69998146104bd57806391d14854146104e05780639981bb9b146104f35780639f1c847314610539578063a217fddf1461055c57600080fd5b80634a4e3bd5116101df5780635bbc4068116101a35780635bbc4068146103e257806363f558c81461044f578063742b5fdd146104625780637b3fd965146104835780638456cb5914610496578063893e81ec146104aa57600080fd5b80634a4e3bd51461037b5780634d0b1de31461038357806351858e2714610396578063558a72971461039e578063598af9e7146103b157600080fd5b80632b4d93ea116102265780632b4d93ea1461030c5780632f2ff15d1461032d57806336568abe14610342578063426a84931461035557806348f449bd1461036857600080fd5b8062fdd58e1461026257806301ffc9a7146102a0578063095bcdb6146102c35780631575e948146102d6578063248a9ca3146102e9575b600080fd5b61028d610270366004614c06565b600160209081526000928352604080842090915290825290205481565b6040519081526020015b60405180910390f35b6102b36102ae366004614c32565b61087d565b6040519015158152602001610297565b6102b36102d1366004614c5c565b61088e565b61028d6102e4366004614cd2565b610938565b61028d6102f7366004614d26565b60009081526003602052604090206001015490565b61031f61031a366004614d3f565b610c82565b604051610297929190614dbc565b61034061033b366004614dde565b611038565b005b610340610350366004614dde565b611063565b6102b3610363366004614c5c565b61109b565b610340610376366004614e3d565b611100565b61034061139b565b61031f610391366004614d3f565b6113d5565b6103406116e0565b6102b36103ac366004614ebc565b611720565b61028d6103bf366004614eea565b600260209081526000938452604080852082529284528284209052825290205481565b6104286103f0366004614dde565b60066020908152600092835260408084209091529082529020546001600160801b03811690600160801b90046001600160401b031682565b604080516001600160801b0390931683526001600160401b03909116602083015201610297565b61028d61045d366004614d3f565b61178e565b610475610470366004614d3f565b6117e4565b604051610297929190614f66565b61028d610491366004614cd2565b6117fc565b600a546102b390600160a01b900460ff1681565b6103406104b8366004614f8b565b611c70565b6102b36104cb366004614fea565b60056020526000908152604090205460ff1681565b6102b36104ee366004614dde565b611d0e565b6105066105013660046150f8565b611d39565b604080516001600160801b0390951685526020850193909352918301526001600160a01b03166060820152608001610297565b6102b3610547366004614fea565b60086020526000908152604090205460ff1681565b61028d600081565b610577610572366004614d3f565b611f5c565b604051610297939291906151ac565b600a54610599906001600160a01b031681565b6040516001600160a01b039091168152602001610297565b6102b36105bf3660046151e2565b600060208181529281526040808220909352908152205460ff1681565b6104756105ea366004614d3f565b6123b7565b6103406105fd366004615210565b6125a1565b6105997f000000000000000000000000000000000000000000000000000000000000000081565b6103406106373660046152c6565b61274b565b61034061064a366004614dde565b6127c9565b6106d661065d366004614d26565b600460208190526000918252604090912080546001820154600283015460038401549484015460058501546006909501546001600160801b0380861697600160801b9687900482169795969495828216959091048216936001600160a01b039081169390821692600160a01b90920462ffffff1691168a565b604080516001600160801b039b8c168152998b1660208b01528901979097526060880195909552928716608087015290861660a08601526001600160a01b0390811660c08601521660e084015262ffffff1661010083015290911661012082015261014001610297565b61076961074e366004614fea565b6007602052600090815260409020546001600160401b031681565b6040516001600160401b039091168152602001610297565b61028d7f000000000000000000000000000000000000000000000000000000000000000081565b6107fe6107b6366004614fea565b60096020526000908152604090205460ff8082169161010081048216916201000082048116916301000000810482169164010000000082048116916501000000000090041686565b604080519615158752941515602087015292151593850193909352151560608401529015156080830152151560a082015260c001610297565b610475610845366004614d3f565b6127ee565b61085d610858366004614cd2565b612844565b6040516102979190615368565b6102b361087836600461537b565b612908565b600061088882612a6c565b92915050565b3360009081526001602090815260408083208584529091528120805483919083906108ba9084906153d7565b90915550506001600160a01b0384166000908152600160209081526040808320868452909152812080548492906108f29084906153ea565b909155505060408051338082526020820185905285926001600160a01b03881692600080516020615f5983398151915291015b60405180910390a45060015b9392505050565b6000610942612aa1565b600080610951848601866154e7565b915091506000308360000151846020015185604001518660600151604051602001610980959493929190615535565b60408051808303601f190181529181528151602092830120600081815260048452828120878501516001600160a01b0316825260099094529190912054909250610100900460ff1680156109f157506020808501516001600160a01b031660009081526008909152604090205460ff165b15610a595783602001516001600160a01b031663e849a8b6846040518263ffffffff1660e01b8152600401610a269190615368565b600060405180830381600087803b158015610a4057600080fd5b505af1158015610a54573d6000803e3d6000fd5b505050505b608084015181546001600160801b0391821691610a8091600160801b81048216911661556b565b6001600160801b03161015610aa85760405163bb55fd2760e01b815260040160405180910390fd5b60008085600001516001600160a01b031663a34123a78760400151886060015189608001516040518463ffffffff1660e01b8152600401610aeb9392919061558a565b60408051808303816000875af1158015610b09573d6000803e3d6000fd5b505050506040513d601f19601f82011682018060405250810190610b2d91906155b0565b91509150610b4983876000015188604001518960600151612afe565b85600001516001600160a01b0316634f1eb3d88b8860400151896060015186866040518663ffffffff1660e01b8152600401610b899594939291906155d4565b60408051808303816000875af1158015610ba7573d6000803e3d6000fd5b505050506040513d601f19601f82011682018060405250810190610bcb9190615611565b5050608086015183548490600090610bed9084906001600160801b031661556b565b92506101000a8154816001600160801b0302191690836001600160801b03160217905550610c298a8588608001516001600160801b0316612c5d565b7ff6712e9ab46ec463b822b25c7cd53a85bb9386675c5c5d547c78a4ebed1bd781868b8484604051610c5e949392919061568f565b60405180910390a15050506080909201516001600160801b03169695505050505050565b60606000610c8e612aa1565b600080610c9d858701876154e7565b915091506000308360000151846020015185604001518660600151604051602001610ccc959493929190615535565b60408051808303601f190181529181528151602092830120600081815260048452828120878501516001600160a01b03168252600990945291909120549092506301000000900460ff168015610d3f57506020808501516001600160a01b031660009081526008909152604090205460ff165b15610da75783602001516001600160a01b03166340b62019846040518263ffffffff1660e01b8152600401610d749190615368565b600060405180830381600087803b158015610d8e57600080fd5b505af1158015610da2573d6000803e3d6000fd5b505050505b600080610de4610dba8760000151612cd2565b610dca886040015160020b612d43565b610dda896060015160020b612d43565b8960800151613066565b604080516101408101825286546001600160801b038082168352600160801b9182900481166020840152600189015483850152600289015460608085019190915260038a0154808316608086015292909204811660a084015260048901546001600160a01b0390811660c085015260058a015490811660e0850152600160a01b900462ffffff16610100840152600689015416610120830152918a0151918a0151939550919350600092610e9d92849290918787613102565b50509050610eb984886000015189604001518a60600151612afe565b83546001600160801b03808316600160801b9092041610610f2157835481908590601090610ef8908490600160801b90046001600160801b031661556b565b92506101000a8154816001600160801b0302191690836001600160801b03160217905550610f7f565b8354610f3d90600160801b90046001600160801b03168261556b565b84548590600090610f589084906001600160801b03166156c2565b82546101009290920a6001600160801b038181021990931691831602179091558554168555505b6040805160028082526060820183526000926020830190803683370190505090508381600081518110610fb457610fb46156e1565b6020026020010181815250508281600181518110610fd457610fd46156e1565b6020026020010181815250507f9947dcc0369e358b6658b3c737e9b50fb988f069f55f189f250076b4db69937488338686604051611015949392919061568f565b60405180910390a198506001600160801b031696505050505050505b9250929050565b60008281526003602052604090206001015461105381613296565b61105d83836132a3565b50505050565b6001600160a01b038116331461108c5760405163334bd91960e11b815260040160405180910390fd5b6110968282613337565b505050565b3360008181526002602090815260408083206001600160a01b03881680855290835281842087855290925280832085905551919285927fb3fd5071835887567a0671151121894ddccc2842f1d10bedad13e0d17cace9a7906109259087815260200190565b7f0a82b25974fd602b636b85d2a46fd7e8e40145d9a7739850ececf3c2b6eab34c61112a81613296565b6001600160a01b03821615611220576040516370a0823160e01b81523060048201526001600160a01b0383169063a9059cbb90339083906370a0823190602401602060405180830381865afa158015611187573d6000803e3d6000fd5b505050506040513d601f19601f820116820180604052508101906111ab91906156f7565b6040516001600160e01b031960e085901b1681526001600160a01b03909216600483015260248201526044016020604051808303816000875af11580156111f6573d6000803e3d6000fd5b505050506040513d601f19601f8201168201806040525081019061121a9190615710565b50611393565b60405163a34123a760e01b81526001600160a01b0387169063a34123a7906112509088908890889060040161558a565b60408051808303816000875af115801561126e573d6000803e3d6000fd5b505050506040513d601f19601f8201168201806040525081019061129291906155b0565b5050600080876001600160a01b031663514ea4bf6112b1308a8a6133a4565b6040518263ffffffff1660e01b81526004016112cf91815260200190565b60a060405180830381865afa1580156112ec573d6000803e3d6000fd5b505050506040513d601f19601f82011682018060405250810190611310919061572d565b6040516309e3d67b60e31b815291965094506001600160a01b038c169350634f1eb3d8925061134c915033908b908b90889088906004016155d4565b60408051808303816000875af115801561136a573d6000803e3d6000fd5b505050506040513d601f19601f8201168201806040525081019061138e9190615611565b505050505b505050505050565b7f7b2ab94bb7d45041581aa3757ae020084674ccad6f75dc3750eb2ea8a92c4e9a6113c581613296565b50600a805460ff60a01b19169055565b606060006113e1612aa1565b6000806113f085870187615781565b91509150600030836000015184602001518560400151866060015160405160200161141f959493929190615535565b60408051808303601f190181529181528151602092830120858301516001600160a01b031660009081526009909352912054909150640100000000900460ff16801561148857506020808401516001600160a01b031660009081526008909152604090205460ff165b156114f05782602001516001600160a01b0316638b5ef33a836040518263ffffffff1660e01b81526004016114bd9190615368565b600060405180830381600087803b1580156114d757600080fd5b505af11580156114eb573d6000803e3d6000fd5b505050505b60008181526004602081815260409283902083516101408101855281546001600160801b038082168352600160801b91829004811694830194909452600183015495820195909552600282015460608201526003820154808416608080840191909152959004831660a0820152928101546001600160a01b0390811660c0850152600582015490811660e0850152600160a01b900462ffffff1661010084015260060154811661012083015291850151909116156115d957600a54608085015160c08301516115d9926001600160a01b03918216923392909116906001600160801b03166133f7565b60a08401516001600160801b03161561161d57600a5460a085015160e083015161161d926001600160a01b03918216923392909116906001600160801b03166133f7565b60408051600280825260608201835260009260208301908036833701905050905084608001516001600160801b03168160008151811061165f5761165f6156e1565b6020026020010181815250508460a001516001600160801b03168160018151811061168c5761168c6156e1565b6020026020010181815250507fd56018ecc6a046635457cebc1f2716e82f7fed949bf224bc2f3f58e2178682c085336040516116c9929190615833565b60405180910390a198600098509650505050505050565b7f7b2ab94bb7d45041581aa3757ae020084674ccad6f75dc3750eb2ea8a92c4e9a61170a81613296565b50600a805460ff60a01b1916600160a01b179055565b336000818152602081815260408083206001600160a01b038716808552908352818420805460ff191687151590811790915591519182529293917fceb576d9f15e4e200fdb5096d64d5dfd667e16def20c1eefd14256d8e3faa267910160405180910390a350600192915050565b6000808080806117a0868801886158ae565b935093509350935030848484846040516020016117c1959493929190615535565b60408051601f198184030181529190528051602090910120979650505050505050565b6060806117f1848461345e565b915091509250929050565b6000611806612aa1565b600080611815848601866154e7565b915091506000308360000151846020015185604001518660600151604051602001611844959493929190615535565b60408051601f198184030181529181528151602092830120858301516001600160a01b03166000908152600990935291205490915060ff1680156118a557506020808401516001600160a01b031660009081526008909152604090205460ff165b1561190d5782602001516001600160a01b0316633fc32173836040518263ffffffff1660e01b81526004016118da9190615368565b600060405180830381600087803b1580156118f457600080fd5b505af1158015611908573d6000803e3d6000fd5b505050505b6000818152600460208190526040909120908101546001600160a01b0316611ad25783600001516001600160a01b0316630dfe16816040518163ffffffff1660e01b8152600401602060405180830381865afa158015611971573d6000803e3d6000fd5b505050506040513d601f19601f82011682018060405250810190611995919061590a565b8160040160006101000a8154816001600160a01b0302191690836001600160a01b0316021790555083600001516001600160a01b031663d21220a76040518163ffffffff1660e01b8152600401602060405180830381865afa1580156119ff573d6000803e3d6000fd5b505050506040513d601f19601f82011682018060405250810190611a23919061590a565b8160050160006101000a8154816001600160a01b0302191690836001600160a01b0316021790555083600001516001600160a01b031663ddca3f436040518163ffffffff1660e01b8152600401602060405180830381865afa158015611a8d573d6000803e3d6000fd5b505050506040513d601f19601f82011682018060405250810190611ab19190615927565b8160050160146101000a81548162ffffff021916908362ffffff1602179055505b600080611ae5610dba8760000151612cd2565b604080516101408101825286546001600160801b038082168352600160801b9182900481166020840152600189015483850152600289015460608085019190915260038a0154808316608086015292909204811660a084015260048901546001600160a01b0390811660c085015260058a015490811660e0850152600160a01b900462ffffff16610100840152600689015416610120830152918a0151918a0151939550919350600092611b9e92849290918787613102565b5050845490915081908590600090611bc09084906001600160801b03166156c2565b92506101000a8154816001600160801b0302191690836001600160801b03160217905550611bfc84886000015189604001518a60600151612afe565b611c108b86836001600160801b0316613671565b6001600160801b038116608088018190526040519098507fe37ed9ef07c82bfef5e4b1503d49939505996bb0aea458cb274ba82e934f86e690611c5a9089908e908790879061568f565b60405180910390a1505050505050509392505050565b6000611c7b81613296565b6001600160a01b03861615611caf576001600160a01b0386166000908152600560205260409020805460ff19168615151790555b6001600160a01b038481166000908152600760205260409020805467ffffffffffffffff19166001600160401b03861617905582161561139357600a80546001600160a01b0384166001600160a01b0319909116179055505050505050565b60009182526003602090815260408084206001600160a01b0393909316845291905290205460ff1690565b6000806000806000604051806060016040528087600001516001600160a01b0316815260200187602001516001600160a01b03168152602001876040015162ffffff168152509050611dab7f0000000000000000000000000000000000000000000000000000000000000000826136dd565b91506000826001600160a01b0316633850c7bd6040518163ffffffff1660e01b815260040160e060405180830381865afa158015611ded573d6000803e3d6000fd5b505050506040513d601f19601f82011682018060405250810190611e119190615961565b50505050505090506000611e288860800151612d43565b90506000611e398960a00151612d43565b9050611e508383838c60c001518d60e001516137c6565b9750505050816001600160a01b0316633c8a7d8d876060015188608001518960a00151896040518060400160405280888152602001336001600160a01b0316815250604051602001611edd9190815180516001600160a01b03908116835260208083015182168185015260409283015162ffffff1692840192909252920151909116606082015260800190565b6040516020818303038152906040526040518663ffffffff1660e01b8152600401611f0c9594939291906159f9565b60408051808303816000875af1158015611f2a573d6000803e3d6000fd5b505050506040513d601f19601f82011682018060405250810190611f4e91906155b0565b959790965091935090915050565b6060806000611f69612aa1565b600080611f78868801886154e7565b915091506000308360000151846020015185604001518660600151604051602001611fa7959493929190615535565b60408051808303601f190181529181528151602092830120600081815260048452828120878501516001600160a01b031682526009909452919091205490925062010000900460ff16801561201957506020808501516001600160a01b031660009081526008909152604090205460ff165b156120815783602001516001600160a01b031663753f19fb846040518263ffffffff1660e01b815260040161204e9190615368565b600060405180830381600087803b15801561206857600080fd5b505af115801561207c573d6000803e3d6000fd5b505050505b608084015181546001600160801b03918216916120a891600160801b81048216911661556b565b6001600160801b031610156120d05760405163bb55fd2760e01b815260040160405180910390fd5b60008085600001516001600160a01b031663a34123a78760400151886060015189608001516040518463ffffffff1660e01b81526004016121139392919061558a565b60408051808303816000875af1158015612131573d6000803e3d6000fd5b505050506040513d601f19601f8201168201806040525081019061215591906155b0565b87516040808a015160608b015191516309e3d67b60e31b81529496509294506001600160a01b0390911692634f1eb3d892612198923392889088906004016155d4565b60408051808303816000875af11580156121b6573d6000803e3d6000fd5b505050506040513d601f19601f820116820180604052508101906121da9190615611565b50506121f483876000015188604001518960600151612afe565b60808601518354849060109061221b908490600160801b90046001600160801b03166156c2565b92506101000a8154816001600160801b0302191690836001600160801b03160217905550600060026001600160401b0381111561225a5761225a615007565b604051908082528060200260200182016040528015612283578160200160208202803683370190505b50600485015481519192506001600160a01b03169082906000906122a9576122a96156e1565b6001600160a01b03928316602091820292909201015260058501548251911690829060019081106122dc576122dc6156e1565b6001600160a01b03929092166020928302919091018201526040805160028082526060820183526000939192909183019080368337019050509050838160008151811061232b5761232b6156e1565b602002602001018181525050828160018151811061234b5761234b6156e1565b6020026020010181815250507f8643ccc443265e37c9da35348e57363bd63b37b6112bca61947776a86b637a388833868660405161238c949392919061568f565b60405180910390a160809790970151909c969b506001600160801b0316995094975050505050505050565b60608060006123c884860186615781565b50604080516002808252606082018352929350600092909160208301908036833701905050905081600001516001600160a01b0316630dfe16816040518163ffffffff1660e01b8152600401602060405180830381865afa158015612431573d6000803e3d6000fd5b505050506040513d601f19601f82011682018060405250810190612455919061590a565b81600081518110612468576124686156e1565b60200260200101906001600160a01b031690816001600160a01b03168152505081600001516001600160a01b031663d21220a76040518163ffffffff1660e01b8152600401602060405180830381865afa1580156124ca573d6000803e3d6000fd5b505050506040513d601f19601f820116820180604052508101906124ee919061590a565b81600181518110612501576125016156e1565b6001600160a01b0392909216602092830291909101820152604080516002808252606082018352600093919290918301908036833701905050905082608001516001600160801b03168160008151811061255d5761255d6156e1565b6020026020010181815250508260a001516001600160801b03168160018151811061258a5761258a6156e1565b602090810291909101015290969095509350505050565b6001600160a01b03821660009081526008602052604090205460ff16806125cf57506001600160a01b038216155b156125ed576040516325c3d4c360e01b815260040160405180910390fd5b6001600160a01b0382166000908152600960209081526040808320845181548487015184880151606089015160808a015160a08b01511515650100000000000265ff000000000019911515640100000000029190911665ffff000000001992151563010000000263ff0000001994151562010000029490941663ffff0000199515156101000261ff00199815159890981661ffff1990971696909617969096179390931693909317179190911691909117179055600890915290819020805460ff19166001179055517f20f3cf6d68c39945565b9d346072764b3ee941e3130b6414a1cd3b24c0b122299061273f9084908490600060e08201905060018060a01b03841682528251151560208301526020830151151560408301526040830151151560608301526060830151151560808301526080830151151560a083015260a0830151151560c08301529392505050565b60405180910390a15050565b600061275982840184615a46565b90506127897f0000000000000000000000000000000000000000000000000000000000000000826000015161388a565b5084156127a45780515160208201516127a4919033886138ad565b83156127c2576127c2816000015160200151826020015133876138ad565b5050505050565b6000828152600360205260409020600101546127e481613296565b61105d8383613337565b604080516002808252606082810190935282916000918160200160208202803683375050604080516002808252606082018352939450600093909250906020830190803683375093989197509095505050505050565b606060008061285584860186615aec565b9092509050600082600381111561286e5761286e615b29565b036128835761287d86826138d9565b506128ef565b600182600381111561289757612897615b29565b036128ab576128a68682613aee565b6128ef565b60028260038111156128bf576128bf615b29565b036128cd576128a681613e30565b60038260038111156128e1576128e1615b29565b036128ef576128ef81613fb7565b5050604080516020810190915260008152949350505050565b6000336001600160a01b0386161480159061294557506001600160a01b03851660009081526020818152604080832033845290915290205460ff16155b156129b8576001600160a01b0385166000908152600260209081526040808320338452825280832086845290915290205460001981146129b65761298983826153d7565b6001600160a01b038716600090815260026020908152604080832033845282528083208884529091529020555b505b6001600160a01b0385166000908152600160209081526040808320868452909152812080548492906129eb9084906153d7565b90915550506001600160a01b038416600090815260016020908152604080832086845290915281208054849290612a239084906153ea565b9091555050604080513381526020810184905284916001600160a01b038088169290891691600080516020615f59833981519152910160405180910390a4506001949350505050565b60006001600160e01b03198216637965db0b60e01b148061088857506301ffc9a760e01b6001600160e01b0319831614610888565b3360009081526005602052604090205460ff16612ad157604051630b094f2760e31b815260040160405180910390fd5b600a54600160a01b900460ff1615612afc576040516313d0ff5960e31b815260040160405180910390fd5b565b6000612b0b3084846133a4565b9050600080856001600160a01b031663514ea4bf846040518263ffffffff1660e01b8152600401612b3e91815260200190565b60a060405180830381865afa158015612b5b573d6000803e3d6000fd5b505050506040513d601f19601f82011682018060405250810190612b7f919061572d565b505060018a01548a5460068c0154939650919450612bc493508503916001600160801b03600160801b80840482169382169282169290920192909203909116906147b9565b6003880180546001600160801b0380821690930183166001600160801b03199091161790556002880154885460068a0154612c1e9392850392600160801b80840482169382169282169290920192909203909116906147b9565b6003880180546001600160801b03600160801b808304821690940181169093029216919091179055600187019190915560029095019490945550505050565b6001600160a01b038316600090815260016020908152604080832085845290915281208054839290612c909084906153d7565b9091555050604080513381526020810183905283916000916001600160a01b03871691600080516020615f5983398151915291015b60405180910390a4505050565b6000816001600160a01b0316633850c7bd6040518163ffffffff1660e01b815260040160e060405180830381865afa158015612d12573d6000803e3d6000fd5b505050506040513d601f19601f82011682018060405250810190612d369190615961565b5094979650505050505050565b60008060008360020b12612d5a578260020b612d62565b8260020b6000035b9050620d89e8811115612d88576040516315e4079d60e11b815260040160405180910390fd5b600081600116600003612d9f57600160801b612db1565b6ffffcb933bd6fad37aa2d162d1a5940015b70ffffffffffffffffffffffffffffffffff1690506002821615612de5576ffff97272373d413259a46990580e213a0260801c5b6004821615612e04576ffff2e50f5f656932ef12357cf3c7fdcc0260801c5b6008821615612e23576fffe5caca7e10e4e61c3624eaa0941cd00260801c5b6010821615612e42576fffcb9843d60f6159c9db58835c9266440260801c5b6020821615612e61576fff973b41fa98c081472e6896dfb254c00260801c5b6040821615612e80576fff2ea16466c96a3843ec78b326b528610260801c5b6080821615612e9f576ffe5dee046a99a2a811c461f1969c30530260801c5b610100821615612ebf576ffcbe86c7900a88aedcffc83b479aa3a40260801c5b610200821615612edf576ff987a7253ac413176f2b074cf7815e540260801c5b610400821615612eff576ff3392b0822b70005940c7a398e4b70f30260801c5b610800821615612f1f576fe7159475a2c29b7443b29c7fa6e889d90260801c5b611000821615612f3f576fd097f3bdfd2022b8845ad8f792aa58250260801c5b612000821615612f5f576fa9f746462d870fdf8a65dc1f90e061e50260801c5b614000821615612f7f576f70d869a156d2a1b890bb3df62baf32f70260801c5b618000821615612f9f576f31be135f97d08fd981231505542fcfa60260801c5b62010000821615612fc0576f09aa508b5b7a84e1c677de54f3e99bc90260801c5b62020000821615612fe0576e5d6af8dedb81196699c329225ee6040260801c5b62040000821615612fff576d2216e584f5fa1ea926041bedfe980260801c5b6208000082161561301c576b048a170391f7dc42444e8fa20260801c5b60008460020b131561303d57806000198161303957613039615b3f565b0490505b640100000000810615613051576001613054565b60005b60ff16602082901c0192505050919050565b600080836001600160a01b0316856001600160a01b03161115613087579293925b846001600160a01b0316866001600160a01b0316116130b2576130ab85858561486b565b91506130f9565b836001600160a01b0316866001600160a01b031610156130eb576130d786858561486b565b91506130e48587856148da565b90506130f9565b6130f68585856148da565b90505b94509492505050565b60008060008861319a5761318d6040518061014001604052808a60c001516001600160a01b031681526020018a60e001516001600160a01b031681526020018a610100015162ffffff168152602001306001600160a01b031681526020018960020b81526020018860020b815260200187815260200186815260200187815260200186815250611d39565b509194509250905061328a565b306001600160a01b0316639981bb9b6040518061014001604052808b60c001516001600160a01b031681526020018b60e001516001600160a01b031681526020018b610100015162ffffff168152602001306001600160a01b031681526020018a60020b81526020018960020b8152602001888152602001878152602001888152602001878152506040518263ffffffff1660e01b815260040161323e9190615b55565b6080604051808303816000875af115801561325d573d6000803e3d6000fd5b505050506040513d601f19601f820116820180604052508101906132819190615c10565b50919450925090505b96509650969350505050565b6132a08133614925565b50565b60006132af8383611d0e565b61332f5760008381526003602090815260408083206001600160a01b03861684529091529020805460ff191660011790556132e73390565b6001600160a01b0316826001600160a01b0316847f2f8788117e7eff1d82e926ec794901d17c78024a50270940304540a733656f0d60405160405180910390a4506001610888565b506000610888565b60006133438383611d0e565b1561332f5760008381526003602090815260408083206001600160a01b0386168085529252808320805460ff1916905551339286917ff6391f5c32d9c69d2a47ea670b442974b53935d1edc7fd64eb21e047a839171b9190a4506001610888565b6040516bffffffffffffffffffffffff19606085901b16602082015260e883811b603483015282901b6037820152600090603a016040516020818303038152906040528051906020012090509392505050565b6040516001600160a01b03848116602483015283811660448301526064820183905261105d9186918216906323b872dd906084015b604051602081830303815290604052915060e01b6020820180516001600160e01b038381831617835250505050614967565b606080600061346f848601866154e7565b5090506000806134af6134858460000151612cd2565b613495856040015160020b612d43565b6134a5866060015160020b612d43565b8660800151613066565b6040805160028082526060820183529395509193506000929060208301908036833701905050905083600001516001600160a01b0316630dfe16816040518163ffffffff1660e01b8152600401602060405180830381865afa158015613519573d6000803e3d6000fd5b505050506040513d601f19601f8201168201806040525081019061353d919061590a565b81600081518110613550576135506156e1565b60200260200101906001600160a01b031690816001600160a01b03168152505083600001516001600160a01b031663d21220a76040518163ffffffff1660e01b8152600401602060405180830381865afa1580156135b2573d6000803e3d6000fd5b505050506040513d601f19601f820116820180604052508101906135d6919061590a565b816001815181106135e9576135e96156e1565b6001600160a01b039290921660209283029190910182015260408051600280825260608201835260009391929091830190803683370190505090508381600081518110613638576136386156e1565b6020026020010181815250508281600181518110613658576136586156e1565b6020908102919091010152909890975095505050505050565b6001600160a01b0383166000908152600160209081526040808320858452909152812080548392906136a49084906153ea565b9091555050604080513381526020810183905283916001600160a01b03861691600091600080516020615f598339815191529101612cc5565b600081602001516001600160a01b031682600001516001600160a01b03161061370557600080fd5b815160208084015160408086015181516001600160a01b0395861681860152949092168482015262ffffff90911660608085019190915281518085038201815260808501909252815191909201206001600160f81b031960a08401529085901b6bffffffffffffffffffffffff191660a183015260b58201527f000000000000000000000000000000000000000000000000000000000000000060d582015260f50160408051601f1981840301815291905280516020909101209392505050565b6000836001600160a01b0316856001600160a01b031611156137e6579293925b846001600160a01b0316866001600160a01b0316116138115761380a8585856149ca565b9050613881565b836001600160a01b0316866001600160a01b031610156138735760006138388786866149ca565b90506000613847878986614a2d565b9050806001600160801b0316826001600160801b031610613868578061386a565b815b92505050613881565b61387e858584614a2d565b90505b95945050505050565b600061389683836136dd565b9050336001600160a01b0382161461088857600080fd5b306001600160a01b038416036138cd576138c8848383614a6a565b61105d565b61105d848484846133f7565b60606000828060200190518101906138f19190615c51565b9050600030826000015183602001518460400151856060015160405160200161391e959493929190615535565b60408051601f198184030181529181528151602092830120600081815260048452828120600685528382206001600160a01b038b16835290945291822060808601518154929550909290918391906139809084906001600160801b03166156c2565b82546101009290920a6001600160801b03818102199093169183160217909155825467ffffffffffffffff60801b1916600160801b426001600160401b0316021783556080860151845490925084916000916139de9185911661556b565b92506101000a8154816001600160801b0302191690836001600160801b0316021790555083608001518260060160008282829054906101000a90046001600160801b0316613a2c91906156c2565b92506101000a8154816001600160801b0302191690836001600160801b03160217905550613a68878486608001516001600160801b0316612c5d565b80546040517f8931c5d3c1d66550459f02cf404dd5532633346f13fc1a916598d1fe1bc9a07e91613aae9187918b91600160801b9091046001600160401b031690615ccd565b60405180910390a1608084810151604051911b6001600160801b031916602082015260300160405160208183030381529060405294505050505092915050565b600081806020019051810190613b049190615c51565b90506000308260000151836020015184604001518560600151604051602001613b31959493929190615535565b60408051601f198184030181529181528151602092830120600081815260048452828120600685528382206001600160a01b03808b16845290865284832088870151909116835260079095529290205483549194509192914291613ba8916001600160401b0390811691600160801b900416615d03565b6001600160401b03161115613bd057604051635ff1b24b60e11b815260040160405180910390fd5b6080840151825460068401546001600160801b0392831692600160801b8304811692613bff92821691166156c2565b613c09919061556b565b6001600160801b03161015613c315760405163bb55fd2760e01b815260040160405180910390fd5b60008085600001516001600160a01b031663a34123a78760400151886060015189608001516040518463ffffffff1660e01b8152600401613c749392919061558a565b60408051808303816000875af1158015613c92573d6000803e3d6000fd5b505050506040513d601f19601f82011682018060405250810190613cb691906155b0565b87516040808a015160608b015191516309e3d67b60e31b81529496509294506001600160a01b0390911692634f1eb3d892613cf9928d92889088906004016155d4565b60408051808303816000875af1158015613d17573d6000803e3d6000fd5b505050506040513d601f19601f82011682018060405250810190613d3b9190615611565b5050613d5584876000015188604001518960600151612afe565b6080860151600685018054600090613d779084906001600160801b031661556b565b92506101000a8154816001600160801b0302191690836001600160801b0316021790555085608001518360000160008282829054906101000a90046001600160801b0316613dc5919061556b565b92506101000a8154816001600160801b0302191690836001600160801b031602179055507feda6e3d9fe209eb30b41c6c1e71df1755b6801720c6257dc94ec73fa241242cf86898384604051613e1e949392919061568f565b60405180910390a15050505050505050565b60008060008084806020019051810190613e4a9190615d22565b935093509350935060003085858585604051602001613e6d959493929190615535565b60408051601f198184030181528282528051602091820120600081815260049283905292832063a34123a760e01b8552909450926001600160a01b0389169263a34123a792613ec2928992899290910161558a565b60408051808303816000875af1158015613ee0573d6000803e3d6000fd5b505050506040513d601f19601f82011682018060405250810190613f0491906155b0565b5050613f1281878686612afe565b600a5460038201546040516309e3d67b60e31b81526001600160a01b0389811693634f1eb3d893613f63939290911691899189916001600160801b0380831692600160801b900416906004016155d4565b60408051808303816000875af1158015613f81573d6000803e3d6000fd5b505050506040513d601f19601f82011682018060405250810190613fa59190615611565b50506000600390910155505050505050565b600081806020019051810190613fcd9190615df7565b9050806060015160020b8160a00151600081518110613fee57613fee6156e1565b602002602001015160020b14158061403e5750806080015160020b8160a0015160018360a001515161402091906153d7565b81518110614030576140306156e1565b602002602001015160020b14155b1561405c57604051631434ed7f60e01b815260040160405180910390fd5b6000308260200151836040015184606001518560800151604051602001614087959493929190615535565b60408051808303601f190181529181528151602092830120600081815260048452828120868401516001600160a01b031682526009909452919091205490925065010000000000900460ff166140f057604051632a1b540760e01b815260040160405180910390fd5b82516001600160a01b0316600090815260016020908152604080832085845290915290205481548190614135906001600160801b03600160801b82048116911661556b565b6001600160801b0316101561415d5760405163bb55fd2760e01b815260040160405180910390fd5b6141a96040518060e0016040528060006001600160a01b031681526020016000815260200160008152602001600060020b81526020016000815260200160008152602001600081525090565b6141b68560200151612cd2565b6001600160a01b031680825260608601516141e891906141d590612d43565b6141e28860800151612d43565b85613066565b6040830152602082015282548290849060009061420f9084906001600160801b031661556b565b92506101000a8154816001600160801b0302191690836001600160801b0316021790555061424285600001518584612c5d565b7ff6712e9ab46ec463b822b25c7cd53a85bb9386675c5c5d547c78a4ebed1bd7816040518060a0016040528087602001516001600160a01b0316815260200187604001516001600160a01b03168152602001876060015160020b8152602001876080015160020b8152602001846001600160801b03168152508660000151836020015184604001516040516142da949392919061568f565b60405180910390a184602001516001600160a01b031663d0c93a7c6040518163ffffffff1660e01b8152600401602060405180830381865afa158015614324573d6000803e3d6000fd5b505050506040513d601f19601f820116820180604052508101906143489190615ec1565b60020b606080830182905286015160808701516143659190615ede565b60020b6143729190615f03565b6080820181905260208201516143889190615f03565b60a0820152608081015160408201516143a19190615f03565b60c082015260005b60018660a00151516143bb91906153d7565b8110156147625760008660a0015182815181106143da576143da6156e1565b6020026020010151905060008760a001518360016143f891906153ea565b81518110614408576144086156e1565b602002602001015190508060020b8260020b1261443857604051631434ed7f60e01b815260040160405180910390fd5b6144816040518060e001604052806000815260200160008152602001600081526020016000815260200160006001600160801b0316815260200160008152602001600081525090565b3089602001518a6040015185856040516020016144a2959493929190615535565b60408051601f198184030181529181528151602092830120808452600090815260049092529020606086015160020b6144db8585615ede565b60020b6144e89190615f03565b6020830181905260a08701516144fe9190615f25565b6040830152602082015160c08701516145179190615f25565b606083015285516145439061452b86612d43565b61453486612d43565b856040015186606001516137c6565b6001600160801b03908116608084810191909152604080516101408101825284548085168252600160801b908190048516602083015260018087015483850152600287015460608085019190915260038801548088169685019690965291909404851660a083015260048601546001600160a01b0390811660c0840152600587015490811660e0840152600160a01b900462ffffff1661010083015260068601549094166101208201529085015192850151614603938891889190613102565b60c085015260a08401819052602088018051919250906146249083906153d7565b90525060c082015160408701805161463d9083906153d7565b90525060208a01516146529082908686612afe565b6080820151815482906000906146729084906001600160801b03166156c2565b92506101000a8154816001600160801b0302191690836001600160801b031602179055506146b68a60000151836000015184608001516001600160801b0316613671565b7fe37ed9ef07c82bfef5e4b1503d49939505996bb0aea458cb274ba82e934f86e66040518060a001604052808c602001516001600160a01b031681526020018c604001516001600160a01b031681526020018660020b81526020018560020b815260200184608001516001600160801b03168152508b600001518460400151856060015160405161474a949392919061568f565b60405180910390a15050600190920191506143a99050565b5060208101511561478e5784516020820151600485015461478e926001600160a01b0390911691614a6a565b60408101511561139357845160408201516005850154611393926001600160a01b0390911691614a6a565b60008080600019858709858702925082811083820303915050806000036147f257600084116147e757600080fd5b508290049050610931565b8084116147fe57600080fd5b6000848688096000868103871696879004966002600389028118808a02820302808a02820302808a02820302808a02820302808a02820302808a02909103029181900381900460010186841190950394909402919094039290920491909117919091029150509392505050565b6000826001600160a01b0316846001600160a01b0316111561488b579192915b836001600160a01b03166148c4606060ff16846001600160801b0316901b8686036001600160a01b0316866001600160a01b03166147b9565b816148d1576148d1615b3f565b04949350505050565b6000826001600160a01b0316846001600160a01b031611156148fa579192915b61491d826001600160801b03168585036001600160a01b0316600160601b6147b9565b949350505050565b61492f8282611d0e565b6149635760405163e2517d3f60e01b81526001600160a01b0382166004820152602481018390526044015b60405180910390fd5b5050565b600061497c6001600160a01b03841683614a9b565b905080516000141580156149a157508080602001905181019061499f9190615710565b155b1561109657604051635274afe760e01b81526001600160a01b038416600482015260240161495a565b6000826001600160a01b0316846001600160a01b031611156149ea579192915b6000614a0d856001600160a01b0316856001600160a01b0316600160601b6147b9565b9050613881614a2884838888036001600160a01b03166147b9565b614aa9565b6000826001600160a01b0316846001600160a01b03161115614a4d579192915b61491d614a2883600160601b8787036001600160a01b03166147b9565b6040516001600160a01b0383811660248301526044820183905261109691859182169063a9059cbb9060640161342c565b606061093183836000614ac4565b806001600160801b0381168114614abf57600080fd5b919050565b606081471015614ae95760405163cd78605960e01b815230600482015260240161495a565b600080856001600160a01b03168486604051614b059190615f3c565b60006040518083038185875af1925050503d8060008114614b42576040519150601f19603f3d011682016040523d82523d6000602084013e614b47565b606091505b5091509150614b57868383614b61565b9695505050505050565b606082614b7657614b7182614bbd565b610931565b8151158015614b8d57506001600160a01b0384163b155b15614bb657604051639996b31560e01b81526001600160a01b038516600482015260240161495a565b5080610931565b805115614bcd5780518082602001fd5b604051630a12f52160e11b815260040160405180910390fd5b6001600160a01b03811681146132a057600080fd5b8035614abf81614be6565b60008060408385031215614c1957600080fd5b8235614c2481614be6565b946020939093013593505050565b600060208284031215614c4457600080fd5b81356001600160e01b03198116811461093157600080fd5b600080600060608486031215614c7157600080fd5b8335614c7c81614be6565b95602085013595506040909401359392505050565b60008083601f840112614ca357600080fd5b5081356001600160401b03811115614cba57600080fd5b60208301915083602082850101111561103157600080fd5b600080600060408486031215614ce757600080fd5b8335614cf281614be6565b925060208401356001600160401b03811115614d0d57600080fd5b614d1986828701614c91565b9497909650939450505050565b600060208284031215614d3857600080fd5b5035919050565b60008060208385031215614d5257600080fd5b82356001600160401b03811115614d6857600080fd5b614d7485828601614c91565b90969095509350505050565b600081518084526020840193506020830160005b82811015614db2578151865260209586019590910190600101614d94565b5093949350505050565b604081526000614dcf6040830185614d80565b90508260208301529392505050565b60008060408385031215614df157600080fd5b823591506020830135614e0381614be6565b809150509250929050565b8060020b81146132a057600080fd5b8035614abf81614e0e565b6001600160801b03811681146132a057600080fd5b600080600080600060a08688031215614e5557600080fd5b8535614e6081614be6565b94506020860135614e7081614e0e565b93506040860135614e8081614e0e565b92506060860135614e9081614e28565b91506080860135614ea081614be6565b809150509295509295909350565b80151581146132a057600080fd5b60008060408385031215614ecf57600080fd5b8235614eda81614be6565b91506020830135614e0381614eae565b600080600060608486031215614eff57600080fd5b8335614f0a81614be6565b92506020840135614f1a81614be6565b929592945050506040919091013590565b600081518084526020840193506020830160005b82811015614db25781516001600160a01b0316865260209586019590910190600101614f3f565b604081526000614f796040830185614f2b565b82810360208401526138818185614d80565b600080600080600060a08688031215614fa357600080fd5b8535614fae81614be6565b94506020860135614fbe81614eae565b93506040860135614fce81614be6565b925060608601356001600160401b0381168114614e9057600080fd5b600060208284031215614ffc57600080fd5b813561093181614be6565b634e487b7160e01b600052604160045260246000fd5b60405161014081016001600160401b038111828210171561504057615040615007565b60405290565b60405160c081016001600160401b038111828210171561504057615040615007565b60405160a081016001600160401b038111828210171561504057615040615007565b604051606081016001600160401b038111828210171561504057615040615007565b604051601f8201601f191681016001600160401b03811182821017156150d4576150d4615007565b604052919050565b62ffffff811681146132a057600080fd5b8035614abf816150dc565b600061014082840312801561510c57600080fd5b50600061511761501d565b61512084614bfb565b815261512e60208501614bfb565b602082015261513f604085016150ed565b604082015261515060608501614bfb565b606082015261516160808501614e1d565b608082015261517260a08501614e1d565b60a082015260c0848101359082015260e0808501359082015261010080850135908201526101209384013593810193909352509092915050565b6060815260006151bf6060830186614f2b565b82810360208401526151d18186614d80565b915050826040830152949350505050565b600080604083850312156151f557600080fd5b823561520081614be6565b91506020830135614e0381614be6565b60008082840360e081121561522457600080fd5b833561522f81614be6565b925060c0601f198201121561524357600080fd5b5061524c615046565b602084013561525a81614eae565b8152604084013561526a81614eae565b6020820152606084013561527d81614eae565b6040820152608084013561529081614eae565b606082015260a08401356152a381614eae565b608082015260c08401356152b681614eae565b60a0820152919491935090915050565b600080600080606085870312156152dc57600080fd5b843593506020850135925060408501356001600160401b0381111561530057600080fd5b61530c87828801614c91565b95989497509550505050565b60005b8381101561533357818101518382015260200161531b565b50506000910152565b60008151808452615354816020860160208601615318565b601f01601f19169290920160200192915050565b602081526000610931602083018461533c565b6000806000806080858703121561539157600080fd5b843561539c81614be6565b935060208501356153ac81614be6565b93969395505050506040820135916060013590565b634e487b7160e01b600052601160045260246000fd5b81810381811115610888576108886153c1565b80820180821115610888576108886153c1565b600060a0828403121561540f57600080fd5b615417615068565b9050813561542481614be6565b8152602082013561543481614be6565b6020820152604082013561544781614e0e565b6040820152606082013561545a81614e0e565b6060820152608082013561546d81614e28565b608082015292915050565b600082601f83011261548957600080fd5b81356001600160401b038111156154a2576154a2615007565b6154b5601f8201601f19166020016150ac565b8181528460208386010111156154ca57600080fd5b816020850160208301376000918101602001919091529392505050565b60008060c083850312156154fa57600080fd5b61550484846153fd565b915060a08301356001600160401b0381111561551f57600080fd5b61552b85828601615478565b9150509250929050565b6001600160a01b0395861681529385166020850152919093166040830152600292830b606083015290910b608082015260a00190565b6001600160801b038281168282160390811115610888576108886153c1565b600293840b81529190920b60208201526001600160801b03909116604082015260600190565b600080604083850312156155c357600080fd5b505080516020909101519092909150565b6001600160a01b03959095168552600293840b60208601529190920b60408401526001600160801b03918216606084015216608082015260a00190565b6000806040838503121561562457600080fd5b825161562f81614e28565b6020840151909250614e0381614e28565b60018060a01b03815116825260018060a01b036020820151166020830152604081015160020b6040830152606081015160020b60608301526001600160801b0360808201511660808301525050565b610100810161569e8287615640565b6001600160a01b039490941660a082015260c081019290925260e090910152919050565b6001600160801b038181168382160190811115610888576108886153c1565b634e487b7160e01b600052603260045260246000fd5b60006020828403121561570957600080fd5b5051919050565b60006020828403121561572257600080fd5b815161093181614eae565b600080600080600060a0868803121561574557600080fd5b855161575081614e28565b602087015160408801516060890151929750909550935061577081614e28565b6080870151909250614ea081614e28565b60008082840360e081121561579557600080fd5b60c08112156157a357600080fd5b506157ac615046565b83356157b781614be6565b815260208401356157c781614be6565b602082015260408401356157da81614e0e565b604082015260608401356157ed81614e0e565b6060820152608084013561580081614e28565b608082015260a084013561581381614e28565b60a0820152915060c08301356001600160401b0381111561551f57600080fd5b600060e08201905060018060a01b03845116825260018060a01b036020850151166020830152604084015160020b6040830152606084015160020b60608301526001600160801b0360808501511660808301526001600160801b0360a08501511660a083015261093160c08301846001600160a01b03169052565b600080600080608085870312156158c457600080fd5b84356158cf81614be6565b935060208501356158df81614be6565b925060408501356158ef81614e0e565b915060608501356158ff81614e0e565b939692955090935050565b60006020828403121561591c57600080fd5b815161093181614be6565b60006020828403121561593957600080fd5b8151610931816150dc565b8051614abf81614e0e565b805161ffff81168114614abf57600080fd5b600080600080600080600060e0888a03121561597c57600080fd5b875161598781614be6565b602089015190975061599881614e0e565b95506159a66040890161594f565b94506159b46060890161594f565b93506159c26080890161594f565b925060a088015160ff811681146159d857600080fd5b60c08901519092506159e981614eae565b8091505092959891949750929550565b60018060a01b03861681528460020b60208201528360020b60408201526001600160801b038316606082015260a060808201526000615a3b60a083018461533c565b979650505050505050565b6000818303608081128015615a5a57600080fd5b50604080519081016001600160401b0381118282101715615a7d57615a7d615007565b6040526060821215615a8e57600080fd5b615a9661508a565b91508335615aa381614be6565b82526020840135615ab381614be6565b60208301526040840135615ac6816150dc565b6040830152908152606083013590615add82614be6565b60208101919091529392505050565b60008060408385031215615aff57600080fd5b823560048110615b0e57600080fd5b915060208301356001600160401b0381111561551f57600080fd5b634e487b7160e01b600052602160045260246000fd5b634e487b7160e01b600052601260045260246000fd5b81516001600160a01b0316815261014081016020830151615b8160208401826001600160a01b03169052565b506040830151615b98604084018262ffffff169052565b506060830151615bb360608401826001600160a01b03169052565b506080830151615bc8608084018260020b9052565b5060a0830151615bdd60a084018260020b9052565b5060c083015160c083015260e083015160e083015261010083015161010083015261012083015161012083015292915050565b60008060008060808587031215615c2657600080fd5b8451615c3181614e28565b60208601516040870151606088015192965090945092506158ff81614be6565b600060a0828403128015615c6457600080fd5b50615c6d615068565b8251615c7881614be6565b81526020830151615c8881614be6565b60208201526040830151615c9b81614e0e565b60408201526060830151615cae81614e0e565b60608201526080830151615cc181614e28565b60808201529392505050565b60e08101615cdb8286615640565b6001600160a01b039390931660a08201526001600160401b039190911660c090910152919050565b6001600160401b038181168382160190811115610888576108886153c1565b60008060008060808587031215615d3857600080fd5b8451615d4381614be6565b6020860151909450615d5481614be6565b6040860151909350615d6581614e0e565b60608601519092506158ff81614e0e565b600082601f830112615d8757600080fd5b81516001600160401b03811115615da057615da0615007565b8060051b615db0602082016150ac565b91825260208185018101929081019086841115615dcc57600080fd5b6020860192505b83831015614b57578251615de681614e0e565b825260209283019290910190615dd3565b600060208284031215615e0957600080fd5b81516001600160401b03811115615e1f57600080fd5b820160c08185031215615e3157600080fd5b615e39615046565b8151615e4481614be6565b81526020820151615e5481614be6565b60208201526040820151615e6781614be6565b6040820152615e7860608301615944565b6060820152615e8960808301615944565b608082015260a08201516001600160401b03811115615ea757600080fd5b615eb386828501615d76565b60a083015250949350505050565b600060208284031215615ed357600080fd5b815161093181614e0e565b600282810b9082900b03627fffff198112627fffff82131715610888576108886153c1565b600082615f2057634e487b7160e01b600052601260045260246000fd5b500490565b8082028115828204841417610888576108886153c1565b60008251615f4e818460208701615318565b919091019291505056fe1b3d7edb2e9c0b0e7c525b20aaaef0f5940d2ed71663c7d39266ecafac728859a26469706673582212201fc8c95948d00a96af228d197fa4da889e35b4aece8c4c9f1941949e4a18313664736f6c634300081a0033","linkReferences":{}},"methodIdentifiers":{"DEFAULT_ADMIN_ROLE()":"a217fddf","POOL_INIT_CODE_HASH()":"dc6fd8ab","addLiquidity((address,address,uint24,address,int24,int24,uint256,uint256,uint256,uint256))":"9981bb9b","allowance(address,address,uint256)":"598af9e7","approve(address,uint256,uint256)":"426a8493","balanceOf(address,uint256)":"00fdd58e","burnPositionHandler(address,bytes)":"1575e948","donateToPosition(bytes)":"4d0b1de3","emergencyPause()":"51858e27","emergencyUnpause()":"4a4e3bd5","factory()":"c45a0155","feeReceiver()":"b3f00674","forceWithdrawUniswapV3LiquidityAndToken(address,int24,int24,uint128,address)":"48f449bd","getHandlerIdentifier(bytes)":"63f558c8","getRoleAdmin(bytes32)":"248a9ca3","grantRole(bytes32,address)":"2f2ff15d","hasRole(bytes32,address)":"91d14854","hookPerms(address)":"e1b130d6","hookRegistered(address)":"9f1c8473","isOperator(address,address)":"b6363cf2","mintPositionHandler(address,bytes)":"7b3fd965","pause()":"8456cb59","registerHook(address,(bool,bool,bool,bool,bool,bool))":"bdab027b","renounceRole(bytes32,address)":"36568abe","reserveCooldownHook(address)":"d9843c11","reservedLiquidityPerUser(uint256,address)":"5bbc4068","revokeRole(bytes32,address)":"d547741f","setOperator(address,bool)":"558a7297","supportsInterface(bytes4)":"01ffc9a7","tokenIds(uint256)":"d58778d6","tokensToPullForDonate(bytes)":"b8ea4a84","tokensToPullForMint(bytes)":"742b5fdd","tokensToPullForUnUse(bytes)":"e0f19adf","tokensToPullForWildcard(bytes)":"e88c9ffd","transfer(address,uint256,uint256)":"095bcdb6","transferFrom(address,address,uint256,uint256)":"fe99049a","uniswapV3MintCallback(uint256,uint256,bytes)":"d3487997","unusePositionHandler(bytes)":"2b4d93ea","updateHandlerSettings(address,bool,address,uint64,address)":"893e81ec","usePositionHandler(bytes)":"b220e470","whitelistedApps(address)":"8cf69998","wildcardHandler(address,bytes)":"eb148be4"},"id":63}