{"abi":[{"type":"constructor","inputs":[],"stateMutability":"nonpayable"},{"type":"function","name":"onBurnAfter","inputs":[{"name":"","type":"bytes","internalType":"bytes"}],"outputs":[],"stateMutability":"nonpayable"},{"type":"function","name":"onBurnBefore","inputs":[{"name":"","type":"bytes","internalType":"bytes"}],"outputs":[],"stateMutability":"nonpayable"},{"type":"function","name":"onDonationAfter","inputs":[{"name":"","type":"bytes","internalType":"bytes"}],"outputs":[],"stateMutability":"nonpayable"},{"type":"function","name":"onDonationBefore","inputs":[{"name":"","type":"bytes","internalType":"bytes"}],"outputs":[],"stateMutability":"nonpayable"},{"type":"function","name":"onMintAfter","inputs":[{"name":"","type":"bytes","internalType":"bytes"}],"outputs":[],"stateMutability":"nonpayable"},{"type":"function","name":"onMintBefore","inputs":[{"name":"","type":"bytes","internalType":"bytes"}],"outputs":[],"stateMutability":"nonpayable"},{"type":"function","name":"onPositionUnUseAfter","inputs":[{"name":"","type":"bytes","internalType":"bytes"}],"outputs":[],"stateMutability":"nonpayable"},{"type":"function","name":"onPositionUnUseBefore","inputs":[{"name":"","type":"bytes","internalType":"bytes"}],"outputs":[],"stateMutability":"nonpayable"},{"type":"function","name":"onPositionUseAfter","inputs":[{"name":"","type":"bytes","internalType":"bytes"}],"outputs":[],"stateMutability":"nonpayable"},{"type":"function","name":"onPositionUseBefore","inputs":[{"name":"_data","type":"bytes","internalType":"bytes"}],"outputs":[],"stateMutability":"nonpayable"},{"type":"function","name":"onReserveAfter","inputs":[{"name":"","type":"bytes","internalType":"bytes"}],"outputs":[],"stateMutability":"nonpayable"},{"type":"function","name":"onReserveBefore","inputs":[{"name":"","type":"bytes","internalType":"bytes"}],"outputs":[],"stateMutability":"nonpayable"},{"type":"function","name":"onWildcardAfter","inputs":[{"name":"","type":"bytes","internalType":"bytes"}],"outputs":[],"stateMutability":"nonpayable"},{"type":"function","name":"onWildcardBefore","inputs":[{"name":"","type":"bytes","internalType":"bytes"}],"outputs":[],"stateMutability":"nonpayable"},{"type":"function","name":"owner","inputs":[],"outputs":[{"name":"","type":"address","internalType":"address"}],"stateMutability":"view"},{"type":"function","name":"registerHook","inputs":[{"name":"_handler","type":"address","internalType":"address"}],"outputs":[],"stateMutability":"nonpayable"},{"type":"function","name":"renounceOwnership","inputs":[],"outputs":[],"stateMutability":"nonpayable"},{"type":"function","name":"transferOwnership","inputs":[{"name":"newOwner","type":"address","internalType":"address"}],"outputs":[],"stateMutability":"nonpayable"},{"type":"function","name":"updateWhitelistedAppsStatus","inputs":[{"name":"app","type":"address","internalType":"address"},{"name":"status","type":"bool","internalType":"bool"}],"outputs":[],"stateMutability":"nonpayable"},{"type":"event","name":"OwnershipTransferred","inputs":[{"name":"previousOwner","type":"address","indexed":true,"internalType":"address"},{"name":"newOwner","type":"address","indexed":true,"internalType":"address"}],"anonymous":false},{"type":"error","name":"AppNotWhitelisted","inputs":[]},{"type":"error","name":"ExpiryTooLong","inputs":[]},{"type":"error","name":"OwnableInvalidOwner","inputs":[{"name":"owner","type":"address","internalType":"address"}]},{"type":"error","name":"OwnableUnauthorizedAccount","inputs":[{"name":"account","type":"address","internalType":"address"}]}],"bytecode":{"object":"0x6080604052348015600f57600080fd5b503380603557604051631e4fbdf760e01b81526000600482015260240160405180910390fd5b603c816041565b506091565b600080546001600160a01b038381166001600160a01b0319831681178455604051919092169283917f8be0079c531659141344cd1fd0a4f28419497f9722a3daafe3b4186f6b6457e09190a35050565b610573806100a06000396000f3fe608060405234801561001057600080fd5b50600436106101215760003560e01c806387983d66116100ad578063afd929fe11610071578063afd929fe14610126578063c0be093214610126578063d6067beb14610126578063e849a8b614610126578063f2fde38b1461019a57600080fd5b806387983d66146101265780638b5ef33a146101265780638da5cb5b146101685780638e007f7014610187578063a2b330b51461012657600080fd5b8063653c5ed0116100f4578063653c5ed014610126578063698f324d14610126578063715018a61461014d578063753f19fb1461015557806376f1eceb1461012657600080fd5b806327358593146101265780633fc321731461012657806340b62019146101265780636354b6611461013a575b600080fd5b6101386101343660046103ff565b5050565b005b610138610148366004610488565b6101ad565b610138610278565b6101386101633660046103ff565b61028c565b600054604080516001600160a01b039092168252519081900360200190f35b6101386101953660046104ac565b61030c565b6101386101a8366004610488565b61033f565b6101b5610382565b6040805160c0810182526000808252602082018181526001838501818152606085018481526080860194855260a08601928352955163bdab027b60e01b815230600482015294511515602486015291511515604485015290511515606484015292511515608483015251151560a48201529051151560c48201526001600160a01b0382169063bdab027b9060e401600060405180830381600087803b15801561025d57600080fd5b505af1158015610271573d6000803e3d6000fd5b5050505050565b610280610382565b61028a60006103af565b565b60008061029b838501856104ea565b6001600160a01b038216600090815260016020526040902054919350915060ff166102d9576040516334dddfcb60e11b815260040160405180910390fd5b620151806102e74283610516565b111561030657604051635a05950760e11b815260040160405180910390fd5b50505050565b610314610382565b6001600160a01b03919091166000908152600160205260409020805460ff1916911515919091179055565b610347610382565b6001600160a01b03811661037657604051631e4fbdf760e01b8152600060048201526024015b60405180910390fd5b61037f816103af565b50565b6000546001600160a01b0316331461028a5760405163118cdaa760e01b815233600482015260240161036d565b600080546001600160a01b038381166001600160a01b0319831681178455604051919092169283917f8be0079c531659141344cd1fd0a4f28419497f9722a3daafe3b4186f6b6457e09190a35050565b6000806020838503121561041257600080fd5b823567ffffffffffffffff81111561042957600080fd5b8301601f8101851361043a57600080fd5b803567ffffffffffffffff81111561045157600080fd5b85602082840101111561046357600080fd5b6020919091019590945092505050565b6001600160a01b038116811461037f57600080fd5b60006020828403121561049a57600080fd5b81356104a581610473565b9392505050565b600080604083850312156104bf57600080fd5b82356104ca81610473565b9150602083013580151581146104df57600080fd5b809150509250929050565b600080604083850312156104fd57600080fd5b823561050881610473565b946020939093013593505050565b8181038181111561053757634e487b7160e01b600052601160045260246000fd5b9291505056fea2646970667358221220f3f61eb19d7b515ec6a8abd20beff91167243adceff7ca64ffeb160c7345d61a64736f6c634300081a0033","linkReferences":{}},"methodIdentifiers":{"onBurnAfter(bytes)":"698f324d","onBurnBefore(bytes)":"e849a8b6","onDonationAfter(bytes)":"a2b330b5","onDonationBefore(bytes)":"8b5ef33a","onMintAfter(bytes)":"653c5ed0","onMintBefore(bytes)":"3fc32173","onPositionUnUseAfter(bytes)":"76f1eceb","onPositionUnUseBefore(bytes)":"40b62019","onPositionUseAfter(bytes)":"27358593","onPositionUseBefore(bytes)":"753f19fb","onReserveAfter(bytes)":"c0be0932","onReserveBefore(bytes)":"afd929fe","onWildcardAfter(bytes)":"87983d66","onWildcardBefore(bytes)":"d6067beb","owner()":"8da5cb5b","registerHook(address)":"6354b661","renounceOwnership()":"715018a6","transferOwnership(address)":"f2fde38b","updateWhitelistedAppsStatus(address,bool)":"8e007f70"},"id":68}