{"abi":[{"type":"constructor","inputs":[],"stateMutability":"nonpayable"},{"type":"function","name":"onSwapReceived","inputs":[{"name":"_tokenIn","type":"address","internalType":"address"},{"name":"_tokenOut","type":"address","internalType":"address"},{"name":"_amountIn","type":"uint256","internalType":"uint256"},{"name":"_swapData","type":"bytes","internalType":"bytes"}],"outputs":[{"name":"amountOut","type":"uint256","internalType":"uint256"}],"stateMutability":"nonpayable"},{"type":"function","name":"owner","inputs":[],"outputs":[{"name":"","type":"address","internalType":"address"}],"stateMutability":"view"},{"type":"function","name":"renounceOwnership","inputs":[],"outputs":[],"stateMutability":"nonpayable"},{"type":"function","name":"transferOwnership","inputs":[{"name":"newOwner","type":"address","internalType":"address"}],"outputs":[],"stateMutability":"nonpayable"},{"type":"event","name":"OnSwapReceived","inputs":[{"name":"_amountIn","type":"uint256","indexed":false,"internalType":"uint256"},{"name":"_amountOut","type":"uint256","indexed":false,"internalType":"uint256"},{"name":"_tokenIn","type":"address","indexed":false,"internalType":"address"},{"name":"_tokenOut","type":"address","indexed":false,"internalType":"address"},{"name":"_swapper","type":"address","indexed":false,"internalType":"address"}],"anonymous":false},{"type":"event","name":"OwnershipTransferred","inputs":[{"name":"previousOwner","type":"address","indexed":true,"internalType":"address"},{"name":"newOwner","type":"address","indexed":true,"internalType":"address"}],"anonymous":false},{"type":"event","name":"SwapperWhitelisted","inputs":[{"name":"_address","type":"address","indexed":false,"internalType":"address"},{"name":"_isWhitelisted","type":"bool","indexed":false,"internalType":"bool"}],"anonymous":false},{"type":"error","name":"AddressEmptyCode","inputs":[{"name":"target","type":"address","internalType":"address"}]},{"type":"error","name":"AddressInsufficientBalance","inputs":[{"name":"account","type":"address","internalType":"address"}]},{"type":"error","name":"FailedInnerCall","inputs":[]},{"type":"error","name":"OnSwapReceiver__AmountInNotReceived","inputs":[]},{"type":"error","name":"OnSwapReceiver__InsufficientAmountOut","inputs":[]},{"type":"error","name":"OnSwapReceiver__ZeroAddress","inputs":[]},{"type":"error","name":"OnSwapReceiver__onSwapReceivedFail","inputs":[{"name":"data","type":"bytes","internalType":"bytes"}]},{"type":"error","name":"OwnableInvalidOwner","inputs":[{"name":"owner","type":"address","internalType":"address"}]},{"type":"error","name":"OwnableUnauthorizedAccount","inputs":[{"name":"account","type":"address","internalType":"address"}]},{"type":"error","name":"SafeERC20FailedOperation","inputs":[{"name":"token","type":"address","internalType":"address"}]}],"bytecode":{"object":"0x6080604052348015600f57600080fd5b503380603557604051631e4fbdf760e01b81526000600482015260240160405180910390fd5b603c816041565b506091565b600080546001600160a01b038381166001600160a01b0319831681178455604051919092169283917f8be0079c531659141344cd1fd0a4f28419497f9722a3daafe3b4186f6b6457e09190a35050565b610af5806100a06000396000f3fe608060405234801561001057600080fd5b506004361061004c5760003560e01c8063715018a6146100515780638da5cb5b1461005b578063f2fde38b1461007b578063f3be6fc21461008e575b600080fd5b6100596100af565b005b6000546040516001600160a01b0390911681526020015b60405180910390f35b61005961008936600461081e565b6100c3565b6100a161009c3660046108aa565b610106565b604051908152602001610072565b6100b76103ff565b6100c1600061042c565b565b6100cb6103ff565b6001600160a01b0381166100fa57604051631e4fbdf760e01b8152600060048201526024015b60405180910390fd5b6101038161042c565b50565b600080859050600085905060606000808680602001905181019061012a919061097d565b9450925090506001600160a01b038a16158061014d57506001600160a01b038916155b8061015f57506001600160a01b038216155b1561017d57604051631e780f4760e01b815260040160405180910390fd5b6040516370a0823160e01b81523060048201526001600160a01b038616906370a0823190602401602060405180830381865afa1580156101c1573d6000803e3d6000fd5b505050506040513d601f19601f820116820180604052508101906101e59190610a14565b8811156102055760405163429e23a760e11b815260040160405180910390fd5b6102196001600160a01b038616838a61047c565b600080836001600160a01b0316856040516102349190610a2d565b6000604051808303816000865af19150503d8060008114610271576040519150601f19603f3d011682016040523d82523d6000602084013e610276565b606091505b50915091508161029b578060405163bab16e2b60e01b81526004016100f19190610a49565b6040516370a0823160e01b81523060048201526001600160a01b038716906370a0823190602401602060405180830381865afa1580156102df573d6000803e3d6000fd5b505050506040513d601f19601f820116820180604052508101906103039190610a14565b975082881015610326576040516316457ed160e31b815260040160405180910390fd5b60405163a9059cbb60e01b8152336004820152602481018990526001600160a01b0387169063a9059cbb906044016020604051808303816000875af1158015610373573d6000803e3d6000fd5b505050506040513d601f19601f820116820180604052508101906103979190610a7c565b50604080518b8152602081018a90526001600160a01b038e8116828401528d811660608301528616608082015290517fd79d51c325768bbfb176621d0b9b8744a84cd4e82686e95e562b30cb9fb46d639181900360a00190a150505050505050949350505050565b6000546001600160a01b031633146100c15760405163118cdaa760e01b81523360048201526024016100f1565b600080546001600160a01b038381166001600160a01b0319831681178455604051919092169283917f8be0079c531659141344cd1fd0a4f28419497f9722a3daafe3b4186f6b6457e09190a35050565b604051636eb1769f60e11b81523060048201526001600160a01b0383811660248301526000919085169063dd62ed3e90604401602060405180830381865afa1580156104cc573d6000803e3d6000fd5b505050506040513d601f19601f820116820180604052508101906104f09190610a14565b905061050684846105018585610a9e565b61050c565b50505050565b604080516001600160a01b038416602482015260448082018490528251808303909101815260649091019091526020810180516001600160e01b031663095ea7b360e01b17905261055d84826105c0565b61050657604080516001600160a01b038516602482015260006044808301919091528251808303909101815260649091019091526020810180516001600160e01b031663095ea7b360e01b1790526105b690859061066a565b610506848261066a565b6000806000846001600160a01b0316846040516105dd9190610a2d565b6000604051808303816000865af19150503d806000811461061a576040519150601f19603f3d011682016040523d82523d6000602084013e61061f565b606091505b50915091508180156106495750805115806106495750808060200190518101906106499190610a7c565b801561065f57506000856001600160a01b03163b115b925050505b92915050565b600061067f6001600160a01b038416836106d2565b905080516000141580156106a45750808060200190518101906106a29190610a7c565b155b156106cd57604051635274afe760e01b81526001600160a01b03841660048201526024016100f1565b505050565b60606106e0838360006106e7565b9392505050565b60608147101561070c5760405163cd78605960e01b81523060048201526024016100f1565b600080856001600160a01b031684866040516107289190610a2d565b60006040518083038185875af1925050503d8060008114610765576040519150601f19603f3d011682016040523d82523d6000602084013e61076a565b606091505b509150915061077a868383610784565b9695505050505050565b60608261079957610794826107e0565b6106e0565b81511580156107b057506001600160a01b0384163b155b156107d957604051639996b31560e01b81526001600160a01b03851660048201526024016100f1565b50806106e0565b8051156107f05780518082602001fd5b604051630a12f52160e11b815260040160405180910390fd5b6001600160a01b038116811461010357600080fd5b60006020828403121561083057600080fd5b81356106e081610809565b634e487b7160e01b600052604160045260246000fd5b604051601f8201601f1916810167ffffffffffffffff8111828210171561087a5761087a61083b565b604052919050565b600067ffffffffffffffff82111561089c5761089c61083b565b50601f01601f191660200190565b600080600080608085870312156108c057600080fd5b84356108cb81610809565b935060208501356108db81610809565b925060408501359150606085013567ffffffffffffffff8111156108fe57600080fd5b8501601f8101871361090f57600080fd5b803561092261091d82610882565b610851565b81815288602083850101111561093757600080fd5b8160208401602083013760006020838301015280935050505092959194509250565b60005b8381101561097457818101518382015260200161095c565b50506000910152565b60008060006060848603121561099257600080fd5b835160208501519093506109a581610809565b604085015190925067ffffffffffffffff8111156109c257600080fd5b8401601f810186136109d357600080fd5b80516109e161091d82610882565b8181528760208385010111156109f657600080fd5b610a07826020830160208601610959565b8093505050509250925092565b600060208284031215610a2657600080fd5b5051919050565b60008251610a3f818460208701610959565b9190910192915050565b6020815260008251806020840152610a68816040850160208701610959565b601f01601f19169190910160400192915050565b600060208284031215610a8e57600080fd5b815180151581146106e057600080fd5b8082018082111561066457634e487b7160e01b600052601160045260246000fdfea2646970667358221220b37772fce00ba9b3a40623c961dd2c0201e82eacdcad76f095e2d53332ca581664736f6c634300081a0033","linkReferences":{}},"methodIdentifiers":{"onSwapReceived(address,address,uint256,bytes)":"f3be6fc2","owner()":"8da5cb5b","renounceOwnership()":"715018a6","transferOwnership(address)":"f2fde38b"},"id":89}