{"abi":[{"type":"constructor","inputs":[{"name":"_oneInchRouter","type":"address","internalType":"address"}],"stateMutability":"nonpayable"},{"type":"function","name":"onSwapReceived","inputs":[{"name":"_tokenIn","type":"address","internalType":"address"},{"name":"_tokenOut","type":"address","internalType":"address"},{"name":"_amountIn","type":"uint256","internalType":"uint256"},{"name":"_swapData","type":"bytes","internalType":"bytes"}],"outputs":[{"name":"amountOut","type":"uint256","internalType":"uint256"}],"stateMutability":"nonpayable"},{"type":"function","name":"oneInchRouter","inputs":[],"outputs":[{"name":"","type":"address","internalType":"address"}],"stateMutability":"view"},{"type":"error","name":"AddressEmptyCode","inputs":[{"name":"target","type":"address","internalType":"address"}]},{"type":"error","name":"AddressInsufficientBalance","inputs":[{"name":"account","type":"address","internalType":"address"}]},{"type":"error","name":"FailedInnerCall","inputs":[]},{"type":"error","name":"SafeERC20FailedOperation","inputs":[{"name":"token","type":"address","internalType":"address"}]}],"bytecode":{"object":"0x60a0604052348015600f57600080fd5b50604051610799380380610799833981016040819052602c91603c565b6001600160a01b0316608052606a565b600060208284031215604d57600080fd5b81516001600160a01b0381168114606357600080fd5b9392505050565b6080516107096100906000396000818160400152818160b1015260da01526107096000f3fe608060405234801561001057600080fd5b50600436106100365760003560e01c8063ac3af2081461003b578063f3be6fc21461007f575b600080fd5b6100627f000000000000000000000000000000000000000000000000000000000000000081565b6040516001600160a01b0390911681526020015b60405180910390f35b61009261008d366004610564565b6100a0565b604051908152602001610076565b60006100d66001600160a01b0386167f0000000000000000000000000000000000000000000000000000000000000000856101a5565b60007f00000000000000000000000000000000000000000000000000000000000000006001600160a01b0316836040516101109190610648565b6000604051808303816000865af19150503d806000811461014d576040519150601f19603f3d011682016040523d82523d6000602084013e610152565b606091505b505090508061019c5760405162461bcd60e51b81526020600482015260116024820152700c5a5b98da081cddd85c0819985a5b1959607a1b60448201526064015b60405180910390fd5b50949350505050565b604051636eb1769f60e11b81523060048201526001600160a01b0383811660248301526000919085169063dd62ed3e90604401602060405180830381865afa1580156101f5573d6000803e3d6000fd5b505050506040513d601f19601f820116820180604052508101906102199190610677565b905061022f848461022a8585610690565b610235565b50505050565b604080516001600160a01b038416602482015260448082018490528251808303909101815260649091019091526020810180516001600160e01b031663095ea7b360e01b17905261028684826102e9565b61022f57604080516001600160a01b038516602482015260006044808301919091528251808303909101815260649091019091526020810180516001600160e01b031663095ea7b360e01b1790526102df908590610393565b61022f8482610393565b6000806000846001600160a01b0316846040516103069190610648565b6000604051808303816000865af19150503d8060008114610343576040519150601f19603f3d011682016040523d82523d6000602084013e610348565b606091505b509150915081801561037257508051158061037257508080602001905181019061037291906106b1565b801561038857506000856001600160a01b03163b115b925050505b92915050565b60006103a86001600160a01b038416836103fb565b905080516000141580156103cd5750808060200190518101906103cb91906106b1565b155b156103f657604051635274afe760e01b81526001600160a01b0384166004820152602401610193565b505050565b606061040983836000610410565b9392505050565b6060814710156104355760405163cd78605960e01b8152306004820152602401610193565b600080856001600160a01b031684866040516104519190610648565b60006040518083038185875af1925050503d806000811461048e576040519150601f19603f3d011682016040523d82523d6000602084013e610493565b606091505b50915091506104a38683836104ad565b9695505050505050565b6060826104c2576104bd82610509565b610409565b81511580156104d957506001600160a01b0384163b155b1561050257604051639996b31560e01b81526001600160a01b0385166004820152602401610193565b5080610409565b8051156105195780518082602001fd5b604051630a12f52160e11b815260040160405180910390fd5b80356001600160a01b038116811461054957600080fd5b919050565b634e487b7160e01b600052604160045260246000fd5b6000806000806080858703121561057a57600080fd5b61058385610532565b935061059160208601610532565b925060408501359150606085013567ffffffffffffffff8111156105b457600080fd5b8501601f810187136105c557600080fd5b803567ffffffffffffffff8111156105df576105df61054e565b604051601f8201601f19908116603f0116810167ffffffffffffffff8111828210171561060e5761060e61054e565b60405281815282820160200189101561062657600080fd5b8160208401602083013760006020838301015280935050505092959194509250565b6000825160005b81811015610669576020818601810151858301520161064f565b506000920191825250919050565b60006020828403121561068957600080fd5b5051919050565b8082018082111561038d57634e487b7160e01b600052601160045260246000fd5b6000602082840312156106c357600080fd5b8151801515811461040957600080fdfea2646970667358221220b9d2d177569ac447831c91c4a7c04ff89e61ece134b0dc4b397a51bbfc9c9c8f64736f6c634300081a0033","linkReferences":{}},"methodIdentifiers":{"onSwapReceived(address,address,uint256,bytes)":"f3be6fc2","oneInchRouter()":"ac3af208"},"id":90}