{"abi":[{"type":"function","name":"getSpotPrice","inputs":[{"name":"pool","type":"address","internalType":"contract IUniswapV3Pool"},{"name":"callAsset","type":"address","internalType":"address"},{"name":"callAssetDecimals","type":"uint8","internalType":"uint8"}],"outputs":[{"name":"","type":"uint256","internalType":"uint256"}],"stateMutability":"view"}],"bytecode":{"object":"0x6080604052348015600f57600080fd5b5061059c8061001f6000396000f3fe608060405234801561001057600080fd5b506004361061002b5760003560e01c8063c8824bd414610030575b600080fd5b61004361003e3660046103a0565b610055565b60405190815260200160405180910390f35b60408051600481526024810182526020810180516001600160e01b0316633850c7bd60e01b179052905160009182916001600160a01b03871691610098916103f1565b600060405180830381855afa9150503d80600081146100d3576040519150601f19603f3d011682016040523d82523d6000602084013e6100d8565b606091505b509150506000818060200190518101906100f29190610420565b90506101008682878761010c565b925050505b9392505050565b60006fffffffffffffffffffffffffffffffff6001600160a01b038516116101fe5760006101436001600160a01b03861680610453565b9050856001600160a01b0316630dfe16816040518163ffffffff1660e01b8152600401602060405180830381865afa158015610183573d6000803e3d6000fd5b505050506040513d601f19601f820116820180604052508101906101a79190610420565b6001600160a01b0316846001600160a01b0316146101dd576101d8600160c01b6101d285600a610557565b836102d6565b6101f6565b6101f6816101ec85600a610557565b600160c01b6102d6565b9150506102ce565b600061021d6001600160a01b03861680680100000000000000006102d6565b9050856001600160a01b0316630dfe16816040518163ffffffff1660e01b8152600401602060405180830381865afa15801561025d573d6000803e3d6000fd5b505050506040513d601f19601f820116820180604052508101906102819190610420565b6001600160a01b0316846001600160a01b0316146102b1576102ac600160801b6101d285600a610557565b6102ca565b6102ca816102c085600a610557565b600160801b6102d6565b9150505b949350505050565b600080806000198587098587029250828110838203039150508060000361030f576000841161030457600080fd5b508290049050610105565b80841161031b57600080fd5b6000848688096000868103871696879004966002600389028118808a02820302808a02820302808a02820302808a02820302808a02820302808a02909103029181900381900460010186841190950394909402919094039290920491909117919091029150509392505050565b6001600160a01b038116811461039d57600080fd5b50565b6000806000606084860312156103b557600080fd5b83356103c081610388565b925060208401356103d081610388565b9150604084013560ff811681146103e657600080fd5b809150509250925092565b6000825160005b8181101561041257602081860181015185830152016103f8565b506000920191825250919050565b60006020828403121561043257600080fd5b815161010581610388565b634e487b7160e01b600052601160045260246000fd5b808202811582820484141761046a5761046a61043d565b92915050565b6001815b60018411156104ab5780850481111561048f5761048f61043d565b600184161561049d57908102905b60019390931c928002610474565b935093915050565b6000826104c25750600161046a565b816104cf5750600061046a565b81600181146104e557600281146104ef5761050b565b600191505061046a565b60ff8411156105005761050061043d565b50506001821b61046a565b5060208310610133831016604e8410600b841016171561052e575081810a61046a565b61053b6000198484610470565b806000190482111561054f5761054f61043d565b029392505050565b600061010560ff8416836104b356fea2646970667358221220898aeecd4fcc25a996e5dc5c37835f63c36a5e6d916b8bde9458f628a79ba49e64736f6c634300081a0033","linkReferences":{}},"methodIdentifiers":{"getSpotPrice(address,address,uint8)":"c8824bd4"},"id":59}